{"contracts/AgentRegistry.sol":{"AgentRegistry":{"abi":[{"anonymous":false,"inputs":[{"indexed":true,"internalType":"uint256","name":"id","type":"uint256"},{"indexed":false,"internalType":"string","name":"name","type":"string"},{"indexed":false,"internalType":"string","name":"creator","type":"string"},{"indexed":false,"internalType":"uint256","name":"bornAt","type":"uint256"},{"indexed":false,"internalType":"address","name":"mintedBy","type":"address"}],"name":"AgentBorn","type":"event"},{"inputs":[{"internalType":"uint256","name":"","type":"uint256"}],"name":"agents","outputs":[{"internalType":"uint256","name":"id","type":"uint256"},{"internalType":"string","name":"name","type":"string"},{"internalType":"string","name":"creator","type":"string"},{"internalType":"uint256","name":"bornAt","type":"uint256"},{"internalType":"address","name":"mintedBy","type":"address"}],"stateMutability":"view","type":"function"},{"inputs":[{"internalType":"uint256","name":"id","type":"uint256"}],"name":"getAgent","outputs":[{"components":[{"internalType":"uint256","name":"id","type":"uint256"},{"internalType":"string","name":"name","type":"string"},{"internalType":"string","name":"creator","type":"string"},{"internalType":"uint256","name":"bornAt","type":"uint256"},{"internalType":"address","name":"mintedBy","type":"address"}],"internalType":"struct AgentRegistry.Agent","name":"","type":"tuple"}],"stateMutability":"view","type":"function"},{"inputs":[{"internalType":"string","name":"name","type":"string"},{"internalType":"string","name":"creator","type":"string"}],"name":"mint","outputs":[{"internalType":"uint256","name":"","type":"uint256"}],"stateMutability":"nonpayable","type":"function"},{"inputs":[{"internalType":"bytes32","name":"","type":"bytes32"}],"name":"nameTaken","outputs":[{"internalType":"bool","name":"","type":"bool"}],"stateMutability":"view","type":"function"},{"inputs":[],"name":"nextAgentId","outputs":[{"internalType":"uint256","name":"","type":"uint256"}],"stateMutability":"view","type":"function"},{"inputs":[],"name":"totalAgents","outputs":[{"internalType":"uint256","name":"","type":"uint256"}],"stateMutability":"view","type":"function"}],"evm":{"bytecode":{"linkReferences":{},"object":"60808060405234610016576108e1908161001c8239f35b600080fdfe608080604052600436101561001357600080fd5b60003560e01c9081632de5aaf7146105845750806330efc49814610061578063513856c8146104f85780636e935422146104c75780638aa0fdad146100845763c50537121461006157600080fd5b3461007f57600036600319011261007f576020600054604051908152f35b600080fd5b3461007f57604036600319011261007f5760043567ffffffffffffffff811161007f576100b5903690600401610815565b9060243567ffffffffffffffff811161007f576100d6903690600401610815565b6100e1368585610843565b602081519101209283600052600260205260ff6040600020541661048d576000549360405161010f81610731565b85815261011d368885610843565b6020820190815261012f368688610843565b6040830152426060830152336080830152866000526001602052604060002090825182555180519067ffffffffffffffff82116103a757819061017560018501546106f7565b601f811161043a575b50602090601f83116001146103c8576000926103bd575b50508160011b916000199060031b1c19161760018201555b604082015180519067ffffffffffffffff82116103a7576101d160028401546106f7565b601f8111610360575b50602090601f83116001146102ef576004939291600091836102e4575b50508160011b916000199060031b1c19161760028201555b606083015160038201550190608060018060a01b03910151166bffffffffffffffffffffffff60a01b82541617905560005260026020526040600020600160ff198254161790556000549460001986146102ce576102b785947f13ae329a99b6333eed51b463bf26b23c224ed13de6959bd21a8021d44937ba57946001602099016000556102aa60405195869560808752608087019161088a565b918483038a86015261088a565b4260408301523360608301520390a2604051908152f35b634e487b7160e01b600052601160045260246000fd5b015190508b806101f7565b90601f198316916002850160005260206000209260005b818110610348575091600193918560049796941061032f575b505050811b01600282015561020f565b015160001960f88460031b161c191690558b808061031f565b92936020600181928786015181550195019301610306565b600284016000526020600020601f840160051c8101602085106103a0575b601f830160051c820181106103945750506101da565b6000815560010161037e565b508061037e565b634e487b7160e01b600052604160045260246000fd5b015190508a80610195565b9250600184016000526020600020906000935b601f198416851061041f576001945083601f19811610610406575b505050811b0160018201556101ad565b015160001960f88460031b161c191690558a80806103f6565b818101518355602094850194600190930192909101906103db565b909150600184016000526020600020601f840160051c810160208510610486575b90849392915b601f830160051c8201811061047757505061017e565b60008155859450600101610461565b508061045b565b60405162461bcd60e51b81526020600482015260126024820152712730b6b29030b63932b0b23c903a30b5b2b760711b6044820152606490fd5b3461007f57602036600319011261007f576004356000526002602052602060ff604060002054166040519015158152f35b3461007f57602036600319011261007f576004356000526001602052604060002080546105276001830161076f565b916105346002820161076f565b610575600383015492600460018060a01b039101541691610567604051968796875260a0602088015260a08701906106b7565b9085820360408701526106b7565b91606084015260808301520390f35b3461007f576020908160031936011261007f5760006080600435926105a881610731565b82815260608582015260606040820152826060820152015260005481101561067b57600052600181526040600020604051906105e382610731565b8054825260046105f56001830161076f565b84840190815261066961060a6002850161076f565b604086019081526106566003860154956060880196875260018060a01b039586910154169360808801948552604051988998818a5251908901525160a0604089015260c08801906106b7565b9051868203601f190160608801526106b7565b92516080850152511660a08301520390f35b60405162461bcd60e51b81526004810183905260146024820152731059d95b9d08191bd95cc81b9bdd08195e1a5cdd60621b6044820152606490fd5b919082519283825260005b8481106106e3575050826000602080949584010152601f8019910116010190565b6020818301810151848301820152016106c2565b90600182811c92168015610727575b602083101461071157565b634e487b7160e01b600052602260045260246000fd5b91607f1691610706565b60a0810190811067ffffffffffffffff8211176103a757604052565b90601f8019910116810190811067ffffffffffffffff8211176103a757604052565b9060405191826000825492610783846106f7565b9081845260019485811690816000146107f257506001146107af575b50506107ad9250038361074d565b565b9093915060005260209081600020936000915b8183106107da5750506107ad9350820101388061079f565b855488840185015294850194879450918301916107c2565b9150506107ad94506020925060ff191682840152151560051b820101388061079f565b9181601f8401121561007f5782359167ffffffffffffffff831161007f576020838186019501011161007f57565b92919267ffffffffffffffff82116103a7576040519161086d601f8201601f19166020018461074d565b82948184528183011161007f578281602093846000960137010152565b908060209392818452848401376000828201840152601f01601f191601019056fea26469706673582212208f0811444a0dbfb2e4214dd58c05f391b432ce50b6b4c309a595bd15c1a55ee764736f6c63430008140033","opcodes":"PUSH1 0x80 DUP1 PUSH1 0x40 MSTORE CALLVALUE PUSH2 0x16 JUMPI PUSH2 0x8E1 SWAP1 DUP2 PUSH2 0x1C DUP3 CODECOPY RETURN JUMPDEST PUSH1 0x0 DUP1 REVERT INVALID PUSH1 0x80 DUP1 PUSH1 0x40 MSTORE PUSH1 0x4 CALLDATASIZE LT ISZERO PUSH2 0x13 JUMPI PUSH1 0x0 DUP1 REVERT JUMPDEST PUSH1 0x0 CALLDATALOAD PUSH1 0xE0 SHR SWAP1 DUP2 PUSH4 0x2DE5AAF7 EQ PUSH2 0x584 JUMPI POP DUP1 PUSH4 0x30EFC498 EQ PUSH2 0x61 JUMPI DUP1 PUSH4 0x513856C8 EQ PUSH2 0x4F8 JUMPI DUP1 PUSH4 0x6E935422 EQ PUSH2 0x4C7 JUMPI DUP1 PUSH4 0x8AA0FDAD EQ PUSH2 0x84 JUMPI PUSH4 0xC5053712 EQ PUSH2 0x61 JUMPI PUSH1 0x0 DUP1 REVERT JUMPDEST CALLVALUE PUSH2 0x7F JUMPI PUSH1 0x0 CALLDATASIZE PUSH1 0x3 NOT ADD SLT PUSH2 0x7F JUMPI PUSH1 0x20 PUSH1 0x0 SLOAD PUSH1 0x40 MLOAD SWAP1 DUP2 MSTORE RETURN JUMPDEST PUSH1 0x0 DUP1 REVERT JUMPDEST CALLVALUE PUSH2 0x7F JUMPI PUSH1 0x40 CALLDATASIZE PUSH1 0x3 NOT ADD SLT PUSH2 0x7F JUMPI PUSH1 0x4 CALLDATALOAD PUSH8 0xFFFFFFFFFFFFFFFF DUP2 GT PUSH2 0x7F JUMPI PUSH2 0xB5 SWAP1 CALLDATASIZE SWAP1 PUSH1 0x4 ADD PUSH2 0x815 JUMP JUMPDEST SWAP1 PUSH1 0x24 CALLDATALOAD PUSH8 0xFFFFFFFFFFFFFFFF DUP2 GT PUSH2 0x7F JUMPI PUSH2 0xD6 SWAP1 CALLDATASIZE SWAP1 PUSH1 0x4 ADD PUSH2 0x815 JUMP JUMPDEST PUSH2 0xE1 CALLDATASIZE DUP6 DUP6 PUSH2 0x843 JUMP JUMPDEST PUSH1 0x20 DUP2 MLOAD SWAP2 ADD KECCAK256 SWAP3 DUP4 PUSH1 0x0 MSTORE PUSH1 0x2 PUSH1 0x20 MSTORE PUSH1 0xFF PUSH1 0x40 PUSH1 0x0 KECCAK256 SLOAD AND PUSH2 0x48D JUMPI PUSH1 0x0 SLOAD SWAP4 PUSH1 0x40 MLOAD PUSH2 0x10F DUP2 PUSH2 0x731 JUMP JUMPDEST DUP6 DUP2 MSTORE PUSH2 0x11D CALLDATASIZE DUP9 DUP6 PUSH2 0x843 JUMP JUMPDEST PUSH1 0x20 DUP3 ADD SWAP1 DUP2 MSTORE PUSH2 0x12F CALLDATASIZE DUP7 DUP9 PUSH2 0x843 JUMP JUMPDEST PUSH1 0x40 DUP4 ADD MSTORE TIMESTAMP PUSH1 0x60 DUP4 ADD MSTORE CALLER PUSH1 0x80 DUP4 ADD MSTORE DUP7 PUSH1 0x0 MSTORE PUSH1 0x1 PUSH1 0x20 MSTORE PUSH1 0x40 PUSH1 0x0 KECCAK256 SWAP1 DUP3 MLOAD DUP3 SSTORE MLOAD DUP1 MLOAD SWAP1 PUSH8 0xFFFFFFFFFFFFFFFF DUP3 GT PUSH2 0x3A7 JUMPI DUP2 SWAP1 PUSH2 0x175 PUSH1 0x1 DUP6 ADD SLOAD PUSH2 0x6F7 JUMP JUMPDEST PUSH1 0x1F DUP2 GT PUSH2 0x43A JUMPI JUMPDEST POP PUSH1 0x20 SWAP1 PUSH1 0x1F DUP4 GT PUSH1 0x1 EQ PUSH2 0x3C8 JUMPI PUSH1 0x0 SWAP3 PUSH2 0x3BD JUMPI JUMPDEST POP POP DUP2 PUSH1 0x1 SHL SWAP2 PUSH1 0x0 NOT SWAP1 PUSH1 0x3 SHL SHR NOT AND OR PUSH1 0x1 DUP3 ADD SSTORE JUMPDEST PUSH1 0x40 DUP3 ADD MLOAD DUP1 MLOAD SWAP1 PUSH8 0xFFFFFFFFFFFFFFFF DUP3 GT PUSH2 0x3A7 JUMPI PUSH2 0x1D1 PUSH1 0x2 DUP5 ADD SLOAD PUSH2 0x6F7 JUMP JUMPDEST PUSH1 0x1F DUP2 GT PUSH2 0x360 JUMPI JUMPDEST POP PUSH1 0x20 SWAP1 PUSH1 0x1F DUP4 GT PUSH1 0x1 EQ PUSH2 0x2EF JUMPI PUSH1 0x4 SWAP4 SWAP3 SWAP2 PUSH1 0x0 SWAP2 DUP4 PUSH2 0x2E4 JUMPI JUMPDEST POP POP DUP2 PUSH1 0x1 SHL SWAP2 PUSH1 0x0 NOT SWAP1 PUSH1 0x3 SHL SHR NOT AND OR PUSH1 0x2 DUP3 ADD SSTORE JUMPDEST PUSH1 0x60 DUP4 ADD MLOAD PUSH1 0x3 DUP3 ADD SSTORE ADD SWAP1 PUSH1 0x80 PUSH1 0x1 DUP1 PUSH1 0xA0 SHL SUB SWAP2 ADD MLOAD AND PUSH12 0xFFFFFFFFFFFFFFFFFFFFFFFF PUSH1 0xA0 SHL DUP3 SLOAD AND OR SWAP1 SSTORE PUSH1 0x0 MSTORE PUSH1 0x2 PUSH1 0x20 MSTORE PUSH1 0x40 PUSH1 0x0 KECCAK256 PUSH1 0x1 PUSH1 0xFF NOT DUP3 SLOAD AND OR SWAP1 SSTORE PUSH1 0x0 SLOAD SWAP5 PUSH1 0x0 NOT DUP7 EQ PUSH2 0x2CE JUMPI PUSH2 0x2B7 DUP6 SWAP5 PUSH32 0x13AE329A99B6333EED51B463BF26B23C224ED13DE6959BD21A8021D44937BA57 SWAP5 PUSH1 0x1 PUSH1 0x20 SWAP10 ADD PUSH1 0x0 SSTORE PUSH2 0x2AA PUSH1 0x40 MLOAD SWAP6 DUP7 SWAP6 PUSH1 0x80 DUP8 MSTORE PUSH1 0x80 DUP8 ADD SWAP2 PUSH2 0x88A JUMP JUMPDEST SWAP2 DUP5 DUP4 SUB DUP11 DUP7 ADD MSTORE PUSH2 0x88A JUMP JUMPDEST TIMESTAMP PUSH1 0x40 DUP4 ADD MSTORE CALLER PUSH1 0x60 DUP4 ADD MSTORE SUB SWAP1 LOG2 PUSH1 0x40 MLOAD SWAP1 DUP2 MSTORE RETURN JUMPDEST PUSH4 0x4E487B71 PUSH1 0xE0 SHL PUSH1 0x0 MSTORE PUSH1 0x11 PUSH1 0x4 MSTORE PUSH1 0x24 PUSH1 0x0 REVERT JUMPDEST ADD MLOAD SWAP1 POP DUP12 DUP1 PUSH2 0x1F7 JUMP JUMPDEST SWAP1 PUSH1 0x1F NOT DUP4 AND SWAP2 PUSH1 0x2 DUP6 ADD PUSH1 0x0 MSTORE PUSH1 0x20 PUSH1 0x0 KECCAK256 SWAP3 PUSH1 0x0 JUMPDEST DUP2 DUP2 LT PUSH2 0x348 JUMPI POP SWAP2 PUSH1 0x1 SWAP4 SWAP2 DUP6 PUSH1 0x4 SWAP8 SWAP7 SWAP5 LT PUSH2 0x32F JUMPI JUMPDEST POP POP POP DUP2 SHL ADD PUSH1 0x2 DUP3 ADD SSTORE PUSH2 0x20F JUMP JUMPDEST ADD MLOAD PUSH1 0x0 NOT PUSH1 0xF8 DUP5 PUSH1 0x3 SHL AND SHR NOT AND SWAP1 SSTORE DUP12 DUP1 DUP1 PUSH2 0x31F JUMP JUMPDEST SWAP3 SWAP4 PUSH1 0x20 PUSH1 0x1 DUP2 SWAP3 DUP8 DUP7 ADD MLOAD DUP2 SSTORE ADD SWAP6 ADD SWAP4 ADD PUSH2 0x306 JUMP JUMPDEST PUSH1 0x2 DUP5 ADD PUSH1 0x0 MSTORE PUSH1 0x20 PUSH1 0x0 KECCAK256 PUSH1 0x1F DUP5 ADD PUSH1 0x5 SHR DUP2 ADD PUSH1 0x20 DUP6 LT PUSH2 0x3A0 JUMPI JUMPDEST PUSH1 0x1F DUP4 ADD PUSH1 0x5 SHR DUP3 ADD DUP2 LT PUSH2 0x394 JUMPI POP POP PUSH2 0x1DA JUMP JUMPDEST PUSH1 0x0 DUP2 SSTORE PUSH1 0x1 ADD PUSH2 0x37E JUMP JUMPDEST POP DUP1 PUSH2 0x37E JUMP JUMPDEST PUSH4 0x4E487B71 PUSH1 0xE0 SHL PUSH1 0x0 MSTORE PUSH1 0x41 PUSH1 0x4 MSTORE PUSH1 0x24 PUSH1 0x0 REVERT JUMPDEST ADD MLOAD SWAP1 POP DUP11 DUP1 PUSH2 0x195 JUMP JUMPDEST SWAP3 POP PUSH1 0x1 DUP5 ADD PUSH1 0x0 MSTORE PUSH1 0x20 PUSH1 0x0 KECCAK256 SWAP1 PUSH1 0x0 SWAP4 JUMPDEST PUSH1 0x1F NOT DUP5 AND DUP6 LT PUSH2 0x41F JUMPI PUSH1 0x1 SWAP5 POP DUP4 PUSH1 0x1F NOT DUP2 AND LT PUSH2 0x406 JUMPI JUMPDEST POP POP POP DUP2 SHL ADD PUSH1 0x1 DUP3 ADD SSTORE PUSH2 0x1AD JUMP JUMPDEST ADD MLOAD PUSH1 0x0 NOT PUSH1 0xF8 DUP5 PUSH1 0x3 SHL AND SHR NOT AND SWAP1 SSTORE DUP11 DUP1 DUP1 PUSH2 0x3F6 JUMP JUMPDEST DUP2 DUP2 ADD MLOAD DUP4 SSTORE PUSH1 0x20 SWAP5 DUP6 ADD SWAP5 PUSH1 0x1 SWAP1 SWAP4 ADD SWAP3 SWAP1 SWAP2 ADD SWAP1 PUSH2 0x3DB JUMP JUMPDEST SWAP1 SWAP2 POP PUSH1 0x1 DUP5 ADD PUSH1 0x0 MSTORE PUSH1 0x20 PUSH1 0x0 KECCAK256 PUSH1 0x1F DUP5 ADD PUSH1 0x5 SHR DUP2 ADD PUSH1 0x20 DUP6 LT PUSH2 0x486 JUMPI JUMPDEST SWAP1 DUP5 SWAP4 SWAP3 SWAP2 JUMPDEST PUSH1 0x1F DUP4 ADD PUSH1 0x5 SHR DUP3 ADD DUP2 LT PUSH2 0x477 JUMPI POP POP PUSH2 0x17E JUMP JUMPDEST PUSH1 0x0 DUP2 SSTORE DUP6 SWAP5 POP PUSH1 0x1 ADD PUSH2 0x461 JUMP JUMPDEST POP DUP1 PUSH2 0x45B JUMP JUMPDEST PUSH1 0x40 MLOAD PUSH3 0x461BCD PUSH1 0xE5 SHL DUP2 MSTORE PUSH1 0x20 PUSH1 0x4 DUP3 ADD MSTORE PUSH1 0x12 PUSH1 0x24 DUP3 ADD MSTORE PUSH18 0x2730B6B29030B63932B0B23C903A30B5B2B7 PUSH1 0x71 SHL PUSH1 0x44 DUP3 ADD MSTORE PUSH1 0x64 SWAP1 REVERT JUMPDEST CALLVALUE PUSH2 0x7F JUMPI PUSH1 0x20 CALLDATASIZE PUSH1 0x3 NOT ADD SLT PUSH2 0x7F JUMPI PUSH1 0x4 CALLDATALOAD PUSH1 0x0 MSTORE PUSH1 0x2 PUSH1 0x20 MSTORE PUSH1 0x20 PUSH1 0xFF PUSH1 0x40 PUSH1 0x0 KECCAK256 SLOAD AND PUSH1 0x40 MLOAD SWAP1 ISZERO ISZERO DUP2 MSTORE RETURN JUMPDEST CALLVALUE PUSH2 0x7F JUMPI PUSH1 0x20 CALLDATASIZE PUSH1 0x3 NOT ADD SLT PUSH2 0x7F JUMPI PUSH1 0x4 CALLDATALOAD PUSH1 0x0 MSTORE PUSH1 0x1 PUSH1 0x20 MSTORE PUSH1 0x40 PUSH1 0x0 KECCAK256 DUP1 SLOAD PUSH2 0x527 PUSH1 0x1 DUP4 ADD PUSH2 0x76F JUMP JUMPDEST SWAP2 PUSH2 0x534 PUSH1 0x2 DUP3 ADD PUSH2 0x76F JUMP JUMPDEST PUSH2 0x575 PUSH1 0x3 DUP4 ADD SLOAD SWAP3 PUSH1 0x4 PUSH1 0x1 DUP1 PUSH1 0xA0 SHL SUB SWAP2 ADD SLOAD AND SWAP2 PUSH2 0x567 PUSH1 0x40 MLOAD SWAP7 DUP8 SWAP7 DUP8 MSTORE PUSH1 0xA0 PUSH1 0x20 DUP9 ADD MSTORE PUSH1 0xA0 DUP8 ADD SWAP1 PUSH2 0x6B7 JUMP JUMPDEST SWAP1 DUP6 DUP3 SUB PUSH1 0x40 DUP8 ADD MSTORE PUSH2 0x6B7 JUMP JUMPDEST SWAP2 PUSH1 0x60 DUP5 ADD MSTORE PUSH1 0x80 DUP4 ADD MSTORE SUB SWAP1 RETURN JUMPDEST CALLVALUE PUSH2 0x7F JUMPI PUSH1 0x20 SWAP1 DUP2 PUSH1 0x3 NOT CALLDATASIZE ADD SLT PUSH2 0x7F JUMPI PUSH1 0x0 PUSH1 0x80 PUSH1 0x4 CALLDATALOAD SWAP3 PUSH2 0x5A8 DUP2 PUSH2 0x731 JUMP JUMPDEST DUP3 DUP2 MSTORE PUSH1 0x60 DUP6 DUP3 ADD MSTORE PUSH1 0x60 PUSH1 0x40 DUP3 ADD MSTORE DUP3 PUSH1 0x60 DUP3 ADD MSTORE ADD MSTORE PUSH1 0x0 SLOAD DUP2 LT ISZERO PUSH2 0x67B JUMPI PUSH1 0x0 MSTORE PUSH1 0x1 DUP2 MSTORE PUSH1 0x40 PUSH1 0x0 KECCAK256 PUSH1 0x40 MLOAD SWAP1 PUSH2 0x5E3 DUP3 PUSH2 0x731 JUMP JUMPDEST DUP1 SLOAD DUP3 MSTORE PUSH1 0x4 PUSH2 0x5F5 PUSH1 0x1 DUP4 ADD PUSH2 0x76F JUMP JUMPDEST DUP5 DUP5 ADD SWAP1 DUP2 MSTORE PUSH2 0x669 PUSH2 0x60A PUSH1 0x2 DUP6 ADD PUSH2 0x76F JUMP JUMPDEST PUSH1 0x40 DUP7 ADD SWAP1 DUP2 MSTORE PUSH2 0x656 PUSH1 0x3 DUP7 ADD SLOAD SWAP6 PUSH1 0x60 DUP9 ADD SWAP7 DUP8 MSTORE PUSH1 0x1 DUP1 PUSH1 0xA0 SHL SUB SWAP6 DUP7 SWAP2 ADD SLOAD AND SWAP4 PUSH1 0x80 DUP9 ADD SWAP5 DUP6 MSTORE PUSH1 0x40 MLOAD SWAP9 DUP10 SWAP9 DUP2 DUP11 MSTORE MLOAD SWAP1 DUP10 ADD MSTORE MLOAD PUSH1 0xA0 PUSH1 0x40 DUP10 ADD MSTORE PUSH1 0xC0 DUP9 ADD SWAP1 PUSH2 0x6B7 JUMP JUMPDEST SWAP1 MLOAD DUP7 DUP3 SUB PUSH1 0x1F NOT ADD PUSH1 0x60 DUP9 ADD MSTORE PUSH2 0x6B7 JUMP JUMPDEST SWAP3 MLOAD PUSH1 0x80 DUP6 ADD MSTORE MLOAD AND PUSH1 0xA0 DUP4 ADD MSTORE SUB SWAP1 RETURN JUMPDEST PUSH1 0x40 MLOAD PUSH3 0x461BCD PUSH1 0xE5 SHL DUP2 MSTORE PUSH1 0x4 DUP2 ADD DUP4 SWAP1 MSTORE PUSH1 0x14 PUSH1 0x24 DUP3 ADD MSTORE PUSH20 0x1059D95B9D08191BD95CC81B9BDD08195E1A5CDD PUSH1 0x62 SHL PUSH1 0x44 DUP3 ADD MSTORE PUSH1 0x64 SWAP1 REVERT JUMPDEST SWAP2 SWAP1 DUP3 MLOAD SWAP3 DUP4 DUP3 MSTORE PUSH1 0x0 JUMPDEST DUP5 DUP2 LT PUSH2 0x6E3 JUMPI POP POP DUP3 PUSH1 0x0 PUSH1 0x20 DUP1 SWAP5 SWAP6 DUP5 ADD ADD MSTORE PUSH1 0x1F DUP1 NOT SWAP2 ADD AND ADD ADD SWAP1 JUMP JUMPDEST PUSH1 0x20 DUP2 DUP4 ADD DUP2 ADD MLOAD DUP5 DUP4 ADD DUP3 ADD MSTORE ADD PUSH2 0x6C2 JUMP JUMPDEST SWAP1 PUSH1 0x1 DUP3 DUP2 SHR SWAP3 AND DUP1 ISZERO PUSH2 0x727 JUMPI JUMPDEST PUSH1 0x20 DUP4 LT EQ PUSH2 0x711 JUMPI JUMP JUMPDEST PUSH4 0x4E487B71 PUSH1 0xE0 SHL PUSH1 0x0 MSTORE PUSH1 0x22 PUSH1 0x4 MSTORE PUSH1 0x24 PUSH1 0x0 REVERT JUMPDEST SWAP2 PUSH1 0x7F AND SWAP2 PUSH2 0x706 JUMP JUMPDEST PUSH1 0xA0 DUP2 ADD SWAP1 DUP2 LT PUSH8 0xFFFFFFFFFFFFFFFF DUP3 GT OR PUSH2 0x3A7 JUMPI PUSH1 0x40 MSTORE JUMP JUMPDEST SWAP1 PUSH1 0x1F DUP1 NOT SWAP2 ADD AND DUP2 ADD SWAP1 DUP2 LT PUSH8 0xFFFFFFFFFFFFFFFF DUP3 GT OR PUSH2 0x3A7 JUMPI PUSH1 0x40 MSTORE JUMP JUMPDEST SWAP1 PUSH1 0x40 MLOAD SWAP2 DUP3 PUSH1 0x0 DUP3 SLOAD SWAP3 PUSH2 0x783 DUP5 PUSH2 0x6F7 JUMP JUMPDEST SWAP1 DUP2 DUP5 MSTORE PUSH1 0x1 SWAP5 DUP6 DUP2 AND SWAP1 DUP2 PUSH1 0x0 EQ PUSH2 0x7F2 JUMPI POP PUSH1 0x1 EQ PUSH2 0x7AF JUMPI JUMPDEST POP POP PUSH2 0x7AD SWAP3 POP SUB DUP4 PUSH2 0x74D JUMP JUMPDEST JUMP JUMPDEST SWAP1 SWAP4 SWAP2 POP PUSH1 0x0 MSTORE PUSH1 0x20 SWAP1 DUP2 PUSH1 0x0 KECCAK256 SWAP4 PUSH1 0x0 SWAP2 JUMPDEST DUP2 DUP4 LT PUSH2 0x7DA JUMPI POP POP PUSH2 0x7AD SWAP4 POP DUP3 ADD ADD CODESIZE DUP1 PUSH2 0x79F JUMP JUMPDEST DUP6 SLOAD DUP9 DUP5 ADD DUP6 ADD MSTORE SWAP5 DUP6 ADD SWAP5 DUP8 SWAP5 POP SWAP2 DUP4 ADD SWAP2 PUSH2 0x7C2 JUMP JUMPDEST SWAP2 POP POP PUSH2 0x7AD SWAP5 POP PUSH1 0x20 SWAP3 POP PUSH1 0xFF NOT AND DUP3 DUP5 ADD MSTORE ISZERO ISZERO PUSH1 0x5 SHL DUP3 ADD ADD CODESIZE DUP1 PUSH2 0x79F JUMP JUMPDEST SWAP2 DUP2 PUSH1 0x1F DUP5 ADD SLT ISZERO PUSH2 0x7F JUMPI DUP3 CALLDATALOAD SWAP2 PUSH8 0xFFFFFFFFFFFFFFFF DUP4 GT PUSH2 0x7F JUMPI PUSH1 0x20 DUP4 DUP2 DUP7 ADD SWAP6 ADD ADD GT PUSH2 0x7F JUMPI JUMP JUMPDEST SWAP3 SWAP2 SWAP3 PUSH8 0xFFFFFFFFFFFFFFFF DUP3 GT PUSH2 0x3A7 JUMPI PUSH1 0x40 MLOAD SWAP2 PUSH2 0x86D PUSH1 0x1F DUP3 ADD PUSH1 0x1F NOT AND PUSH1 0x20 ADD DUP5 PUSH2 0x74D JUMP JUMPDEST DUP3 SWAP5 DUP2 DUP5 MSTORE DUP2 DUP4 ADD GT PUSH2 0x7F JUMPI DUP3 DUP2 PUSH1 0x20 SWAP4 DUP5 PUSH1 0x0 SWAP7 ADD CALLDATACOPY ADD ADD MSTORE JUMP JUMPDEST SWAP1 DUP1 PUSH1 0x20 SWAP4 SWAP3 DUP2 DUP5 MSTORE DUP5 DUP5 ADD CALLDATACOPY PUSH1 0x0 DUP3 DUP3 ADD DUP5 ADD MSTORE PUSH1 0x1F ADD PUSH1 0x1F NOT AND ADD ADD SWAP1 JUMP INVALID LOG2 PUSH5 0x6970667358 0x22 SLT KECCAK256 DUP16 ADDMOD GT PREVRANDAO 0x4A 0xD 0xBF 0xB2 0xE4 0x21 0x4D 0xD5 DUP13 SDIV RETURN SWAP2 0xB4 ORIGIN 0xCE POP 0xB6 0xB4 0xC3 MULMOD 0xA5 SWAP6 0xBD ISZERO 0xC1 0xA5 0x5E 0xE7 PUSH5 0x736F6C6343 STOP ADDMOD EQ STOP CALLER "},"methodIdentifiers":{"agents(uint256)":"513856c8","getAgent(uint256)":"2de5aaf7","mint(string,string)":"8aa0fdad","nameTaken(bytes32)":"6e935422","nextAgentId()":"30efc498","totalAgents()":"c5053712"}}}}}