{"contracts/megaeth/assets/AgentAssets.sol":{"AgentAssets":{"abi":[{"inputs":[{"internalType":"address","name":"coreAddress","type":"address"}],"stateMutability":"nonpayable","type":"constructor"},{"anonymous":false,"inputs":[{"indexed":true,"internalType":"uint256","name":"assetId","type":"uint256"},{"indexed":true,"internalType":"uint256","name":"agentId","type":"uint256"},{"indexed":false,"internalType":"string","name":"name","type":"string"},{"indexed":false,"internalType":"string","name":"mimeType","type":"string"},{"indexed":false,"internalType":"uint256","name":"size","type":"uint256"}],"name":"AssetCreated","type":"event"},{"anonymous":false,"inputs":[{"indexed":true,"internalType":"uint256","name":"agentId","type":"uint256"},{"indexed":true,"internalType":"uint256","name":"assetId","type":"uint256"}],"name":"PrimaryPfpSet","type":"event"},{"inputs":[{"internalType":"uint256","name":"","type":"uint256"},{"internalType":"uint256","name":"","type":"uint256"}],"name":"agentAssets","outputs":[{"internalType":"uint256","name":"","type":"uint256"}],"stateMutability":"view","type":"function"},{"inputs":[{"internalType":"uint256","name":"","type":"uint256"}],"name":"agentPrimaryPfp","outputs":[{"internalType":"uint256","name":"","type":"uint256"}],"stateMutability":"view","type":"function"},{"inputs":[{"internalType":"uint256","name":"","type":"uint256"}],"name":"assets","outputs":[{"internalType":"uint256","name":"id","type":"uint256"},{"internalType":"uint256","name":"agentId","type":"uint256"},{"internalType":"string","name":"name","type":"string"},{"internalType":"string","name":"mimeType","type":"string"},{"internalType":"uint256","name":"totalSize","type":"uint256"},{"internalType":"uint256","name":"createdAt","type":"uint256"},{"internalType":"bool","name":"exists","type":"bool"}],"stateMutability":"view","type":"function"},{"inputs":[],"name":"core","outputs":[{"internalType":"contract AgentCore","name":"","type":"address"}],"stateMutability":"view","type":"function"},{"inputs":[{"internalType":"uint256","name":"agentId","type":"uint256"}],"name":"getAgentAssets","outputs":[{"internalType":"uint256[]","name":"","type":"uint256[]"}],"stateMutability":"view","type":"function"},{"inputs":[{"internalType":"uint256","name":"assetId","type":"uint256"}],"name":"getAsset","outputs":[{"components":[{"internalType":"uint256","name":"id","type":"uint256"},{"internalType":"uint256","name":"agentId","type":"uint256"},{"internalType":"string","name":"name","type":"string"},{"internalType":"string","name":"mimeType","type":"string"},{"internalType":"address[]","name":"chunks","type":"address[]"},{"internalType":"uint256","name":"totalSize","type":"uint256"},{"internalType":"uint256","name":"createdAt","type":"uint256"},{"internalType":"bool","name":"exists","type":"bool"}],"internalType":"struct AgentAssets.Asset","name":"","type":"tuple"}],"stateMutability":"view","type":"function"},{"inputs":[{"internalType":"uint256","name":"assetId","type":"uint256"}],"name":"getAssetData","outputs":[{"internalType":"bytes","name":"","type":"bytes"}],"stateMutability":"view","type":"function"},{"inputs":[{"internalType":"uint256","name":"agentId","type":"uint256"}],"name":"getPrimaryPfp","outputs":[{"internalType":"uint256","name":"","type":"uint256"}],"stateMutability":"view","type":"function"},{"inputs":[{"internalType":"uint256","name":"agentId","type":"uint256"}],"name":"getPrimaryPfpData","outputs":[{"internalType":"bytes","name":"","type":"bytes"},{"internalType":"string","name":"","type":"string"}],"stateMutability":"view","type":"function"},{"inputs":[],"name":"nextAssetId","outputs":[{"internalType":"uint256","name":"","type":"uint256"}],"stateMutability":"view","type":"function"},{"inputs":[{"internalType":"uint256","name":"agentId","type":"uint256"},{"internalType":"uint256","name":"assetId","type":"uint256"}],"name":"setPrimaryPfp","outputs":[],"stateMutability":"nonpayable","type":"function"},{"inputs":[{"internalType":"uint256","name":"agentId","type":"uint256"},{"internalType":"string","name":"name","type":"string"},{"internalType":"string","name":"mimeType","type":"string"},{"internalType":"bytes","name":"data","type":"bytes"}],"name":"storeAsset","outputs":[{"internalType":"uint256","name":"","type":"uint256"}],"stateMutability":"nonpayable","type":"function"}],"evm":{"bytecode":{"linkReferences":{},"object":"60a03461007a57601f6114b438819003918201601f19168301916001600160401b0383118484101761007f5780849260209460405283398101031261007a57516001600160a01b0381169081900361007a5760805260405161141e90816100968239608051818181610197015281816108b801526109ad0152f35b600080fd5b634e487b7160e01b600052604160045260246000fdfe6080604052600436101561001257600080fd5b60003560e01c80633b22ac6f146100d25780636a422313146100cd57806373623c69146100af5780637d1108f5146100c857806385adc70c146100c35780638ed91318146100be578063b036cd18146100b9578063cf35bdd0146100b4578063d982eb48146100af578063eac8f5b8146100aa578063f2f4eb26146100a55763f473d83b146100a057600080fd5b610915565b6108a2565b610817565b6102a4565b6106b1565b6104c9565b610470565b610429565b61032c565b610156565b61010a565b634e487b7160e01b600052603260045260246000fd5b80548210156101055760005260206000200190600090565b6100d7565b346101515760403660031901126101515760243560043560005260026020526040600020805482101561015157602091610143916100ed565b90546040519160031b1c8152f35b600080fd5b3461015157604080600319360112610151578051632de5aaf760e01b8152600480359082018190526000926024803593906001600160a01b039086908390817f000000000000000000000000000000000000000000000000000000000000000085165afa91821561029f576101d9928491889161027d575b500151163314610cb4565b82845260016020526101f360ff60078387200154166110a5565b828452600160205281600182862001540361024657508161021e826000526003602052604060002090565b557f11938771f0164995df4c20ec6499c0a25db922262e84dce18965fc292441ad998380a380f35b5162461bcd60e51b8152602060048201526011602482015270139bdd081859d95b9d09dcc8185cdcd95d607a1b6044820152606490fd5b61029991503d808a833e61029181836105e9565b810190610bff565b386101ce565b610ca8565b346101515760203660031901126101515760043560005260036020526020604060002054604051908152f35b60005b8381106102e35750506000910152565b81810151838201526020016102d3565b9060209161030c815180928185528580860191016102d0565b601f01601f1916010190565b9060206103299281815201906102f3565b90565b3461015157602036600319011261015157600060043581526001806020526040822061036461035f600783015460ff1690565b6110a5565b610371600582015461125c565b918360048193018054935b84811061039557604051806103918882610318565b0390f35b6103bf6103ba6103a583856100ed565b905460039190911b1c6001600160a01b031690565b611295565b8484815b6103d9575b5050506103d490610d08565b61037c565b825181101561042457806104016103f361041e9386611284565b516001600160f81b03191690565b9a61041861040e82610d08565b9c891a918c611284565b53610d08565b816103c3565b6103c8565b346101515760203660031901126101515761046261039161044b60043561130d565b6040929192519384936040855260408501906102f3565b9083820360208501526102f3565b34610151576000366003190112610151576020600054604051908152f35b6020908160408183019282815285518094520193019160005b8281106104b5575050505090565b8351855293810193928101926001016104a7565b34610151576020806003193601126101515760043560005260028152604060002090604051908181845491828152019360005281600020916000905b828210610528576103918561051c818903826105e9565b6040519182918261048e565b835486529485019460019384019390910190610505565b90600182811c9216801561056f575b602083101461055957565b634e487b7160e01b600052602260045260246000fd5b91607f169161054e565b634e487b7160e01b600052604160045260246000fd5b610100810190811067ffffffffffffffff8211176105ac57604052565b610579565b60c0810190811067ffffffffffffffff8211176105ac57604052565b6020810190811067ffffffffffffffff8211176105ac57604052565b90601f8019910116810190811067ffffffffffffffff8211176105ac57604052565b906040519182600082549261061f8461053f565b90818452600194858116908160001461068e575060011461064b575b5050610649925003836105e9565b565b9093915060005260209081600020936000915b8183106106765750506106499350820101388061063b565b8554888401850152948501948794509183019161065e565b91505061064994506020925060ff191682840152151560051b820101388061063b565b34610151576020366003190112610151576004356000526001602052604060002080546001820154916106e66002820161060b565b6106f26003830161060b565b9161073960058201549361072b60ff6007600686015495015416946040519889988952602089015260e0604089015260e08801906102f3565b9086820360608801526102f3565b92608085015260a0840152151560c08301520390f35b90815180825260208080930193019160005b82811061076f575050505090565b83516001600160a01b031685529381019392810192600101610761565b61032990602081528251602082015260208301516040820152604083015160e06107f86107c7610100938460608701526101208601906102f3565b6107e3606088015191601f1992838883030160808901526102f3565b906080880151908683030160a087015261074f565b9460a081015160c085015260c081015182850152015191019015159052565b3461015157602036600319011261015157610391610896604060e060043582516108408161058f565b6000928184809352826020820152606086820152606080820152606060808201528260a08201528260c08201520152808252600160205261088960ff60078585200154166110a5565b81526001602052206111d1565b6040519182918261078c565b34610151576000366003190112610151576040517f00000000000000000000000000000000000000000000000000000000000000006001600160a01b03168152602090f35b9181601f840112156101515782359167ffffffffffffffff8311610151576020838186019501011161015157565b346101515760803660031901126101515760043567ffffffffffffffff6024358181116101515761094a9036906004016108e7565b604493919335838111610151576109659036906004016108e7565b949093606435908111610151576109809036906004016108e7565b604051632de5aaf760e01b815260048101869052919660009691929091906001600160a01b0388826024817f000000000000000000000000000000000000000000000000000000000000000085165afa91821561029f576109ef926040918b91610b6c57500151163314610cb4565b8654966109fb88610d08565b8155610a19610a11610a0c86610d1c565b610d2b565b615dc0900490565b610a2281610d52565b915b818110610b03576103918a8a817f7ae2169eda7d6d6002bac56b65d2ed17df9ea129c81b5ed7d116f80aeecec60e8c8c610af08d8d8d610ac78e610a66610b80565b908a82528b6020830152610a7b368a8a610db3565b6040830152610a8b368686610db3565b606083015260808201528460a08201524260c0820152610aae60e0820160019052565b610ac28a6000526001602052604060002090565b610f29565b610ae488610adf8b6000526002602052604060002090565b611020565b60405195869586611076565b0390a36040519081529081906020820190565b80610b59610b40610b3b610b348f610b1d610b5e97610d84565b8c610b2782610d1c565b92818411610b6357610d9b565b3691610db3565b6110e8565b610b4a8387610dea565b6001600160a01b039091169052565b610d08565b610a24565b92508092610d9b565b61029991503d808d833e61029181836105e9565b604051906106498261058f565b67ffffffffffffffff81116105ac57601f01601f191660200190565b90929192610bb681610b8d565b91610bc460405193846105e9565b8294828452828201116101515760206106499301906102d0565b51906001600160a01b038216820361015157565b5190811515820361015157565b9060208282031261015157815167ffffffffffffffff9283821161015157019060c0828203126101515760405192610c36846105b1565b8251845260208301519081116101515782019181601f8401121561015157610c6960a092846020610ca096519101610ba9565b6020850152610c7a60408201610bde565b6040850152610c8b60608201610bde565b60608501526080810151608085015201610bf2565b60a082015290565b6040513d6000823e3d90fd5b15610cbb57565b60405162461bcd60e51b815260206004820152600f60248201526e2737ba1030b3b2b73a1037bbb732b960891b6044820152606490fd5b634e487b7160e01b600052601160045260246000fd5b6000198114610d175760010190565b610cf2565b90615dc08201809211610d1757565b600019810191908211610d1757565b67ffffffffffffffff81116105ac5760051b60200190565b90610d5c82610d3a565b610d6960405191826105e9565b8281528092610d7a601f1991610d3a565b0190602036910137565b90615dc091828102928184041490151715610d1757565b90939293848311610151578411610151578101920390565b929192610dbf82610b8d565b91610dcd60405193846105e9565b829481845281830111610151578281602093846000960137010152565b80518210156101055760209160051b010190565b818110610e09575050565b60008155600101610dfe565b9190601f8111610e2457505050565b610649926000526020600020906020601f840160051c83019310610e50575b601f0160051c0190610dfe565b9091508190610e43565b919091825167ffffffffffffffff81116105ac57610e8281610e7c845461053f565b84610e15565b602080601f8311600114610ebe575081929394600092610eb3575b50508160011b916000199060031b1c1916179055565b015190503880610e9d565b90601f19831695610ed485600052602060002090565b926000905b888210610f1157505083600195969710610ef8575b505050811b019055565b015160001960f88460031b161c19169055388080610eee565b80600185968294968601518155019501930190610ed9565b90805182556020808201519060019182850155610f4d604084015160028601610e5a565b610f5e606084015160038601610e5a565b6004840160808401519182519267ffffffffffffffff84116105ac57600160401b84116105ac5781908354858555808610611003575b500191600052806000209060005b848110610fe957505050505050906007610fd660e08460a0610649960151600586015560c081015160068601550151151590565b91019060ff801983541691151516179055565b83516001600160a01b031683820155928101928501610fa2565b61101a908560005286846000209182019101610dfe565b38610f94565b8054600160401b8110156105ac5761103d916001820181556100ed565b819291549060031b91821b91600019901b1916179055565b908060209392818452848401376000828201840152601f01601f1916010190565b959493611092604094926110a09460608a5260608a0191611055565b918783036020890152611055565b930152565b156110ac57565b60405162461bcd60e51b8152602060048201526014602482015273105cdcd95d08191bd95cc81b9bdd08195e1a5cdd60621b6044820152606490fd5b60405161111d60218260208101946000865261110d81518092602086860191016102d0565b81010360018101845201826105e9565b51906000f06001600160a01b038116156111345790565b60405162461bcd60e51b815260206004820152601a60248201527f5353544f5245323a206465706c6f796d656e74206661696c65640000000000006044820152606490fd5b9060405191828154918282526020928383019160005283600020936000905b8282106111ae57505050610649925003836105e9565b85546001600160a01b031684526001958601958895509381019390910190611198565b9061064961124060076111e2610b80565b9480548652600181015460208701526111fd6002820161060b565b604087015261120e6003820161060b565b606087015261121f60048201611179565b6080870152600581015460a0870152600681015460c0870152015460ff1690565b151560e0840152565b60405190611256826105cd565b60008252565b9061126682610b8d565b61127360405191826105e9565b8281528092610d7a601f1991610b8d565b908151811015610105570160200190565b803b60018111156112c1576000198101908111610d175760016112b78261125c565b9260208401903c90565b50506040516112cf816105cd565b6000815290565b6020818303126101515780519067ffffffffffffffff821161015157019080601f8301121561015157815161032992602001610ba9565b611321906000526003602052604060002090565b5490811580156113c0575b6113ad576113696000611349846000526001602052604060002090565b9360405180938192637d1108f560e01b8352600483019190602083019252565b0381305afa90811561029f576103299160039160009161138c575b50930161060b565b6113a7913d8091833e61139f81836105e9565b8101906112d6565b38611384565b90506113b7611249565b90610329611249565b506113e360ff60076113dc856000526001602052604060002090565b0154161590565b61132c56fea2646970667358221220ff390d067e0903b00c44de1577a1c5b49bd873fe556c06efa1d312e8497ca49d64736f6c63430008140033","opcodes":"PUSH1 0xA0 CALLVALUE PUSH2 0x7A JUMPI PUSH1 0x1F PUSH2 0x14B4 CODESIZE DUP2 SWAP1 SUB SWAP2 DUP3 ADD PUSH1 0x1F NOT AND DUP4 ADD SWAP2 PUSH1 0x1 PUSH1 0x1 PUSH1 0x40 SHL SUB DUP4 GT DUP5 DUP5 LT OR PUSH2 0x7F JUMPI DUP1 DUP5 SWAP3 PUSH1 0x20 SWAP5 PUSH1 0x40 MSTORE DUP4 CODECOPY DUP2 ADD SUB SLT PUSH2 0x7A JUMPI MLOAD PUSH1 0x1 PUSH1 0x1 PUSH1 0xA0 SHL SUB DUP2 AND SWAP1 DUP2 SWAP1 SUB PUSH2 0x7A JUMPI PUSH1 0x80 MSTORE PUSH1 0x40 MLOAD PUSH2 0x141E SWAP1 DUP2 PUSH2 0x96 DUP3 CODECOPY PUSH1 0x80 MLOAD DUP2 DUP2 DUP2 PUSH2 0x197 ADD MSTORE DUP2 DUP2 PUSH2 0x8B8 ADD MSTORE PUSH2 0x9AD ADD MSTORE RETURN JUMPDEST PUSH1 0x0 DUP1 REVERT JUMPDEST PUSH4 0x4E487B71 PUSH1 0xE0 SHL PUSH1 0x0 MSTORE PUSH1 0x41 PUSH1 0x4 MSTORE PUSH1 0x24 PUSH1 0x0 REVERT INVALID PUSH1 0x80 PUSH1 0x40 MSTORE PUSH1 0x4 CALLDATASIZE LT ISZERO PUSH2 0x12 JUMPI PUSH1 0x0 DUP1 REVERT JUMPDEST PUSH1 0x0 CALLDATALOAD PUSH1 0xE0 SHR DUP1 PUSH4 0x3B22AC6F EQ PUSH2 0xD2 JUMPI DUP1 PUSH4 0x6A422313 EQ PUSH2 0xCD JUMPI DUP1 PUSH4 0x73623C69 EQ PUSH2 0xAF JUMPI DUP1 PUSH4 0x7D1108F5 EQ PUSH2 0xC8 JUMPI DUP1 PUSH4 0x85ADC70C EQ PUSH2 0xC3 JUMPI DUP1 PUSH4 0x8ED91318 EQ PUSH2 0xBE JUMPI DUP1 PUSH4 0xB036CD18 EQ PUSH2 0xB9 JUMPI DUP1 PUSH4 0xCF35BDD0 EQ PUSH2 0xB4 JUMPI DUP1 PUSH4 0xD982EB48 EQ PUSH2 0xAF JUMPI DUP1 PUSH4 0xEAC8F5B8 EQ PUSH2 0xAA JUMPI DUP1 PUSH4 0xF2F4EB26 EQ PUSH2 0xA5 JUMPI PUSH4 0xF473D83B EQ PUSH2 0xA0 JUMPI PUSH1 0x0 DUP1 REVERT JUMPDEST PUSH2 0x915 JUMP JUMPDEST PUSH2 0x8A2 JUMP JUMPDEST PUSH2 0x817 JUMP JUMPDEST PUSH2 0x2A4 JUMP JUMPDEST PUSH2 0x6B1 JUMP JUMPDEST PUSH2 0x4C9 JUMP JUMPDEST PUSH2 0x470 JUMP JUMPDEST PUSH2 0x429 JUMP JUMPDEST PUSH2 0x32C JUMP JUMPDEST PUSH2 0x156 JUMP JUMPDEST PUSH2 0x10A JUMP JUMPDEST PUSH4 0x4E487B71 PUSH1 0xE0 SHL PUSH1 0x0 MSTORE PUSH1 0x32 PUSH1 0x4 MSTORE PUSH1 0x24 PUSH1 0x0 REVERT JUMPDEST DUP1 SLOAD DUP3 LT ISZERO PUSH2 0x105 JUMPI PUSH1 0x0 MSTORE PUSH1 0x20 PUSH1 0x0 KECCAK256 ADD SWAP1 PUSH1 0x0 SWAP1 JUMP JUMPDEST PUSH2 0xD7 JUMP JUMPDEST CALLVALUE PUSH2 0x151 JUMPI PUSH1 0x40 CALLDATASIZE PUSH1 0x3 NOT ADD SLT PUSH2 0x151 JUMPI PUSH1 0x24 CALLDATALOAD PUSH1 0x4 CALLDATALOAD PUSH1 0x0 MSTORE PUSH1 0x2 PUSH1 0x20 MSTORE PUSH1 0x40 PUSH1 0x0 KECCAK256 DUP1 SLOAD DUP3 LT ISZERO PUSH2 0x151 JUMPI PUSH1 0x20 SWAP2 PUSH2 0x143 SWAP2 PUSH2 0xED JUMP JUMPDEST SWAP1 SLOAD PUSH1 0x40 MLOAD SWAP2 PUSH1 0x3 SHL SHR DUP2 MSTORE RETURN JUMPDEST PUSH1 0x0 DUP1 REVERT JUMPDEST CALLVALUE PUSH2 0x151 JUMPI PUSH1 0x40 DUP1 PUSH1 0x3 NOT CALLDATASIZE ADD SLT PUSH2 0x151 JUMPI DUP1 MLOAD PUSH4 0x2DE5AAF7 PUSH1 0xE0 SHL DUP2 MSTORE PUSH1 0x4 DUP1 CALLDATALOAD SWAP1 DUP3 ADD DUP2 SWAP1 MSTORE PUSH1 0x0 SWAP3 PUSH1 0x24 DUP1 CALLDATALOAD SWAP4 SWAP1 PUSH1 0x1 PUSH1 0x1 PUSH1 0xA0 SHL SUB SWAP1 DUP7 SWAP1 DUP4 SWAP1 DUP2 PUSH32 0x0 DUP6 AND GAS STATICCALL SWAP2 DUP3 ISZERO PUSH2 0x29F JUMPI PUSH2 0x1D9 SWAP3 DUP5 SWAP2 DUP9 SWAP2 PUSH2 0x27D JUMPI JUMPDEST POP ADD MLOAD AND CALLER EQ PUSH2 0xCB4 JUMP JUMPDEST DUP3 DUP5 MSTORE PUSH1 0x1 PUSH1 0x20 MSTORE PUSH2 0x1F3 PUSH1 0xFF PUSH1 0x7 DUP4 DUP8 KECCAK256 ADD SLOAD AND PUSH2 0x10A5 JUMP JUMPDEST DUP3 DUP5 MSTORE PUSH1 0x1 PUSH1 0x20 MSTORE DUP2 PUSH1 0x1 DUP3 DUP7 KECCAK256 ADD SLOAD SUB PUSH2 0x246 JUMPI POP DUP2 PUSH2 0x21E DUP3 PUSH1 0x0 MSTORE PUSH1 0x3 PUSH1 0x20 MSTORE PUSH1 0x40 PUSH1 0x0 KECCAK256 SWAP1 JUMP JUMPDEST SSTORE PUSH32 0x11938771F0164995DF4C20EC6499C0A25DB922262E84DCE18965FC292441AD99 DUP4 DUP1 LOG3 DUP1 RETURN JUMPDEST MLOAD PUSH3 0x461BCD PUSH1 0xE5 SHL DUP2 MSTORE PUSH1 0x20 PUSH1 0x4 DUP3 ADD MSTORE PUSH1 0x11 PUSH1 0x24 DUP3 ADD MSTORE PUSH17 0x139BDD081859D95B9D09DCC8185CDCD95D PUSH1 0x7A SHL PUSH1 0x44 DUP3 ADD MSTORE PUSH1 0x64 SWAP1 REVERT JUMPDEST PUSH2 0x299 SWAP2 POP RETURNDATASIZE DUP1 DUP11 DUP4 RETURNDATACOPY PUSH2 0x291 DUP2 DUP4 PUSH2 0x5E9 JUMP JUMPDEST DUP2 ADD SWAP1 PUSH2 0xBFF JUMP JUMPDEST CODESIZE PUSH2 0x1CE JUMP JUMPDEST PUSH2 0xCA8 JUMP JUMPDEST CALLVALUE PUSH2 0x151 JUMPI PUSH1 0x20 CALLDATASIZE PUSH1 0x3 NOT ADD SLT PUSH2 0x151 JUMPI PUSH1 0x4 CALLDATALOAD PUSH1 0x0 MSTORE PUSH1 0x3 PUSH1 0x20 MSTORE PUSH1 0x20 PUSH1 0x40 PUSH1 0x0 KECCAK256 SLOAD PUSH1 0x40 MLOAD SWAP1 DUP2 MSTORE RETURN JUMPDEST PUSH1 0x0 JUMPDEST DUP4 DUP2 LT PUSH2 0x2E3 JUMPI POP POP PUSH1 0x0 SWAP2 ADD MSTORE JUMP JUMPDEST DUP2 DUP2 ADD MLOAD DUP4 DUP3 ADD MSTORE PUSH1 0x20 ADD PUSH2 0x2D3 JUMP JUMPDEST SWAP1 PUSH1 0x20 SWAP2 PUSH2 0x30C DUP2 MLOAD DUP1 SWAP3 DUP2 DUP6 MSTORE DUP6 DUP1 DUP7 ADD SWAP2 ADD PUSH2 0x2D0 JUMP JUMPDEST PUSH1 0x1F ADD PUSH1 0x1F NOT AND ADD ADD SWAP1 JUMP JUMPDEST SWAP1 PUSH1 0x20 PUSH2 0x329 SWAP3 DUP2 DUP2 MSTORE ADD SWAP1 PUSH2 0x2F3 JUMP JUMPDEST SWAP1 JUMP JUMPDEST CALLVALUE PUSH2 0x151 JUMPI PUSH1 0x20 CALLDATASIZE PUSH1 0x3 NOT ADD SLT PUSH2 0x151 JUMPI PUSH1 0x0 PUSH1 0x4 CALLDATALOAD DUP2 MSTORE PUSH1 0x1 DUP1 PUSH1 0x20 MSTORE PUSH1 0x40 DUP3 KECCAK256 PUSH2 0x364 PUSH2 0x35F PUSH1 0x7 DUP4 ADD SLOAD PUSH1 0xFF AND SWAP1 JUMP JUMPDEST PUSH2 0x10A5 JUMP JUMPDEST PUSH2 0x371 PUSH1 0x5 DUP3 ADD SLOAD PUSH2 0x125C JUMP JUMPDEST SWAP2 DUP4 PUSH1 0x4 DUP2 SWAP4 ADD DUP1 SLOAD SWAP4 JUMPDEST DUP5 DUP2 LT PUSH2 0x395 JUMPI PUSH1 0x40 MLOAD DUP1 PUSH2 0x391 DUP9 DUP3 PUSH2 0x318 JUMP JUMPDEST SUB SWAP1 RETURN JUMPDEST PUSH2 0x3BF PUSH2 0x3BA PUSH2 0x3A5 DUP4 DUP6 PUSH2 0xED JUMP JUMPDEST SWAP1 SLOAD PUSH1 0x3 SWAP2 SWAP1 SWAP2 SHL SHR PUSH1 0x1 PUSH1 0x1 PUSH1 0xA0 SHL SUB AND SWAP1 JUMP JUMPDEST PUSH2 0x1295 JUMP JUMPDEST DUP5 DUP5 DUP2 JUMPDEST PUSH2 0x3D9 JUMPI JUMPDEST POP POP POP PUSH2 0x3D4 SWAP1 PUSH2 0xD08 JUMP JUMPDEST PUSH2 0x37C JUMP JUMPDEST DUP3 MLOAD DUP2 LT ISZERO PUSH2 0x424 JUMPI DUP1 PUSH2 0x401 PUSH2 0x3F3 PUSH2 0x41E SWAP4 DUP7 PUSH2 0x1284 JUMP JUMPDEST MLOAD PUSH1 0x1 PUSH1 0x1 PUSH1 0xF8 SHL SUB NOT AND SWAP1 JUMP JUMPDEST SWAP11 PUSH2 0x418 PUSH2 0x40E DUP3 PUSH2 0xD08 JUMP JUMPDEST SWAP13 DUP10 BYTE SWAP2 DUP13 PUSH2 0x1284 JUMP JUMPDEST MSTORE8 PUSH2 0xD08 JUMP JUMPDEST DUP2 PUSH2 0x3C3 JUMP JUMPDEST PUSH2 0x3C8 JUMP JUMPDEST CALLVALUE PUSH2 0x151 JUMPI PUSH1 0x20 CALLDATASIZE PUSH1 0x3 NOT ADD SLT PUSH2 0x151 JUMPI PUSH2 0x462 PUSH2 0x391 PUSH2 0x44B PUSH1 0x4 CALLDATALOAD PUSH2 0x130D JUMP JUMPDEST PUSH1 0x40 SWAP3 SWAP2 SWAP3 MLOAD SWAP4 DUP5 SWAP4 PUSH1 0x40 DUP6 MSTORE PUSH1 0x40 DUP6 ADD SWAP1 PUSH2 0x2F3 JUMP JUMPDEST SWAP1 DUP4 DUP3 SUB PUSH1 0x20 DUP6 ADD MSTORE PUSH2 0x2F3 JUMP JUMPDEST CALLVALUE PUSH2 0x151 JUMPI PUSH1 0x0 CALLDATASIZE PUSH1 0x3 NOT ADD SLT PUSH2 0x151 JUMPI PUSH1 0x20 PUSH1 0x0 SLOAD PUSH1 0x40 MLOAD SWAP1 DUP2 MSTORE RETURN JUMPDEST PUSH1 0x20 SWAP1 DUP2 PUSH1 0x40 DUP2 DUP4 ADD SWAP3 DUP3 DUP2 MSTORE DUP6 MLOAD DUP1 SWAP5 MSTORE ADD SWAP4 ADD SWAP2 PUSH1 0x0 JUMPDEST DUP3 DUP2 LT PUSH2 0x4B5 JUMPI POP POP POP POP SWAP1 JUMP JUMPDEST DUP4 MLOAD DUP6 MSTORE SWAP4 DUP2 ADD SWAP4 SWAP3 DUP2 ADD SWAP3 PUSH1 0x1 ADD PUSH2 0x4A7 JUMP JUMPDEST CALLVALUE PUSH2 0x151 JUMPI PUSH1 0x20 DUP1 PUSH1 0x3 NOT CALLDATASIZE ADD SLT PUSH2 0x151 JUMPI PUSH1 0x4 CALLDATALOAD PUSH1 0x0 MSTORE PUSH1 0x2 DUP2 MSTORE PUSH1 0x40 PUSH1 0x0 KECCAK256 SWAP1 PUSH1 0x40 MLOAD SWAP1 DUP2 DUP2 DUP5 SLOAD SWAP2 DUP3 DUP2 MSTORE ADD SWAP4 PUSH1 0x0 MSTORE DUP2 PUSH1 0x0 KECCAK256 SWAP2 PUSH1 0x0 SWAP1 JUMPDEST DUP3 DUP3 LT PUSH2 0x528 JUMPI PUSH2 0x391 DUP6 PUSH2 0x51C DUP2 DUP10 SUB DUP3 PUSH2 0x5E9 JUMP JUMPDEST PUSH1 0x40 MLOAD SWAP2 DUP3 SWAP2 DUP3 PUSH2 0x48E JUMP JUMPDEST DUP4 SLOAD DUP7 MSTORE SWAP5 DUP6 ADD SWAP5 PUSH1 0x1 SWAP4 DUP5 ADD SWAP4 SWAP1 SWAP2 ADD SWAP1 PUSH2 0x505 JUMP JUMPDEST SWAP1 PUSH1 0x1 DUP3 DUP2 SHR SWAP3 AND DUP1 ISZERO PUSH2 0x56F JUMPI JUMPDEST PUSH1 0x20 DUP4 LT EQ PUSH2 0x559 JUMPI JUMP JUMPDEST PUSH4 0x4E487B71 PUSH1 0xE0 SHL PUSH1 0x0 MSTORE PUSH1 0x22 PUSH1 0x4 MSTORE PUSH1 0x24 PUSH1 0x0 REVERT JUMPDEST SWAP2 PUSH1 0x7F AND SWAP2 PUSH2 0x54E JUMP JUMPDEST PUSH4 0x4E487B71 PUSH1 0xE0 SHL PUSH1 0x0 MSTORE PUSH1 0x41 PUSH1 0x4 MSTORE PUSH1 0x24 PUSH1 0x0 REVERT JUMPDEST PUSH2 0x100 DUP2 ADD SWAP1 DUP2 LT PUSH8 0xFFFFFFFFFFFFFFFF DUP3 GT OR PUSH2 0x5AC JUMPI PUSH1 0x40 MSTORE JUMP JUMPDEST PUSH2 0x579 JUMP JUMPDEST PUSH1 0xC0 DUP2 ADD SWAP1 DUP2 LT PUSH8 0xFFFFFFFFFFFFFFFF DUP3 GT OR PUSH2 0x5AC JUMPI PUSH1 0x40 MSTORE JUMP JUMPDEST PUSH1 0x20 DUP2 ADD SWAP1 DUP2 LT PUSH8 0xFFFFFFFFFFFFFFFF DUP3 GT OR PUSH2 0x5AC JUMPI PUSH1 0x40 MSTORE JUMP JUMPDEST SWAP1 PUSH1 0x1F DUP1 NOT SWAP2 ADD AND DUP2 ADD SWAP1 DUP2 LT PUSH8 0xFFFFFFFFFFFFFFFF DUP3 GT OR PUSH2 0x5AC JUMPI PUSH1 0x40 MSTORE JUMP JUMPDEST SWAP1 PUSH1 0x40 MLOAD SWAP2 DUP3 PUSH1 0x0 DUP3 SLOAD SWAP3 PUSH2 0x61F DUP5 PUSH2 0x53F JUMP JUMPDEST SWAP1 DUP2 DUP5 MSTORE PUSH1 0x1 SWAP5 DUP6 DUP2 AND SWAP1 DUP2 PUSH1 0x0 EQ PUSH2 0x68E JUMPI POP PUSH1 0x1 EQ PUSH2 0x64B JUMPI JUMPDEST POP POP PUSH2 0x649 SWAP3 POP SUB DUP4 PUSH2 0x5E9 JUMP JUMPDEST JUMP JUMPDEST SWAP1 SWAP4 SWAP2 POP PUSH1 0x0 MSTORE PUSH1 0x20 SWAP1 DUP2 PUSH1 0x0 KECCAK256 SWAP4 PUSH1 0x0 SWAP2 JUMPDEST DUP2 DUP4 LT PUSH2 0x676 JUMPI POP POP PUSH2 0x649 SWAP4 POP DUP3 ADD ADD CODESIZE DUP1 PUSH2 0x63B JUMP JUMPDEST DUP6 SLOAD DUP9 DUP5 ADD DUP6 ADD MSTORE SWAP5 DUP6 ADD SWAP5 DUP8 SWAP5 POP SWAP2 DUP4 ADD SWAP2 PUSH2 0x65E JUMP JUMPDEST SWAP2 POP POP PUSH2 0x649 SWAP5 POP PUSH1 0x20 SWAP3 POP PUSH1 0xFF NOT AND DUP3 DUP5 ADD MSTORE ISZERO ISZERO PUSH1 0x5 SHL DUP3 ADD ADD CODESIZE DUP1 PUSH2 0x63B JUMP JUMPDEST CALLVALUE PUSH2 0x151 JUMPI PUSH1 0x20 CALLDATASIZE PUSH1 0x3 NOT ADD SLT PUSH2 0x151 JUMPI PUSH1 0x4 CALLDATALOAD PUSH1 0x0 MSTORE PUSH1 0x1 PUSH1 0x20 MSTORE PUSH1 0x40 PUSH1 0x0 KECCAK256 DUP1 SLOAD PUSH1 0x1 DUP3 ADD SLOAD SWAP2 PUSH2 0x6E6 PUSH1 0x2 DUP3 ADD PUSH2 0x60B JUMP JUMPDEST PUSH2 0x6F2 PUSH1 0x3 DUP4 ADD PUSH2 0x60B JUMP JUMPDEST SWAP2 PUSH2 0x739 PUSH1 0x5 DUP3 ADD SLOAD SWAP4 PUSH2 0x72B PUSH1 0xFF PUSH1 0x7 PUSH1 0x6 DUP7 ADD SLOAD SWAP6 ADD SLOAD AND SWAP5 PUSH1 0x40 MLOAD SWAP9 DUP10 SWAP9 DUP10 MSTORE PUSH1 0x20 DUP10 ADD MSTORE PUSH1 0xE0 PUSH1 0x40 DUP10 ADD MSTORE PUSH1 0xE0 DUP9 ADD SWAP1 PUSH2 0x2F3 JUMP JUMPDEST SWAP1 DUP7 DUP3 SUB PUSH1 0x60 DUP9 ADD MSTORE PUSH2 0x2F3 JUMP JUMPDEST SWAP3 PUSH1 0x80 DUP6 ADD MSTORE PUSH1 0xA0 DUP5 ADD MSTORE ISZERO ISZERO PUSH1 0xC0 DUP4 ADD MSTORE SUB SWAP1 RETURN JUMPDEST SWAP1 DUP2 MLOAD DUP1 DUP3 MSTORE PUSH1 0x20 DUP1 DUP1 SWAP4 ADD SWAP4 ADD SWAP2 PUSH1 0x0 JUMPDEST DUP3 DUP2 LT PUSH2 0x76F JUMPI POP POP POP POP SWAP1 JUMP JUMPDEST DUP4 MLOAD PUSH1 0x1 PUSH1 0x1 PUSH1 0xA0 SHL SUB AND DUP6 MSTORE SWAP4 DUP2 ADD SWAP4 SWAP3 DUP2 ADD SWAP3 PUSH1 0x1 ADD PUSH2 0x761 JUMP JUMPDEST PUSH2 0x329 SWAP1 PUSH1 0x20 DUP2 MSTORE DUP3 MLOAD PUSH1 0x20 DUP3 ADD MSTORE PUSH1 0x20 DUP4 ADD MLOAD PUSH1 0x40 DUP3 ADD MSTORE PUSH1 0x40 DUP4 ADD MLOAD PUSH1 0xE0 PUSH2 0x7F8 PUSH2 0x7C7 PUSH2 0x100 SWAP4 DUP5 PUSH1 0x60 DUP8 ADD MSTORE PUSH2 0x120 DUP7 ADD SWAP1 PUSH2 0x2F3 JUMP JUMPDEST PUSH2 0x7E3 PUSH1 0x60 DUP9 ADD MLOAD SWAP2 PUSH1 0x1F NOT SWAP3 DUP4 DUP9 DUP4 SUB ADD PUSH1 0x80 DUP10 ADD MSTORE PUSH2 0x2F3 JUMP JUMPDEST SWAP1 PUSH1 0x80 DUP9 ADD MLOAD SWAP1 DUP7 DUP4 SUB ADD PUSH1 0xA0 DUP8 ADD MSTORE PUSH2 0x74F JUMP JUMPDEST SWAP5 PUSH1 0xA0 DUP2 ADD MLOAD PUSH1 0xC0 DUP6 ADD MSTORE PUSH1 0xC0 DUP2 ADD MLOAD DUP3 DUP6 ADD MSTORE ADD MLOAD SWAP2 ADD SWAP1 ISZERO ISZERO SWAP1 MSTORE JUMP JUMPDEST CALLVALUE PUSH2 0x151 JUMPI PUSH1 0x20 CALLDATASIZE PUSH1 0x3 NOT ADD SLT PUSH2 0x151 JUMPI PUSH2 0x391 PUSH2 0x896 PUSH1 0x40 PUSH1 0xE0 PUSH1 0x4 CALLDATALOAD DUP3 MLOAD PUSH2 0x840 DUP2 PUSH2 0x58F JUMP JUMPDEST PUSH1 0x0 SWAP3 DUP2 DUP5 DUP1 SWAP4 MSTORE DUP3 PUSH1 0x20 DUP3 ADD MSTORE PUSH1 0x60 DUP7 DUP3 ADD MSTORE PUSH1 0x60 DUP1 DUP3 ADD MSTORE PUSH1 0x60 PUSH1 0x80 DUP3 ADD MSTORE DUP3 PUSH1 0xA0 DUP3 ADD MSTORE DUP3 PUSH1 0xC0 DUP3 ADD MSTORE ADD MSTORE DUP1 DUP3 MSTORE PUSH1 0x1 PUSH1 0x20 MSTORE PUSH2 0x889 PUSH1 0xFF PUSH1 0x7 DUP6 DUP6 KECCAK256 ADD SLOAD AND PUSH2 0x10A5 JUMP JUMPDEST DUP2 MSTORE PUSH1 0x1 PUSH1 0x20 MSTORE KECCAK256 PUSH2 0x11D1 JUMP JUMPDEST PUSH1 0x40 MLOAD SWAP2 DUP3 SWAP2 DUP3 PUSH2 0x78C JUMP JUMPDEST CALLVALUE PUSH2 0x151 JUMPI PUSH1 0x0 CALLDATASIZE PUSH1 0x3 NOT ADD SLT PUSH2 0x151 JUMPI PUSH1 0x40 MLOAD PUSH32 0x0 PUSH1 0x1 PUSH1 0x1 PUSH1 0xA0 SHL SUB AND DUP2 MSTORE PUSH1 0x20 SWAP1 RETURN JUMPDEST SWAP2 DUP2 PUSH1 0x1F DUP5 ADD SLT ISZERO PUSH2 0x151 JUMPI DUP3 CALLDATALOAD SWAP2 PUSH8 0xFFFFFFFFFFFFFFFF DUP4 GT PUSH2 0x151 JUMPI PUSH1 0x20 DUP4 DUP2 DUP7 ADD SWAP6 ADD ADD GT PUSH2 0x151 JUMPI JUMP JUMPDEST CALLVALUE PUSH2 0x151 JUMPI PUSH1 0x80 CALLDATASIZE PUSH1 0x3 NOT ADD SLT PUSH2 0x151 JUMPI PUSH1 0x4 CALLDATALOAD PUSH8 0xFFFFFFFFFFFFFFFF PUSH1 0x24 CALLDATALOAD DUP2 DUP2 GT PUSH2 0x151 JUMPI PUSH2 0x94A SWAP1 CALLDATASIZE SWAP1 PUSH1 0x4 ADD PUSH2 0x8E7 JUMP JUMPDEST PUSH1 0x44 SWAP4 SWAP2 SWAP4 CALLDATALOAD DUP4 DUP2 GT PUSH2 0x151 JUMPI PUSH2 0x965 SWAP1 CALLDATASIZE SWAP1 PUSH1 0x4 ADD PUSH2 0x8E7 JUMP JUMPDEST SWAP5 SWAP1 SWAP4 PUSH1 0x64 CALLDATALOAD SWAP1 DUP2 GT PUSH2 0x151 JUMPI PUSH2 0x980 SWAP1 CALLDATASIZE SWAP1 PUSH1 0x4 ADD PUSH2 0x8E7 JUMP JUMPDEST PUSH1 0x40 MLOAD PUSH4 0x2DE5AAF7 PUSH1 0xE0 SHL DUP2 MSTORE PUSH1 0x4 DUP2 ADD DUP7 SWAP1 MSTORE SWAP2 SWAP7 PUSH1 0x0 SWAP7 SWAP2 SWAP3 SWAP1 SWAP2 SWAP1 PUSH1 0x1 PUSH1 0x1 PUSH1 0xA0 SHL SUB DUP9 DUP3 PUSH1 0x24 DUP2 PUSH32 0x0 DUP6 AND GAS STATICCALL SWAP2 DUP3 ISZERO PUSH2 0x29F JUMPI PUSH2 0x9EF SWAP3 PUSH1 0x40 SWAP2 DUP12 SWAP2 PUSH2 0xB6C JUMPI POP ADD MLOAD AND CALLER EQ PUSH2 0xCB4 JUMP JUMPDEST DUP7 SLOAD SWAP7 PUSH2 0x9FB DUP9 PUSH2 0xD08 JUMP JUMPDEST DUP2 SSTORE PUSH2 0xA19 PUSH2 0xA11 PUSH2 0xA0C DUP7 PUSH2 0xD1C JUMP JUMPDEST PUSH2 0xD2B JUMP JUMPDEST PUSH2 0x5DC0 SWAP1 DIV SWAP1 JUMP JUMPDEST PUSH2 0xA22 DUP2 PUSH2 0xD52 JUMP JUMPDEST SWAP2 JUMPDEST DUP2 DUP2 LT PUSH2 0xB03 JUMPI PUSH2 0x391 DUP11 DUP11 DUP2 PUSH32 0x7AE2169EDA7D6D6002BAC56B65D2ED17DF9EA129C81B5ED7D116F80AEECEC60E DUP13 DUP13 PUSH2 0xAF0 DUP14 DUP14 DUP14 PUSH2 0xAC7 DUP15 PUSH2 0xA66 PUSH2 0xB80 JUMP JUMPDEST SWAP1 DUP11 DUP3 MSTORE DUP12 PUSH1 0x20 DUP4 ADD MSTORE PUSH2 0xA7B CALLDATASIZE DUP11 DUP11 PUSH2 0xDB3 JUMP JUMPDEST PUSH1 0x40 DUP4 ADD MSTORE PUSH2 0xA8B CALLDATASIZE DUP7 DUP7 PUSH2 0xDB3 JUMP JUMPDEST PUSH1 0x60 DUP4 ADD MSTORE PUSH1 0x80 DUP3 ADD MSTORE DUP5 PUSH1 0xA0 DUP3 ADD MSTORE TIMESTAMP PUSH1 0xC0 DUP3 ADD MSTORE PUSH2 0xAAE PUSH1 0xE0 DUP3 ADD PUSH1 0x1 SWAP1 MSTORE JUMP JUMPDEST PUSH2 0xAC2 DUP11 PUSH1 0x0 MSTORE PUSH1 0x1 PUSH1 0x20 MSTORE PUSH1 0x40 PUSH1 0x0 KECCAK256 SWAP1 JUMP JUMPDEST PUSH2 0xF29 JUMP JUMPDEST PUSH2 0xAE4 DUP9 PUSH2 0xADF DUP12 PUSH1 0x0 MSTORE PUSH1 0x2 PUSH1 0x20 MSTORE PUSH1 0x40 PUSH1 0x0 KECCAK256 SWAP1 JUMP JUMPDEST PUSH2 0x1020 JUMP JUMPDEST PUSH1 0x40 MLOAD SWAP6 DUP7 SWAP6 DUP7 PUSH2 0x1076 JUMP JUMPDEST SUB SWAP1 LOG3 PUSH1 0x40 MLOAD SWAP1 DUP2 MSTORE SWAP1 DUP2 SWAP1 PUSH1 0x20 DUP3 ADD SWAP1 JUMP JUMPDEST DUP1 PUSH2 0xB59 PUSH2 0xB40 PUSH2 0xB3B PUSH2 0xB34 DUP16 PUSH2 0xB1D PUSH2 0xB5E SWAP8 PUSH2 0xD84 JUMP JUMPDEST DUP13 PUSH2 0xB27 DUP3 PUSH2 0xD1C JUMP JUMPDEST SWAP3 DUP2 DUP5 GT PUSH2 0xB63 JUMPI PUSH2 0xD9B JUMP JUMPDEST CALLDATASIZE SWAP2 PUSH2 0xDB3 JUMP JUMPDEST PUSH2 0x10E8 JUMP JUMPDEST PUSH2 0xB4A DUP4 DUP8 PUSH2 0xDEA JUMP JUMPDEST PUSH1 0x1 PUSH1 0x1 PUSH1 0xA0 SHL SUB SWAP1 SWAP2 AND SWAP1 MSTORE JUMP JUMPDEST PUSH2 0xD08 JUMP JUMPDEST PUSH2 0xA24 JUMP JUMPDEST SWAP3 POP DUP1 SWAP3 PUSH2 0xD9B JUMP JUMPDEST PUSH2 0x299 SWAP2 POP RETURNDATASIZE DUP1 DUP14 DUP4 RETURNDATACOPY PUSH2 0x291 DUP2 DUP4 PUSH2 0x5E9 JUMP JUMPDEST PUSH1 0x40 MLOAD SWAP1 PUSH2 0x649 DUP3 PUSH2 0x58F JUMP JUMPDEST PUSH8 0xFFFFFFFFFFFFFFFF DUP2 GT PUSH2 0x5AC JUMPI PUSH1 0x1F ADD PUSH1 0x1F NOT AND PUSH1 0x20 ADD SWAP1 JUMP JUMPDEST SWAP1 SWAP3 SWAP2 SWAP3 PUSH2 0xBB6 DUP2 PUSH2 0xB8D JUMP JUMPDEST SWAP2 PUSH2 0xBC4 PUSH1 0x40 MLOAD SWAP4 DUP5 PUSH2 0x5E9 JUMP JUMPDEST DUP3 SWAP5 DUP3 DUP5 MSTORE DUP3 DUP3 ADD GT PUSH2 0x151 JUMPI PUSH1 0x20 PUSH2 0x649 SWAP4 ADD SWAP1 PUSH2 0x2D0 JUMP JUMPDEST MLOAD SWAP1 PUSH1 0x1 PUSH1 0x1 PUSH1 0xA0 SHL SUB DUP3 AND DUP3 SUB PUSH2 0x151 JUMPI JUMP JUMPDEST MLOAD SWAP1 DUP2 ISZERO ISZERO DUP3 SUB PUSH2 0x151 JUMPI JUMP JUMPDEST SWAP1 PUSH1 0x20 DUP3 DUP3 SUB SLT PUSH2 0x151 JUMPI DUP2 MLOAD PUSH8 0xFFFFFFFFFFFFFFFF SWAP3 DUP4 DUP3 GT PUSH2 0x151 JUMPI ADD SWAP1 PUSH1 0xC0 DUP3 DUP3 SUB SLT PUSH2 0x151 JUMPI PUSH1 0x40 MLOAD SWAP3 PUSH2 0xC36 DUP5 PUSH2 0x5B1 JUMP JUMPDEST DUP3 MLOAD DUP5 MSTORE PUSH1 0x20 DUP4 ADD MLOAD SWAP1 DUP2 GT PUSH2 0x151 JUMPI DUP3 ADD SWAP2 DUP2 PUSH1 0x1F DUP5 ADD SLT ISZERO PUSH2 0x151 JUMPI PUSH2 0xC69 PUSH1 0xA0 SWAP3 DUP5 PUSH1 0x20 PUSH2 0xCA0 SWAP7 MLOAD SWAP2 ADD PUSH2 0xBA9 JUMP JUMPDEST PUSH1 0x20 DUP6 ADD MSTORE PUSH2 0xC7A PUSH1 0x40 DUP3 ADD PUSH2 0xBDE JUMP JUMPDEST PUSH1 0x40 DUP6 ADD MSTORE PUSH2 0xC8B PUSH1 0x60 DUP3 ADD PUSH2 0xBDE JUMP JUMPDEST PUSH1 0x60 DUP6 ADD MSTORE PUSH1 0x80 DUP2 ADD MLOAD PUSH1 0x80 DUP6 ADD MSTORE ADD PUSH2 0xBF2 JUMP JUMPDEST PUSH1 0xA0 DUP3 ADD MSTORE SWAP1 JUMP JUMPDEST PUSH1 0x40 MLOAD RETURNDATASIZE PUSH1 0x0 DUP3 RETURNDATACOPY RETURNDATASIZE SWAP1 REVERT JUMPDEST ISZERO PUSH2 0xCBB JUMPI JUMP JUMPDEST PUSH1 0x40 MLOAD PUSH3 0x461BCD PUSH1 0xE5 SHL DUP2 MSTORE PUSH1 0x20 PUSH1 0x4 DUP3 ADD MSTORE PUSH1 0xF PUSH1 0x24 DUP3 ADD MSTORE PUSH15 0x2737BA1030B3B2B73A1037BBB732B9 PUSH1 0x89 SHL PUSH1 0x44 DUP3 ADD MSTORE PUSH1 0x64 SWAP1 REVERT JUMPDEST PUSH4 0x4E487B71 PUSH1 0xE0 SHL PUSH1 0x0 MSTORE PUSH1 0x11 PUSH1 0x4 MSTORE PUSH1 0x24 PUSH1 0x0 REVERT JUMPDEST PUSH1 0x0 NOT DUP2 EQ PUSH2 0xD17 JUMPI PUSH1 0x1 ADD SWAP1 JUMP JUMPDEST PUSH2 0xCF2 JUMP JUMPDEST SWAP1 PUSH2 0x5DC0 DUP3 ADD DUP1 SWAP3 GT PUSH2 0xD17 JUMPI JUMP JUMPDEST PUSH1 0x0 NOT DUP2 ADD SWAP2 SWAP1 DUP3 GT PUSH2 0xD17 JUMPI JUMP JUMPDEST PUSH8 0xFFFFFFFFFFFFFFFF DUP2 GT PUSH2 0x5AC JUMPI PUSH1 0x5 SHL PUSH1 0x20 ADD SWAP1 JUMP JUMPDEST SWAP1 PUSH2 0xD5C DUP3 PUSH2 0xD3A JUMP JUMPDEST PUSH2 0xD69 PUSH1 0x40 MLOAD SWAP2 DUP3 PUSH2 0x5E9 JUMP JUMPDEST DUP3 DUP2 MSTORE DUP1 SWAP3 PUSH2 0xD7A PUSH1 0x1F NOT SWAP2 PUSH2 0xD3A JUMP JUMPDEST ADD SWAP1 PUSH1 0x20 CALLDATASIZE SWAP2 ADD CALLDATACOPY JUMP JUMPDEST SWAP1 PUSH2 0x5DC0 SWAP2 DUP3 DUP2 MUL SWAP3 DUP2 DUP5 DIV EQ SWAP1 ISZERO OR ISZERO PUSH2 0xD17 JUMPI JUMP JUMPDEST SWAP1 SWAP4 SWAP3 SWAP4 DUP5 DUP4 GT PUSH2 0x151 JUMPI DUP5 GT PUSH2 0x151 JUMPI DUP2 ADD SWAP3 SUB SWAP1 JUMP JUMPDEST SWAP3 SWAP2 SWAP3 PUSH2 0xDBF DUP3 PUSH2 0xB8D JUMP JUMPDEST SWAP2 PUSH2 0xDCD PUSH1 0x40 MLOAD SWAP4 DUP5 PUSH2 0x5E9 JUMP JUMPDEST DUP3 SWAP5 DUP2 DUP5 MSTORE DUP2 DUP4 ADD GT PUSH2 0x151 JUMPI DUP3 DUP2 PUSH1 0x20 SWAP4 DUP5 PUSH1 0x0 SWAP7 ADD CALLDATACOPY ADD ADD MSTORE JUMP JUMPDEST DUP1 MLOAD DUP3 LT ISZERO PUSH2 0x105 JUMPI PUSH1 0x20 SWAP2 PUSH1 0x5 SHL ADD ADD SWAP1 JUMP JUMPDEST DUP2 DUP2 LT PUSH2 0xE09 JUMPI POP POP JUMP JUMPDEST PUSH1 0x0 DUP2 SSTORE PUSH1 0x1 ADD PUSH2 0xDFE JUMP JUMPDEST SWAP2 SWAP1 PUSH1 0x1F DUP2 GT PUSH2 0xE24 JUMPI POP POP POP JUMP JUMPDEST PUSH2 0x649 SWAP3 PUSH1 0x0 MSTORE PUSH1 0x20 PUSH1 0x0 KECCAK256 SWAP1 PUSH1 0x20 PUSH1 0x1F DUP5 ADD PUSH1 0x5 SHR DUP4 ADD SWAP4 LT PUSH2 0xE50 JUMPI JUMPDEST PUSH1 0x1F ADD PUSH1 0x5 SHR ADD SWAP1 PUSH2 0xDFE JUMP JUMPDEST SWAP1 SWAP2 POP DUP2 SWAP1 PUSH2 0xE43 JUMP JUMPDEST SWAP2 SWAP1 SWAP2 DUP3 MLOAD PUSH8 0xFFFFFFFFFFFFFFFF DUP2 GT PUSH2 0x5AC JUMPI PUSH2 0xE82 DUP2 PUSH2 0xE7C DUP5 SLOAD PUSH2 0x53F JUMP JUMPDEST DUP5 PUSH2 0xE15 JUMP JUMPDEST PUSH1 0x20 DUP1 PUSH1 0x1F DUP4 GT PUSH1 0x1 EQ PUSH2 0xEBE JUMPI POP DUP2 SWAP3 SWAP4 SWAP5 PUSH1 0x0 SWAP3 PUSH2 0xEB3 JUMPI JUMPDEST POP POP DUP2 PUSH1 0x1 SHL SWAP2 PUSH1 0x0 NOT SWAP1 PUSH1 0x3 SHL SHR NOT AND OR SWAP1 SSTORE JUMP JUMPDEST ADD MLOAD SWAP1 POP CODESIZE DUP1 PUSH2 0xE9D JUMP JUMPDEST SWAP1 PUSH1 0x1F NOT DUP4 AND SWAP6 PUSH2 0xED4 DUP6 PUSH1 0x0 MSTORE PUSH1 0x20 PUSH1 0x0 KECCAK256 SWAP1 JUMP JUMPDEST SWAP3 PUSH1 0x0 SWAP1 JUMPDEST DUP9 DUP3 LT PUSH2 0xF11 JUMPI POP POP DUP4 PUSH1 0x1 SWAP6 SWAP7 SWAP8 LT PUSH2 0xEF8 JUMPI JUMPDEST POP POP POP DUP2 SHL ADD SWAP1 SSTORE JUMP JUMPDEST ADD MLOAD PUSH1 0x0 NOT PUSH1 0xF8 DUP5 PUSH1 0x3 SHL AND SHR NOT AND SWAP1 SSTORE CODESIZE DUP1 DUP1 PUSH2 0xEEE JUMP JUMPDEST DUP1 PUSH1 0x1 DUP6 SWAP7 DUP3 SWAP5 SWAP7 DUP7 ADD MLOAD DUP2 SSTORE ADD SWAP6 ADD SWAP4 ADD SWAP1 PUSH2 0xED9 JUMP JUMPDEST SWAP1 DUP1 MLOAD DUP3 SSTORE PUSH1 0x20 DUP1 DUP3 ADD MLOAD SWAP1 PUSH1 0x1 SWAP2 DUP3 DUP6 ADD SSTORE PUSH2 0xF4D PUSH1 0x40 DUP5 ADD MLOAD PUSH1 0x2 DUP7 ADD PUSH2 0xE5A JUMP JUMPDEST PUSH2 0xF5E PUSH1 0x60 DUP5 ADD MLOAD PUSH1 0x3 DUP7 ADD PUSH2 0xE5A JUMP JUMPDEST PUSH1 0x4 DUP5 ADD PUSH1 0x80 DUP5 ADD MLOAD SWAP2 DUP3 MLOAD SWAP3 PUSH8 0xFFFFFFFFFFFFFFFF DUP5 GT PUSH2 0x5AC JUMPI PUSH1 0x1 PUSH1 0x40 SHL DUP5 GT PUSH2 0x5AC JUMPI DUP2 SWAP1 DUP4 SLOAD DUP6 DUP6 SSTORE DUP1 DUP7 LT PUSH2 0x1003 JUMPI JUMPDEST POP ADD SWAP2 PUSH1 0x0 MSTORE DUP1 PUSH1 0x0 KECCAK256 SWAP1 PUSH1 0x0 JUMPDEST DUP5 DUP2 LT PUSH2 0xFE9 JUMPI POP POP POP POP POP POP SWAP1 PUSH1 0x7 PUSH2 0xFD6 PUSH1 0xE0 DUP5 PUSH1 0xA0 PUSH2 0x649 SWAP7 ADD MLOAD PUSH1 0x5 DUP7 ADD SSTORE PUSH1 0xC0 DUP2 ADD MLOAD PUSH1 0x6 DUP7 ADD SSTORE ADD MLOAD ISZERO ISZERO SWAP1 JUMP JUMPDEST SWAP2 ADD SWAP1 PUSH1 0xFF DUP1 NOT DUP4 SLOAD AND SWAP2 ISZERO ISZERO AND OR SWAP1 SSTORE JUMP JUMPDEST DUP4 MLOAD PUSH1 0x1 PUSH1 0x1 PUSH1 0xA0 SHL SUB AND DUP4 DUP3 ADD SSTORE SWAP3 DUP2 ADD SWAP3 DUP6 ADD PUSH2 0xFA2 JUMP JUMPDEST PUSH2 0x101A SWAP1 DUP6 PUSH1 0x0 MSTORE DUP7 DUP5 PUSH1 0x0 KECCAK256 SWAP2 DUP3 ADD SWAP2 ADD PUSH2 0xDFE JUMP JUMPDEST CODESIZE PUSH2 0xF94 JUMP JUMPDEST DUP1 SLOAD PUSH1 0x1 PUSH1 0x40 SHL DUP2 LT ISZERO PUSH2 0x5AC JUMPI PUSH2 0x103D SWAP2 PUSH1 0x1 DUP3 ADD DUP2 SSTORE PUSH2 0xED JUMP JUMPDEST DUP2 SWAP3 SWAP2 SLOAD SWAP1 PUSH1 0x3 SHL SWAP2 DUP3 SHL SWAP2 PUSH1 0x0 NOT SWAP1 SHL NOT AND OR SWAP1 SSTORE JUMP JUMPDEST SWAP1 DUP1 PUSH1 0x20 SWAP4 SWAP3 DUP2 DUP5 MSTORE DUP5 DUP5 ADD CALLDATACOPY PUSH1 0x0 DUP3 DUP3 ADD DUP5 ADD MSTORE PUSH1 0x1F ADD PUSH1 0x1F NOT AND ADD ADD SWAP1 JUMP JUMPDEST SWAP6 SWAP5 SWAP4 PUSH2 0x1092 PUSH1 0x40 SWAP5 SWAP3 PUSH2 0x10A0 SWAP5 PUSH1 0x60 DUP11 MSTORE PUSH1 0x60 DUP11 ADD SWAP2 PUSH2 0x1055 JUMP JUMPDEST SWAP2 DUP8 DUP4 SUB PUSH1 0x20 DUP10 ADD MSTORE PUSH2 0x1055 JUMP JUMPDEST SWAP4 ADD MSTORE JUMP JUMPDEST ISZERO PUSH2 0x10AC JUMPI JUMP JUMPDEST PUSH1 0x40 MLOAD PUSH3 0x461BCD PUSH1 0xE5 SHL DUP2 MSTORE PUSH1 0x20 PUSH1 0x4 DUP3 ADD MSTORE PUSH1 0x14 PUSH1 0x24 DUP3 ADD MSTORE PUSH20 0x105CDCD95D08191BD95CC81B9BDD08195E1A5CDD PUSH1 0x62 SHL PUSH1 0x44 DUP3 ADD MSTORE PUSH1 0x64 SWAP1 REVERT JUMPDEST PUSH1 0x40 MLOAD PUSH2 0x111D PUSH1 0x21 DUP3 PUSH1 0x20 DUP2 ADD SWAP5 PUSH1 0x0 DUP7 MSTORE PUSH2 0x110D DUP2 MLOAD DUP1 SWAP3 PUSH1 0x20 DUP7 DUP7 ADD SWAP2 ADD PUSH2 0x2D0 JUMP JUMPDEST DUP2 ADD SUB PUSH1 0x1 DUP2 ADD DUP5 MSTORE ADD DUP3 PUSH2 0x5E9 JUMP JUMPDEST MLOAD SWAP1 PUSH1 0x0 CREATE PUSH1 0x1 PUSH1 0x1 PUSH1 0xA0 SHL SUB DUP2 AND ISZERO PUSH2 0x1134 JUMPI SWAP1 JUMP JUMPDEST PUSH1 0x40 MLOAD PUSH3 0x461BCD PUSH1 0xE5 SHL DUP2 MSTORE PUSH1 0x20 PUSH1 0x4 DUP3 ADD MSTORE PUSH1 0x1A PUSH1 0x24 DUP3 ADD MSTORE PUSH32 0x5353544F5245323A206465706C6F796D656E74206661696C6564000000000000 PUSH1 0x44 DUP3 ADD MSTORE PUSH1 0x64 SWAP1 REVERT JUMPDEST SWAP1 PUSH1 0x40 MLOAD SWAP2 DUP3 DUP2 SLOAD SWAP2 DUP3 DUP3 MSTORE PUSH1 0x20 SWAP3 DUP4 DUP4 ADD SWAP2 PUSH1 0x0 MSTORE DUP4 PUSH1 0x0 KECCAK256 SWAP4 PUSH1 0x0 SWAP1 JUMPDEST DUP3 DUP3 LT PUSH2 0x11AE JUMPI POP POP POP PUSH2 0x649 SWAP3 POP SUB DUP4 PUSH2 0x5E9 JUMP JUMPDEST DUP6 SLOAD PUSH1 0x1 PUSH1 0x1 PUSH1 0xA0 SHL SUB AND DUP5 MSTORE PUSH1 0x1 SWAP6 DUP7 ADD SWAP6 DUP9 SWAP6 POP SWAP4 DUP2 ADD SWAP4 SWAP1 SWAP2 ADD SWAP1 PUSH2 0x1198 JUMP JUMPDEST SWAP1 PUSH2 0x649 PUSH2 0x1240 PUSH1 0x7 PUSH2 0x11E2 PUSH2 0xB80 JUMP JUMPDEST SWAP5 DUP1 SLOAD DUP7 MSTORE PUSH1 0x1 DUP2 ADD SLOAD PUSH1 0x20 DUP8 ADD MSTORE PUSH2 0x11FD PUSH1 0x2 DUP3 ADD PUSH2 0x60B JUMP JUMPDEST PUSH1 0x40 DUP8 ADD MSTORE PUSH2 0x120E PUSH1 0x3 DUP3 ADD PUSH2 0x60B JUMP JUMPDEST PUSH1 0x60 DUP8 ADD MSTORE PUSH2 0x121F PUSH1 0x4 DUP3 ADD PUSH2 0x1179 JUMP JUMPDEST PUSH1 0x80 DUP8 ADD MSTORE PUSH1 0x5 DUP2 ADD SLOAD PUSH1 0xA0 DUP8 ADD MSTORE PUSH1 0x6 DUP2 ADD SLOAD PUSH1 0xC0 DUP8 ADD MSTORE ADD SLOAD PUSH1 0xFF AND SWAP1 JUMP JUMPDEST ISZERO ISZERO PUSH1 0xE0 DUP5 ADD MSTORE JUMP JUMPDEST PUSH1 0x40 MLOAD SWAP1 PUSH2 0x1256 DUP3 PUSH2 0x5CD JUMP JUMPDEST PUSH1 0x0 DUP3 MSTORE JUMP JUMPDEST SWAP1 PUSH2 0x1266 DUP3 PUSH2 0xB8D JUMP JUMPDEST PUSH2 0x1273 PUSH1 0x40 MLOAD SWAP2 DUP3 PUSH2 0x5E9 JUMP JUMPDEST DUP3 DUP2 MSTORE DUP1 SWAP3 PUSH2 0xD7A PUSH1 0x1F NOT SWAP2 PUSH2 0xB8D JUMP JUMPDEST SWAP1 DUP2 MLOAD DUP2 LT ISZERO PUSH2 0x105 JUMPI ADD PUSH1 0x20 ADD SWAP1 JUMP JUMPDEST DUP1 EXTCODESIZE PUSH1 0x1 DUP2 GT ISZERO PUSH2 0x12C1 JUMPI PUSH1 0x0 NOT DUP2 ADD SWAP1 DUP2 GT PUSH2 0xD17 JUMPI PUSH1 0x1 PUSH2 0x12B7 DUP3 PUSH2 0x125C JUMP JUMPDEST SWAP3 PUSH1 0x20 DUP5 ADD SWAP1 EXTCODECOPY SWAP1 JUMP JUMPDEST POP POP PUSH1 0x40 MLOAD PUSH2 0x12CF DUP2 PUSH2 0x5CD JUMP JUMPDEST PUSH1 0x0 DUP2 MSTORE SWAP1 JUMP JUMPDEST PUSH1 0x20 DUP2 DUP4 SUB SLT PUSH2 0x151 JUMPI DUP1 MLOAD SWAP1 PUSH8 0xFFFFFFFFFFFFFFFF DUP3 GT PUSH2 0x151 JUMPI ADD SWAP1 DUP1 PUSH1 0x1F DUP4 ADD SLT ISZERO PUSH2 0x151 JUMPI DUP2 MLOAD PUSH2 0x329 SWAP3 PUSH1 0x20 ADD PUSH2 0xBA9 JUMP JUMPDEST PUSH2 0x1321 SWAP1 PUSH1 0x0 MSTORE PUSH1 0x3 PUSH1 0x20 MSTORE PUSH1 0x40 PUSH1 0x0 KECCAK256 SWAP1 JUMP JUMPDEST SLOAD SWAP1 DUP2 ISZERO DUP1 ISZERO PUSH2 0x13C0 JUMPI JUMPDEST PUSH2 0x13AD JUMPI PUSH2 0x1369 PUSH1 0x0 PUSH2 0x1349 DUP5 PUSH1 0x0 MSTORE PUSH1 0x1 PUSH1 0x20 MSTORE PUSH1 0x40 PUSH1 0x0 KECCAK256 SWAP1 JUMP JUMPDEST SWAP4 PUSH1 0x40 MLOAD DUP1 SWAP4 DUP2 SWAP3 PUSH4 0x7D1108F5 PUSH1 0xE0 SHL DUP4 MSTORE PUSH1 0x4 DUP4 ADD SWAP2 SWAP1 PUSH1 0x20 DUP4 ADD SWAP3 MSTORE JUMP JUMPDEST SUB DUP2 ADDRESS GAS STATICCALL SWAP1 DUP2 ISZERO PUSH2 0x29F JUMPI PUSH2 0x329 SWAP2 PUSH1 0x3 SWAP2 PUSH1 0x0 SWAP2 PUSH2 0x138C JUMPI JUMPDEST POP SWAP4 ADD PUSH2 0x60B JUMP JUMPDEST PUSH2 0x13A7 SWAP2 RETURNDATASIZE DUP1 SWAP2 DUP4 RETURNDATACOPY PUSH2 0x139F DUP2 DUP4 PUSH2 0x5E9 JUMP JUMPDEST DUP2 ADD SWAP1 PUSH2 0x12D6 JUMP JUMPDEST CODESIZE PUSH2 0x1384 JUMP JUMPDEST SWAP1 POP PUSH2 0x13B7 PUSH2 0x1249 JUMP JUMPDEST SWAP1 PUSH2 0x329 PUSH2 0x1249 JUMP JUMPDEST POP PUSH2 0x13E3 PUSH1 0xFF PUSH1 0x7 PUSH2 0x13DC DUP6 PUSH1 0x0 MSTORE PUSH1 0x1 PUSH1 0x20 MSTORE PUSH1 0x40 PUSH1 0x0 KECCAK256 SWAP1 JUMP JUMPDEST ADD SLOAD AND ISZERO SWAP1 JUMP JUMPDEST PUSH2 0x132C JUMP INVALID LOG2 PUSH5 0x6970667358 0x22 SLT KECCAK256 SELFDESTRUCT CODECOPY 0xD MOD PUSH31 0x903B00C44DE1577A1C5B49BD873FE556C06EFA1D312E8497CA49D64736F6C PUSH4 0x43000814 STOP CALLER "},"methodIdentifiers":{"agentAssets(uint256,uint256)":"3b22ac6f","agentPrimaryPfp(uint256)":"d982eb48","assets(uint256)":"cf35bdd0","core()":"f2f4eb26","getAgentAssets(uint256)":"b036cd18","getAsset(uint256)":"eac8f5b8","getAssetData(uint256)":"7d1108f5","getPrimaryPfp(uint256)":"73623c69","getPrimaryPfpData(uint256)":"85adc70c","nextAssetId()":"8ed91318","setPrimaryPfp(uint256,uint256)":"6a422313","storeAsset(uint256,string,string,bytes)":"f473d83b"}}}}}