{"contracts/megaeth/core/AgentCore.sol":{"AgentCore":{"abi":[{"inputs":[{"internalType":"address","name":"_usdc","type":"address"},{"internalType":"address","name":"_treasury","type":"address"}],"stateMutability":"nonpayable","type":"constructor"},{"anonymous":false,"inputs":[{"indexed":true,"internalType":"uint256","name":"id","type":"uint256"},{"indexed":false,"internalType":"string","name":"name","type":"string"},{"indexed":true,"internalType":"address","name":"owner","type":"address"},{"indexed":true,"internalType":"address","name":"creator","type":"address"},{"indexed":false,"internalType":"uint256","name":"bornAt","type":"uint256"}],"name":"AgentBorn","type":"event"},{"anonymous":false,"inputs":[{"indexed":true,"internalType":"uint256","name":"agentId","type":"uint256"},{"indexed":false,"internalType":"uint256","name":"remaining","type":"uint256"}],"name":"FreeMintUsed","type":"event"},{"anonymous":false,"inputs":[{"indexed":false,"internalType":"string","name":"moduleName","type":"string"},{"indexed":false,"internalType":"address","name":"moduleAddress","type":"address"}],"name":"ModuleUpdated","type":"event"},{"inputs":[],"name":"BIRTH_PRICE","outputs":[{"internalType":"uint256","name":"","type":"uint256"}],"stateMutability":"view","type":"function"},{"inputs":[],"name":"admin","outputs":[{"internalType":"address","name":"","type":"address"}],"stateMutability":"view","type":"function"},{"inputs":[{"internalType":"uint256","name":"","type":"uint256"}],"name":"agents","outputs":[{"internalType":"uint256","name":"id","type":"uint256"},{"internalType":"string","name":"name","type":"string"},{"internalType":"address","name":"owner","type":"address"},{"internalType":"address","name":"creator","type":"address"},{"internalType":"uint256","name":"bornAt","type":"uint256"},{"internalType":"bool","name":"exists","type":"bool"}],"stateMutability":"view","type":"function"},{"inputs":[],"name":"assetsModule","outputs":[{"internalType":"address","name":"","type":"address"}],"stateMutability":"view","type":"function"},{"inputs":[{"internalType":"string","name":"name","type":"string"},{"internalType":"address","name":"agentWallet","type":"address"}],"name":"birth","outputs":[{"internalType":"uint256","name":"","type":"uint256"}],"stateMutability":"nonpayable","type":"function"},{"inputs":[],"name":"contentModule","outputs":[{"internalType":"address","name":"","type":"address"}],"stateMutability":"view","type":"function"},{"inputs":[],"name":"freeMintsRemaining","outputs":[{"internalType":"uint256","name":"","type":"uint256"}],"stateMutability":"view","type":"function"},{"inputs":[{"internalType":"uint256","name":"agentId","type":"uint256"}],"name":"getAgent","outputs":[{"components":[{"internalType":"uint256","name":"id","type":"uint256"},{"internalType":"string","name":"name","type":"string"},{"internalType":"address","name":"owner","type":"address"},{"internalType":"address","name":"creator","type":"address"},{"internalType":"uint256","name":"bornAt","type":"uint256"},{"internalType":"bool","name":"exists","type":"bool"}],"internalType":"struct AgentCore.Agent","name":"","type":"tuple"}],"stateMutability":"view","type":"function"},{"inputs":[{"internalType":"string","name":"name","type":"string"}],"name":"getAgentByName","outputs":[{"components":[{"internalType":"uint256","name":"id","type":"uint256"},{"internalType":"string","name":"name","type":"string"},{"internalType":"address","name":"owner","type":"address"},{"internalType":"address","name":"creator","type":"address"},{"internalType":"uint256","name":"bornAt","type":"uint256"},{"internalType":"bool","name":"exists","type":"bool"}],"internalType":"struct AgentCore.Agent","name":"","type":"tuple"}],"stateMutability":"view","type":"function"},{"inputs":[{"internalType":"address","name":"owner","type":"address"}],"name":"getAgentByOwner","outputs":[{"components":[{"internalType":"uint256","name":"id","type":"uint256"},{"internalType":"string","name":"name","type":"string"},{"internalType":"address","name":"owner","type":"address"},{"internalType":"address","name":"creator","type":"address"},{"internalType":"uint256","name":"bornAt","type":"uint256"},{"internalType":"bool","name":"exists","type":"bool"}],"internalType":"struct AgentCore.Agent","name":"","type":"tuple"}],"stateMutability":"view","type":"function"},{"inputs":[{"internalType":"uint256","name":"agentId","type":"uint256"}],"name":"isAgent","outputs":[{"internalType":"bool","name":"","type":"bool"}],"stateMutability":"view","type":"function"},{"inputs":[],"name":"isFreeMintsAvailable","outputs":[{"internalType":"bool","name":"","type":"bool"}],"stateMutability":"view","type":"function"},{"inputs":[{"internalType":"bytes32","name":"","type":"bytes32"}],"name":"nameToId","outputs":[{"internalType":"uint256","name":"","type":"uint256"}],"stateMutability":"view","type":"function"},{"inputs":[],"name":"nextAgentId","outputs":[{"internalType":"uint256","name":"","type":"uint256"}],"stateMutability":"view","type":"function"},{"inputs":[{"internalType":"address","name":"","type":"address"}],"name":"ownerToId","outputs":[{"internalType":"uint256","name":"","type":"uint256"}],"stateMutability":"view","type":"function"},{"inputs":[],"name":"profileModule","outputs":[{"internalType":"address","name":"","type":"address"}],"stateMutability":"view","type":"function"},{"inputs":[{"internalType":"address","name":"newAdmin","type":"address"}],"name":"setAdmin","outputs":[],"stateMutability":"nonpayable","type":"function"},{"inputs":[{"internalType":"address","name":"module","type":"address"}],"name":"setAssetsModule","outputs":[],"stateMutability":"nonpayable","type":"function"},{"inputs":[{"internalType":"address","name":"module","type":"address"}],"name":"setContentModule","outputs":[],"stateMutability":"nonpayable","type":"function"},{"inputs":[{"internalType":"uint256","name":"_amount","type":"uint256"}],"name":"setFreeMintsRemaining","outputs":[],"stateMutability":"nonpayable","type":"function"},{"inputs":[{"internalType":"address","name":"module","type":"address"}],"name":"setProfileModule","outputs":[],"stateMutability":"nonpayable","type":"function"},{"inputs":[{"internalType":"address","name":"module","type":"address"}],"name":"setSocialModule","outputs":[],"stateMutability":"nonpayable","type":"function"},{"inputs":[{"internalType":"address","name":"_treasury","type":"address"}],"name":"setTreasury","outputs":[],"stateMutability":"nonpayable","type":"function"},{"inputs":[],"name":"socialModule","outputs":[{"internalType":"address","name":"","type":"address"}],"stateMutability":"view","type":"function"},{"inputs":[],"name":"totalAgents","outputs":[{"internalType":"uint256","name":"","type":"uint256"}],"stateMutability":"view","type":"function"},{"inputs":[{"internalType":"uint256","name":"agentId","type":"uint256"},{"internalType":"address","name":"newOwner","type":"address"}],"name":"transferOwnership","outputs":[],"stateMutability":"nonpayable","type":"function"},{"inputs":[],"name":"treasury","outputs":[{"internalType":"address","name":"","type":"address"}],"stateMutability":"view","type":"function"},{"inputs":[],"name":"usdc","outputs":[{"internalType":"contract IERC20","name":"","type":"address"}],"stateMutability":"view","type":"function"}],"evm":{"bytecode":{"linkReferences":{},"object":"60a0346100a857601f6113cd38819003918201601f19168301916001600160401b038311848410176100ad5780849260409485528339810103126100a857610052602061004b836100c3565b92016100c3565b600a6009819055600880546001600160a01b031990811633179091556001600160a01b03938416608052815416929091169190911790556040516112f590816100d882396080518181816107c00152610bfe0152f35b600080fd5b634e487b7160e01b600052604160045260246000fd5b51906001600160a01b03821682036100a85756fe6080604052600436101561001257600080fd5b60003560e01c80630381ee7914610ed75780630f88e5cb14610eae57806325ed824314610e2f57806329507f7314610d095780632de5aaf714610c5b5780632fc3643f14610c2d57806330efc4981461022d5780633e413bee14610be857806349f3762e14610bb4578063513856c814610b2857806356c704b814610aff57806361d027b314610ad65780636b8e634314610ab85780636c86a43014610a8c578063704b6c0214610a455780637823b50f146109c55780637df07608146109455780638868b9ff146109275780638bd7551c1461090757806397b7a07f146103de578063a435fd13146103b5578063b0034f0f146102ca578063c213a9491461024b578063c50537121461022d578063d4ae96b414610204578063e729e3a4146101ca578063f0f442601461017e5763f851a4401461015057600080fd5b34610179576000366003190112610179576008546040516001600160a01b039091168152602090f35b600080fd5b3461017957602036600319011261017957610197610f9b565b6008546001600160a01b0391906101b190831633146111f2565b166001600160601b0360a01b600a541617600a55600080f35b34610179576020366003190112610179576001600160a01b036101eb610f9b565b1660005260036020526020604060002054604051908152f35b34610179576000366003190112610179576005546040516001600160a01b039091168152602090f35b34610179576000366003190112610179576020600054604051908152f35b34610179576020366003190112610179576000805160206112a08339815191526080610275610f9b565b6008546001600160a01b03919061028f90831633146111f2565b16806001600160601b0360a01b60075416176007556040519060408252600660408301526561737365747360d01b60608301526020820152a1005b3461017957602080600319360112610179576004359067ffffffffffffffff8211610179576103136103036103b193369060040161117d565b61030b61122a565b5036916111ab565b81815191012060005260028152604060002054806000526001825261034260ff6005604060002001541661125c565b6000526001815260ff600560406000206040519361035f85611099565b8154855261036f600183016110d7565b9085015260018060a01b03806002830154166040860152600382015416606085015260048101546080850152015416151560a082015260405191829182611007565b0390f35b34610179576000366003190112610179576006546040516001600160a01b039091168152602090f35b346101795760403660031901126101795760043567ffffffffffffffff81116101795761040f90369060040161117d565b610417610fb1565b6104223683856111ab565b602081519101209182600052600260205260406000205480159081156108ea575b50156108b8576001600160a01b038216600090815260036020526040902054610873576009541561078157600954801561076b5760001901806009557ff6f9047a0ab0a4711f58de93a110abd09b7757b68800b28f74fc98cf469f3059602060005492604051908152a25b60005492600019841461076b5760018401600055604051906104cf82611099565b8482526104dd3684886111ab565b916020810192835260018060a01b0385166040820152336060820152426080820152600160a0820152856000526001602052604060002092815184555180519067ffffffffffffffff821161075557610539600186015461105f565b601f811161070e575b5091879391602099938a90601f831160011461067457968260a0936005937f9effc2cf8372f40ed7734cdbf767b74bfef2e3916a3342b1b86db64a9393305d999a600092610669575b50508160011b916000199060031b1c19161760018201555b60028101600180851b03604086015116906001600160601b03851b91828254161790556003820190600180861b03606087015116908254161790556080840151600482015501910151151560ff80198354169116179055600052600287528260406000205560018060a01b038516600052600387528260406000205583604051916040835281604084015260608301376000818501606090810191909152428883015233956001600160a01b031694601f01601f191682018290030190a4604051908152f35b015190508e8061058b565b600188939298016000528b6000209060005b601f19841681106106f457508260a094927f9effc2cf8372f40ed7734cdbf767b74bfef2e3916a3342b1b86db64a9393305d999a600193600596601f198116106106db575b505050811b0160018201556105a3565b015160001960f88460031b161c191690558e80806106cb565b818a01518355988d01988c98506001909201918d01610686565b600186016000526020600020601f840160051c81016020851061074e575b601f830160051c82018110610742575050610542565b6000815560010161072c565b508061072c565b634e487b7160e01b600052604160045260246000fd5b634e487b7160e01b600052601160045260246000fd5b600a546040516323b872dd60e01b81523360048201526001600160a01b03918216602482015262694920604482015290602090829060649082906000907f0000000000000000000000000000000000000000000000000000000000000000165af19081156108675760009161082c575b506104ae5760405162461bcd60e51b815260206004820152600e60248201526d14185e5b595b9d0819985a5b195960921b6044820152606490fd5b90506020813d60201161085f575b81610847602093836110b5565b810103126101795751801515810361017957856107f1565b3d915061083a565b6040513d6000823e3d90fd5b60405162461bcd60e51b815260206004820152601860248201527f57616c6c657420616c726561647920686173206167656e7400000000000000006044820152606490fd5b60405162461bcd60e51b815260206004820152600a6024820152692730b6b2903a30b5b2b760b11b6044820152606490fd5b9050600052600160205260ff600560406000200154161585610443565b346101795760003660031901126101795760206009541515604051908152f35b34610179576000366003190112610179576020600954604051908152f35b34610179576020366003190112610179576000805160206112a0833981519152608061096f610f9b565b6008546001600160a01b03919061098990831633146111f2565b16806001600160601b0360a01b60045416176004556040519060408252600760408301526670726f66696c6560c81b60608301526020820152a1005b34610179576020366003190112610179576000805160206112a083398151915260806109ef610f9b565b6008546001600160a01b039190610a0990831633146111f2565b16806001600160601b0360a01b60055416176005556040519060408252600760408301526618dbdb9d195b9d60ca1b60608301526020820152a1005b3461017957602036600319011261017957610a5e610f9b565b600854906001600160a01b0390610a7833838516146111f2565b6001600160a01b0319909216911617600855005b346101795760203660031901126101795760043560005260026020526020604060002054604051908152f35b34610179576000366003190112610179576020604051626949208152f35b3461017957600036600319011261017957600a546040516001600160a01b039091168152602090f35b34610179576000366003190112610179576007546040516001600160a01b039091168152602090f35b3461017957602036600319011261017957600435600052600160205260406000208054610b57600183016110d7565b9160018060a01b039081600282015416916003820154169060ff600560048301549201541691610b99604051968796875260c0602088015260c0870190610fc7565b93604086015260608501526080840152151560a08301520390f35b34610179576020366003190112610179576004356000526001602052602060ff600560406000200154166040519015158152f35b34610179576000366003190112610179576040517f00000000000000000000000000000000000000000000000000000000000000006001600160a01b03168152602090f35b3461017957602036600319011261017957610c5360018060a01b036008541633146111f2565b600435600955005b3461017957602036600319011261017957600435610c7761122a565b50806000526001602052610c9560ff6005604060002001541661125c565b60005260016020526103b1604060002060ff600560405192610cb684611099565b80548452610cc6600182016110d7565b602085015260018060a01b03806002830154166040860152600382015416606085015260048101546080850152015416151560a082015260405191829182611007565b3461017957604036600319011261017957600435610d25610fb1565b816000526020906001825260018060a01b039081600260406000200154163303610df8578116908160005260038352604060002054610db35790600392918460005260018352600260406000200154166000528282526000604081205583600052600182526002604060002001816001600160601b0360a01b82541617905560005252604060002055600080f35b60405162461bcd60e51b815260048101849052601b60248201527f4e6577206f776e657220616c726561647920686173206167656e7400000000006044820152606490fd5b60405162461bcd60e51b815260048101849052600f60248201526e2737ba1030b3b2b73a1037bbb732b960891b6044820152606490fd5b34610179576020366003190112610179576000805160206112a08339815191526080610e59610f9b565b6008546001600160a01b039190610e7390831633146111f2565b16806001600160601b0360a01b6006541617600655604051906040825260066040830152651cdbd8da585b60d21b60608301526020820152a1005b34610179576000366003190112610179576004546040516001600160a01b039091168152602090f35b34610179576020366003190112610179576103b1610ef3610f9b565b610efb61122a565b5060018060a01b038091166000526003602052604060002054806000526001602052610f3160ff6005604060002001541661125c565b600052600160205260ff6005604060002060405193610f4f85611099565b81548552610f5f600183016110d7565b6020860152806002830154166040860152600382015416606085015260048101546080850152015416151560a082015260405191829182611007565b600435906001600160a01b038216820361017957565b602435906001600160a01b038216820361017957565b919082519283825260005b848110610ff3575050826000602080949584010152601f8019910116010190565b602081830181015184830182015201610fd2565b602081528151602082015260c060a061102e602085015183604086015260e0850190610fc7565b93600180831b0380604083015116606086015260608201511660808501526080810151828501520151151591015290565b90600182811c9216801561108f575b602083101461107957565b634e487b7160e01b600052602260045260246000fd5b91607f169161106e565b60c0810190811067ffffffffffffffff82111761075557604052565b90601f8019910116810190811067ffffffffffffffff82111761075557604052565b90604051918260008254926110eb8461105f565b90818452600194858116908160001461115a5750600114611117575b5050611115925003836110b5565b565b9093915060005260209081600020936000915b81831061114257505061111593508201013880611107565b8554888401850152948501948794509183019161112a565b91505061111594506020925060ff191682840152151560051b8201013880611107565b9181601f840112156101795782359167ffffffffffffffff8311610179576020838186019501011161017957565b92919267ffffffffffffffff821161075557604051916111d5601f8201601f1916602001846110b5565b829481845281830111610179578281602093846000960137010152565b156111f957565b60405162461bcd60e51b81526020600482015260096024820152682737ba1030b236b4b760b91b6044820152606490fd5b6040519061123782611099565b600060a083828152606060208201528260408201528260608201528260808201520152565b1561126357565b60405162461bcd60e51b81526020600482015260146024820152731059d95b9d08191bd95cc81b9bdd08195e1a5cdd60621b6044820152606490fdfe9a65d3ab497a14ced7d0123f7db0415db7b263e28d7b16267d6f3497224a9054a2646970667358221220fbac13bfa2a5a80655af8f27ff9cced362132e555c05f8bb556ccb2cef23573864736f6c63430008140033","opcodes":"PUSH1 0xA0 CALLVALUE PUSH2 0xA8 JUMPI PUSH1 0x1F PUSH2 0x13CD CODESIZE DUP2 SWAP1 SUB SWAP2 DUP3 ADD PUSH1 0x1F NOT AND DUP4 ADD SWAP2 PUSH1 0x1 PUSH1 0x1 PUSH1 0x40 SHL SUB DUP4 GT DUP5 DUP5 LT OR PUSH2 0xAD JUMPI DUP1 DUP5 SWAP3 PUSH1 0x40 SWAP5 DUP6 MSTORE DUP4 CODECOPY DUP2 ADD SUB SLT PUSH2 0xA8 JUMPI PUSH2 0x52 PUSH1 0x20 PUSH2 0x4B DUP4 PUSH2 0xC3 JUMP JUMPDEST SWAP3 ADD PUSH2 0xC3 JUMP JUMPDEST PUSH1 0xA PUSH1 0x9 DUP2 SWAP1 SSTORE PUSH1 0x8 DUP1 SLOAD PUSH1 0x1 PUSH1 0x1 PUSH1 0xA0 SHL SUB NOT SWAP1 DUP2 AND CALLER OR SWAP1 SWAP2 SSTORE PUSH1 0x1 PUSH1 0x1 PUSH1 0xA0 SHL SUB SWAP4 DUP5 AND PUSH1 0x80 MSTORE DUP2 SLOAD AND SWAP3 SWAP1 SWAP2 AND SWAP2 SWAP1 SWAP2 OR SWAP1 SSTORE PUSH1 0x40 MLOAD PUSH2 0x12F5 SWAP1 DUP2 PUSH2 0xD8 DUP3 CODECOPY PUSH1 0x80 MLOAD DUP2 DUP2 DUP2 PUSH2 0x7C0 ADD MSTORE PUSH2 0xBFE ADD MSTORE RETURN JUMPDEST PUSH1 0x0 DUP1 REVERT JUMPDEST PUSH4 0x4E487B71 PUSH1 0xE0 SHL PUSH1 0x0 MSTORE PUSH1 0x41 PUSH1 0x4 MSTORE PUSH1 0x24 PUSH1 0x0 REVERT JUMPDEST MLOAD SWAP1 PUSH1 0x1 PUSH1 0x1 PUSH1 0xA0 SHL SUB DUP3 AND DUP3 SUB PUSH2 0xA8 JUMPI JUMP INVALID PUSH1 0x80 PUSH1 0x40 MSTORE PUSH1 0x4 CALLDATASIZE LT ISZERO PUSH2 0x12 JUMPI PUSH1 0x0 DUP1 REVERT JUMPDEST PUSH1 0x0 CALLDATALOAD PUSH1 0xE0 SHR DUP1 PUSH4 0x381EE79 EQ PUSH2 0xED7 JUMPI DUP1 PUSH4 0xF88E5CB EQ PUSH2 0xEAE JUMPI DUP1 PUSH4 0x25ED8243 EQ PUSH2 0xE2F JUMPI DUP1 PUSH4 0x29507F73 EQ PUSH2 0xD09 JUMPI DUP1 PUSH4 0x2DE5AAF7 EQ PUSH2 0xC5B JUMPI DUP1 PUSH4 0x2FC3643F EQ PUSH2 0xC2D JUMPI DUP1 PUSH4 0x30EFC498 EQ PUSH2 0x22D JUMPI DUP1 PUSH4 0x3E413BEE EQ PUSH2 0xBE8 JUMPI DUP1 PUSH4 0x49F3762E EQ PUSH2 0xBB4 JUMPI DUP1 PUSH4 0x513856C8 EQ PUSH2 0xB28 JUMPI DUP1 PUSH4 0x56C704B8 EQ PUSH2 0xAFF JUMPI DUP1 PUSH4 0x61D027B3 EQ PUSH2 0xAD6 JUMPI DUP1 PUSH4 0x6B8E6343 EQ PUSH2 0xAB8 JUMPI DUP1 PUSH4 0x6C86A430 EQ PUSH2 0xA8C JUMPI DUP1 PUSH4 0x704B6C02 EQ PUSH2 0xA45 JUMPI DUP1 PUSH4 0x7823B50F EQ PUSH2 0x9C5 JUMPI DUP1 PUSH4 0x7DF07608 EQ PUSH2 0x945 JUMPI DUP1 PUSH4 0x8868B9FF EQ PUSH2 0x927 JUMPI DUP1 PUSH4 0x8BD7551C EQ PUSH2 0x907 JUMPI DUP1 PUSH4 0x97B7A07F EQ PUSH2 0x3DE JUMPI DUP1 PUSH4 0xA435FD13 EQ PUSH2 0x3B5 JUMPI DUP1 PUSH4 0xB0034F0F EQ PUSH2 0x2CA JUMPI DUP1 PUSH4 0xC213A949 EQ PUSH2 0x24B JUMPI DUP1 PUSH4 0xC5053712 EQ PUSH2 0x22D JUMPI DUP1 PUSH4 0xD4AE96B4 EQ PUSH2 0x204 JUMPI DUP1 PUSH4 0xE729E3A4 EQ PUSH2 0x1CA JUMPI DUP1 PUSH4 0xF0F44260 EQ PUSH2 0x17E JUMPI PUSH4 0xF851A440 EQ PUSH2 0x150 JUMPI PUSH1 0x0 DUP1 REVERT JUMPDEST CALLVALUE PUSH2 0x179 JUMPI PUSH1 0x0 CALLDATASIZE PUSH1 0x3 NOT ADD SLT PUSH2 0x179 JUMPI PUSH1 0x8 SLOAD PUSH1 0x40 MLOAD PUSH1 0x1 PUSH1 0x1 PUSH1 0xA0 SHL SUB SWAP1 SWAP2 AND DUP2 MSTORE PUSH1 0x20 SWAP1 RETURN JUMPDEST PUSH1 0x0 DUP1 REVERT JUMPDEST CALLVALUE PUSH2 0x179 JUMPI PUSH1 0x20 CALLDATASIZE PUSH1 0x3 NOT ADD SLT PUSH2 0x179 JUMPI PUSH2 0x197 PUSH2 0xF9B JUMP JUMPDEST PUSH1 0x8 SLOAD PUSH1 0x1 PUSH1 0x1 PUSH1 0xA0 SHL SUB SWAP2 SWAP1 PUSH2 0x1B1 SWAP1 DUP4 AND CALLER EQ PUSH2 0x11F2 JUMP JUMPDEST AND PUSH1 0x1 PUSH1 0x1 PUSH1 0x60 SHL SUB PUSH1 0xA0 SHL PUSH1 0xA SLOAD AND OR PUSH1 0xA SSTORE PUSH1 0x0 DUP1 RETURN JUMPDEST CALLVALUE PUSH2 0x179 JUMPI PUSH1 0x20 CALLDATASIZE PUSH1 0x3 NOT ADD SLT PUSH2 0x179 JUMPI PUSH1 0x1 PUSH1 0x1 PUSH1 0xA0 SHL SUB PUSH2 0x1EB PUSH2 0xF9B JUMP JUMPDEST AND PUSH1 0x0 MSTORE PUSH1 0x3 PUSH1 0x20 MSTORE PUSH1 0x20 PUSH1 0x40 PUSH1 0x0 KECCAK256 SLOAD PUSH1 0x40 MLOAD SWAP1 DUP2 MSTORE RETURN JUMPDEST CALLVALUE PUSH2 0x179 JUMPI PUSH1 0x0 CALLDATASIZE PUSH1 0x3 NOT ADD SLT PUSH2 0x179 JUMPI PUSH1 0x5 SLOAD PUSH1 0x40 MLOAD PUSH1 0x1 PUSH1 0x1 PUSH1 0xA0 SHL SUB SWAP1 SWAP2 AND DUP2 MSTORE PUSH1 0x20 SWAP1 RETURN JUMPDEST CALLVALUE PUSH2 0x179 JUMPI PUSH1 0x0 CALLDATASIZE PUSH1 0x3 NOT ADD SLT PUSH2 0x179 JUMPI PUSH1 0x20 PUSH1 0x0 SLOAD PUSH1 0x40 MLOAD SWAP1 DUP2 MSTORE RETURN JUMPDEST CALLVALUE PUSH2 0x179 JUMPI PUSH1 0x20 CALLDATASIZE PUSH1 0x3 NOT ADD SLT PUSH2 0x179 JUMPI PUSH1 0x0 DUP1 MLOAD PUSH1 0x20 PUSH2 0x12A0 DUP4 CODECOPY DUP2 MLOAD SWAP2 MSTORE PUSH1 0x80 PUSH2 0x275 PUSH2 0xF9B JUMP JUMPDEST PUSH1 0x8 SLOAD PUSH1 0x1 PUSH1 0x1 PUSH1 0xA0 SHL SUB SWAP2 SWAP1 PUSH2 0x28F SWAP1 DUP4 AND CALLER EQ PUSH2 0x11F2 JUMP JUMPDEST AND DUP1 PUSH1 0x1 PUSH1 0x1 PUSH1 0x60 SHL SUB PUSH1 0xA0 SHL PUSH1 0x7 SLOAD AND OR PUSH1 0x7 SSTORE PUSH1 0x40 MLOAD SWAP1 PUSH1 0x40 DUP3 MSTORE PUSH1 0x6 PUSH1 0x40 DUP4 ADD MSTORE PUSH6 0x617373657473 PUSH1 0xD0 SHL PUSH1 0x60 DUP4 ADD MSTORE PUSH1 0x20 DUP3 ADD MSTORE LOG1 STOP JUMPDEST CALLVALUE PUSH2 0x179 JUMPI PUSH1 0x20 DUP1 PUSH1 0x3 NOT CALLDATASIZE ADD SLT PUSH2 0x179 JUMPI PUSH1 0x4 CALLDATALOAD SWAP1 PUSH8 0xFFFFFFFFFFFFFFFF DUP3 GT PUSH2 0x179 JUMPI PUSH2 0x313 PUSH2 0x303 PUSH2 0x3B1 SWAP4 CALLDATASIZE SWAP1 PUSH1 0x4 ADD PUSH2 0x117D JUMP JUMPDEST PUSH2 0x30B PUSH2 0x122A JUMP JUMPDEST POP CALLDATASIZE SWAP2 PUSH2 0x11AB JUMP JUMPDEST DUP2 DUP2 MLOAD SWAP2 ADD KECCAK256 PUSH1 0x0 MSTORE PUSH1 0x2 DUP2 MSTORE PUSH1 0x40 PUSH1 0x0 KECCAK256 SLOAD DUP1 PUSH1 0x0 MSTORE PUSH1 0x1 DUP3 MSTORE PUSH2 0x342 PUSH1 0xFF PUSH1 0x5 PUSH1 0x40 PUSH1 0x0 KECCAK256 ADD SLOAD AND PUSH2 0x125C JUMP JUMPDEST PUSH1 0x0 MSTORE PUSH1 0x1 DUP2 MSTORE PUSH1 0xFF PUSH1 0x5 PUSH1 0x40 PUSH1 0x0 KECCAK256 PUSH1 0x40 MLOAD SWAP4 PUSH2 0x35F DUP6 PUSH2 0x1099 JUMP JUMPDEST DUP2 SLOAD DUP6 MSTORE PUSH2 0x36F PUSH1 0x1 DUP4 ADD PUSH2 0x10D7 JUMP JUMPDEST SWAP1 DUP6 ADD MSTORE PUSH1 0x1 DUP1 PUSH1 0xA0 SHL SUB DUP1 PUSH1 0x2 DUP4 ADD SLOAD AND PUSH1 0x40 DUP7 ADD MSTORE PUSH1 0x3 DUP3 ADD SLOAD AND PUSH1 0x60 DUP6 ADD MSTORE PUSH1 0x4 DUP2 ADD SLOAD PUSH1 0x80 DUP6 ADD MSTORE ADD SLOAD AND ISZERO ISZERO PUSH1 0xA0 DUP3 ADD MSTORE PUSH1 0x40 MLOAD SWAP2 DUP3 SWAP2 DUP3 PUSH2 0x1007 JUMP JUMPDEST SUB SWAP1 RETURN JUMPDEST CALLVALUE PUSH2 0x179 JUMPI PUSH1 0x0 CALLDATASIZE PUSH1 0x3 NOT ADD SLT PUSH2 0x179 JUMPI PUSH1 0x6 SLOAD PUSH1 0x40 MLOAD PUSH1 0x1 PUSH1 0x1 PUSH1 0xA0 SHL SUB SWAP1 SWAP2 AND DUP2 MSTORE PUSH1 0x20 SWAP1 RETURN JUMPDEST CALLVALUE PUSH2 0x179 JUMPI PUSH1 0x40 CALLDATASIZE PUSH1 0x3 NOT ADD SLT PUSH2 0x179 JUMPI PUSH1 0x4 CALLDATALOAD PUSH8 0xFFFFFFFFFFFFFFFF DUP2 GT PUSH2 0x179 JUMPI PUSH2 0x40F SWAP1 CALLDATASIZE SWAP1 PUSH1 0x4 ADD PUSH2 0x117D JUMP JUMPDEST PUSH2 0x417 PUSH2 0xFB1 JUMP JUMPDEST PUSH2 0x422 CALLDATASIZE DUP4 DUP6 PUSH2 0x11AB JUMP JUMPDEST PUSH1 0x20 DUP2 MLOAD SWAP2 ADD KECCAK256 SWAP2 DUP3 PUSH1 0x0 MSTORE PUSH1 0x2 PUSH1 0x20 MSTORE PUSH1 0x40 PUSH1 0x0 KECCAK256 SLOAD DUP1 ISZERO SWAP1 DUP2 ISZERO PUSH2 0x8EA JUMPI JUMPDEST POP ISZERO PUSH2 0x8B8 JUMPI PUSH1 0x1 PUSH1 0x1 PUSH1 0xA0 SHL SUB DUP3 AND PUSH1 0x0 SWAP1 DUP2 MSTORE PUSH1 0x3 PUSH1 0x20 MSTORE PUSH1 0x40 SWAP1 KECCAK256 SLOAD PUSH2 0x873 JUMPI PUSH1 0x9 SLOAD ISZERO PUSH2 0x781 JUMPI PUSH1 0x9 SLOAD DUP1 ISZERO PUSH2 0x76B JUMPI PUSH1 0x0 NOT ADD DUP1 PUSH1 0x9 SSTORE PUSH32 0xF6F9047A0AB0A4711F58DE93A110ABD09B7757B68800B28F74FC98CF469F3059 PUSH1 0x20 PUSH1 0x0 SLOAD SWAP3 PUSH1 0x40 MLOAD SWAP1 DUP2 MSTORE LOG2 JUMPDEST PUSH1 0x0 SLOAD SWAP3 PUSH1 0x0 NOT DUP5 EQ PUSH2 0x76B JUMPI PUSH1 0x1 DUP5 ADD PUSH1 0x0 SSTORE PUSH1 0x40 MLOAD SWAP1 PUSH2 0x4CF DUP3 PUSH2 0x1099 JUMP JUMPDEST DUP5 DUP3 MSTORE PUSH2 0x4DD CALLDATASIZE DUP5 DUP9 PUSH2 0x11AB JUMP JUMPDEST SWAP2 PUSH1 0x20 DUP2 ADD SWAP3 DUP4 MSTORE PUSH1 0x1 DUP1 PUSH1 0xA0 SHL SUB DUP6 AND PUSH1 0x40 DUP3 ADD MSTORE CALLER PUSH1 0x60 DUP3 ADD MSTORE TIMESTAMP PUSH1 0x80 DUP3 ADD MSTORE PUSH1 0x1 PUSH1 0xA0 DUP3 ADD MSTORE DUP6 PUSH1 0x0 MSTORE PUSH1 0x1 PUSH1 0x20 MSTORE PUSH1 0x40 PUSH1 0x0 KECCAK256 SWAP3 DUP2 MLOAD DUP5 SSTORE MLOAD DUP1 MLOAD SWAP1 PUSH8 0xFFFFFFFFFFFFFFFF DUP3 GT PUSH2 0x755 JUMPI PUSH2 0x539 PUSH1 0x1 DUP7 ADD SLOAD PUSH2 0x105F JUMP JUMPDEST PUSH1 0x1F DUP2 GT PUSH2 0x70E JUMPI JUMPDEST POP SWAP2 DUP8 SWAP4 SWAP2 PUSH1 0x20 SWAP10 SWAP4 DUP11 SWAP1 PUSH1 0x1F DUP4 GT PUSH1 0x1 EQ PUSH2 0x674 JUMPI SWAP7 DUP3 PUSH1 0xA0 SWAP4 PUSH1 0x5 SWAP4 PUSH32 0x9EFFC2CF8372F40ED7734CDBF767B74BFEF2E3916A3342B1B86DB64A9393305D SWAP10 SWAP11 PUSH1 0x0 SWAP3 PUSH2 0x669 JUMPI JUMPDEST POP POP DUP2 PUSH1 0x1 SHL SWAP2 PUSH1 0x0 NOT SWAP1 PUSH1 0x3 SHL SHR NOT AND OR PUSH1 0x1 DUP3 ADD SSTORE JUMPDEST PUSH1 0x2 DUP2 ADD PUSH1 0x1 DUP1 DUP6 SHL SUB PUSH1 0x40 DUP7 ADD MLOAD AND SWAP1 PUSH1 0x1 PUSH1 0x1 PUSH1 0x60 SHL SUB DUP6 SHL SWAP2 DUP3 DUP3 SLOAD AND OR SWAP1 SSTORE PUSH1 0x3 DUP3 ADD SWAP1 PUSH1 0x1 DUP1 DUP7 SHL SUB PUSH1 0x60 DUP8 ADD MLOAD AND SWAP1 DUP3 SLOAD AND OR SWAP1 SSTORE PUSH1 0x80 DUP5 ADD MLOAD PUSH1 0x4 DUP3 ADD SSTORE ADD SWAP2 ADD MLOAD ISZERO ISZERO PUSH1 0xFF DUP1 NOT DUP4 SLOAD AND SWAP2 AND OR SWAP1 SSTORE PUSH1 0x0 MSTORE PUSH1 0x2 DUP8 MSTORE DUP3 PUSH1 0x40 PUSH1 0x0 KECCAK256 SSTORE PUSH1 0x1 DUP1 PUSH1 0xA0 SHL SUB DUP6 AND PUSH1 0x0 MSTORE PUSH1 0x3 DUP8 MSTORE DUP3 PUSH1 0x40 PUSH1 0x0 KECCAK256 SSTORE DUP4 PUSH1 0x40 MLOAD SWAP2 PUSH1 0x40 DUP4 MSTORE DUP2 PUSH1 0x40 DUP5 ADD MSTORE PUSH1 0x60 DUP4 ADD CALLDATACOPY PUSH1 0x0 DUP2 DUP6 ADD PUSH1 0x60 SWAP1 DUP2 ADD SWAP2 SWAP1 SWAP2 MSTORE TIMESTAMP DUP9 DUP4 ADD MSTORE CALLER SWAP6 PUSH1 0x1 PUSH1 0x1 PUSH1 0xA0 SHL SUB AND SWAP5 PUSH1 0x1F ADD PUSH1 0x1F NOT AND DUP3 ADD DUP3 SWAP1 SUB ADD SWAP1 LOG4 PUSH1 0x40 MLOAD SWAP1 DUP2 MSTORE RETURN JUMPDEST ADD MLOAD SWAP1 POP DUP15 DUP1 PUSH2 0x58B JUMP JUMPDEST PUSH1 0x1 DUP9 SWAP4 SWAP3 SWAP9 ADD PUSH1 0x0 MSTORE DUP12 PUSH1 0x0 KECCAK256 SWAP1 PUSH1 0x0 JUMPDEST PUSH1 0x1F NOT DUP5 AND DUP2 LT PUSH2 0x6F4 JUMPI POP DUP3 PUSH1 0xA0 SWAP5 SWAP3 PUSH32 0x9EFFC2CF8372F40ED7734CDBF767B74BFEF2E3916A3342B1B86DB64A9393305D SWAP10 SWAP11 PUSH1 0x1 SWAP4 PUSH1 0x5 SWAP7 PUSH1 0x1F NOT DUP2 AND LT PUSH2 0x6DB JUMPI JUMPDEST POP POP POP DUP2 SHL ADD PUSH1 0x1 DUP3 ADD SSTORE PUSH2 0x5A3 JUMP JUMPDEST ADD MLOAD PUSH1 0x0 NOT PUSH1 0xF8 DUP5 PUSH1 0x3 SHL AND SHR NOT AND SWAP1 SSTORE DUP15 DUP1 DUP1 PUSH2 0x6CB JUMP JUMPDEST DUP2 DUP11 ADD MLOAD DUP4 SSTORE SWAP9 DUP14 ADD SWAP9 DUP13 SWAP9 POP PUSH1 0x1 SWAP1 SWAP3 ADD SWAP2 DUP14 ADD PUSH2 0x686 JUMP JUMPDEST PUSH1 0x1 DUP7 ADD PUSH1 0x0 MSTORE PUSH1 0x20 PUSH1 0x0 KECCAK256 PUSH1 0x1F DUP5 ADD PUSH1 0x5 SHR DUP2 ADD PUSH1 0x20 DUP6 LT PUSH2 0x74E JUMPI JUMPDEST PUSH1 0x1F DUP4 ADD PUSH1 0x5 SHR DUP3 ADD DUP2 LT PUSH2 0x742 JUMPI POP POP PUSH2 0x542 JUMP JUMPDEST PUSH1 0x0 DUP2 SSTORE PUSH1 0x1 ADD PUSH2 0x72C JUMP JUMPDEST POP DUP1 PUSH2 0x72C JUMP JUMPDEST PUSH4 0x4E487B71 PUSH1 0xE0 SHL PUSH1 0x0 MSTORE PUSH1 0x41 PUSH1 0x4 MSTORE PUSH1 0x24 PUSH1 0x0 REVERT JUMPDEST PUSH4 0x4E487B71 PUSH1 0xE0 SHL PUSH1 0x0 MSTORE PUSH1 0x11 PUSH1 0x4 MSTORE PUSH1 0x24 PUSH1 0x0 REVERT JUMPDEST PUSH1 0xA SLOAD PUSH1 0x40 MLOAD PUSH4 0x23B872DD PUSH1 0xE0 SHL DUP2 MSTORE CALLER PUSH1 0x4 DUP3 ADD MSTORE PUSH1 0x1 PUSH1 0x1 PUSH1 0xA0 SHL SUB SWAP2 DUP3 AND PUSH1 0x24 DUP3 ADD MSTORE PUSH3 0x694920 PUSH1 0x44 DUP3 ADD MSTORE SWAP1 PUSH1 0x20 SWAP1 DUP3 SWAP1 PUSH1 0x64 SWAP1 DUP3 SWAP1 PUSH1 0x0 SWAP1 PUSH32 0x0 AND GAS CALL SWAP1 DUP2 ISZERO PUSH2 0x867 JUMPI PUSH1 0x0 SWAP2 PUSH2 0x82C JUMPI JUMPDEST POP PUSH2 0x4AE JUMPI PUSH1 0x40 MLOAD PUSH3 0x461BCD PUSH1 0xE5 SHL DUP2 MSTORE PUSH1 0x20 PUSH1 0x4 DUP3 ADD MSTORE PUSH1 0xE PUSH1 0x24 DUP3 ADD MSTORE PUSH14 0x14185E5B595B9D0819985A5B1959 PUSH1 0x92 SHL PUSH1 0x44 DUP3 ADD MSTORE PUSH1 0x64 SWAP1 REVERT JUMPDEST SWAP1 POP PUSH1 0x20 DUP2 RETURNDATASIZE PUSH1 0x20 GT PUSH2 0x85F JUMPI JUMPDEST DUP2 PUSH2 0x847 PUSH1 0x20 SWAP4 DUP4 PUSH2 0x10B5 JUMP JUMPDEST DUP2 ADD SUB SLT PUSH2 0x179 JUMPI MLOAD DUP1 ISZERO ISZERO DUP2 SUB PUSH2 0x179 JUMPI DUP6 PUSH2 0x7F1 JUMP JUMPDEST RETURNDATASIZE SWAP2 POP PUSH2 0x83A JUMP JUMPDEST PUSH1 0x40 MLOAD RETURNDATASIZE PUSH1 0x0 DUP3 RETURNDATACOPY RETURNDATASIZE SWAP1 REVERT JUMPDEST PUSH1 0x40 MLOAD PUSH3 0x461BCD PUSH1 0xE5 SHL DUP2 MSTORE PUSH1 0x20 PUSH1 0x4 DUP3 ADD MSTORE PUSH1 0x18 PUSH1 0x24 DUP3 ADD MSTORE PUSH32 0x57616C6C657420616C726561647920686173206167656E740000000000000000 PUSH1 0x44 DUP3 ADD MSTORE PUSH1 0x64 SWAP1 REVERT JUMPDEST PUSH1 0x40 MLOAD PUSH3 0x461BCD PUSH1 0xE5 SHL DUP2 MSTORE PUSH1 0x20 PUSH1 0x4 DUP3 ADD MSTORE PUSH1 0xA PUSH1 0x24 DUP3 ADD MSTORE PUSH10 0x2730B6B2903A30B5B2B7 PUSH1 0xB1 SHL PUSH1 0x44 DUP3 ADD MSTORE PUSH1 0x64 SWAP1 REVERT JUMPDEST SWAP1 POP PUSH1 0x0 MSTORE PUSH1 0x1 PUSH1 0x20 MSTORE PUSH1 0xFF PUSH1 0x5 PUSH1 0x40 PUSH1 0x0 KECCAK256 ADD SLOAD AND ISZERO DUP6 PUSH2 0x443 JUMP JUMPDEST CALLVALUE PUSH2 0x179 JUMPI PUSH1 0x0 CALLDATASIZE PUSH1 0x3 NOT ADD SLT PUSH2 0x179 JUMPI PUSH1 0x20 PUSH1 0x9 SLOAD ISZERO ISZERO PUSH1 0x40 MLOAD SWAP1 DUP2 MSTORE RETURN JUMPDEST CALLVALUE PUSH2 0x179 JUMPI PUSH1 0x0 CALLDATASIZE PUSH1 0x3 NOT ADD SLT PUSH2 0x179 JUMPI PUSH1 0x20 PUSH1 0x9 SLOAD PUSH1 0x40 MLOAD SWAP1 DUP2 MSTORE RETURN JUMPDEST CALLVALUE PUSH2 0x179 JUMPI PUSH1 0x20 CALLDATASIZE PUSH1 0x3 NOT ADD SLT PUSH2 0x179 JUMPI PUSH1 0x0 DUP1 MLOAD PUSH1 0x20 PUSH2 0x12A0 DUP4 CODECOPY DUP2 MLOAD SWAP2 MSTORE PUSH1 0x80 PUSH2 0x96F PUSH2 0xF9B JUMP JUMPDEST PUSH1 0x8 SLOAD PUSH1 0x1 PUSH1 0x1 PUSH1 0xA0 SHL SUB SWAP2 SWAP1 PUSH2 0x989 SWAP1 DUP4 AND CALLER EQ PUSH2 0x11F2 JUMP JUMPDEST AND DUP1 PUSH1 0x1 PUSH1 0x1 PUSH1 0x60 SHL SUB PUSH1 0xA0 SHL PUSH1 0x4 SLOAD AND OR PUSH1 0x4 SSTORE PUSH1 0x40 MLOAD SWAP1 PUSH1 0x40 DUP3 MSTORE PUSH1 0x7 PUSH1 0x40 DUP4 ADD MSTORE PUSH7 0x70726F66696C65 PUSH1 0xC8 SHL PUSH1 0x60 DUP4 ADD MSTORE PUSH1 0x20 DUP3 ADD MSTORE LOG1 STOP JUMPDEST CALLVALUE PUSH2 0x179 JUMPI PUSH1 0x20 CALLDATASIZE PUSH1 0x3 NOT ADD SLT PUSH2 0x179 JUMPI PUSH1 0x0 DUP1 MLOAD PUSH1 0x20 PUSH2 0x12A0 DUP4 CODECOPY DUP2 MLOAD SWAP2 MSTORE PUSH1 0x80 PUSH2 0x9EF PUSH2 0xF9B JUMP JUMPDEST PUSH1 0x8 SLOAD PUSH1 0x1 PUSH1 0x1 PUSH1 0xA0 SHL SUB SWAP2 SWAP1 PUSH2 0xA09 SWAP1 DUP4 AND CALLER EQ PUSH2 0x11F2 JUMP JUMPDEST AND DUP1 PUSH1 0x1 PUSH1 0x1 PUSH1 0x60 SHL SUB PUSH1 0xA0 SHL PUSH1 0x5 SLOAD AND OR PUSH1 0x5 SSTORE PUSH1 0x40 MLOAD SWAP1 PUSH1 0x40 DUP3 MSTORE PUSH1 0x7 PUSH1 0x40 DUP4 ADD MSTORE PUSH7 0x18DBDB9D195B9D PUSH1 0xCA SHL PUSH1 0x60 DUP4 ADD MSTORE PUSH1 0x20 DUP3 ADD MSTORE LOG1 STOP JUMPDEST CALLVALUE PUSH2 0x179 JUMPI PUSH1 0x20 CALLDATASIZE PUSH1 0x3 NOT ADD SLT PUSH2 0x179 JUMPI PUSH2 0xA5E PUSH2 0xF9B JUMP JUMPDEST PUSH1 0x8 SLOAD SWAP1 PUSH1 0x1 PUSH1 0x1 PUSH1 0xA0 SHL SUB SWAP1 PUSH2 0xA78 CALLER DUP4 DUP6 AND EQ PUSH2 0x11F2 JUMP JUMPDEST PUSH1 0x1 PUSH1 0x1 PUSH1 0xA0 SHL SUB NOT SWAP1 SWAP3 AND SWAP2 AND OR PUSH1 0x8 SSTORE STOP JUMPDEST CALLVALUE PUSH2 0x179 JUMPI PUSH1 0x20 CALLDATASIZE PUSH1 0x3 NOT ADD SLT PUSH2 0x179 JUMPI PUSH1 0x4 CALLDATALOAD PUSH1 0x0 MSTORE PUSH1 0x2 PUSH1 0x20 MSTORE PUSH1 0x20 PUSH1 0x40 PUSH1 0x0 KECCAK256 SLOAD PUSH1 0x40 MLOAD SWAP1 DUP2 MSTORE RETURN JUMPDEST CALLVALUE PUSH2 0x179 JUMPI PUSH1 0x0 CALLDATASIZE PUSH1 0x3 NOT ADD SLT PUSH2 0x179 JUMPI PUSH1 0x20 PUSH1 0x40 MLOAD PUSH3 0x694920 DUP2 MSTORE RETURN JUMPDEST CALLVALUE PUSH2 0x179 JUMPI PUSH1 0x0 CALLDATASIZE PUSH1 0x3 NOT ADD SLT PUSH2 0x179 JUMPI PUSH1 0xA SLOAD PUSH1 0x40 MLOAD PUSH1 0x1 PUSH1 0x1 PUSH1 0xA0 SHL SUB SWAP1 SWAP2 AND DUP2 MSTORE PUSH1 0x20 SWAP1 RETURN JUMPDEST CALLVALUE PUSH2 0x179 JUMPI PUSH1 0x0 CALLDATASIZE PUSH1 0x3 NOT ADD SLT PUSH2 0x179 JUMPI PUSH1 0x7 SLOAD PUSH1 0x40 MLOAD PUSH1 0x1 PUSH1 0x1 PUSH1 0xA0 SHL SUB SWAP1 SWAP2 AND DUP2 MSTORE PUSH1 0x20 SWAP1 RETURN JUMPDEST CALLVALUE PUSH2 0x179 JUMPI PUSH1 0x20 CALLDATASIZE PUSH1 0x3 NOT ADD SLT PUSH2 0x179 JUMPI PUSH1 0x4 CALLDATALOAD PUSH1 0x0 MSTORE PUSH1 0x1 PUSH1 0x20 MSTORE PUSH1 0x40 PUSH1 0x0 KECCAK256 DUP1 SLOAD PUSH2 0xB57 PUSH1 0x1 DUP4 ADD PUSH2 0x10D7 JUMP JUMPDEST SWAP2 PUSH1 0x1 DUP1 PUSH1 0xA0 SHL SUB SWAP1 DUP2 PUSH1 0x2 DUP3 ADD SLOAD AND SWAP2 PUSH1 0x3 DUP3 ADD SLOAD AND SWAP1 PUSH1 0xFF PUSH1 0x5 PUSH1 0x4 DUP4 ADD SLOAD SWAP3 ADD SLOAD AND SWAP2 PUSH2 0xB99 PUSH1 0x40 MLOAD SWAP7 DUP8 SWAP7 DUP8 MSTORE PUSH1 0xC0 PUSH1 0x20 DUP9 ADD MSTORE PUSH1 0xC0 DUP8 ADD SWAP1 PUSH2 0xFC7 JUMP JUMPDEST SWAP4 PUSH1 0x40 DUP7 ADD MSTORE PUSH1 0x60 DUP6 ADD MSTORE PUSH1 0x80 DUP5 ADD MSTORE ISZERO ISZERO PUSH1 0xA0 DUP4 ADD MSTORE SUB SWAP1 RETURN JUMPDEST CALLVALUE PUSH2 0x179 JUMPI PUSH1 0x20 CALLDATASIZE PUSH1 0x3 NOT ADD SLT PUSH2 0x179 JUMPI PUSH1 0x4 CALLDATALOAD PUSH1 0x0 MSTORE PUSH1 0x1 PUSH1 0x20 MSTORE PUSH1 0x20 PUSH1 0xFF PUSH1 0x5 PUSH1 0x40 PUSH1 0x0 KECCAK256 ADD SLOAD AND PUSH1 0x40 MLOAD SWAP1 ISZERO ISZERO DUP2 MSTORE RETURN JUMPDEST CALLVALUE PUSH2 0x179 JUMPI PUSH1 0x0 CALLDATASIZE PUSH1 0x3 NOT ADD SLT PUSH2 0x179 JUMPI PUSH1 0x40 MLOAD PUSH32 0x0 PUSH1 0x1 PUSH1 0x1 PUSH1 0xA0 SHL SUB AND DUP2 MSTORE PUSH1 0x20 SWAP1 RETURN JUMPDEST CALLVALUE PUSH2 0x179 JUMPI PUSH1 0x20 CALLDATASIZE PUSH1 0x3 NOT ADD SLT PUSH2 0x179 JUMPI PUSH2 0xC53 PUSH1 0x1 DUP1 PUSH1 0xA0 SHL SUB PUSH1 0x8 SLOAD AND CALLER EQ PUSH2 0x11F2 JUMP JUMPDEST PUSH1 0x4 CALLDATALOAD PUSH1 0x9 SSTORE STOP JUMPDEST CALLVALUE PUSH2 0x179 JUMPI PUSH1 0x20 CALLDATASIZE PUSH1 0x3 NOT ADD SLT PUSH2 0x179 JUMPI PUSH1 0x4 CALLDATALOAD PUSH2 0xC77 PUSH2 0x122A JUMP JUMPDEST POP DUP1 PUSH1 0x0 MSTORE PUSH1 0x1 PUSH1 0x20 MSTORE PUSH2 0xC95 PUSH1 0xFF PUSH1 0x5 PUSH1 0x40 PUSH1 0x0 KECCAK256 ADD SLOAD AND PUSH2 0x125C JUMP JUMPDEST PUSH1 0x0 MSTORE PUSH1 0x1 PUSH1 0x20 MSTORE PUSH2 0x3B1 PUSH1 0x40 PUSH1 0x0 KECCAK256 PUSH1 0xFF PUSH1 0x5 PUSH1 0x40 MLOAD SWAP3 PUSH2 0xCB6 DUP5 PUSH2 0x1099 JUMP JUMPDEST DUP1 SLOAD DUP5 MSTORE PUSH2 0xCC6 PUSH1 0x1 DUP3 ADD PUSH2 0x10D7 JUMP JUMPDEST PUSH1 0x20 DUP6 ADD MSTORE PUSH1 0x1 DUP1 PUSH1 0xA0 SHL SUB DUP1 PUSH1 0x2 DUP4 ADD SLOAD AND PUSH1 0x40 DUP7 ADD MSTORE PUSH1 0x3 DUP3 ADD SLOAD AND PUSH1 0x60 DUP6 ADD MSTORE PUSH1 0x4 DUP2 ADD SLOAD PUSH1 0x80 DUP6 ADD MSTORE ADD SLOAD AND ISZERO ISZERO PUSH1 0xA0 DUP3 ADD MSTORE PUSH1 0x40 MLOAD SWAP2 DUP3 SWAP2 DUP3 PUSH2 0x1007 JUMP JUMPDEST CALLVALUE PUSH2 0x179 JUMPI PUSH1 0x40 CALLDATASIZE PUSH1 0x3 NOT ADD SLT PUSH2 0x179 JUMPI PUSH1 0x4 CALLDATALOAD PUSH2 0xD25 PUSH2 0xFB1 JUMP JUMPDEST DUP2 PUSH1 0x0 MSTORE PUSH1 0x20 SWAP1 PUSH1 0x1 DUP3 MSTORE PUSH1 0x1 DUP1 PUSH1 0xA0 SHL SUB SWAP1 DUP2 PUSH1 0x2 PUSH1 0x40 PUSH1 0x0 KECCAK256 ADD SLOAD AND CALLER SUB PUSH2 0xDF8 JUMPI DUP2 AND SWAP1 DUP2 PUSH1 0x0 MSTORE PUSH1 0x3 DUP4 MSTORE PUSH1 0x40 PUSH1 0x0 KECCAK256 SLOAD PUSH2 0xDB3 JUMPI SWAP1 PUSH1 0x3 SWAP3 SWAP2 DUP5 PUSH1 0x0 MSTORE PUSH1 0x1 DUP4 MSTORE PUSH1 0x2 PUSH1 0x40 PUSH1 0x0 KECCAK256 ADD SLOAD AND PUSH1 0x0 MSTORE DUP3 DUP3 MSTORE PUSH1 0x0 PUSH1 0x40 DUP2 KECCAK256 SSTORE DUP4 PUSH1 0x0 MSTORE PUSH1 0x1 DUP3 MSTORE PUSH1 0x2 PUSH1 0x40 PUSH1 0x0 KECCAK256 ADD DUP2 PUSH1 0x1 PUSH1 0x1 PUSH1 0x60 SHL SUB PUSH1 0xA0 SHL DUP3 SLOAD AND OR SWAP1 SSTORE PUSH1 0x0 MSTORE MSTORE PUSH1 0x40 PUSH1 0x0 KECCAK256 SSTORE PUSH1 0x0 DUP1 RETURN JUMPDEST PUSH1 0x40 MLOAD PUSH3 0x461BCD PUSH1 0xE5 SHL DUP2 MSTORE PUSH1 0x4 DUP2 ADD DUP5 SWAP1 MSTORE PUSH1 0x1B PUSH1 0x24 DUP3 ADD MSTORE PUSH32 0x4E6577206F776E657220616C726561647920686173206167656E740000000000 PUSH1 0x44 DUP3 ADD MSTORE PUSH1 0x64 SWAP1 REVERT JUMPDEST PUSH1 0x40 MLOAD PUSH3 0x461BCD PUSH1 0xE5 SHL DUP2 MSTORE PUSH1 0x4 DUP2 ADD DUP5 SWAP1 MSTORE PUSH1 0xF PUSH1 0x24 DUP3 ADD MSTORE PUSH15 0x2737BA1030B3B2B73A1037BBB732B9 PUSH1 0x89 SHL PUSH1 0x44 DUP3 ADD MSTORE PUSH1 0x64 SWAP1 REVERT JUMPDEST CALLVALUE PUSH2 0x179 JUMPI PUSH1 0x20 CALLDATASIZE PUSH1 0x3 NOT ADD SLT PUSH2 0x179 JUMPI PUSH1 0x0 DUP1 MLOAD PUSH1 0x20 PUSH2 0x12A0 DUP4 CODECOPY DUP2 MLOAD SWAP2 MSTORE PUSH1 0x80 PUSH2 0xE59 PUSH2 0xF9B JUMP JUMPDEST PUSH1 0x8 SLOAD PUSH1 0x1 PUSH1 0x1 PUSH1 0xA0 SHL SUB SWAP2 SWAP1 PUSH2 0xE73 SWAP1 DUP4 AND CALLER EQ PUSH2 0x11F2 JUMP JUMPDEST AND DUP1 PUSH1 0x1 PUSH1 0x1 PUSH1 0x60 SHL SUB PUSH1 0xA0 SHL PUSH1 0x6 SLOAD AND OR PUSH1 0x6 SSTORE PUSH1 0x40 MLOAD SWAP1 PUSH1 0x40 DUP3 MSTORE PUSH1 0x6 PUSH1 0x40 DUP4 ADD MSTORE PUSH6 0x1CDBD8DA585B PUSH1 0xD2 SHL PUSH1 0x60 DUP4 ADD MSTORE PUSH1 0x20 DUP3 ADD MSTORE LOG1 STOP JUMPDEST CALLVALUE PUSH2 0x179 JUMPI PUSH1 0x0 CALLDATASIZE PUSH1 0x3 NOT ADD SLT PUSH2 0x179 JUMPI PUSH1 0x4 SLOAD PUSH1 0x40 MLOAD PUSH1 0x1 PUSH1 0x1 PUSH1 0xA0 SHL SUB SWAP1 SWAP2 AND DUP2 MSTORE PUSH1 0x20 SWAP1 RETURN JUMPDEST CALLVALUE PUSH2 0x179 JUMPI PUSH1 0x20 CALLDATASIZE PUSH1 0x3 NOT ADD SLT PUSH2 0x179 JUMPI PUSH2 0x3B1 PUSH2 0xEF3 PUSH2 0xF9B JUMP JUMPDEST PUSH2 0xEFB PUSH2 0x122A JUMP JUMPDEST POP PUSH1 0x1 DUP1 PUSH1 0xA0 SHL SUB DUP1 SWAP2 AND PUSH1 0x0 MSTORE PUSH1 0x3 PUSH1 0x20 MSTORE PUSH1 0x40 PUSH1 0x0 KECCAK256 SLOAD DUP1 PUSH1 0x0 MSTORE PUSH1 0x1 PUSH1 0x20 MSTORE PUSH2 0xF31 PUSH1 0xFF PUSH1 0x5 PUSH1 0x40 PUSH1 0x0 KECCAK256 ADD SLOAD AND PUSH2 0x125C JUMP JUMPDEST PUSH1 0x0 MSTORE PUSH1 0x1 PUSH1 0x20 MSTORE PUSH1 0xFF PUSH1 0x5 PUSH1 0x40 PUSH1 0x0 KECCAK256 PUSH1 0x40 MLOAD SWAP4 PUSH2 0xF4F DUP6 PUSH2 0x1099 JUMP JUMPDEST DUP2 SLOAD DUP6 MSTORE PUSH2 0xF5F PUSH1 0x1 DUP4 ADD PUSH2 0x10D7 JUMP JUMPDEST PUSH1 0x20 DUP7 ADD MSTORE DUP1 PUSH1 0x2 DUP4 ADD SLOAD AND PUSH1 0x40 DUP7 ADD MSTORE PUSH1 0x3 DUP3 ADD SLOAD AND PUSH1 0x60 DUP6 ADD MSTORE PUSH1 0x4 DUP2 ADD SLOAD PUSH1 0x80 DUP6 ADD MSTORE ADD SLOAD AND ISZERO ISZERO PUSH1 0xA0 DUP3 ADD MSTORE PUSH1 0x40 MLOAD SWAP2 DUP3 SWAP2 DUP3 PUSH2 0x1007 JUMP JUMPDEST PUSH1 0x4 CALLDATALOAD SWAP1 PUSH1 0x1 PUSH1 0x1 PUSH1 0xA0 SHL SUB DUP3 AND DUP3 SUB PUSH2 0x179 JUMPI JUMP JUMPDEST PUSH1 0x24 CALLDATALOAD SWAP1 PUSH1 0x1 PUSH1 0x1 PUSH1 0xA0 SHL SUB DUP3 AND DUP3 SUB PUSH2 0x179 JUMPI JUMP JUMPDEST SWAP2 SWAP1 DUP3 MLOAD SWAP3 DUP4 DUP3 MSTORE PUSH1 0x0 JUMPDEST DUP5 DUP2 LT PUSH2 0xFF3 JUMPI POP POP DUP3 PUSH1 0x0 PUSH1 0x20 DUP1 SWAP5 SWAP6 DUP5 ADD ADD MSTORE PUSH1 0x1F DUP1 NOT SWAP2 ADD AND ADD ADD SWAP1 JUMP JUMPDEST PUSH1 0x20 DUP2 DUP4 ADD DUP2 ADD MLOAD DUP5 DUP4 ADD DUP3 ADD MSTORE ADD PUSH2 0xFD2 JUMP JUMPDEST PUSH1 0x20 DUP2 MSTORE DUP2 MLOAD PUSH1 0x20 DUP3 ADD MSTORE PUSH1 0xC0 PUSH1 0xA0 PUSH2 0x102E PUSH1 0x20 DUP6 ADD MLOAD DUP4 PUSH1 0x40 DUP7 ADD MSTORE PUSH1 0xE0 DUP6 ADD SWAP1 PUSH2 0xFC7 JUMP JUMPDEST SWAP4 PUSH1 0x1 DUP1 DUP4 SHL SUB DUP1 PUSH1 0x40 DUP4 ADD MLOAD AND PUSH1 0x60 DUP7 ADD MSTORE PUSH1 0x60 DUP3 ADD MLOAD AND PUSH1 0x80 DUP6 ADD MSTORE PUSH1 0x80 DUP2 ADD MLOAD DUP3 DUP6 ADD MSTORE ADD MLOAD ISZERO ISZERO SWAP2 ADD MSTORE SWAP1 JUMP JUMPDEST SWAP1 PUSH1 0x1 DUP3 DUP2 SHR SWAP3 AND DUP1 ISZERO PUSH2 0x108F JUMPI JUMPDEST PUSH1 0x20 DUP4 LT EQ PUSH2 0x1079 JUMPI JUMP JUMPDEST PUSH4 0x4E487B71 PUSH1 0xE0 SHL PUSH1 0x0 MSTORE PUSH1 0x22 PUSH1 0x4 MSTORE PUSH1 0x24 PUSH1 0x0 REVERT JUMPDEST SWAP2 PUSH1 0x7F AND SWAP2 PUSH2 0x106E JUMP JUMPDEST PUSH1 0xC0 DUP2 ADD SWAP1 DUP2 LT PUSH8 0xFFFFFFFFFFFFFFFF DUP3 GT OR PUSH2 0x755 JUMPI PUSH1 0x40 MSTORE JUMP JUMPDEST SWAP1 PUSH1 0x1F DUP1 NOT SWAP2 ADD AND DUP2 ADD SWAP1 DUP2 LT PUSH8 0xFFFFFFFFFFFFFFFF DUP3 GT OR PUSH2 0x755 JUMPI PUSH1 0x40 MSTORE JUMP JUMPDEST SWAP1 PUSH1 0x40 MLOAD SWAP2 DUP3 PUSH1 0x0 DUP3 SLOAD SWAP3 PUSH2 0x10EB DUP5 PUSH2 0x105F JUMP JUMPDEST SWAP1 DUP2 DUP5 MSTORE PUSH1 0x1 SWAP5 DUP6 DUP2 AND SWAP1 DUP2 PUSH1 0x0 EQ PUSH2 0x115A JUMPI POP PUSH1 0x1 EQ PUSH2 0x1117 JUMPI JUMPDEST POP POP PUSH2 0x1115 SWAP3 POP SUB DUP4 PUSH2 0x10B5 JUMP JUMPDEST JUMP JUMPDEST SWAP1 SWAP4 SWAP2 POP PUSH1 0x0 MSTORE PUSH1 0x20 SWAP1 DUP2 PUSH1 0x0 KECCAK256 SWAP4 PUSH1 0x0 SWAP2 JUMPDEST DUP2 DUP4 LT PUSH2 0x1142 JUMPI POP POP PUSH2 0x1115 SWAP4 POP DUP3 ADD ADD CODESIZE DUP1 PUSH2 0x1107 JUMP JUMPDEST DUP6 SLOAD DUP9 DUP5 ADD DUP6 ADD MSTORE SWAP5 DUP6 ADD SWAP5 DUP8 SWAP5 POP SWAP2 DUP4 ADD SWAP2 PUSH2 0x112A JUMP JUMPDEST SWAP2 POP POP PUSH2 0x1115 SWAP5 POP PUSH1 0x20 SWAP3 POP PUSH1 0xFF NOT AND DUP3 DUP5 ADD MSTORE ISZERO ISZERO PUSH1 0x5 SHL DUP3 ADD ADD CODESIZE DUP1 PUSH2 0x1107 JUMP JUMPDEST SWAP2 DUP2 PUSH1 0x1F DUP5 ADD SLT ISZERO PUSH2 0x179 JUMPI DUP3 CALLDATALOAD SWAP2 PUSH8 0xFFFFFFFFFFFFFFFF DUP4 GT PUSH2 0x179 JUMPI PUSH1 0x20 DUP4 DUP2 DUP7 ADD SWAP6 ADD ADD GT PUSH2 0x179 JUMPI JUMP JUMPDEST SWAP3 SWAP2 SWAP3 PUSH8 0xFFFFFFFFFFFFFFFF DUP3 GT PUSH2 0x755 JUMPI PUSH1 0x40 MLOAD SWAP2 PUSH2 0x11D5 PUSH1 0x1F DUP3 ADD PUSH1 0x1F NOT AND PUSH1 0x20 ADD DUP5 PUSH2 0x10B5 JUMP JUMPDEST DUP3 SWAP5 DUP2 DUP5 MSTORE DUP2 DUP4 ADD GT PUSH2 0x179 JUMPI DUP3 DUP2 PUSH1 0x20 SWAP4 DUP5 PUSH1 0x0 SWAP7 ADD CALLDATACOPY ADD ADD MSTORE JUMP JUMPDEST ISZERO PUSH2 0x11F9 JUMPI JUMP JUMPDEST PUSH1 0x40 MLOAD PUSH3 0x461BCD PUSH1 0xE5 SHL DUP2 MSTORE PUSH1 0x20 PUSH1 0x4 DUP3 ADD MSTORE PUSH1 0x9 PUSH1 0x24 DUP3 ADD MSTORE PUSH9 0x2737BA1030B236B4B7 PUSH1 0xB9 SHL PUSH1 0x44 DUP3 ADD MSTORE PUSH1 0x64 SWAP1 REVERT JUMPDEST PUSH1 0x40 MLOAD SWAP1 PUSH2 0x1237 DUP3 PUSH2 0x1099 JUMP JUMPDEST PUSH1 0x0 PUSH1 0xA0 DUP4 DUP3 DUP2 MSTORE PUSH1 0x60 PUSH1 0x20 DUP3 ADD MSTORE DUP3 PUSH1 0x40 DUP3 ADD MSTORE DUP3 PUSH1 0x60 DUP3 ADD MSTORE DUP3 PUSH1 0x80 DUP3 ADD MSTORE ADD MSTORE JUMP JUMPDEST ISZERO PUSH2 0x1263 JUMPI JUMP JUMPDEST PUSH1 0x40 MLOAD PUSH3 0x461BCD PUSH1 0xE5 SHL DUP2 MSTORE PUSH1 0x20 PUSH1 0x4 DUP3 ADD MSTORE PUSH1 0x14 PUSH1 0x24 DUP3 ADD MSTORE PUSH20 0x1059D95B9D08191BD95CC81B9BDD08195E1A5CDD PUSH1 0x62 SHL PUSH1 0x44 DUP3 ADD MSTORE PUSH1 0x64 SWAP1 REVERT INVALID SWAP11 PUSH6 0xD3AB497A14CE 0xD7 0xD0 SLT EXTCODEHASH PUSH30 0xB0415DB7B263E28D7B16267D6F3497224A9054A2646970667358221220FB 0xAC SGT 0xBF LOG2 0xA5 0xA8 MOD SSTORE 0xAF DUP16 0x27 SELFDESTRUCT SWAP13 0xCE 0xD3 PUSH3 0x132E55 0x5C SDIV 0xF8 0xBB SSTORE PUSH13 0xCB2CEF23573864736F6C634300 ADDMOD EQ STOP CALLER "},"methodIdentifiers":{"BIRTH_PRICE()":"6b8e6343","admin()":"f851a440","agents(uint256)":"513856c8","assetsModule()":"56c704b8","birth(string,address)":"97b7a07f","contentModule()":"d4ae96b4","freeMintsRemaining()":"8868b9ff","getAgent(uint256)":"2de5aaf7","getAgentByName(string)":"b0034f0f","getAgentByOwner(address)":"0381ee79","isAgent(uint256)":"49f3762e","isFreeMintsAvailable()":"8bd7551c","nameToId(bytes32)":"6c86a430","nextAgentId()":"30efc498","ownerToId(address)":"e729e3a4","profileModule()":"0f88e5cb","setAdmin(address)":"704b6c02","setAssetsModule(address)":"c213a949","setContentModule(address)":"7823b50f","setFreeMintsRemaining(uint256)":"2fc3643f","setProfileModule(address)":"7df07608","setSocialModule(address)":"25ed8243","setTreasury(address)":"f0f44260","socialModule()":"a435fd13","totalAgents()":"c5053712","transferOwnership(uint256,address)":"29507f73","treasury()":"61d027b3","usdc()":"3e413bee"}}}}}