{"contracts/megaeth/social/AgentSocial.sol":{"AgentSocial":{"abi":[{"inputs":[{"internalType":"address","name":"coreAddress","type":"address"}],"stateMutability":"nonpayable","type":"constructor"},{"anonymous":false,"inputs":[{"indexed":true,"internalType":"uint256","name":"follower","type":"uint256"},{"indexed":true,"internalType":"uint256","name":"followed","type":"uint256"},{"indexed":false,"internalType":"uint256","name":"timestamp","type":"uint256"}],"name":"Followed","type":"event"},{"anonymous":false,"inputs":[{"indexed":true,"internalType":"uint256","name":"follower","type":"uint256"},{"indexed":true,"internalType":"uint256","name":"unfollowed","type":"uint256"},{"indexed":false,"internalType":"uint256","name":"timestamp","type":"uint256"}],"name":"Unfollowed","type":"event"},{"inputs":[{"internalType":"uint256","name":"agentId","type":"uint256"},{"internalType":"uint256","name":"targetId","type":"uint256"}],"name":"checkFollowing","outputs":[{"internalType":"bool","name":"","type":"bool"}],"stateMutability":"view","type":"function"},{"inputs":[],"name":"core","outputs":[{"internalType":"contract AgentCore","name":"","type":"address"}],"stateMutability":"view","type":"function"},{"inputs":[{"internalType":"uint256","name":"agentId","type":"uint256"},{"internalType":"uint256","name":"targetId","type":"uint256"}],"name":"follow","outputs":[],"stateMutability":"nonpayable","type":"function"},{"inputs":[{"internalType":"uint256","name":"","type":"uint256"}],"name":"followerCount","outputs":[{"internalType":"uint256","name":"","type":"uint256"}],"stateMutability":"view","type":"function"},{"inputs":[{"internalType":"uint256","name":"","type":"uint256"},{"internalType":"uint256","name":"","type":"uint256"}],"name":"followers","outputs":[{"internalType":"uint256","name":"","type":"uint256"}],"stateMutability":"view","type":"function"},{"inputs":[{"internalType":"uint256","name":"","type":"uint256"},{"internalType":"uint256","name":"","type":"uint256"}],"name":"following","outputs":[{"internalType":"uint256","name":"","type":"uint256"}],"stateMutability":"view","type":"function"},{"inputs":[{"internalType":"uint256","name":"","type":"uint256"}],"name":"followingCount","outputs":[{"internalType":"uint256","name":"","type":"uint256"}],"stateMutability":"view","type":"function"},{"inputs":[{"internalType":"uint256","name":"agentId","type":"uint256"}],"name":"getActiveFollowers","outputs":[{"internalType":"uint256[]","name":"","type":"uint256[]"}],"stateMutability":"view","type":"function"},{"inputs":[{"internalType":"uint256","name":"agentId","type":"uint256"}],"name":"getActiveFollowing","outputs":[{"internalType":"uint256[]","name":"","type":"uint256[]"}],"stateMutability":"view","type":"function"},{"inputs":[{"internalType":"uint256","name":"agentId","type":"uint256"}],"name":"getFollowerCount","outputs":[{"internalType":"uint256","name":"","type":"uint256"}],"stateMutability":"view","type":"function"},{"inputs":[{"internalType":"uint256","name":"agentId","type":"uint256"}],"name":"getFollowers","outputs":[{"internalType":"uint256[]","name":"","type":"uint256[]"}],"stateMutability":"view","type":"function"},{"inputs":[{"internalType":"uint256","name":"agentId","type":"uint256"}],"name":"getFollowing","outputs":[{"internalType":"uint256[]","name":"","type":"uint256[]"}],"stateMutability":"view","type":"function"},{"inputs":[{"internalType":"uint256","name":"agentId","type":"uint256"}],"name":"getFollowingCount","outputs":[{"internalType":"uint256","name":"","type":"uint256"}],"stateMutability":"view","type":"function"},{"inputs":[{"internalType":"uint256","name":"","type":"uint256"},{"internalType":"uint256","name":"","type":"uint256"}],"name":"isFollowing","outputs":[{"internalType":"bool","name":"","type":"bool"}],"stateMutability":"view","type":"function"},{"inputs":[{"internalType":"uint256","name":"agentId","type":"uint256"},{"internalType":"uint256","name":"targetId","type":"uint256"}],"name":"unfollow","outputs":[],"stateMutability":"nonpayable","type":"function"}],"evm":{"bytecode":{"linkReferences":{},"object":"60a03461007957601f610bdf38819003918201601f19168301916001600160401b0383118484101761007e5780849260209460405283398101031261007957516001600160a01b0381169081900361007957608052604051610b4a9081610095823960805181818160fa0152818161026701526103a10152f35b600080fd5b634e487b7160e01b600052604160045260246000fdfe60406080815260048036101561001457600080fd5b600091823560e01c8063053acf851461080657806311d528011461072c5780632ffeb82c1461066a578063336730a0146105ff57806347720ebb146105cf57806372bd81d7146106265780637467124f146105ff5780637cdd25231461022a578063800c36de146105cf578063821defc2146103725780638e70d3b91461030f578063a8c6178f1461029a578063f2f4eb2614610252578063f99632391461022a5763fb1bf05d146100c557600080fd5b34610226576100d336610839565b8251632de5aaf760e01b815280850183905290939192906001600160a01b039086816024817f000000000000000000000000000000000000000000000000000000000000000086165afa90811561021c5761013d9291849189916101fa575b500151163314610a0c565b828552602091858352818620858752835260ff8287205416156101c957907fb8c6d592f20bf807d12daa01437f64592e92dfc3900d733f34ffbdef211712da9291848752868352818720868852835281872060ff198154169055848752600383528187206101ab8154610aa9565b905585875282528086206101bf8154610aa9565b905551428152a380f35b82606492519162461bcd60e51b8352820152600d60248201526c4e6f7420666f6c6c6f77696e6760981b6044820152fd5b61021691503d808b833e61020e81836108bd565b810190610916565b38610132565b83513d89823e3d90fd5b8280fd5b5090346102265760203660031901126102265760209282913581526003845220549051908152f35b838234610296578160031936011261029657517f00000000000000000000000000000000000000000000000000000000000000006001600160a01b03168152602090f35b5080fd5b5034610226576020918260031936011261030b573583526001928383528181209382518094808754928381520196845280842093905b8282106102f6576102f287876102e8828c03836108bd565b5191829182610882565b0390f35b845488529687019693830193908301906102d0565b8380fd5b5034610226576020918260031936011261030b57358352600282528083209281518093808654928381520195835280832092905b82821061035b576102f286866102e8828b03836108bd565b835487529586019560019384019390910190610343565b50346102265761038136610839565b8251632de5aaf760e01b8152848101839052909391926001600160a01b037f000000000000000000000000000000000000000000000000000000000000000081169391928781602481885afa9081156105c5576103ec929185918a916105b157500151163314610a0c565b84841461057a57815180936324f9bb1760e11b8252868383015281602460209687935afa90811561021c578791610541575b501561050057838652858352818620858752835260ff82872054166104cb57907f3208077dc5258a26bfd73edd667e0abf8b932d316d08950edf92ef2c943d08fb92918487528683528187208688528352818720600160ff198254161790558487526001835261049086838920610a4a565b858752600283526104a385838920610a4a565b848752600383528187206104b78154610a84565b905585875282528086206101bf8154610a84565b82606492519162461bcd60e51b83528201526011602482015270416c726561647920666f6c6c6f77696e6760781b6044820152fd5b82606492519162461bcd60e51b8352820152601b60248201527f546172676574206167656e7420646f6573206e6f7420657869737400000000006044820152fd5b90508381813d8311610573575b61055881836108bd565b8101031261056f5761056990610909565b3861041e565b8680fd5b503d61054e565b6020606492519162461bcd60e51b8352820152601260248201527121b0b73737ba103337b63637bb9039b2b63360711b6044820152fd5b61021691503d808c833e61020e81836108bd565b84513d8a823e3d90fd5b8382346102965760ff816020936105e536610839565b908252818652828220908252855220541690519015158152f35b50903461022657602036600319011261022657602092818392358252845220549051908152f35b8382346102965761063636610839565b929081526002602052818120908154841015610667575060209261065991610854565b91905490519160031b1c8152f35b80fd5b509134610667576020806003193601126102965782359081835260028152848320938152848320549361069c85610ace565b93809381968354975b88811080610723575b1561071657806106c16106e89287610854565b9054600391821b1c86528588528b8620858752885260ff8c872054166106ed575b50610a84565b6106a5565b6106f78288610854565b9054911b1c61070f6107088a610a84565b998b610b00565b52386106e2565b8951806102f28a82610882565b508187106106ae565b5091346106675760209182600319360112610296573591828252600191828252848120600391828452868120549361076385610ace565b96829587848654915b61077e575b8b51806102f28d82610882565b818110806107fd575b156107f8578386528585528b862061079f8289610854565b9054908a1b1c875285528a60ff8d882054166107c6575b506107c090610a84565b8961076c565b98906107c0916107ef6107d9838b610854565b9054908c1b1c916107e981610a84565b9c610b00565b5290508a6107b6565b610771565b50828910610787565b8382346102965761081636610839565b929081526001602052818120908154841015610667575060209261065991610854565b604090600319011261084f576004359060243590565b600080fd5b805482101561086c5760005260206000200190600090565b634e487b7160e01b600052603260045260246000fd5b6020908160408183019282815285518094520193019160005b8281106108a9575050505090565b83518552938101939281019260010161089b565b90601f8019910116810190811067ffffffffffffffff8211176108df57604052565b634e487b7160e01b600052604160045260246000fd5b51906001600160a01b038216820361084f57565b5190811515820361084f57565b90602090818382031261084f57825167ffffffffffffffff9384821161084f57019160c08383031261084f576040519360c08501858110828211176108df57604052835185528184015181811161084f57840183601f8201121561084f5780519182116108df5760405193610994601f8401601f19168501866108bd565b82855283838301011161084f5760005b8281106109f957505060009083018201528301526109f19060a0906109cb604082016108f5565b60408501526109dc606082016108f5565b60608501526080810151608085015201610909565b60a082015290565b81810184015185820185015283016109a4565b15610a1357565b60405162461bcd60e51b815260206004820152600f60248201526e2737ba1030b3b2b73a1037bbb732b960891b6044820152606490fd5b8054680100000000000000008110156108df57610a6c91600182018155610854565b819291549060031b91821b91600019901b1916179055565b6000198114610a935760010190565b634e487b7160e01b600052601160045260246000fd5b8015610a93576000190190565b67ffffffffffffffff81116108df5760051b60200190565b90610ad882610ab6565b610ae560405191826108bd565b8281528092610af6601f1991610ab6565b0190602036910137565b805182101561086c5760209160051b01019056fea2646970667358221220133153a6c5d9ac50cf407f3c67c4f9ed2e430c44c546b8a9ae93fd938de1d56464736f6c63430008140033","opcodes":"PUSH1 0xA0 CALLVALUE PUSH2 0x79 JUMPI PUSH1 0x1F PUSH2 0xBDF CODESIZE DUP2 SWAP1 SUB SWAP2 DUP3 ADD PUSH1 0x1F NOT AND DUP4 ADD SWAP2 PUSH1 0x1 PUSH1 0x1 PUSH1 0x40 SHL SUB DUP4 GT DUP5 DUP5 LT OR PUSH2 0x7E JUMPI DUP1 DUP5 SWAP3 PUSH1 0x20 SWAP5 PUSH1 0x40 MSTORE DUP4 CODECOPY DUP2 ADD SUB SLT PUSH2 0x79 JUMPI MLOAD PUSH1 0x1 PUSH1 0x1 PUSH1 0xA0 SHL SUB DUP2 AND SWAP1 DUP2 SWAP1 SUB PUSH2 0x79 JUMPI PUSH1 0x80 MSTORE PUSH1 0x40 MLOAD PUSH2 0xB4A SWAP1 DUP2 PUSH2 0x95 DUP3 CODECOPY PUSH1 0x80 MLOAD DUP2 DUP2 DUP2 PUSH1 0xFA ADD MSTORE DUP2 DUP2 PUSH2 0x267 ADD MSTORE PUSH2 0x3A1 ADD MSTORE RETURN JUMPDEST PUSH1 0x0 DUP1 REVERT JUMPDEST PUSH4 0x4E487B71 PUSH1 0xE0 SHL PUSH1 0x0 MSTORE PUSH1 0x41 PUSH1 0x4 MSTORE PUSH1 0x24 PUSH1 0x0 REVERT INVALID PUSH1 0x40 PUSH1 0x80 DUP2 MSTORE PUSH1 0x4 DUP1 CALLDATASIZE LT ISZERO PUSH2 0x14 JUMPI PUSH1 0x0 DUP1 REVERT JUMPDEST PUSH1 0x0 SWAP2 DUP3 CALLDATALOAD PUSH1 0xE0 SHR DUP1 PUSH4 0x53ACF85 EQ PUSH2 0x806 JUMPI DUP1 PUSH4 0x11D52801 EQ PUSH2 0x72C JUMPI DUP1 PUSH4 0x2FFEB82C EQ PUSH2 0x66A JUMPI DUP1 PUSH4 0x336730A0 EQ PUSH2 0x5FF JUMPI DUP1 PUSH4 0x47720EBB EQ PUSH2 0x5CF JUMPI DUP1 PUSH4 0x72BD81D7 EQ PUSH2 0x626 JUMPI DUP1 PUSH4 0x7467124F EQ PUSH2 0x5FF JUMPI DUP1 PUSH4 0x7CDD2523 EQ PUSH2 0x22A JUMPI DUP1 PUSH4 0x800C36DE EQ PUSH2 0x5CF JUMPI DUP1 PUSH4 0x821DEFC2 EQ PUSH2 0x372 JUMPI DUP1 PUSH4 0x8E70D3B9 EQ PUSH2 0x30F JUMPI DUP1 PUSH4 0xA8C6178F EQ PUSH2 0x29A JUMPI DUP1 PUSH4 0xF2F4EB26 EQ PUSH2 0x252 JUMPI DUP1 PUSH4 0xF9963239 EQ PUSH2 0x22A JUMPI PUSH4 0xFB1BF05D EQ PUSH2 0xC5 JUMPI PUSH1 0x0 DUP1 REVERT JUMPDEST CALLVALUE PUSH2 0x226 JUMPI PUSH2 0xD3 CALLDATASIZE PUSH2 0x839 JUMP JUMPDEST DUP3 MLOAD PUSH4 0x2DE5AAF7 PUSH1 0xE0 SHL DUP2 MSTORE DUP1 DUP6 ADD DUP4 SWAP1 MSTORE SWAP1 SWAP4 SWAP2 SWAP3 SWAP1 PUSH1 0x1 PUSH1 0x1 PUSH1 0xA0 SHL SUB SWAP1 DUP7 DUP2 PUSH1 0x24 DUP2 PUSH32 0x0 DUP7 AND GAS STATICCALL SWAP1 DUP2 ISZERO PUSH2 0x21C JUMPI PUSH2 0x13D SWAP3 SWAP2 DUP5 SWAP2 DUP10 SWAP2 PUSH2 0x1FA JUMPI JUMPDEST POP ADD MLOAD AND CALLER EQ PUSH2 0xA0C JUMP JUMPDEST DUP3 DUP6 MSTORE PUSH1 0x20 SWAP2 DUP6 DUP4 MSTORE DUP2 DUP7 KECCAK256 DUP6 DUP8 MSTORE DUP4 MSTORE PUSH1 0xFF DUP3 DUP8 KECCAK256 SLOAD AND ISZERO PUSH2 0x1C9 JUMPI SWAP1 PUSH32 0xB8C6D592F20BF807D12DAA01437F64592E92DFC3900D733F34FFBDEF211712DA SWAP3 SWAP2 DUP5 DUP8 MSTORE DUP7 DUP4 MSTORE DUP2 DUP8 KECCAK256 DUP7 DUP9 MSTORE DUP4 MSTORE DUP2 DUP8 KECCAK256 PUSH1 0xFF NOT DUP2 SLOAD AND SWAP1 SSTORE DUP5 DUP8 MSTORE PUSH1 0x3 DUP4 MSTORE DUP2 DUP8 KECCAK256 PUSH2 0x1AB DUP2 SLOAD PUSH2 0xAA9 JUMP JUMPDEST SWAP1 SSTORE DUP6 DUP8 MSTORE DUP3 MSTORE DUP1 DUP7 KECCAK256 PUSH2 0x1BF DUP2 SLOAD PUSH2 0xAA9 JUMP JUMPDEST SWAP1 SSTORE MLOAD TIMESTAMP DUP2 MSTORE LOG3 DUP1 RETURN JUMPDEST DUP3 PUSH1 0x64 SWAP3 MLOAD SWAP2 PUSH3 0x461BCD PUSH1 0xE5 SHL DUP4 MSTORE DUP3 ADD MSTORE PUSH1 0xD PUSH1 0x24 DUP3 ADD MSTORE PUSH13 0x4E6F7420666F6C6C6F77696E67 PUSH1 0x98 SHL PUSH1 0x44 DUP3 ADD MSTORE REVERT JUMPDEST PUSH2 0x216 SWAP2 POP RETURNDATASIZE DUP1 DUP12 DUP4 RETURNDATACOPY PUSH2 0x20E DUP2 DUP4 PUSH2 0x8BD JUMP JUMPDEST DUP2 ADD SWAP1 PUSH2 0x916 JUMP JUMPDEST CODESIZE PUSH2 0x132 JUMP JUMPDEST DUP4 MLOAD RETURNDATASIZE DUP10 DUP3 RETURNDATACOPY RETURNDATASIZE SWAP1 REVERT JUMPDEST DUP3 DUP1 REVERT JUMPDEST POP SWAP1 CALLVALUE PUSH2 0x226 JUMPI PUSH1 0x20 CALLDATASIZE PUSH1 0x3 NOT ADD SLT PUSH2 0x226 JUMPI PUSH1 0x20 SWAP3 DUP3 SWAP2 CALLDATALOAD DUP2 MSTORE PUSH1 0x3 DUP5 MSTORE KECCAK256 SLOAD SWAP1 MLOAD SWAP1 DUP2 MSTORE RETURN JUMPDEST DUP4 DUP3 CALLVALUE PUSH2 0x296 JUMPI DUP2 PUSH1 0x3 NOT CALLDATASIZE ADD SLT PUSH2 0x296 JUMPI MLOAD PUSH32 0x0 PUSH1 0x1 PUSH1 0x1 PUSH1 0xA0 SHL SUB AND DUP2 MSTORE PUSH1 0x20 SWAP1 RETURN JUMPDEST POP DUP1 REVERT JUMPDEST POP CALLVALUE PUSH2 0x226 JUMPI PUSH1 0x20 SWAP2 DUP3 PUSH1 0x3 NOT CALLDATASIZE ADD SLT PUSH2 0x30B JUMPI CALLDATALOAD DUP4 MSTORE PUSH1 0x1 SWAP3 DUP4 DUP4 MSTORE DUP2 DUP2 KECCAK256 SWAP4 DUP3 MLOAD DUP1 SWAP5 DUP1 DUP8 SLOAD SWAP3 DUP4 DUP2 MSTORE ADD SWAP7 DUP5 MSTORE DUP1 DUP5 KECCAK256 SWAP4 SWAP1 JUMPDEST DUP3 DUP3 LT PUSH2 0x2F6 JUMPI PUSH2 0x2F2 DUP8 DUP8 PUSH2 0x2E8 DUP3 DUP13 SUB DUP4 PUSH2 0x8BD JUMP JUMPDEST MLOAD SWAP2 DUP3 SWAP2 DUP3 PUSH2 0x882 JUMP JUMPDEST SUB SWAP1 RETURN JUMPDEST DUP5 SLOAD DUP9 MSTORE SWAP7 DUP8 ADD SWAP7 SWAP4 DUP4 ADD SWAP4 SWAP1 DUP4 ADD SWAP1 PUSH2 0x2D0 JUMP JUMPDEST DUP4 DUP1 REVERT JUMPDEST POP CALLVALUE PUSH2 0x226 JUMPI PUSH1 0x20 SWAP2 DUP3 PUSH1 0x3 NOT CALLDATASIZE ADD SLT PUSH2 0x30B JUMPI CALLDATALOAD DUP4 MSTORE PUSH1 0x2 DUP3 MSTORE DUP1 DUP4 KECCAK256 SWAP3 DUP2 MLOAD DUP1 SWAP4 DUP1 DUP7 SLOAD SWAP3 DUP4 DUP2 MSTORE ADD SWAP6 DUP4 MSTORE DUP1 DUP4 KECCAK256 SWAP3 SWAP1 JUMPDEST DUP3 DUP3 LT PUSH2 0x35B JUMPI PUSH2 0x2F2 DUP7 DUP7 PUSH2 0x2E8 DUP3 DUP12 SUB DUP4 PUSH2 0x8BD JUMP JUMPDEST DUP4 SLOAD DUP8 MSTORE SWAP6 DUP7 ADD SWAP6 PUSH1 0x1 SWAP4 DUP5 ADD SWAP4 SWAP1 SWAP2 ADD SWAP1 PUSH2 0x343 JUMP JUMPDEST POP CALLVALUE PUSH2 0x226 JUMPI PUSH2 0x381 CALLDATASIZE PUSH2 0x839 JUMP JUMPDEST DUP3 MLOAD PUSH4 0x2DE5AAF7 PUSH1 0xE0 SHL DUP2 MSTORE DUP5 DUP2 ADD DUP4 SWAP1 MSTORE SWAP1 SWAP4 SWAP2 SWAP3 PUSH1 0x1 PUSH1 0x1 PUSH1 0xA0 SHL SUB PUSH32 0x0 DUP2 AND SWAP4 SWAP2 SWAP3 DUP8 DUP2 PUSH1 0x24 DUP2 DUP9 GAS STATICCALL SWAP1 DUP2 ISZERO PUSH2 0x5C5 JUMPI PUSH2 0x3EC SWAP3 SWAP2 DUP6 SWAP2 DUP11 SWAP2 PUSH2 0x5B1 JUMPI POP ADD MLOAD AND CALLER EQ PUSH2 0xA0C JUMP JUMPDEST DUP5 DUP5 EQ PUSH2 0x57A JUMPI DUP2 MLOAD DUP1 SWAP4 PUSH4 0x24F9BB17 PUSH1 0xE1 SHL DUP3 MSTORE DUP7 DUP4 DUP4 ADD MSTORE DUP2 PUSH1 0x24 PUSH1 0x20 SWAP7 DUP8 SWAP4 GAS STATICCALL SWAP1 DUP2 ISZERO PUSH2 0x21C JUMPI DUP8 SWAP2 PUSH2 0x541 JUMPI JUMPDEST POP ISZERO PUSH2 0x500 JUMPI DUP4 DUP7 MSTORE DUP6 DUP4 MSTORE DUP2 DUP7 KECCAK256 DUP6 DUP8 MSTORE DUP4 MSTORE PUSH1 0xFF DUP3 DUP8 KECCAK256 SLOAD AND PUSH2 0x4CB JUMPI SWAP1 PUSH32 0x3208077DC5258A26BFD73EDD667E0ABF8B932D316D08950EDF92EF2C943D08FB SWAP3 SWAP2 DUP5 DUP8 MSTORE DUP7 DUP4 MSTORE DUP2 DUP8 KECCAK256 DUP7 DUP9 MSTORE DUP4 MSTORE DUP2 DUP8 KECCAK256 PUSH1 0x1 PUSH1 0xFF NOT DUP3 SLOAD AND OR SWAP1 SSTORE DUP5 DUP8 MSTORE PUSH1 0x1 DUP4 MSTORE PUSH2 0x490 DUP7 DUP4 DUP10 KECCAK256 PUSH2 0xA4A JUMP JUMPDEST DUP6 DUP8 MSTORE PUSH1 0x2 DUP4 MSTORE PUSH2 0x4A3 DUP6 DUP4 DUP10 KECCAK256 PUSH2 0xA4A JUMP JUMPDEST DUP5 DUP8 MSTORE PUSH1 0x3 DUP4 MSTORE DUP2 DUP8 KECCAK256 PUSH2 0x4B7 DUP2 SLOAD PUSH2 0xA84 JUMP JUMPDEST SWAP1 SSTORE DUP6 DUP8 MSTORE DUP3 MSTORE DUP1 DUP7 KECCAK256 PUSH2 0x1BF DUP2 SLOAD PUSH2 0xA84 JUMP JUMPDEST DUP3 PUSH1 0x64 SWAP3 MLOAD SWAP2 PUSH3 0x461BCD PUSH1 0xE5 SHL DUP4 MSTORE DUP3 ADD MSTORE PUSH1 0x11 PUSH1 0x24 DUP3 ADD MSTORE PUSH17 0x416C726561647920666F6C6C6F77696E67 PUSH1 0x78 SHL PUSH1 0x44 DUP3 ADD MSTORE REVERT JUMPDEST DUP3 PUSH1 0x64 SWAP3 MLOAD SWAP2 PUSH3 0x461BCD PUSH1 0xE5 SHL DUP4 MSTORE DUP3 ADD MSTORE PUSH1 0x1B PUSH1 0x24 DUP3 ADD MSTORE PUSH32 0x546172676574206167656E7420646F6573206E6F742065786973740000000000 PUSH1 0x44 DUP3 ADD MSTORE REVERT JUMPDEST SWAP1 POP DUP4 DUP2 DUP2 RETURNDATASIZE DUP4 GT PUSH2 0x573 JUMPI JUMPDEST PUSH2 0x558 DUP2 DUP4 PUSH2 0x8BD JUMP JUMPDEST DUP2 ADD SUB SLT PUSH2 0x56F JUMPI PUSH2 0x569 SWAP1 PUSH2 0x909 JUMP JUMPDEST CODESIZE PUSH2 0x41E JUMP JUMPDEST DUP7 DUP1 REVERT JUMPDEST POP RETURNDATASIZE PUSH2 0x54E JUMP JUMPDEST PUSH1 0x20 PUSH1 0x64 SWAP3 MLOAD SWAP2 PUSH3 0x461BCD PUSH1 0xE5 SHL DUP4 MSTORE DUP3 ADD MSTORE PUSH1 0x12 PUSH1 0x24 DUP3 ADD MSTORE PUSH18 0x21B0B73737BA103337B63637BB9039B2B633 PUSH1 0x71 SHL PUSH1 0x44 DUP3 ADD MSTORE REVERT JUMPDEST PUSH2 0x216 SWAP2 POP RETURNDATASIZE DUP1 DUP13 DUP4 RETURNDATACOPY PUSH2 0x20E DUP2 DUP4 PUSH2 0x8BD JUMP JUMPDEST DUP5 MLOAD RETURNDATASIZE DUP11 DUP3 RETURNDATACOPY RETURNDATASIZE SWAP1 REVERT JUMPDEST DUP4 DUP3 CALLVALUE PUSH2 0x296 JUMPI PUSH1 0xFF DUP2 PUSH1 0x20 SWAP4 PUSH2 0x5E5 CALLDATASIZE PUSH2 0x839 JUMP JUMPDEST SWAP1 DUP3 MSTORE DUP2 DUP7 MSTORE DUP3 DUP3 KECCAK256 SWAP1 DUP3 MSTORE DUP6 MSTORE KECCAK256 SLOAD AND SWAP1 MLOAD SWAP1 ISZERO ISZERO DUP2 MSTORE RETURN JUMPDEST POP SWAP1 CALLVALUE PUSH2 0x226 JUMPI PUSH1 0x20 CALLDATASIZE PUSH1 0x3 NOT ADD SLT PUSH2 0x226 JUMPI PUSH1 0x20 SWAP3 DUP2 DUP4 SWAP3 CALLDATALOAD DUP3 MSTORE DUP5 MSTORE KECCAK256 SLOAD SWAP1 MLOAD SWAP1 DUP2 MSTORE RETURN JUMPDEST DUP4 DUP3 CALLVALUE PUSH2 0x296 JUMPI PUSH2 0x636 CALLDATASIZE PUSH2 0x839 JUMP JUMPDEST SWAP3 SWAP1 DUP2 MSTORE PUSH1 0x2 PUSH1 0x20 MSTORE DUP2 DUP2 KECCAK256 SWAP1 DUP2 SLOAD DUP5 LT ISZERO PUSH2 0x667 JUMPI POP PUSH1 0x20 SWAP3 PUSH2 0x659 SWAP2 PUSH2 0x854 JUMP JUMPDEST SWAP2 SWAP1 SLOAD SWAP1 MLOAD SWAP2 PUSH1 0x3 SHL SHR DUP2 MSTORE RETURN JUMPDEST DUP1 REVERT JUMPDEST POP SWAP2 CALLVALUE PUSH2 0x667 JUMPI PUSH1 0x20 DUP1 PUSH1 0x3 NOT CALLDATASIZE ADD SLT PUSH2 0x296 JUMPI DUP3 CALLDATALOAD SWAP1 DUP2 DUP4 MSTORE PUSH1 0x2 DUP2 MSTORE DUP5 DUP4 KECCAK256 SWAP4 DUP2 MSTORE DUP5 DUP4 KECCAK256 SLOAD SWAP4 PUSH2 0x69C DUP6 PUSH2 0xACE JUMP JUMPDEST SWAP4 DUP1 SWAP4 DUP2 SWAP7 DUP4 SLOAD SWAP8 JUMPDEST DUP9 DUP2 LT DUP1 PUSH2 0x723 JUMPI JUMPDEST ISZERO PUSH2 0x716 JUMPI DUP1 PUSH2 0x6C1 PUSH2 0x6E8 SWAP3 DUP8 PUSH2 0x854 JUMP JUMPDEST SWAP1 SLOAD PUSH1 0x3 SWAP2 DUP3 SHL SHR DUP7 MSTORE DUP6 DUP9 MSTORE DUP12 DUP7 KECCAK256 DUP6 DUP8 MSTORE DUP9 MSTORE PUSH1 0xFF DUP13 DUP8 KECCAK256 SLOAD AND PUSH2 0x6ED JUMPI JUMPDEST POP PUSH2 0xA84 JUMP JUMPDEST PUSH2 0x6A5 JUMP JUMPDEST PUSH2 0x6F7 DUP3 DUP9 PUSH2 0x854 JUMP JUMPDEST SWAP1 SLOAD SWAP2 SHL SHR PUSH2 0x70F PUSH2 0x708 DUP11 PUSH2 0xA84 JUMP JUMPDEST SWAP10 DUP12 PUSH2 0xB00 JUMP JUMPDEST MSTORE CODESIZE PUSH2 0x6E2 JUMP JUMPDEST DUP10 MLOAD DUP1 PUSH2 0x2F2 DUP11 DUP3 PUSH2 0x882 JUMP JUMPDEST POP DUP2 DUP8 LT PUSH2 0x6AE JUMP JUMPDEST POP SWAP2 CALLVALUE PUSH2 0x667 JUMPI PUSH1 0x20 SWAP2 DUP3 PUSH1 0x3 NOT CALLDATASIZE ADD SLT PUSH2 0x296 JUMPI CALLDATALOAD SWAP2 DUP3 DUP3 MSTORE PUSH1 0x1 SWAP2 DUP3 DUP3 MSTORE DUP5 DUP2 KECCAK256 PUSH1 0x3 SWAP2 DUP3 DUP5 MSTORE DUP7 DUP2 KECCAK256 SLOAD SWAP4 PUSH2 0x763 DUP6 PUSH2 0xACE JUMP JUMPDEST SWAP7 DUP3 SWAP6 DUP8 DUP5 DUP7 SLOAD SWAP2 JUMPDEST PUSH2 0x77E JUMPI JUMPDEST DUP12 MLOAD DUP1 PUSH2 0x2F2 DUP14 DUP3 PUSH2 0x882 JUMP JUMPDEST DUP2 DUP2 LT DUP1 PUSH2 0x7FD JUMPI JUMPDEST ISZERO PUSH2 0x7F8 JUMPI DUP4 DUP7 MSTORE DUP6 DUP6 MSTORE DUP12 DUP7 KECCAK256 PUSH2 0x79F DUP3 DUP10 PUSH2 0x854 JUMP JUMPDEST SWAP1 SLOAD SWAP1 DUP11 SHL SHR DUP8 MSTORE DUP6 MSTORE DUP11 PUSH1 0xFF DUP14 DUP9 KECCAK256 SLOAD AND PUSH2 0x7C6 JUMPI JUMPDEST POP PUSH2 0x7C0 SWAP1 PUSH2 0xA84 JUMP JUMPDEST DUP10 PUSH2 0x76C JUMP JUMPDEST SWAP9 SWAP1 PUSH2 0x7C0 SWAP2 PUSH2 0x7EF PUSH2 0x7D9 DUP4 DUP12 PUSH2 0x854 JUMP JUMPDEST SWAP1 SLOAD SWAP1 DUP13 SHL SHR SWAP2 PUSH2 0x7E9 DUP2 PUSH2 0xA84 JUMP JUMPDEST SWAP13 PUSH2 0xB00 JUMP JUMPDEST MSTORE SWAP1 POP DUP11 PUSH2 0x7B6 JUMP JUMPDEST PUSH2 0x771 JUMP JUMPDEST POP DUP3 DUP10 LT PUSH2 0x787 JUMP JUMPDEST DUP4 DUP3 CALLVALUE PUSH2 0x296 JUMPI PUSH2 0x816 CALLDATASIZE PUSH2 0x839 JUMP JUMPDEST SWAP3 SWAP1 DUP2 MSTORE PUSH1 0x1 PUSH1 0x20 MSTORE DUP2 DUP2 KECCAK256 SWAP1 DUP2 SLOAD DUP5 LT ISZERO PUSH2 0x667 JUMPI POP PUSH1 0x20 SWAP3 PUSH2 0x659 SWAP2 PUSH2 0x854 JUMP JUMPDEST PUSH1 0x40 SWAP1 PUSH1 0x3 NOT ADD SLT PUSH2 0x84F JUMPI PUSH1 0x4 CALLDATALOAD SWAP1 PUSH1 0x24 CALLDATALOAD SWAP1 JUMP JUMPDEST PUSH1 0x0 DUP1 REVERT JUMPDEST DUP1 SLOAD DUP3 LT ISZERO PUSH2 0x86C JUMPI PUSH1 0x0 MSTORE PUSH1 0x20 PUSH1 0x0 KECCAK256 ADD SWAP1 PUSH1 0x0 SWAP1 JUMP JUMPDEST PUSH4 0x4E487B71 PUSH1 0xE0 SHL PUSH1 0x0 MSTORE PUSH1 0x32 PUSH1 0x4 MSTORE PUSH1 0x24 PUSH1 0x0 REVERT JUMPDEST PUSH1 0x20 SWAP1 DUP2 PUSH1 0x40 DUP2 DUP4 ADD SWAP3 DUP3 DUP2 MSTORE DUP6 MLOAD DUP1 SWAP5 MSTORE ADD SWAP4 ADD SWAP2 PUSH1 0x0 JUMPDEST DUP3 DUP2 LT PUSH2 0x8A9 JUMPI POP POP POP POP SWAP1 JUMP JUMPDEST DUP4 MLOAD DUP6 MSTORE SWAP4 DUP2 ADD SWAP4 SWAP3 DUP2 ADD SWAP3 PUSH1 0x1 ADD PUSH2 0x89B JUMP JUMPDEST SWAP1 PUSH1 0x1F DUP1 NOT SWAP2 ADD AND DUP2 ADD SWAP1 DUP2 LT PUSH8 0xFFFFFFFFFFFFFFFF DUP3 GT OR PUSH2 0x8DF JUMPI PUSH1 0x40 MSTORE JUMP JUMPDEST PUSH4 0x4E487B71 PUSH1 0xE0 SHL PUSH1 0x0 MSTORE PUSH1 0x41 PUSH1 0x4 MSTORE PUSH1 0x24 PUSH1 0x0 REVERT JUMPDEST MLOAD SWAP1 PUSH1 0x1 PUSH1 0x1 PUSH1 0xA0 SHL SUB DUP3 AND DUP3 SUB PUSH2 0x84F JUMPI JUMP JUMPDEST MLOAD SWAP1 DUP2 ISZERO ISZERO DUP3 SUB PUSH2 0x84F JUMPI JUMP JUMPDEST SWAP1 PUSH1 0x20 SWAP1 DUP2 DUP4 DUP3 SUB SLT PUSH2 0x84F JUMPI DUP3 MLOAD PUSH8 0xFFFFFFFFFFFFFFFF SWAP4 DUP5 DUP3 GT PUSH2 0x84F JUMPI ADD SWAP2 PUSH1 0xC0 DUP4 DUP4 SUB SLT PUSH2 0x84F JUMPI PUSH1 0x40 MLOAD SWAP4 PUSH1 0xC0 DUP6 ADD DUP6 DUP2 LT DUP3 DUP3 GT OR PUSH2 0x8DF JUMPI PUSH1 0x40 MSTORE DUP4 MLOAD DUP6 MSTORE DUP2 DUP5 ADD MLOAD DUP2 DUP2 GT PUSH2 0x84F JUMPI DUP5 ADD DUP4 PUSH1 0x1F DUP3 ADD SLT ISZERO PUSH2 0x84F JUMPI DUP1 MLOAD SWAP2 DUP3 GT PUSH2 0x8DF JUMPI PUSH1 0x40 MLOAD SWAP4 PUSH2 0x994 PUSH1 0x1F DUP5 ADD PUSH1 0x1F NOT AND DUP6 ADD DUP7 PUSH2 0x8BD JUMP JUMPDEST DUP3 DUP6 MSTORE DUP4 DUP4 DUP4 ADD ADD GT PUSH2 0x84F JUMPI PUSH1 0x0 JUMPDEST DUP3 DUP2 LT PUSH2 0x9F9 JUMPI POP POP PUSH1 0x0 SWAP1 DUP4 ADD DUP3 ADD MSTORE DUP4 ADD MSTORE PUSH2 0x9F1 SWAP1 PUSH1 0xA0 SWAP1 PUSH2 0x9CB PUSH1 0x40 DUP3 ADD PUSH2 0x8F5 JUMP JUMPDEST PUSH1 0x40 DUP6 ADD MSTORE PUSH2 0x9DC PUSH1 0x60 DUP3 ADD PUSH2 0x8F5 JUMP JUMPDEST PUSH1 0x60 DUP6 ADD MSTORE PUSH1 0x80 DUP2 ADD MLOAD PUSH1 0x80 DUP6 ADD MSTORE ADD PUSH2 0x909 JUMP JUMPDEST PUSH1 0xA0 DUP3 ADD MSTORE SWAP1 JUMP JUMPDEST DUP2 DUP2 ADD DUP5 ADD MLOAD DUP6 DUP3 ADD DUP6 ADD MSTORE DUP4 ADD PUSH2 0x9A4 JUMP JUMPDEST ISZERO PUSH2 0xA13 JUMPI JUMP JUMPDEST PUSH1 0x40 MLOAD PUSH3 0x461BCD PUSH1 0xE5 SHL DUP2 MSTORE PUSH1 0x20 PUSH1 0x4 DUP3 ADD MSTORE PUSH1 0xF PUSH1 0x24 DUP3 ADD MSTORE PUSH15 0x2737BA1030B3B2B73A1037BBB732B9 PUSH1 0x89 SHL PUSH1 0x44 DUP3 ADD MSTORE PUSH1 0x64 SWAP1 REVERT JUMPDEST DUP1 SLOAD PUSH9 0x10000000000000000 DUP2 LT ISZERO PUSH2 0x8DF JUMPI PUSH2 0xA6C SWAP2 PUSH1 0x1 DUP3 ADD DUP2 SSTORE PUSH2 0x854 JUMP JUMPDEST DUP2 SWAP3 SWAP2 SLOAD SWAP1 PUSH1 0x3 SHL SWAP2 DUP3 SHL SWAP2 PUSH1 0x0 NOT SWAP1 SHL NOT AND OR SWAP1 SSTORE JUMP JUMPDEST PUSH1 0x0 NOT DUP2 EQ PUSH2 0xA93 JUMPI PUSH1 0x1 ADD SWAP1 JUMP JUMPDEST PUSH4 0x4E487B71 PUSH1 0xE0 SHL PUSH1 0x0 MSTORE PUSH1 0x11 PUSH1 0x4 MSTORE PUSH1 0x24 PUSH1 0x0 REVERT JUMPDEST DUP1 ISZERO PUSH2 0xA93 JUMPI PUSH1 0x0 NOT ADD SWAP1 JUMP JUMPDEST PUSH8 0xFFFFFFFFFFFFFFFF DUP2 GT PUSH2 0x8DF JUMPI PUSH1 0x5 SHL PUSH1 0x20 ADD SWAP1 JUMP JUMPDEST SWAP1 PUSH2 0xAD8 DUP3 PUSH2 0xAB6 JUMP JUMPDEST PUSH2 0xAE5 PUSH1 0x40 MLOAD SWAP2 DUP3 PUSH2 0x8BD JUMP JUMPDEST DUP3 DUP2 MSTORE DUP1 SWAP3 PUSH2 0xAF6 PUSH1 0x1F NOT SWAP2 PUSH2 0xAB6 JUMP JUMPDEST ADD SWAP1 PUSH1 0x20 CALLDATASIZE SWAP2 ADD CALLDATACOPY JUMP JUMPDEST DUP1 MLOAD DUP3 LT ISZERO PUSH2 0x86C JUMPI PUSH1 0x20 SWAP2 PUSH1 0x5 SHL ADD ADD SWAP1 JUMP INVALID LOG2 PUSH5 0x6970667358 0x22 SLT KECCAK256 SGT BALANCE MSTORE8 0xA6 0xC5 0xD9 0xAC POP 0xCF BLOCKHASH PUSH32 0x3C67C4F9ED2E430C44C546B8A9AE93FD938DE1D56464736F6C63430008140033 "},"methodIdentifiers":{"checkFollowing(uint256,uint256)":"800c36de","core()":"f2f4eb26","follow(uint256,uint256)":"821defc2","followerCount(uint256)":"336730a0","followers(uint256,uint256)":"72bd81d7","following(uint256,uint256)":"053acf85","followingCount(uint256)":"7cdd2523","getActiveFollowers(uint256)":"2ffeb82c","getActiveFollowing(uint256)":"11d52801","getFollowerCount(uint256)":"7467124f","getFollowers(uint256)":"8e70d3b9","getFollowing(uint256)":"a8c6178f","getFollowingCount(uint256)":"f9963239","isFollowing(uint256,uint256)":"47720ebb","unfollow(uint256,uint256)":"fb1bf05d"}}}}}