{"contracts/megaeth/core/AgentProfile.sol":{"AgentProfile":{"abi":[{"inputs":[{"internalType":"address","name":"coreAddress","type":"address"}],"stateMutability":"nonpayable","type":"constructor"},{"anonymous":false,"inputs":[{"indexed":true,"internalType":"uint256","name":"agentId","type":"uint256"},{"indexed":false,"internalType":"string","name":"avatar","type":"string"}],"name":"AvatarUpdated","type":"event"},{"anonymous":false,"inputs":[{"indexed":true,"internalType":"uint256","name":"agentId","type":"uint256"},{"indexed":false,"internalType":"string","name":"bio","type":"string"}],"name":"BioUpdated","type":"event"},{"anonymous":false,"inputs":[{"indexed":true,"internalType":"uint256","name":"agentId","type":"uint256"}],"name":"LinksUpdated","type":"event"},{"anonymous":false,"inputs":[{"indexed":true,"internalType":"uint256","name":"agentId","type":"uint256"},{"indexed":false,"internalType":"uint256","name":"timestamp","type":"uint256"}],"name":"ProfileUpdated","type":"event"},{"inputs":[],"name":"core","outputs":[{"internalType":"contract AgentCore","name":"","type":"address"}],"stateMutability":"view","type":"function"},{"inputs":[{"internalType":"uint256","name":"agentId","type":"uint256"}],"name":"getAvatar","outputs":[{"internalType":"string","name":"","type":"string"}],"stateMutability":"view","type":"function"},{"inputs":[{"internalType":"uint256","name":"agentId","type":"uint256"}],"name":"getBio","outputs":[{"internalType":"string","name":"","type":"string"}],"stateMutability":"view","type":"function"},{"inputs":[{"internalType":"uint256","name":"agentId","type":"uint256"}],"name":"getProfile","outputs":[{"components":[{"internalType":"string","name":"bio","type":"string"},{"internalType":"string","name":"avatar","type":"string"},{"internalType":"string","name":"website","type":"string"},{"internalType":"string","name":"twitter","type":"string"},{"internalType":"string","name":"github","type":"string"},{"internalType":"string[]","name":"tags","type":"string[]"},{"internalType":"uint256","name":"updatedAt","type":"uint256"}],"internalType":"struct AgentProfile.Profile","name":"","type":"tuple"}],"stateMutability":"view","type":"function"},{"inputs":[{"internalType":"uint256","name":"agentId","type":"uint256"}],"name":"getTags","outputs":[{"internalType":"string[]","name":"","type":"string[]"}],"stateMutability":"view","type":"function"},{"inputs":[{"internalType":"uint256","name":"","type":"uint256"}],"name":"profiles","outputs":[{"internalType":"string","name":"bio","type":"string"},{"internalType":"string","name":"avatar","type":"string"},{"internalType":"string","name":"website","type":"string"},{"internalType":"string","name":"twitter","type":"string"},{"internalType":"string","name":"github","type":"string"},{"internalType":"uint256","name":"updatedAt","type":"uint256"}],"stateMutability":"view","type":"function"},{"inputs":[{"internalType":"uint256","name":"agentId","type":"uint256"},{"internalType":"string","name":"avatar","type":"string"}],"name":"setAvatar","outputs":[],"stateMutability":"nonpayable","type":"function"},{"inputs":[{"internalType":"uint256","name":"agentId","type":"uint256"},{"internalType":"string","name":"bio","type":"string"}],"name":"setBio","outputs":[],"stateMutability":"nonpayable","type":"function"},{"inputs":[{"internalType":"uint256","name":"agentId","type":"uint256"},{"internalType":"string","name":"website","type":"string"},{"internalType":"string","name":"twitter","type":"string"},{"internalType":"string","name":"github","type":"string"}],"name":"setLinks","outputs":[],"stateMutability":"nonpayable","type":"function"},{"inputs":[{"internalType":"uint256","name":"agentId","type":"uint256"},{"internalType":"string","name":"bio","type":"string"},{"internalType":"string","name":"avatar","type":"string"},{"internalType":"string","name":"website","type":"string"},{"internalType":"string","name":"twitter","type":"string"},{"internalType":"string","name":"github","type":"string"},{"internalType":"string[]","name":"tags","type":"string[]"}],"name":"setProfile","outputs":[],"stateMutability":"nonpayable","type":"function"},{"inputs":[{"internalType":"uint256","name":"agentId","type":"uint256"},{"internalType":"string[]","name":"tags","type":"string[]"}],"name":"setTags","outputs":[],"stateMutability":"nonpayable","type":"function"}],"evm":{"bytecode":{"linkReferences":{},"object":"60a03461008e57601f611b6b38819003918201601f19168301916001600160401b038311848410176100935780849260209460405283398101031261008e57516001600160a01b0381169081900361008e57608052604051611ac190816100aa823960805181818160ca015281816102a501528181610521015281816109d60152818161112b01526113100152f35b600080fd5b634e487b7160e01b600052604160045260246000fdfe6080604052600436101561001257600080fd5b60003560e01c80631328ec9b1461156657806329d29cb3146114db5780637a6e9514146112b557806387beeb2b146110f6578063b9200ff5146110b2578063c2932529146108e1578063c36fe3d614610819578063deb711de14610491578063f08f4f64146102d4578063f2f4eb261461028f5763f948dbf61461009557600080fd5b3461028a576100a33661163a565b604051632de5aaf760e01b8152600481018490529192916001600160a01b036000826024817f000000000000000000000000000000000000000000000000000000000000000085165afa91821561027e5761010e9260409160009161025b575b500151163314611891565b816000526020926000845260406000206001600160401b038311610245576101408361013a835461166d565b83611934565b6000601f84116001146101bc5794600091847f4125a3f7b6a26be6d9d563489005ca79d7d2262a7142a0e02a7321ae0a3dc9e4969784916101b1575b508560011b9084198760031b1c19161790555b85825252426006604060002001556101ac60405192839283611a0e565b0390a2005b90508401353861017c565b601f1984169082600052866000209160005b81811061022e57509160009391867f4125a3f7b6a26be6d9d563489005ca79d7d2262a7142a0e02a7321ae0a3dc9e498999410610215575b5050600185811b01905561018f565b841960f88860031b161c19908601351690553880610206565b9192886001819286890135815501940192016101ce565b634e487b7160e01b600052604160045260246000fd5b61027891503d806000833e61027081836116c2565b8101906117b8565b38610103565b6040513d6000823e3d90fd5b600080fd5b3461028a57600036600319011261028a576040517f00000000000000000000000000000000000000000000000000000000000000006001600160a01b03168152602090f35b3461028a5760208060031936011261028a576040516102f2816116a7565b606090818152818382015281604082015281808201528160808201528160a082015260c001600090526004356000526000825260406000209160405191610338836116a7565b610341846116e3565b83526001936103518186016116e3565b84840190815290610364600282016116e3565b6040860190815292610378600383016116e3565b86820190815261038a600484016116e3565b608088019081529161039e60058501611a36565b9360a08901948552600601549560c0890196875260405198888a5251888a0160e090526101008a016103cf916115b8565b9551601f1996878b82030160408c01526103e8916115b8565b905191868a830301908a01526103fd916115b8565b90519084888203016080890152610413916115b8565b905190838782030160a0880152610429916115b8565b905193828683030160c087015284519182815281810182808560051b8401019701946000925b85841061046357875160e08b01528989038af35b90919293949597858061048083868f958790030188528c516115b8565b9a019401940192959493919061044f565b3461028a57608036600319011261028a576001600160401b0360043560243582811161028a576104c590369060040161160d565b909260443581811161028a576104df90369060040161160d565b9060643583811161028a576104f890369060040161160d565b604051632de5aaf760e01b81526004810188905291979093916001600160a01b036000826024817f000000000000000000000000000000000000000000000000000000000000000085165afa91821561027e57610564926040916000916107fe57500151163314611891565b86600052602095600087526002604060002001918682116102455781906105958261058f865461166d565b86611934565b600090601f831160011461079457600092610789575b50508160011b916000199060031b1c19161790555b85600052600085526003604060002001918482116102455781906105e88261058f865461166d565b600090601f831160011461071f57600092610714575b50508160011b916000199060031b1c19161790555b836000526000835260046040600020019181116102455761063e81610638845461166d565b84611934565b6000601f82116001146106ac5781906000959686926106a1575b50508160011b9185199060031b1c19161790555b82825252426006604060002001557fd477f7e3831f9775cc88977a1d40d3a1ca3b6aeb32558fe078de53f6e9c33200600080a2005b013590508680610658565b601f1982169083600052846000209160005b8181106106fd57509683929160019460009899106106e4575b505050811b01905561066c565b871960f88560031b161c199101351690558680806106d7565b91928660018192868c0135815501940192016106be565b0135905088806105fe565b909150601f1983169184600052876000209260005b89828210610773575050908460019594939210610759575b505050811b019055610613565b0135600019600384901b60f8161c1916905588808061074c565b6001849682939587013581550195019201610734565b013590508a806105ab565b909150601f1983169184600052896000209260005b8b8282106107e85750509084600195949392106107ce575b505050811b0190556105c0565b0135600019600384901b60f8161c191690558a80806107c1565b60018496829395870135815501950192016107a9565b61081391503d806000833e61027081836116c2565b8c610103565b3461028a57602036600319011261028a57600435600052600060205261089f6040600020610846816116e3565b906108d7610856600183016116e3565b916108c9610866600283016116e3565b6108bb610875600385016116e3565b916108ad6006610887600488016116e3565b960154976040519a8b9a60c08c5260c08c01906115b8565b908a820360208c01526115b8565b9088820360408a01526115b8565b9086820360608801526115b8565b9084820360808601526115b8565b9060a08301520390f35b3461028a5760e036600319011261028a576024356001600160401b03811161028a5761091190369060040161160d565b906044356001600160401b03811161028a5761093190369060040161160d565b906064356001600160401b03811161028a5761095190369060040161160d565b906084356001600160401b03811161028a5761097190369060040161160d565b909160a4356001600160401b03811161028a5761099290369060040161160d565b94909560c4356001600160401b03811161028a576109b49036906004016115dd565b604051632de5aaf760e01b81526004803590820152919a9099916000816024817f00000000000000000000000000000000000000000000000000000000000000006001600160a01b03165afa90811561027e57600091611097575b5060400151610a28906001600160a01b03163314611891565b6040519b610a358d6116a7565b3690610a40926118cf565b8b523690610a4d926118cf565b60208a01523690610a5d926118cf565b60408801523690610a6d926118cf565b60608601523690610a7d926118cf565b6080840152610a8b81611906565b9160405192610a9a90846116c2565b818352602083019160051b81019036821161028a5780925b82841061105b57858560a082015260c08101904282526004356000526000602052604060002081519283516001600160401b03811161024557610aff81610af9855461166d565b85611934565b6020601f8211600114610ff2578192939495600092610fe7575b50508160011b916000199060031b1c19161782555b60208301519283516001600160401b03811161024557610b5e81610b55600187015461166d565b60018701611934565b6020601f8211600114610f78578192939495600092610f6d575b50508160011b916000199060031b1c19161760018401555b60408101519283516001600160401b03811161024557610bc081610bb7600285015461166d565b60028501611934565b6020601f8211600114610efe578192939495600092610ef3575b50508160011b916000199060031b1c19161760028201555b60608201519283516001600160401b03811161024557610c2281610c19600386015461166d565b60038601611934565b6020601f8211600114610e84578192939495600092610e79575b50508160011b916000199060031b1c19161760038301555b60808301519283516001600160401b03811161024557610c8481610c7b600487015461166d565b60048701611934565b6020601f8211600114610e0a578192939495600092610dff575b50508160011b916000199060031b1c19161760048401555b60a0600584019101516020815191610cce8385611979565b01916000526020600020916000905b828210610d1c5785600686519101556040514281527f01671f396a8fbe50f9b0f459e32fc0abeba32a54e644feb8cfba8ce4d3d061b9602060043592a2005b80518051906001600160401b03821161024557610d4382610d3d885461166d565b88611934565b602090601f8311600114610d8f579282600194936020938695600092610d84575b5050600019600383901b1c191690841b1787555b01940191019092610cdd565b015190508b80610d64565b908660005260206000209160005b601f1985168110610de7575083602093600196938796938794601f19811610610dce575b505050811b018755610d78565b015160001960f88460031b161c191690558b8080610dc1565b91926020600181928685015181550194019201610d9d565b015190508580610c9e565b6004850160005260206000209060005b601f1984168110610e61575060019394959683601f19811610610e48575b505050811b016004840155610cb6565b015160001960f88460031b161c19169055858080610e38565b9091602060018192858b015181550193019101610e1a565b015190508580610c3c565b6003840160005260206000209060005b601f1984168110610edb575060019394959683601f19811610610ec2575b505050811b016003830155610c54565b015160001960f88460031b161c19169055858080610eb2565b9091602060018192858b015181550193019101610e94565b015190508580610bda565b6002830160005260206000209060005b601f1984168110610f55575060019394959683601f19811610610f3c575b505050811b016002820155610bf2565b015160001960f88460031b161c19169055858080610f2c565b9091602060018192858b015181550193019101610f0e565b015190508580610b78565b6001850160005260206000209060005b601f1984168110610fcf575060019394959683601f19811610610fb6575b505050811b016001840155610b90565b015160001960f88460031b161c19169055858080610fa6565b9091602060018192858b015181550193019101610f88565b015190508580610b19565b8360005260206000209060005b601f1984168110611043575060019394959683601f1981161061102a575b505050811b018255610b2e565b015160001960f88460031b161c1916905585808061101d565b9091602060018192858b015181550193019101610fff565b83356001600160401b03811161028a57820136601f8201121561028a5760209161108c8392369084813591016118cf565b815201930192610ab2565b6110ac91503d806000833e61027081836116c2565b8d610a0f565b3461028a57602036600319011261028a5760043560005260006020526110f26110de60406000206116e3565b6040519182916020835260208301906115b8565b0390f35b3461028a576111043661163a565b604051632de5aaf760e01b8152600481018490529192916001600160a01b036000826024817f000000000000000000000000000000000000000000000000000000000000000085165afa91821561027e5761116e9260409160009161129a57500151163314611891565b8160005260209260008452600180604060002001906001600160401b0384116102455761119f84610638845461166d565b6000601f8511600114611214579184807f574711df185befcbbbdebb797aa57d7f3d8b43497f6ad174a29d2c331dfb02b29798936000958693611209575b501b9084198760031b1c191617905585825252426006604060002001556101ac60405192839283611a0e565b87013592508a6111dd565b601f1985169083600052876000209160005b8181106112855750917f574711df185befcbbbdebb797aa57d7f3d8b43497f6ad174a29d2c331dfb02b29798939187600096941061126c575b505085811b01905561018f565b851960f88960031b161c1990870135169055888061125f565b86830135845592840192918901918901611226565b6112af91503d806000833e61027081836116c2565b87610103565b3461028a57604036600319011261028a576001600160401b0360043560243582811161028a576112e99036906004016115dd565b604051632de5aaf760e01b8152600481018490529193916001600160a01b036000826024817f000000000000000000000000000000000000000000000000000000000000000085165afa91821561027e57611357926040916000916114c0575b509694960151163314611891565b82600052602091600083526005604060002001946113758387611979565b600095865283862091805b8488106113c557867f01671f396a8fbe50f9b0f459e32fc0abeba32a54e644feb8cfba8ce4d3d061b987826000526000815242600660406000200155604051428152a2005b8035601e198336030181121561028a578201803584811161028a578036038883011361028a578791611401826113fb895461166d565b89611934565b600090601f831160011461144f5791808460019693879695600093611442575b505050600019600383901b1c191690841b1787555b01940197019692611380565b0101359050838e80611421565b601f1983169188600052846000209260005b8181106114a657509185600197949286899897951061148a575b50505050831b83018755611436565b60001960f88660031b161c19920101351690558c80848161147b565b82840187013585558c966001909501949283019201611461565b6114d591503d806000833e61027081836116c2565b88611349565b3461028a5760208060031936011261028a57600435600052600081526115076005604060002001611a36565b6040519082820192808352815180945260408301938160408260051b8601019301916000955b82871061153a5785850386f35b909192938280611556600193603f198a820301865288516115b8565b960192019601959291909261152d565b3461028a57602036600319011261028a5760043560005260006020526110f26110de60016040600020016116e3565b60005b8381106115a85750506000910152565b8181015183820152602001611598565b906020916115d181518092818552858086019101611595565b601f01601f1916010190565b9181601f8401121561028a578235916001600160401b03831161028a576020808501948460051b01011161028a57565b9181601f8401121561028a578235916001600160401b03831161028a576020838186019501011161028a57565b90604060031983011261028a5760043591602435906001600160401b03821161028a576116699160040161160d565b9091565b90600182811c9216801561169d575b602083101461168757565b634e487b7160e01b600052602260045260246000fd5b91607f169161167c565b60e081019081106001600160401b0382111761024557604052565b90601f801991011681019081106001600160401b0382111761024557604052565b90604051918260008254926116f78461166d565b9081845260019485811690816000146117665750600114611723575b5050611721925003836116c2565b565b9093915060005260209081600020936000915b81831061174e57505061172193508201013880611713565b85548884018501529485019487945091830191611736565b91505061172194506020925060ff191682840152151560051b8201013880611713565b6001600160401b03811161024557601f01601f191660200190565b51906001600160a01b038216820361028a57565b90602090818382031261028a5782516001600160401b039384821161028a57019060c08282031261028a576040519360c085018581108282111761024557604052825185528383015190811161028a5782019281601f8501121561028a5783519361182285611789565b9261183060405194856116c2565b85845282868301011161028a5760a09461184f91838086019101611595565b84015261185e604082016117a4565b604084015261186f606082016117a4565b6060840152608081015160808401520151801515810361028a5760a082015290565b1561189857565b60405162461bcd60e51b815260206004820152600f60248201526e2737ba1030b3b2b73a1037bbb732b960891b6044820152606490fd5b9291926118db82611789565b916118e960405193846116c2565b82948184528183011161028a578281602093846000960137010152565b6001600160401b0381116102455760051b60200190565b818110611928575050565b6000815560010161191d565b9190601f811161194357505050565b611721926000526020600020906020601f840160051c8301931061196f575b601f0160051c019061191d565b9091508190611962565b6801000000000000000082116102455780549180825582811061199b57505050565b600091825260209081832093840193015b8381106119b95750505050565b80836119c76001935461166d565b806119d5575b5050016119ac565b601f80821185146119ec57505081555b83386119cd565b611a0590848452868420920160051c820185830161191d565b818355556119e5565b90918060409360208452816020850152848401376000828201840152601f01601f1916010190565b908154611a4281611906565b92611a5060405194856116c2565b818452600090815260208082208186015b848410611a6f575050505050565b6001838192611a7d856116e3565b815201920193019290611a6156fea264697066735822122064d5ec709547c8437f994a49fd45997af4a9fef850ce8b80f65836a2742a0b5264736f6c63430008140033","opcodes":"PUSH1 0xA0 CALLVALUE PUSH2 0x8E JUMPI PUSH1 0x1F PUSH2 0x1B6B CODESIZE DUP2 SWAP1 SUB SWAP2 DUP3 ADD PUSH1 0x1F NOT AND DUP4 ADD SWAP2 PUSH1 0x1 PUSH1 0x1 PUSH1 0x40 SHL SUB DUP4 GT DUP5 DUP5 LT OR PUSH2 0x93 JUMPI DUP1 DUP5 SWAP3 PUSH1 0x20 SWAP5 PUSH1 0x40 MSTORE DUP4 CODECOPY DUP2 ADD SUB SLT PUSH2 0x8E JUMPI MLOAD PUSH1 0x1 PUSH1 0x1 PUSH1 0xA0 SHL SUB DUP2 AND SWAP1 DUP2 SWAP1 SUB PUSH2 0x8E JUMPI PUSH1 0x80 MSTORE PUSH1 0x40 MLOAD PUSH2 0x1AC1 SWAP1 DUP2 PUSH2 0xAA DUP3 CODECOPY PUSH1 0x80 MLOAD DUP2 DUP2 DUP2 PUSH1 0xCA ADD MSTORE DUP2 DUP2 PUSH2 0x2A5 ADD MSTORE DUP2 DUP2 PUSH2 0x521 ADD MSTORE DUP2 DUP2 PUSH2 0x9D6 ADD MSTORE DUP2 DUP2 PUSH2 0x112B ADD MSTORE PUSH2 0x1310 ADD MSTORE RETURN JUMPDEST PUSH1 0x0 DUP1 REVERT JUMPDEST PUSH4 0x4E487B71 PUSH1 0xE0 SHL PUSH1 0x0 MSTORE PUSH1 0x41 PUSH1 0x4 MSTORE PUSH1 0x24 PUSH1 0x0 REVERT INVALID PUSH1 0x80 PUSH1 0x40 MSTORE PUSH1 0x4 CALLDATASIZE LT ISZERO PUSH2 0x12 JUMPI PUSH1 0x0 DUP1 REVERT JUMPDEST PUSH1 0x0 CALLDATALOAD PUSH1 0xE0 SHR DUP1 PUSH4 0x1328EC9B EQ PUSH2 0x1566 JUMPI DUP1 PUSH4 0x29D29CB3 EQ PUSH2 0x14DB JUMPI DUP1 PUSH4 0x7A6E9514 EQ PUSH2 0x12B5 JUMPI DUP1 PUSH4 0x87BEEB2B EQ PUSH2 0x10F6 JUMPI DUP1 PUSH4 0xB9200FF5 EQ PUSH2 0x10B2 JUMPI DUP1 PUSH4 0xC2932529 EQ PUSH2 0x8E1 JUMPI DUP1 PUSH4 0xC36FE3D6 EQ PUSH2 0x819 JUMPI DUP1 PUSH4 0xDEB711DE EQ PUSH2 0x491 JUMPI DUP1 PUSH4 0xF08F4F64 EQ PUSH2 0x2D4 JUMPI DUP1 PUSH4 0xF2F4EB26 EQ PUSH2 0x28F JUMPI PUSH4 0xF948DBF6 EQ PUSH2 0x95 JUMPI PUSH1 0x0 DUP1 REVERT JUMPDEST CALLVALUE PUSH2 0x28A JUMPI PUSH2 0xA3 CALLDATASIZE PUSH2 0x163A JUMP JUMPDEST PUSH1 0x40 MLOAD PUSH4 0x2DE5AAF7 PUSH1 0xE0 SHL DUP2 MSTORE PUSH1 0x4 DUP2 ADD DUP5 SWAP1 MSTORE SWAP2 SWAP3 SWAP2 PUSH1 0x1 PUSH1 0x1 PUSH1 0xA0 SHL SUB PUSH1 0x0 DUP3 PUSH1 0x24 DUP2 PUSH32 0x0 DUP6 AND GAS STATICCALL SWAP2 DUP3 ISZERO PUSH2 0x27E JUMPI PUSH2 0x10E SWAP3 PUSH1 0x40 SWAP2 PUSH1 0x0 SWAP2 PUSH2 0x25B JUMPI JUMPDEST POP ADD MLOAD AND CALLER EQ PUSH2 0x1891 JUMP JUMPDEST DUP2 PUSH1 0x0 MSTORE PUSH1 0x20 SWAP3 PUSH1 0x0 DUP5 MSTORE PUSH1 0x40 PUSH1 0x0 KECCAK256 PUSH1 0x1 PUSH1 0x1 PUSH1 0x40 SHL SUB DUP4 GT PUSH2 0x245 JUMPI PUSH2 0x140 DUP4 PUSH2 0x13A DUP4 SLOAD PUSH2 0x166D JUMP JUMPDEST DUP4 PUSH2 0x1934 JUMP JUMPDEST PUSH1 0x0 PUSH1 0x1F DUP5 GT PUSH1 0x1 EQ PUSH2 0x1BC JUMPI SWAP5 PUSH1 0x0 SWAP2 DUP5 PUSH32 0x4125A3F7B6A26BE6D9D563489005CA79D7D2262A7142A0E02A7321AE0A3DC9E4 SWAP7 SWAP8 DUP5 SWAP2 PUSH2 0x1B1 JUMPI JUMPDEST POP DUP6 PUSH1 0x1 SHL SWAP1 DUP5 NOT DUP8 PUSH1 0x3 SHL SHR NOT AND OR SWAP1 SSTORE JUMPDEST DUP6 DUP3 MSTORE MSTORE TIMESTAMP PUSH1 0x6 PUSH1 0x40 PUSH1 0x0 KECCAK256 ADD SSTORE PUSH2 0x1AC PUSH1 0x40 MLOAD SWAP3 DUP4 SWAP3 DUP4 PUSH2 0x1A0E JUMP JUMPDEST SUB SWAP1 LOG2 STOP JUMPDEST SWAP1 POP DUP5 ADD CALLDATALOAD CODESIZE PUSH2 0x17C JUMP JUMPDEST PUSH1 0x1F NOT DUP5 AND SWAP1 DUP3 PUSH1 0x0 MSTORE DUP7 PUSH1 0x0 KECCAK256 SWAP2 PUSH1 0x0 JUMPDEST DUP2 DUP2 LT PUSH2 0x22E JUMPI POP SWAP2 PUSH1 0x0 SWAP4 SWAP2 DUP7 PUSH32 0x4125A3F7B6A26BE6D9D563489005CA79D7D2262A7142A0E02A7321AE0A3DC9E4 SWAP9 SWAP10 SWAP5 LT PUSH2 0x215 JUMPI JUMPDEST POP POP PUSH1 0x1 DUP6 DUP2 SHL ADD SWAP1 SSTORE PUSH2 0x18F JUMP JUMPDEST DUP5 NOT PUSH1 0xF8 DUP9 PUSH1 0x3 SHL AND SHR NOT SWAP1 DUP7 ADD CALLDATALOAD AND SWAP1 SSTORE CODESIZE DUP1 PUSH2 0x206 JUMP JUMPDEST SWAP2 SWAP3 DUP9 PUSH1 0x1 DUP2 SWAP3 DUP7 DUP10 ADD CALLDATALOAD DUP2 SSTORE ADD SWAP5 ADD SWAP3 ADD PUSH2 0x1CE JUMP JUMPDEST PUSH4 0x4E487B71 PUSH1 0xE0 SHL PUSH1 0x0 MSTORE PUSH1 0x41 PUSH1 0x4 MSTORE PUSH1 0x24 PUSH1 0x0 REVERT JUMPDEST PUSH2 0x278 SWAP2 POP RETURNDATASIZE DUP1 PUSH1 0x0 DUP4 RETURNDATACOPY PUSH2 0x270 DUP2 DUP4 PUSH2 0x16C2 JUMP JUMPDEST DUP2 ADD SWAP1 PUSH2 0x17B8 JUMP JUMPDEST CODESIZE PUSH2 0x103 JUMP JUMPDEST PUSH1 0x40 MLOAD RETURNDATASIZE PUSH1 0x0 DUP3 RETURNDATACOPY RETURNDATASIZE SWAP1 REVERT JUMPDEST PUSH1 0x0 DUP1 REVERT JUMPDEST CALLVALUE PUSH2 0x28A JUMPI PUSH1 0x0 CALLDATASIZE PUSH1 0x3 NOT ADD SLT PUSH2 0x28A JUMPI PUSH1 0x40 MLOAD PUSH32 0x0 PUSH1 0x1 PUSH1 0x1 PUSH1 0xA0 SHL SUB AND DUP2 MSTORE PUSH1 0x20 SWAP1 RETURN JUMPDEST CALLVALUE PUSH2 0x28A JUMPI PUSH1 0x20 DUP1 PUSH1 0x3 NOT CALLDATASIZE ADD SLT PUSH2 0x28A JUMPI PUSH1 0x40 MLOAD PUSH2 0x2F2 DUP2 PUSH2 0x16A7 JUMP JUMPDEST PUSH1 0x60 SWAP1 DUP2 DUP2 MSTORE DUP2 DUP4 DUP3 ADD MSTORE DUP2 PUSH1 0x40 DUP3 ADD MSTORE DUP2 DUP1 DUP3 ADD MSTORE DUP2 PUSH1 0x80 DUP3 ADD MSTORE DUP2 PUSH1 0xA0 DUP3 ADD MSTORE PUSH1 0xC0 ADD PUSH1 0x0 SWAP1 MSTORE PUSH1 0x4 CALLDATALOAD PUSH1 0x0 MSTORE PUSH1 0x0 DUP3 MSTORE PUSH1 0x40 PUSH1 0x0 KECCAK256 SWAP2 PUSH1 0x40 MLOAD SWAP2 PUSH2 0x338 DUP4 PUSH2 0x16A7 JUMP JUMPDEST PUSH2 0x341 DUP5 PUSH2 0x16E3 JUMP JUMPDEST DUP4 MSTORE PUSH1 0x1 SWAP4 PUSH2 0x351 DUP2 DUP7 ADD PUSH2 0x16E3 JUMP JUMPDEST DUP5 DUP5 ADD SWAP1 DUP2 MSTORE SWAP1 PUSH2 0x364 PUSH1 0x2 DUP3 ADD PUSH2 0x16E3 JUMP JUMPDEST PUSH1 0x40 DUP7 ADD SWAP1 DUP2 MSTORE SWAP3 PUSH2 0x378 PUSH1 0x3 DUP4 ADD PUSH2 0x16E3 JUMP JUMPDEST DUP7 DUP3 ADD SWAP1 DUP2 MSTORE PUSH2 0x38A PUSH1 0x4 DUP5 ADD PUSH2 0x16E3 JUMP JUMPDEST PUSH1 0x80 DUP9 ADD SWAP1 DUP2 MSTORE SWAP2 PUSH2 0x39E PUSH1 0x5 DUP6 ADD PUSH2 0x1A36 JUMP JUMPDEST SWAP4 PUSH1 0xA0 DUP10 ADD SWAP5 DUP6 MSTORE PUSH1 0x6 ADD SLOAD SWAP6 PUSH1 0xC0 DUP10 ADD SWAP7 DUP8 MSTORE PUSH1 0x40 MLOAD SWAP9 DUP9 DUP11 MSTORE MLOAD DUP9 DUP11 ADD PUSH1 0xE0 SWAP1 MSTORE PUSH2 0x100 DUP11 ADD PUSH2 0x3CF SWAP2 PUSH2 0x15B8 JUMP JUMPDEST SWAP6 MLOAD PUSH1 0x1F NOT SWAP7 DUP8 DUP12 DUP3 SUB ADD PUSH1 0x40 DUP13 ADD MSTORE PUSH2 0x3E8 SWAP2 PUSH2 0x15B8 JUMP JUMPDEST SWAP1 MLOAD SWAP2 DUP7 DUP11 DUP4 SUB ADD SWAP1 DUP11 ADD MSTORE PUSH2 0x3FD SWAP2 PUSH2 0x15B8 JUMP JUMPDEST SWAP1 MLOAD SWAP1 DUP5 DUP9 DUP3 SUB ADD PUSH1 0x80 DUP10 ADD MSTORE PUSH2 0x413 SWAP2 PUSH2 0x15B8 JUMP JUMPDEST SWAP1 MLOAD SWAP1 DUP4 DUP8 DUP3 SUB ADD PUSH1 0xA0 DUP9 ADD MSTORE PUSH2 0x429 SWAP2 PUSH2 0x15B8 JUMP JUMPDEST SWAP1 MLOAD SWAP4 DUP3 DUP7 DUP4 SUB ADD PUSH1 0xC0 DUP8 ADD MSTORE DUP5 MLOAD SWAP2 DUP3 DUP2 MSTORE DUP2 DUP2 ADD DUP3 DUP1 DUP6 PUSH1 0x5 SHL DUP5 ADD ADD SWAP8 ADD SWAP5 PUSH1 0x0 SWAP3 JUMPDEST DUP6 DUP5 LT PUSH2 0x463 JUMPI DUP8 MLOAD PUSH1 0xE0 DUP12 ADD MSTORE DUP10 DUP10 SUB DUP11 RETURN JUMPDEST SWAP1 SWAP2 SWAP3 SWAP4 SWAP5 SWAP6 SWAP8 DUP6 DUP1 PUSH2 0x480 DUP4 DUP7 DUP16 SWAP6 DUP8 SWAP1 SUB ADD DUP9 MSTORE DUP13 MLOAD PUSH2 0x15B8 JUMP JUMPDEST SWAP11 ADD SWAP5 ADD SWAP5 ADD SWAP3 SWAP6 SWAP5 SWAP4 SWAP2 SWAP1 PUSH2 0x44F JUMP JUMPDEST CALLVALUE PUSH2 0x28A JUMPI PUSH1 0x80 CALLDATASIZE PUSH1 0x3 NOT ADD SLT PUSH2 0x28A JUMPI PUSH1 0x1 PUSH1 0x1 PUSH1 0x40 SHL SUB PUSH1 0x4 CALLDATALOAD PUSH1 0x24 CALLDATALOAD DUP3 DUP2 GT PUSH2 0x28A JUMPI PUSH2 0x4C5 SWAP1 CALLDATASIZE SWAP1 PUSH1 0x4 ADD PUSH2 0x160D JUMP JUMPDEST SWAP1 SWAP3 PUSH1 0x44 CALLDATALOAD DUP2 DUP2 GT PUSH2 0x28A JUMPI PUSH2 0x4DF SWAP1 CALLDATASIZE SWAP1 PUSH1 0x4 ADD PUSH2 0x160D JUMP JUMPDEST SWAP1 PUSH1 0x64 CALLDATALOAD DUP4 DUP2 GT PUSH2 0x28A JUMPI PUSH2 0x4F8 SWAP1 CALLDATASIZE SWAP1 PUSH1 0x4 ADD PUSH2 0x160D JUMP JUMPDEST PUSH1 0x40 MLOAD PUSH4 0x2DE5AAF7 PUSH1 0xE0 SHL DUP2 MSTORE PUSH1 0x4 DUP2 ADD DUP9 SWAP1 MSTORE SWAP2 SWAP8 SWAP1 SWAP4 SWAP2 PUSH1 0x1 PUSH1 0x1 PUSH1 0xA0 SHL SUB PUSH1 0x0 DUP3 PUSH1 0x24 DUP2 PUSH32 0x0 DUP6 AND GAS STATICCALL SWAP2 DUP3 ISZERO PUSH2 0x27E JUMPI PUSH2 0x564 SWAP3 PUSH1 0x40 SWAP2 PUSH1 0x0 SWAP2 PUSH2 0x7FE JUMPI POP ADD MLOAD AND CALLER EQ PUSH2 0x1891 JUMP JUMPDEST DUP7 PUSH1 0x0 MSTORE PUSH1 0x20 SWAP6 PUSH1 0x0 DUP8 MSTORE PUSH1 0x2 PUSH1 0x40 PUSH1 0x0 KECCAK256 ADD SWAP2 DUP7 DUP3 GT PUSH2 0x245 JUMPI DUP2 SWAP1 PUSH2 0x595 DUP3 PUSH2 0x58F DUP7 SLOAD PUSH2 0x166D JUMP JUMPDEST DUP7 PUSH2 0x1934 JUMP JUMPDEST PUSH1 0x0 SWAP1 PUSH1 0x1F DUP4 GT PUSH1 0x1 EQ PUSH2 0x794 JUMPI PUSH1 0x0 SWAP3 PUSH2 0x789 JUMPI JUMPDEST POP POP DUP2 PUSH1 0x1 SHL SWAP2 PUSH1 0x0 NOT SWAP1 PUSH1 0x3 SHL SHR NOT AND OR SWAP1 SSTORE JUMPDEST DUP6 PUSH1 0x0 MSTORE PUSH1 0x0 DUP6 MSTORE PUSH1 0x3 PUSH1 0x40 PUSH1 0x0 KECCAK256 ADD SWAP2 DUP5 DUP3 GT PUSH2 0x245 JUMPI DUP2 SWAP1 PUSH2 0x5E8 DUP3 PUSH2 0x58F DUP7 SLOAD PUSH2 0x166D JUMP JUMPDEST PUSH1 0x0 SWAP1 PUSH1 0x1F DUP4 GT PUSH1 0x1 EQ PUSH2 0x71F JUMPI PUSH1 0x0 SWAP3 PUSH2 0x714 JUMPI JUMPDEST POP POP DUP2 PUSH1 0x1 SHL SWAP2 PUSH1 0x0 NOT SWAP1 PUSH1 0x3 SHL SHR NOT AND OR SWAP1 SSTORE JUMPDEST DUP4 PUSH1 0x0 MSTORE PUSH1 0x0 DUP4 MSTORE PUSH1 0x4 PUSH1 0x40 PUSH1 0x0 KECCAK256 ADD SWAP2 DUP2 GT PUSH2 0x245 JUMPI PUSH2 0x63E DUP2 PUSH2 0x638 DUP5 SLOAD PUSH2 0x166D JUMP JUMPDEST DUP5 PUSH2 0x1934 JUMP JUMPDEST PUSH1 0x0 PUSH1 0x1F DUP3 GT PUSH1 0x1 EQ PUSH2 0x6AC JUMPI DUP2 SWAP1 PUSH1 0x0 SWAP6 SWAP7 DUP7 SWAP3 PUSH2 0x6A1 JUMPI JUMPDEST POP POP DUP2 PUSH1 0x1 SHL SWAP2 DUP6 NOT SWAP1 PUSH1 0x3 SHL SHR NOT AND OR SWAP1 SSTORE JUMPDEST DUP3 DUP3 MSTORE MSTORE TIMESTAMP PUSH1 0x6 PUSH1 0x40 PUSH1 0x0 KECCAK256 ADD SSTORE PUSH32 0xD477F7E3831F9775CC88977A1D40D3A1CA3B6AEB32558FE078DE53F6E9C33200 PUSH1 0x0 DUP1 LOG2 STOP JUMPDEST ADD CALLDATALOAD SWAP1 POP DUP7 DUP1 PUSH2 0x658 JUMP JUMPDEST PUSH1 0x1F NOT DUP3 AND SWAP1 DUP4 PUSH1 0x0 MSTORE DUP5 PUSH1 0x0 KECCAK256 SWAP2 PUSH1 0x0 JUMPDEST DUP2 DUP2 LT PUSH2 0x6FD JUMPI POP SWAP7 DUP4 SWAP3 SWAP2 PUSH1 0x1 SWAP5 PUSH1 0x0 SWAP9 SWAP10 LT PUSH2 0x6E4 JUMPI JUMPDEST POP POP POP DUP2 SHL ADD SWAP1 SSTORE PUSH2 0x66C JUMP JUMPDEST DUP8 NOT PUSH1 0xF8 DUP6 PUSH1 0x3 SHL AND SHR NOT SWAP2 ADD CALLDATALOAD AND SWAP1 SSTORE DUP7 DUP1 DUP1 PUSH2 0x6D7 JUMP JUMPDEST SWAP2 SWAP3 DUP7 PUSH1 0x1 DUP2 SWAP3 DUP7 DUP13 ADD CALLDATALOAD DUP2 SSTORE ADD SWAP5 ADD SWAP3 ADD PUSH2 0x6BE JUMP JUMPDEST ADD CALLDATALOAD SWAP1 POP DUP9 DUP1 PUSH2 0x5FE JUMP JUMPDEST SWAP1 SWAP2 POP PUSH1 0x1F NOT DUP4 AND SWAP2 DUP5 PUSH1 0x0 MSTORE DUP8 PUSH1 0x0 KECCAK256 SWAP3 PUSH1 0x0 JUMPDEST DUP10 DUP3 DUP3 LT PUSH2 0x773 JUMPI POP POP SWAP1 DUP5 PUSH1 0x1 SWAP6 SWAP5 SWAP4 SWAP3 LT PUSH2 0x759 JUMPI JUMPDEST POP POP POP DUP2 SHL ADD SWAP1 SSTORE PUSH2 0x613 JUMP JUMPDEST ADD CALLDATALOAD PUSH1 0x0 NOT PUSH1 0x3 DUP5 SWAP1 SHL PUSH1 0xF8 AND SHR NOT AND SWAP1 SSTORE DUP9 DUP1 DUP1 PUSH2 0x74C JUMP JUMPDEST PUSH1 0x1 DUP5 SWAP7 DUP3 SWAP4 SWAP6 DUP8 ADD CALLDATALOAD DUP2 SSTORE ADD SWAP6 ADD SWAP3 ADD PUSH2 0x734 JUMP JUMPDEST ADD CALLDATALOAD SWAP1 POP DUP11 DUP1 PUSH2 0x5AB JUMP JUMPDEST SWAP1 SWAP2 POP PUSH1 0x1F NOT DUP4 AND SWAP2 DUP5 PUSH1 0x0 MSTORE DUP10 PUSH1 0x0 KECCAK256 SWAP3 PUSH1 0x0 JUMPDEST DUP12 DUP3 DUP3 LT PUSH2 0x7E8 JUMPI POP POP SWAP1 DUP5 PUSH1 0x1 SWAP6 SWAP5 SWAP4 SWAP3 LT PUSH2 0x7CE JUMPI JUMPDEST POP POP POP DUP2 SHL ADD SWAP1 SSTORE PUSH2 0x5C0 JUMP JUMPDEST ADD CALLDATALOAD PUSH1 0x0 NOT PUSH1 0x3 DUP5 SWAP1 SHL PUSH1 0xF8 AND SHR NOT AND SWAP1 SSTORE DUP11 DUP1 DUP1 PUSH2 0x7C1 JUMP JUMPDEST PUSH1 0x1 DUP5 SWAP7 DUP3 SWAP4 SWAP6 DUP8 ADD CALLDATALOAD DUP2 SSTORE ADD SWAP6 ADD SWAP3 ADD PUSH2 0x7A9 JUMP JUMPDEST PUSH2 0x813 SWAP2 POP RETURNDATASIZE DUP1 PUSH1 0x0 DUP4 RETURNDATACOPY PUSH2 0x270 DUP2 DUP4 PUSH2 0x16C2 JUMP JUMPDEST DUP13 PUSH2 0x103 JUMP JUMPDEST CALLVALUE PUSH2 0x28A JUMPI PUSH1 0x20 CALLDATASIZE PUSH1 0x3 NOT ADD SLT PUSH2 0x28A JUMPI PUSH1 0x4 CALLDATALOAD PUSH1 0x0 MSTORE PUSH1 0x0 PUSH1 0x20 MSTORE PUSH2 0x89F PUSH1 0x40 PUSH1 0x0 KECCAK256 PUSH2 0x846 DUP2 PUSH2 0x16E3 JUMP JUMPDEST SWAP1 PUSH2 0x8D7 PUSH2 0x856 PUSH1 0x1 DUP4 ADD PUSH2 0x16E3 JUMP JUMPDEST SWAP2 PUSH2 0x8C9 PUSH2 0x866 PUSH1 0x2 DUP4 ADD PUSH2 0x16E3 JUMP JUMPDEST PUSH2 0x8BB PUSH2 0x875 PUSH1 0x3 DUP6 ADD PUSH2 0x16E3 JUMP JUMPDEST SWAP2 PUSH2 0x8AD PUSH1 0x6 PUSH2 0x887 PUSH1 0x4 DUP9 ADD PUSH2 0x16E3 JUMP JUMPDEST SWAP7 ADD SLOAD SWAP8 PUSH1 0x40 MLOAD SWAP11 DUP12 SWAP11 PUSH1 0xC0 DUP13 MSTORE PUSH1 0xC0 DUP13 ADD SWAP1 PUSH2 0x15B8 JUMP JUMPDEST SWAP1 DUP11 DUP3 SUB PUSH1 0x20 DUP13 ADD MSTORE PUSH2 0x15B8 JUMP JUMPDEST SWAP1 DUP9 DUP3 SUB PUSH1 0x40 DUP11 ADD MSTORE PUSH2 0x15B8 JUMP JUMPDEST SWAP1 DUP7 DUP3 SUB PUSH1 0x60 DUP9 ADD MSTORE PUSH2 0x15B8 JUMP JUMPDEST SWAP1 DUP5 DUP3 SUB PUSH1 0x80 DUP7 ADD MSTORE PUSH2 0x15B8 JUMP JUMPDEST SWAP1 PUSH1 0xA0 DUP4 ADD MSTORE SUB SWAP1 RETURN JUMPDEST CALLVALUE PUSH2 0x28A JUMPI PUSH1 0xE0 CALLDATASIZE PUSH1 0x3 NOT ADD SLT PUSH2 0x28A JUMPI PUSH1 0x24 CALLDATALOAD PUSH1 0x1 PUSH1 0x1 PUSH1 0x40 SHL SUB DUP2 GT PUSH2 0x28A JUMPI PUSH2 0x911 SWAP1 CALLDATASIZE SWAP1 PUSH1 0x4 ADD PUSH2 0x160D JUMP JUMPDEST SWAP1 PUSH1 0x44 CALLDATALOAD PUSH1 0x1 PUSH1 0x1 PUSH1 0x40 SHL SUB DUP2 GT PUSH2 0x28A JUMPI PUSH2 0x931 SWAP1 CALLDATASIZE SWAP1 PUSH1 0x4 ADD PUSH2 0x160D JUMP JUMPDEST SWAP1 PUSH1 0x64 CALLDATALOAD PUSH1 0x1 PUSH1 0x1 PUSH1 0x40 SHL SUB DUP2 GT PUSH2 0x28A JUMPI PUSH2 0x951 SWAP1 CALLDATASIZE SWAP1 PUSH1 0x4 ADD PUSH2 0x160D JUMP JUMPDEST SWAP1 PUSH1 0x84 CALLDATALOAD PUSH1 0x1 PUSH1 0x1 PUSH1 0x40 SHL SUB DUP2 GT PUSH2 0x28A JUMPI PUSH2 0x971 SWAP1 CALLDATASIZE SWAP1 PUSH1 0x4 ADD PUSH2 0x160D JUMP JUMPDEST SWAP1 SWAP2 PUSH1 0xA4 CALLDATALOAD PUSH1 0x1 PUSH1 0x1 PUSH1 0x40 SHL SUB DUP2 GT PUSH2 0x28A JUMPI PUSH2 0x992 SWAP1 CALLDATASIZE SWAP1 PUSH1 0x4 ADD PUSH2 0x160D JUMP JUMPDEST SWAP5 SWAP1 SWAP6 PUSH1 0xC4 CALLDATALOAD PUSH1 0x1 PUSH1 0x1 PUSH1 0x40 SHL SUB DUP2 GT PUSH2 0x28A JUMPI PUSH2 0x9B4 SWAP1 CALLDATASIZE SWAP1 PUSH1 0x4 ADD PUSH2 0x15DD JUMP JUMPDEST PUSH1 0x40 MLOAD PUSH4 0x2DE5AAF7 PUSH1 0xE0 SHL DUP2 MSTORE PUSH1 0x4 DUP1 CALLDATALOAD SWAP1 DUP3 ADD MSTORE SWAP2 SWAP11 SWAP1 SWAP10 SWAP2 PUSH1 0x0 DUP2 PUSH1 0x24 DUP2 PUSH32 0x0 PUSH1 0x1 PUSH1 0x1 PUSH1 0xA0 SHL SUB AND GAS STATICCALL SWAP1 DUP2 ISZERO PUSH2 0x27E JUMPI PUSH1 0x0 SWAP2 PUSH2 0x1097 JUMPI JUMPDEST POP PUSH1 0x40 ADD MLOAD PUSH2 0xA28 SWAP1 PUSH1 0x1 PUSH1 0x1 PUSH1 0xA0 SHL SUB AND CALLER EQ PUSH2 0x1891 JUMP JUMPDEST PUSH1 0x40 MLOAD SWAP12 PUSH2 0xA35 DUP14 PUSH2 0x16A7 JUMP JUMPDEST CALLDATASIZE SWAP1 PUSH2 0xA40 SWAP3 PUSH2 0x18CF JUMP JUMPDEST DUP12 MSTORE CALLDATASIZE SWAP1 PUSH2 0xA4D SWAP3 PUSH2 0x18CF JUMP JUMPDEST PUSH1 0x20 DUP11 ADD MSTORE CALLDATASIZE SWAP1 PUSH2 0xA5D SWAP3 PUSH2 0x18CF JUMP JUMPDEST PUSH1 0x40 DUP9 ADD MSTORE CALLDATASIZE SWAP1 PUSH2 0xA6D SWAP3 PUSH2 0x18CF JUMP JUMPDEST PUSH1 0x60 DUP7 ADD MSTORE CALLDATASIZE SWAP1 PUSH2 0xA7D SWAP3 PUSH2 0x18CF JUMP JUMPDEST PUSH1 0x80 DUP5 ADD MSTORE PUSH2 0xA8B DUP2 PUSH2 0x1906 JUMP JUMPDEST SWAP2 PUSH1 0x40 MLOAD SWAP3 PUSH2 0xA9A SWAP1 DUP5 PUSH2 0x16C2 JUMP JUMPDEST DUP2 DUP4 MSTORE PUSH1 0x20 DUP4 ADD SWAP2 PUSH1 0x5 SHL DUP2 ADD SWAP1 CALLDATASIZE DUP3 GT PUSH2 0x28A JUMPI DUP1 SWAP3 JUMPDEST DUP3 DUP5 LT PUSH2 0x105B JUMPI DUP6 DUP6 PUSH1 0xA0 DUP3 ADD MSTORE PUSH1 0xC0 DUP2 ADD SWAP1 TIMESTAMP DUP3 MSTORE PUSH1 0x4 CALLDATALOAD PUSH1 0x0 MSTORE PUSH1 0x0 PUSH1 0x20 MSTORE PUSH1 0x40 PUSH1 0x0 KECCAK256 DUP2 MLOAD SWAP3 DUP4 MLOAD PUSH1 0x1 PUSH1 0x1 PUSH1 0x40 SHL SUB DUP2 GT PUSH2 0x245 JUMPI PUSH2 0xAFF DUP2 PUSH2 0xAF9 DUP6 SLOAD PUSH2 0x166D JUMP JUMPDEST DUP6 PUSH2 0x1934 JUMP JUMPDEST PUSH1 0x20 PUSH1 0x1F DUP3 GT PUSH1 0x1 EQ PUSH2 0xFF2 JUMPI DUP2 SWAP3 SWAP4 SWAP5 SWAP6 PUSH1 0x0 SWAP3 PUSH2 0xFE7 JUMPI JUMPDEST POP POP DUP2 PUSH1 0x1 SHL SWAP2 PUSH1 0x0 NOT SWAP1 PUSH1 0x3 SHL SHR NOT AND OR DUP3 SSTORE JUMPDEST PUSH1 0x20 DUP4 ADD MLOAD SWAP3 DUP4 MLOAD PUSH1 0x1 PUSH1 0x1 PUSH1 0x40 SHL SUB DUP2 GT PUSH2 0x245 JUMPI PUSH2 0xB5E DUP2 PUSH2 0xB55 PUSH1 0x1 DUP8 ADD SLOAD PUSH2 0x166D JUMP JUMPDEST PUSH1 0x1 DUP8 ADD PUSH2 0x1934 JUMP JUMPDEST PUSH1 0x20 PUSH1 0x1F DUP3 GT PUSH1 0x1 EQ PUSH2 0xF78 JUMPI DUP2 SWAP3 SWAP4 SWAP5 SWAP6 PUSH1 0x0 SWAP3 PUSH2 0xF6D JUMPI JUMPDEST POP POP DUP2 PUSH1 0x1 SHL SWAP2 PUSH1 0x0 NOT SWAP1 PUSH1 0x3 SHL SHR NOT AND OR PUSH1 0x1 DUP5 ADD SSTORE JUMPDEST PUSH1 0x40 DUP2 ADD MLOAD SWAP3 DUP4 MLOAD PUSH1 0x1 PUSH1 0x1 PUSH1 0x40 SHL SUB DUP2 GT PUSH2 0x245 JUMPI PUSH2 0xBC0 DUP2 PUSH2 0xBB7 PUSH1 0x2 DUP6 ADD SLOAD PUSH2 0x166D JUMP JUMPDEST PUSH1 0x2 DUP6 ADD PUSH2 0x1934 JUMP JUMPDEST PUSH1 0x20 PUSH1 0x1F DUP3 GT PUSH1 0x1 EQ PUSH2 0xEFE JUMPI DUP2 SWAP3 SWAP4 SWAP5 SWAP6 PUSH1 0x0 SWAP3 PUSH2 0xEF3 JUMPI JUMPDEST POP POP DUP2 PUSH1 0x1 SHL SWAP2 PUSH1 0x0 NOT SWAP1 PUSH1 0x3 SHL SHR NOT AND OR PUSH1 0x2 DUP3 ADD SSTORE JUMPDEST PUSH1 0x60 DUP3 ADD MLOAD SWAP3 DUP4 MLOAD PUSH1 0x1 PUSH1 0x1 PUSH1 0x40 SHL SUB DUP2 GT PUSH2 0x245 JUMPI PUSH2 0xC22 DUP2 PUSH2 0xC19 PUSH1 0x3 DUP7 ADD SLOAD PUSH2 0x166D JUMP JUMPDEST PUSH1 0x3 DUP7 ADD PUSH2 0x1934 JUMP JUMPDEST PUSH1 0x20 PUSH1 0x1F DUP3 GT PUSH1 0x1 EQ PUSH2 0xE84 JUMPI DUP2 SWAP3 SWAP4 SWAP5 SWAP6 PUSH1 0x0 SWAP3 PUSH2 0xE79 JUMPI JUMPDEST POP POP DUP2 PUSH1 0x1 SHL SWAP2 PUSH1 0x0 NOT SWAP1 PUSH1 0x3 SHL SHR NOT AND OR PUSH1 0x3 DUP4 ADD SSTORE JUMPDEST PUSH1 0x80 DUP4 ADD MLOAD SWAP3 DUP4 MLOAD PUSH1 0x1 PUSH1 0x1 PUSH1 0x40 SHL SUB DUP2 GT PUSH2 0x245 JUMPI PUSH2 0xC84 DUP2 PUSH2 0xC7B PUSH1 0x4 DUP8 ADD SLOAD PUSH2 0x166D JUMP JUMPDEST PUSH1 0x4 DUP8 ADD PUSH2 0x1934 JUMP JUMPDEST PUSH1 0x20 PUSH1 0x1F DUP3 GT PUSH1 0x1 EQ PUSH2 0xE0A JUMPI DUP2 SWAP3 SWAP4 SWAP5 SWAP6 PUSH1 0x0 SWAP3 PUSH2 0xDFF JUMPI JUMPDEST POP POP DUP2 PUSH1 0x1 SHL SWAP2 PUSH1 0x0 NOT SWAP1 PUSH1 0x3 SHL SHR NOT AND OR PUSH1 0x4 DUP5 ADD SSTORE JUMPDEST PUSH1 0xA0 PUSH1 0x5 DUP5 ADD SWAP2 ADD MLOAD PUSH1 0x20 DUP2 MLOAD SWAP2 PUSH2 0xCCE DUP4 DUP6 PUSH2 0x1979 JUMP JUMPDEST ADD SWAP2 PUSH1 0x0 MSTORE PUSH1 0x20 PUSH1 0x0 KECCAK256 SWAP2 PUSH1 0x0 SWAP1 JUMPDEST DUP3 DUP3 LT PUSH2 0xD1C JUMPI DUP6 PUSH1 0x6 DUP7 MLOAD SWAP2 ADD SSTORE PUSH1 0x40 MLOAD TIMESTAMP DUP2 MSTORE PUSH32 0x1671F396A8FBE50F9B0F459E32FC0ABEBA32A54E644FEB8CFBA8CE4D3D061B9 PUSH1 0x20 PUSH1 0x4 CALLDATALOAD SWAP3 LOG2 STOP JUMPDEST DUP1 MLOAD DUP1 MLOAD SWAP1 PUSH1 0x1 PUSH1 0x1 PUSH1 0x40 SHL SUB DUP3 GT PUSH2 0x245 JUMPI PUSH2 0xD43 DUP3 PUSH2 0xD3D DUP9 SLOAD PUSH2 0x166D JUMP JUMPDEST DUP9 PUSH2 0x1934 JUMP JUMPDEST PUSH1 0x20 SWAP1 PUSH1 0x1F DUP4 GT PUSH1 0x1 EQ PUSH2 0xD8F JUMPI SWAP3 DUP3 PUSH1 0x1 SWAP5 SWAP4 PUSH1 0x20 SWAP4 DUP7 SWAP6 PUSH1 0x0 SWAP3 PUSH2 0xD84 JUMPI JUMPDEST POP POP PUSH1 0x0 NOT PUSH1 0x3 DUP4 SWAP1 SHL SHR NOT AND SWAP1 DUP5 SHL OR DUP8 SSTORE JUMPDEST ADD SWAP5 ADD SWAP2 ADD SWAP1 SWAP3 PUSH2 0xCDD JUMP JUMPDEST ADD MLOAD SWAP1 POP DUP12 DUP1 PUSH2 0xD64 JUMP JUMPDEST SWAP1 DUP7 PUSH1 0x0 MSTORE PUSH1 0x20 PUSH1 0x0 KECCAK256 SWAP2 PUSH1 0x0 JUMPDEST PUSH1 0x1F NOT DUP6 AND DUP2 LT PUSH2 0xDE7 JUMPI POP DUP4 PUSH1 0x20 SWAP4 PUSH1 0x1 SWAP7 SWAP4 DUP8 SWAP7 SWAP4 DUP8 SWAP5 PUSH1 0x1F NOT DUP2 AND LT PUSH2 0xDCE JUMPI JUMPDEST POP POP POP DUP2 SHL ADD DUP8 SSTORE PUSH2 0xD78 JUMP JUMPDEST ADD MLOAD PUSH1 0x0 NOT PUSH1 0xF8 DUP5 PUSH1 0x3 SHL AND SHR NOT AND SWAP1 SSTORE DUP12 DUP1 DUP1 PUSH2 0xDC1 JUMP JUMPDEST SWAP2 SWAP3 PUSH1 0x20 PUSH1 0x1 DUP2 SWAP3 DUP7 DUP6 ADD MLOAD DUP2 SSTORE ADD SWAP5 ADD SWAP3 ADD PUSH2 0xD9D JUMP JUMPDEST ADD MLOAD SWAP1 POP DUP6 DUP1 PUSH2 0xC9E JUMP JUMPDEST PUSH1 0x4 DUP6 ADD PUSH1 0x0 MSTORE PUSH1 0x20 PUSH1 0x0 KECCAK256 SWAP1 PUSH1 0x0 JUMPDEST PUSH1 0x1F NOT DUP5 AND DUP2 LT PUSH2 0xE61 JUMPI POP PUSH1 0x1 SWAP4 SWAP5 SWAP6 SWAP7 DUP4 PUSH1 0x1F NOT DUP2 AND LT PUSH2 0xE48 JUMPI JUMPDEST POP POP POP DUP2 SHL ADD PUSH1 0x4 DUP5 ADD SSTORE PUSH2 0xCB6 JUMP JUMPDEST ADD MLOAD PUSH1 0x0 NOT PUSH1 0xF8 DUP5 PUSH1 0x3 SHL AND SHR NOT AND SWAP1 SSTORE DUP6 DUP1 DUP1 PUSH2 0xE38 JUMP JUMPDEST SWAP1 SWAP2 PUSH1 0x20 PUSH1 0x1 DUP2 SWAP3 DUP6 DUP12 ADD MLOAD DUP2 SSTORE ADD SWAP4 ADD SWAP2 ADD PUSH2 0xE1A JUMP JUMPDEST ADD MLOAD SWAP1 POP DUP6 DUP1 PUSH2 0xC3C JUMP JUMPDEST PUSH1 0x3 DUP5 ADD PUSH1 0x0 MSTORE PUSH1 0x20 PUSH1 0x0 KECCAK256 SWAP1 PUSH1 0x0 JUMPDEST PUSH1 0x1F NOT DUP5 AND DUP2 LT PUSH2 0xEDB JUMPI POP PUSH1 0x1 SWAP4 SWAP5 SWAP6 SWAP7 DUP4 PUSH1 0x1F NOT DUP2 AND LT PUSH2 0xEC2 JUMPI JUMPDEST POP POP POP DUP2 SHL ADD PUSH1 0x3 DUP4 ADD SSTORE PUSH2 0xC54 JUMP JUMPDEST ADD MLOAD PUSH1 0x0 NOT PUSH1 0xF8 DUP5 PUSH1 0x3 SHL AND SHR NOT AND SWAP1 SSTORE DUP6 DUP1 DUP1 PUSH2 0xEB2 JUMP JUMPDEST SWAP1 SWAP2 PUSH1 0x20 PUSH1 0x1 DUP2 SWAP3 DUP6 DUP12 ADD MLOAD DUP2 SSTORE ADD SWAP4 ADD SWAP2 ADD PUSH2 0xE94 JUMP JUMPDEST ADD MLOAD SWAP1 POP DUP6 DUP1 PUSH2 0xBDA JUMP JUMPDEST PUSH1 0x2 DUP4 ADD PUSH1 0x0 MSTORE PUSH1 0x20 PUSH1 0x0 KECCAK256 SWAP1 PUSH1 0x0 JUMPDEST PUSH1 0x1F NOT DUP5 AND DUP2 LT PUSH2 0xF55 JUMPI POP PUSH1 0x1 SWAP4 SWAP5 SWAP6 SWAP7 DUP4 PUSH1 0x1F NOT DUP2 AND LT PUSH2 0xF3C JUMPI JUMPDEST POP POP POP DUP2 SHL ADD PUSH1 0x2 DUP3 ADD SSTORE PUSH2 0xBF2 JUMP JUMPDEST ADD MLOAD PUSH1 0x0 NOT PUSH1 0xF8 DUP5 PUSH1 0x3 SHL AND SHR NOT AND SWAP1 SSTORE DUP6 DUP1 DUP1 PUSH2 0xF2C JUMP JUMPDEST SWAP1 SWAP2 PUSH1 0x20 PUSH1 0x1 DUP2 SWAP3 DUP6 DUP12 ADD MLOAD DUP2 SSTORE ADD SWAP4 ADD SWAP2 ADD PUSH2 0xF0E JUMP JUMPDEST ADD MLOAD SWAP1 POP DUP6 DUP1 PUSH2 0xB78 JUMP JUMPDEST PUSH1 0x1 DUP6 ADD PUSH1 0x0 MSTORE PUSH1 0x20 PUSH1 0x0 KECCAK256 SWAP1 PUSH1 0x0 JUMPDEST PUSH1 0x1F NOT DUP5 AND DUP2 LT PUSH2 0xFCF JUMPI POP PUSH1 0x1 SWAP4 SWAP5 SWAP6 SWAP7 DUP4 PUSH1 0x1F NOT DUP2 AND LT PUSH2 0xFB6 JUMPI JUMPDEST POP POP POP DUP2 SHL ADD PUSH1 0x1 DUP5 ADD SSTORE PUSH2 0xB90 JUMP JUMPDEST ADD MLOAD PUSH1 0x0 NOT PUSH1 0xF8 DUP5 PUSH1 0x3 SHL AND SHR NOT AND SWAP1 SSTORE DUP6 DUP1 DUP1 PUSH2 0xFA6 JUMP JUMPDEST SWAP1 SWAP2 PUSH1 0x20 PUSH1 0x1 DUP2 SWAP3 DUP6 DUP12 ADD MLOAD DUP2 SSTORE ADD SWAP4 ADD SWAP2 ADD PUSH2 0xF88 JUMP JUMPDEST ADD MLOAD SWAP1 POP DUP6 DUP1 PUSH2 0xB19 JUMP JUMPDEST DUP4 PUSH1 0x0 MSTORE PUSH1 0x20 PUSH1 0x0 KECCAK256 SWAP1 PUSH1 0x0 JUMPDEST PUSH1 0x1F NOT DUP5 AND DUP2 LT PUSH2 0x1043 JUMPI POP PUSH1 0x1 SWAP4 SWAP5 SWAP6 SWAP7 DUP4 PUSH1 0x1F NOT DUP2 AND LT PUSH2 0x102A JUMPI JUMPDEST POP POP POP DUP2 SHL ADD DUP3 SSTORE PUSH2 0xB2E JUMP JUMPDEST ADD MLOAD PUSH1 0x0 NOT PUSH1 0xF8 DUP5 PUSH1 0x3 SHL AND SHR NOT AND SWAP1 SSTORE DUP6 DUP1 DUP1 PUSH2 0x101D JUMP JUMPDEST SWAP1 SWAP2 PUSH1 0x20 PUSH1 0x1 DUP2 SWAP3 DUP6 DUP12 ADD MLOAD DUP2 SSTORE ADD SWAP4 ADD SWAP2 ADD PUSH2 0xFFF JUMP JUMPDEST DUP4 CALLDATALOAD PUSH1 0x1 PUSH1 0x1 PUSH1 0x40 SHL SUB DUP2 GT PUSH2 0x28A JUMPI DUP3 ADD CALLDATASIZE PUSH1 0x1F DUP3 ADD SLT ISZERO PUSH2 0x28A JUMPI PUSH1 0x20 SWAP2 PUSH2 0x108C DUP4 SWAP3 CALLDATASIZE SWAP1 DUP5 DUP2 CALLDATALOAD SWAP2 ADD PUSH2 0x18CF JUMP JUMPDEST DUP2 MSTORE ADD SWAP4 ADD SWAP3 PUSH2 0xAB2 JUMP JUMPDEST PUSH2 0x10AC SWAP2 POP RETURNDATASIZE DUP1 PUSH1 0x0 DUP4 RETURNDATACOPY PUSH2 0x270 DUP2 DUP4 PUSH2 0x16C2 JUMP JUMPDEST DUP14 PUSH2 0xA0F JUMP JUMPDEST CALLVALUE PUSH2 0x28A JUMPI PUSH1 0x20 CALLDATASIZE PUSH1 0x3 NOT ADD SLT PUSH2 0x28A JUMPI PUSH1 0x4 CALLDATALOAD PUSH1 0x0 MSTORE PUSH1 0x0 PUSH1 0x20 MSTORE PUSH2 0x10F2 PUSH2 0x10DE PUSH1 0x40 PUSH1 0x0 KECCAK256 PUSH2 0x16E3 JUMP JUMPDEST PUSH1 0x40 MLOAD SWAP2 DUP3 SWAP2 PUSH1 0x20 DUP4 MSTORE PUSH1 0x20 DUP4 ADD SWAP1 PUSH2 0x15B8 JUMP JUMPDEST SUB SWAP1 RETURN JUMPDEST CALLVALUE PUSH2 0x28A JUMPI PUSH2 0x1104 CALLDATASIZE PUSH2 0x163A JUMP JUMPDEST PUSH1 0x40 MLOAD PUSH4 0x2DE5AAF7 PUSH1 0xE0 SHL DUP2 MSTORE PUSH1 0x4 DUP2 ADD DUP5 SWAP1 MSTORE SWAP2 SWAP3 SWAP2 PUSH1 0x1 PUSH1 0x1 PUSH1 0xA0 SHL SUB PUSH1 0x0 DUP3 PUSH1 0x24 DUP2 PUSH32 0x0 DUP6 AND GAS STATICCALL SWAP2 DUP3 ISZERO PUSH2 0x27E JUMPI PUSH2 0x116E SWAP3 PUSH1 0x40 SWAP2 PUSH1 0x0 SWAP2 PUSH2 0x129A JUMPI POP ADD MLOAD AND CALLER EQ PUSH2 0x1891 JUMP JUMPDEST DUP2 PUSH1 0x0 MSTORE PUSH1 0x20 SWAP3 PUSH1 0x0 DUP5 MSTORE PUSH1 0x1 DUP1 PUSH1 0x40 PUSH1 0x0 KECCAK256 ADD SWAP1 PUSH1 0x1 PUSH1 0x1 PUSH1 0x40 SHL SUB DUP5 GT PUSH2 0x245 JUMPI PUSH2 0x119F DUP5 PUSH2 0x638 DUP5 SLOAD PUSH2 0x166D JUMP JUMPDEST PUSH1 0x0 PUSH1 0x1F DUP6 GT PUSH1 0x1 EQ PUSH2 0x1214 JUMPI SWAP2 DUP5 DUP1 PUSH32 0x574711DF185BEFCBBBDEBB797AA57D7F3D8B43497F6AD174A29D2C331DFB02B2 SWAP8 SWAP9 SWAP4 PUSH1 0x0 SWAP6 DUP7 SWAP4 PUSH2 0x1209 JUMPI JUMPDEST POP SHL SWAP1 DUP5 NOT DUP8 PUSH1 0x3 SHL SHR NOT AND OR SWAP1 SSTORE DUP6 DUP3 MSTORE MSTORE TIMESTAMP PUSH1 0x6 PUSH1 0x40 PUSH1 0x0 KECCAK256 ADD SSTORE PUSH2 0x1AC PUSH1 0x40 MLOAD SWAP3 DUP4 SWAP3 DUP4 PUSH2 0x1A0E JUMP JUMPDEST DUP8 ADD CALLDATALOAD SWAP3 POP DUP11 PUSH2 0x11DD JUMP JUMPDEST PUSH1 0x1F NOT DUP6 AND SWAP1 DUP4 PUSH1 0x0 MSTORE DUP8 PUSH1 0x0 KECCAK256 SWAP2 PUSH1 0x0 JUMPDEST DUP2 DUP2 LT PUSH2 0x1285 JUMPI POP SWAP2 PUSH32 0x574711DF185BEFCBBBDEBB797AA57D7F3D8B43497F6AD174A29D2C331DFB02B2 SWAP8 SWAP9 SWAP4 SWAP2 DUP8 PUSH1 0x0 SWAP7 SWAP5 LT PUSH2 0x126C JUMPI JUMPDEST POP POP DUP6 DUP2 SHL ADD SWAP1 SSTORE PUSH2 0x18F JUMP JUMPDEST DUP6 NOT PUSH1 0xF8 DUP10 PUSH1 0x3 SHL AND SHR NOT SWAP1 DUP8 ADD CALLDATALOAD AND SWAP1 SSTORE DUP9 DUP1 PUSH2 0x125F JUMP JUMPDEST DUP7 DUP4 ADD CALLDATALOAD DUP5 SSTORE SWAP3 DUP5 ADD SWAP3 SWAP2 DUP10 ADD SWAP2 DUP10 ADD PUSH2 0x1226 JUMP JUMPDEST PUSH2 0x12AF SWAP2 POP RETURNDATASIZE DUP1 PUSH1 0x0 DUP4 RETURNDATACOPY PUSH2 0x270 DUP2 DUP4 PUSH2 0x16C2 JUMP JUMPDEST DUP8 PUSH2 0x103 JUMP JUMPDEST CALLVALUE PUSH2 0x28A JUMPI PUSH1 0x40 CALLDATASIZE PUSH1 0x3 NOT ADD SLT PUSH2 0x28A JUMPI PUSH1 0x1 PUSH1 0x1 PUSH1 0x40 SHL SUB PUSH1 0x4 CALLDATALOAD PUSH1 0x24 CALLDATALOAD DUP3 DUP2 GT PUSH2 0x28A JUMPI PUSH2 0x12E9 SWAP1 CALLDATASIZE SWAP1 PUSH1 0x4 ADD PUSH2 0x15DD JUMP JUMPDEST PUSH1 0x40 MLOAD PUSH4 0x2DE5AAF7 PUSH1 0xE0 SHL DUP2 MSTORE PUSH1 0x4 DUP2 ADD DUP5 SWAP1 MSTORE SWAP2 SWAP4 SWAP2 PUSH1 0x1 PUSH1 0x1 PUSH1 0xA0 SHL SUB PUSH1 0x0 DUP3 PUSH1 0x24 DUP2 PUSH32 0x0 DUP6 AND GAS STATICCALL SWAP2 DUP3 ISZERO PUSH2 0x27E JUMPI PUSH2 0x1357 SWAP3 PUSH1 0x40 SWAP2 PUSH1 0x0 SWAP2 PUSH2 0x14C0 JUMPI JUMPDEST POP SWAP7 SWAP5 SWAP7 ADD MLOAD AND CALLER EQ PUSH2 0x1891 JUMP JUMPDEST DUP3 PUSH1 0x0 MSTORE PUSH1 0x20 SWAP2 PUSH1 0x0 DUP4 MSTORE PUSH1 0x5 PUSH1 0x40 PUSH1 0x0 KECCAK256 ADD SWAP5 PUSH2 0x1375 DUP4 DUP8 PUSH2 0x1979 JUMP JUMPDEST PUSH1 0x0 SWAP6 DUP7 MSTORE DUP4 DUP7 KECCAK256 SWAP2 DUP1 JUMPDEST DUP5 DUP9 LT PUSH2 0x13C5 JUMPI DUP7 PUSH32 0x1671F396A8FBE50F9B0F459E32FC0ABEBA32A54E644FEB8CFBA8CE4D3D061B9 DUP8 DUP3 PUSH1 0x0 MSTORE PUSH1 0x0 DUP2 MSTORE TIMESTAMP PUSH1 0x6 PUSH1 0x40 PUSH1 0x0 KECCAK256 ADD SSTORE PUSH1 0x40 MLOAD TIMESTAMP DUP2 MSTORE LOG2 STOP JUMPDEST DUP1 CALLDATALOAD PUSH1 0x1E NOT DUP4 CALLDATASIZE SUB ADD DUP2 SLT ISZERO PUSH2 0x28A JUMPI DUP3 ADD DUP1 CALLDATALOAD DUP5 DUP2 GT PUSH2 0x28A JUMPI DUP1 CALLDATASIZE SUB DUP9 DUP4 ADD SGT PUSH2 0x28A JUMPI DUP8 SWAP2 PUSH2 0x1401 DUP3 PUSH2 0x13FB DUP10 SLOAD PUSH2 0x166D JUMP JUMPDEST DUP10 PUSH2 0x1934 JUMP JUMPDEST PUSH1 0x0 SWAP1 PUSH1 0x1F DUP4 GT PUSH1 0x1 EQ PUSH2 0x144F JUMPI SWAP2 DUP1 DUP5 PUSH1 0x1 SWAP7 SWAP4 DUP8 SWAP7 SWAP6 PUSH1 0x0 SWAP4 PUSH2 0x1442 JUMPI JUMPDEST POP POP POP PUSH1 0x0 NOT PUSH1 0x3 DUP4 SWAP1 SHL SHR NOT AND SWAP1 DUP5 SHL OR DUP8 SSTORE JUMPDEST ADD SWAP5 ADD SWAP8 ADD SWAP7 SWAP3 PUSH2 0x1380 JUMP JUMPDEST ADD ADD CALLDATALOAD SWAP1 POP DUP4 DUP15 DUP1 PUSH2 0x1421 JUMP JUMPDEST PUSH1 0x1F NOT DUP4 AND SWAP2 DUP9 PUSH1 0x0 MSTORE DUP5 PUSH1 0x0 KECCAK256 SWAP3 PUSH1 0x0 JUMPDEST DUP2 DUP2 LT PUSH2 0x14A6 JUMPI POP SWAP2 DUP6 PUSH1 0x1 SWAP8 SWAP5 SWAP3 DUP7 DUP10 SWAP9 SWAP8 SWAP6 LT PUSH2 0x148A JUMPI JUMPDEST POP POP POP POP DUP4 SHL DUP4 ADD DUP8 SSTORE PUSH2 0x1436 JUMP JUMPDEST PUSH1 0x0 NOT PUSH1 0xF8 DUP7 PUSH1 0x3 SHL AND SHR NOT SWAP3 ADD ADD CALLDATALOAD AND SWAP1 SSTORE DUP13 DUP1 DUP5 DUP2 PUSH2 0x147B JUMP JUMPDEST DUP3 DUP5 ADD DUP8 ADD CALLDATALOAD DUP6 SSTORE DUP13 SWAP7 PUSH1 0x1 SWAP1 SWAP6 ADD SWAP5 SWAP3 DUP4 ADD SWAP3 ADD PUSH2 0x1461 JUMP JUMPDEST PUSH2 0x14D5 SWAP2 POP RETURNDATASIZE DUP1 PUSH1 0x0 DUP4 RETURNDATACOPY PUSH2 0x270 DUP2 DUP4 PUSH2 0x16C2 JUMP JUMPDEST DUP9 PUSH2 0x1349 JUMP JUMPDEST CALLVALUE PUSH2 0x28A JUMPI PUSH1 0x20 DUP1 PUSH1 0x3 NOT CALLDATASIZE ADD SLT PUSH2 0x28A JUMPI PUSH1 0x4 CALLDATALOAD PUSH1 0x0 MSTORE PUSH1 0x0 DUP2 MSTORE PUSH2 0x1507 PUSH1 0x5 PUSH1 0x40 PUSH1 0x0 KECCAK256 ADD PUSH2 0x1A36 JUMP JUMPDEST PUSH1 0x40 MLOAD SWAP1 DUP3 DUP3 ADD SWAP3 DUP1 DUP4 MSTORE DUP2 MLOAD DUP1 SWAP5 MSTORE PUSH1 0x40 DUP4 ADD SWAP4 DUP2 PUSH1 0x40 DUP3 PUSH1 0x5 SHL DUP7 ADD ADD SWAP4 ADD SWAP2 PUSH1 0x0 SWAP6 JUMPDEST DUP3 DUP8 LT PUSH2 0x153A JUMPI DUP6 DUP6 SUB DUP7 RETURN JUMPDEST SWAP1 SWAP2 SWAP3 SWAP4 DUP3 DUP1 PUSH2 0x1556 PUSH1 0x1 SWAP4 PUSH1 0x3F NOT DUP11 DUP3 SUB ADD DUP7 MSTORE DUP9 MLOAD PUSH2 0x15B8 JUMP JUMPDEST SWAP7 ADD SWAP3 ADD SWAP7 ADD SWAP6 SWAP3 SWAP2 SWAP1 SWAP3 PUSH2 0x152D JUMP JUMPDEST CALLVALUE PUSH2 0x28A JUMPI PUSH1 0x20 CALLDATASIZE PUSH1 0x3 NOT ADD SLT PUSH2 0x28A JUMPI PUSH1 0x4 CALLDATALOAD PUSH1 0x0 MSTORE PUSH1 0x0 PUSH1 0x20 MSTORE PUSH2 0x10F2 PUSH2 0x10DE PUSH1 0x1 PUSH1 0x40 PUSH1 0x0 KECCAK256 ADD PUSH2 0x16E3 JUMP JUMPDEST PUSH1 0x0 JUMPDEST DUP4 DUP2 LT PUSH2 0x15A8 JUMPI POP POP PUSH1 0x0 SWAP2 ADD MSTORE JUMP JUMPDEST DUP2 DUP2 ADD MLOAD DUP4 DUP3 ADD MSTORE PUSH1 0x20 ADD PUSH2 0x1598 JUMP JUMPDEST SWAP1 PUSH1 0x20 SWAP2 PUSH2 0x15D1 DUP2 MLOAD DUP1 SWAP3 DUP2 DUP6 MSTORE DUP6 DUP1 DUP7 ADD SWAP2 ADD PUSH2 0x1595 JUMP JUMPDEST PUSH1 0x1F ADD PUSH1 0x1F NOT AND ADD ADD SWAP1 JUMP JUMPDEST SWAP2 DUP2 PUSH1 0x1F DUP5 ADD SLT ISZERO PUSH2 0x28A JUMPI DUP3 CALLDATALOAD SWAP2 PUSH1 0x1 PUSH1 0x1 PUSH1 0x40 SHL SUB DUP4 GT PUSH2 0x28A JUMPI PUSH1 0x20 DUP1 DUP6 ADD SWAP5 DUP5 PUSH1 0x5 SHL ADD ADD GT PUSH2 0x28A JUMPI JUMP JUMPDEST SWAP2 DUP2 PUSH1 0x1F DUP5 ADD SLT ISZERO PUSH2 0x28A JUMPI DUP3 CALLDATALOAD SWAP2 PUSH1 0x1 PUSH1 0x1 PUSH1 0x40 SHL SUB DUP4 GT PUSH2 0x28A JUMPI PUSH1 0x20 DUP4 DUP2 DUP7 ADD SWAP6 ADD ADD GT PUSH2 0x28A JUMPI JUMP JUMPDEST SWAP1 PUSH1 0x40 PUSH1 0x3 NOT DUP4 ADD SLT PUSH2 0x28A JUMPI PUSH1 0x4 CALLDATALOAD SWAP2 PUSH1 0x24 CALLDATALOAD SWAP1 PUSH1 0x1 PUSH1 0x1 PUSH1 0x40 SHL SUB DUP3 GT PUSH2 0x28A JUMPI PUSH2 0x1669 SWAP2 PUSH1 0x4 ADD PUSH2 0x160D JUMP JUMPDEST SWAP1 SWAP2 JUMP JUMPDEST SWAP1 PUSH1 0x1 DUP3 DUP2 SHR SWAP3 AND DUP1 ISZERO PUSH2 0x169D JUMPI JUMPDEST PUSH1 0x20 DUP4 LT EQ PUSH2 0x1687 JUMPI JUMP JUMPDEST PUSH4 0x4E487B71 PUSH1 0xE0 SHL PUSH1 0x0 MSTORE PUSH1 0x22 PUSH1 0x4 MSTORE PUSH1 0x24 PUSH1 0x0 REVERT JUMPDEST SWAP2 PUSH1 0x7F AND SWAP2 PUSH2 0x167C JUMP JUMPDEST PUSH1 0xE0 DUP2 ADD SWAP1 DUP2 LT PUSH1 0x1 PUSH1 0x1 PUSH1 0x40 SHL SUB DUP3 GT OR PUSH2 0x245 JUMPI PUSH1 0x40 MSTORE JUMP JUMPDEST SWAP1 PUSH1 0x1F DUP1 NOT SWAP2 ADD AND DUP2 ADD SWAP1 DUP2 LT PUSH1 0x1 PUSH1 0x1 PUSH1 0x40 SHL SUB DUP3 GT OR PUSH2 0x245 JUMPI PUSH1 0x40 MSTORE JUMP JUMPDEST SWAP1 PUSH1 0x40 MLOAD SWAP2 DUP3 PUSH1 0x0 DUP3 SLOAD SWAP3 PUSH2 0x16F7 DUP5 PUSH2 0x166D JUMP JUMPDEST SWAP1 DUP2 DUP5 MSTORE PUSH1 0x1 SWAP5 DUP6 DUP2 AND SWAP1 DUP2 PUSH1 0x0 EQ PUSH2 0x1766 JUMPI POP PUSH1 0x1 EQ PUSH2 0x1723 JUMPI JUMPDEST POP POP PUSH2 0x1721 SWAP3 POP SUB DUP4 PUSH2 0x16C2 JUMP JUMPDEST JUMP JUMPDEST SWAP1 SWAP4 SWAP2 POP PUSH1 0x0 MSTORE PUSH1 0x20 SWAP1 DUP2 PUSH1 0x0 KECCAK256 SWAP4 PUSH1 0x0 SWAP2 JUMPDEST DUP2 DUP4 LT PUSH2 0x174E JUMPI POP POP PUSH2 0x1721 SWAP4 POP DUP3 ADD ADD CODESIZE DUP1 PUSH2 0x1713 JUMP JUMPDEST DUP6 SLOAD DUP9 DUP5 ADD DUP6 ADD MSTORE SWAP5 DUP6 ADD SWAP5 DUP8 SWAP5 POP SWAP2 DUP4 ADD SWAP2 PUSH2 0x1736 JUMP JUMPDEST SWAP2 POP POP PUSH2 0x1721 SWAP5 POP PUSH1 0x20 SWAP3 POP PUSH1 0xFF NOT AND DUP3 DUP5 ADD MSTORE ISZERO ISZERO PUSH1 0x5 SHL DUP3 ADD ADD CODESIZE DUP1 PUSH2 0x1713 JUMP JUMPDEST PUSH1 0x1 PUSH1 0x1 PUSH1 0x40 SHL SUB DUP2 GT PUSH2 0x245 JUMPI PUSH1 0x1F ADD PUSH1 0x1F NOT AND PUSH1 0x20 ADD SWAP1 JUMP JUMPDEST MLOAD SWAP1 PUSH1 0x1 PUSH1 0x1 PUSH1 0xA0 SHL SUB DUP3 AND DUP3 SUB PUSH2 0x28A JUMPI JUMP JUMPDEST SWAP1 PUSH1 0x20 SWAP1 DUP2 DUP4 DUP3 SUB SLT PUSH2 0x28A JUMPI DUP3 MLOAD PUSH1 0x1 PUSH1 0x1 PUSH1 0x40 SHL SUB SWAP4 DUP5 DUP3 GT PUSH2 0x28A JUMPI ADD SWAP1 PUSH1 0xC0 DUP3 DUP3 SUB SLT PUSH2 0x28A JUMPI PUSH1 0x40 MLOAD SWAP4 PUSH1 0xC0 DUP6 ADD DUP6 DUP2 LT DUP3 DUP3 GT OR PUSH2 0x245 JUMPI PUSH1 0x40 MSTORE DUP3 MLOAD DUP6 MSTORE DUP4 DUP4 ADD MLOAD SWAP1 DUP2 GT PUSH2 0x28A JUMPI DUP3 ADD SWAP3 DUP2 PUSH1 0x1F DUP6 ADD SLT ISZERO PUSH2 0x28A JUMPI DUP4 MLOAD SWAP4 PUSH2 0x1822 DUP6 PUSH2 0x1789 JUMP JUMPDEST SWAP3 PUSH2 0x1830 PUSH1 0x40 MLOAD SWAP5 DUP6 PUSH2 0x16C2 JUMP JUMPDEST DUP6 DUP5 MSTORE DUP3 DUP7 DUP4 ADD ADD GT PUSH2 0x28A JUMPI PUSH1 0xA0 SWAP5 PUSH2 0x184F SWAP2 DUP4 DUP1 DUP7 ADD SWAP2 ADD PUSH2 0x1595 JUMP JUMPDEST DUP5 ADD MSTORE PUSH2 0x185E PUSH1 0x40 DUP3 ADD PUSH2 0x17A4 JUMP JUMPDEST PUSH1 0x40 DUP5 ADD MSTORE PUSH2 0x186F PUSH1 0x60 DUP3 ADD PUSH2 0x17A4 JUMP JUMPDEST PUSH1 0x60 DUP5 ADD MSTORE PUSH1 0x80 DUP2 ADD MLOAD PUSH1 0x80 DUP5 ADD MSTORE ADD MLOAD DUP1 ISZERO ISZERO DUP2 SUB PUSH2 0x28A JUMPI PUSH1 0xA0 DUP3 ADD MSTORE SWAP1 JUMP JUMPDEST ISZERO PUSH2 0x1898 JUMPI JUMP JUMPDEST PUSH1 0x40 MLOAD PUSH3 0x461BCD PUSH1 0xE5 SHL DUP2 MSTORE PUSH1 0x20 PUSH1 0x4 DUP3 ADD MSTORE PUSH1 0xF PUSH1 0x24 DUP3 ADD MSTORE PUSH15 0x2737BA1030B3B2B73A1037BBB732B9 PUSH1 0x89 SHL PUSH1 0x44 DUP3 ADD MSTORE PUSH1 0x64 SWAP1 REVERT JUMPDEST SWAP3 SWAP2 SWAP3 PUSH2 0x18DB DUP3 PUSH2 0x1789 JUMP JUMPDEST SWAP2 PUSH2 0x18E9 PUSH1 0x40 MLOAD SWAP4 DUP5 PUSH2 0x16C2 JUMP JUMPDEST DUP3 SWAP5 DUP2 DUP5 MSTORE DUP2 DUP4 ADD GT PUSH2 0x28A JUMPI DUP3 DUP2 PUSH1 0x20 SWAP4 DUP5 PUSH1 0x0 SWAP7 ADD CALLDATACOPY ADD ADD MSTORE JUMP JUMPDEST PUSH1 0x1 PUSH1 0x1 PUSH1 0x40 SHL SUB DUP2 GT PUSH2 0x245 JUMPI PUSH1 0x5 SHL PUSH1 0x20 ADD SWAP1 JUMP JUMPDEST DUP2 DUP2 LT PUSH2 0x1928 JUMPI POP POP JUMP JUMPDEST PUSH1 0x0 DUP2 SSTORE PUSH1 0x1 ADD PUSH2 0x191D JUMP JUMPDEST SWAP2 SWAP1 PUSH1 0x1F DUP2 GT PUSH2 0x1943 JUMPI POP POP POP JUMP JUMPDEST PUSH2 0x1721 SWAP3 PUSH1 0x0 MSTORE PUSH1 0x20 PUSH1 0x0 KECCAK256 SWAP1 PUSH1 0x20 PUSH1 0x1F DUP5 ADD PUSH1 0x5 SHR DUP4 ADD SWAP4 LT PUSH2 0x196F JUMPI JUMPDEST PUSH1 0x1F ADD PUSH1 0x5 SHR ADD SWAP1 PUSH2 0x191D JUMP JUMPDEST SWAP1 SWAP2 POP DUP2 SWAP1 PUSH2 0x1962 JUMP JUMPDEST PUSH9 0x10000000000000000 DUP3 GT PUSH2 0x245 JUMPI DUP1 SLOAD SWAP2 DUP1 DUP3 SSTORE DUP3 DUP2 LT PUSH2 0x199B JUMPI POP POP POP JUMP JUMPDEST PUSH1 0x0 SWAP2 DUP3 MSTORE PUSH1 0x20 SWAP1 DUP2 DUP4 KECCAK256 SWAP4 DUP5 ADD SWAP4 ADD JUMPDEST DUP4 DUP2 LT PUSH2 0x19B9 JUMPI POP POP POP POP JUMP JUMPDEST DUP1 DUP4 PUSH2 0x19C7 PUSH1 0x1 SWAP4 SLOAD PUSH2 0x166D JUMP JUMPDEST DUP1 PUSH2 0x19D5 JUMPI JUMPDEST POP POP ADD PUSH2 0x19AC JUMP JUMPDEST PUSH1 0x1F DUP1 DUP3 GT DUP6 EQ PUSH2 0x19EC JUMPI POP POP DUP2 SSTORE JUMPDEST DUP4 CODESIZE PUSH2 0x19CD JUMP JUMPDEST PUSH2 0x1A05 SWAP1 DUP5 DUP5 MSTORE DUP7 DUP5 KECCAK256 SWAP3 ADD PUSH1 0x5 SHR DUP3 ADD DUP6 DUP4 ADD PUSH2 0x191D JUMP JUMPDEST DUP2 DUP4 SSTORE SSTORE PUSH2 0x19E5 JUMP JUMPDEST SWAP1 SWAP2 DUP1 PUSH1 0x40 SWAP4 PUSH1 0x20 DUP5 MSTORE DUP2 PUSH1 0x20 DUP6 ADD MSTORE DUP5 DUP5 ADD CALLDATACOPY PUSH1 0x0 DUP3 DUP3 ADD DUP5 ADD MSTORE PUSH1 0x1F ADD PUSH1 0x1F NOT AND ADD ADD SWAP1 JUMP JUMPDEST SWAP1 DUP2 SLOAD PUSH2 0x1A42 DUP2 PUSH2 0x1906 JUMP JUMPDEST SWAP3 PUSH2 0x1A50 PUSH1 0x40 MLOAD SWAP5 DUP6 PUSH2 0x16C2 JUMP JUMPDEST DUP2 DUP5 MSTORE PUSH1 0x0 SWAP1 DUP2 MSTORE PUSH1 0x20 DUP1 DUP3 KECCAK256 DUP2 DUP7 ADD JUMPDEST DUP5 DUP5 LT PUSH2 0x1A6F JUMPI POP POP POP POP POP JUMP JUMPDEST PUSH1 0x1 DUP4 DUP2 SWAP3 PUSH2 0x1A7D DUP6 PUSH2 0x16E3 JUMP JUMPDEST DUP2 MSTORE ADD SWAP3 ADD SWAP4 ADD SWAP3 SWAP1 PUSH2 0x1A61 JUMP INVALID LOG2 PUSH5 0x6970667358 0x22 SLT KECCAK256 PUSH5 0xD5EC709547 0xC8 NUMBER PUSH32 0x994A49FD45997AF4A9FEF850CE8B80F65836A2742A0B5264736F6C6343000814 STOP CALLER "},"methodIdentifiers":{"core()":"f2f4eb26","getAvatar(uint256)":"1328ec9b","getBio(uint256)":"b9200ff5","getProfile(uint256)":"f08f4f64","getTags(uint256)":"29d29cb3","profiles(uint256)":"c36fe3d6","setAvatar(uint256,string)":"87beeb2b","setBio(uint256,string)":"f948dbf6","setLinks(uint256,string,string,string)":"deb711de","setProfile(uint256,string,string,string,string,string,string[])":"c2932529","setTags(uint256,string[])":"7a6e9514"}}}}}