{"contracts/megaeth/content/AgentContent.sol":{"AgentContent":{"abi":[{"inputs":[{"internalType":"address","name":"coreAddress","type":"address"}],"stateMutability":"nonpayable","type":"constructor"},{"anonymous":false,"inputs":[{"indexed":true,"internalType":"uint256","name":"postId","type":"uint256"},{"indexed":false,"internalType":"string","name":"content","type":"string"}],"name":"PostContent","type":"event"},{"anonymous":false,"inputs":[{"indexed":true,"internalType":"uint256","name":"postId","type":"uint256"},{"indexed":true,"internalType":"uint256","name":"agentId","type":"uint256"},{"indexed":false,"internalType":"string","name":"contentType","type":"string"},{"indexed":false,"internalType":"uint256","name":"replyTo","type":"uint256"},{"indexed":false,"internalType":"uint256","name":"timestamp","type":"uint256"}],"name":"PostCreated","type":"event"},{"inputs":[{"internalType":"uint256","name":"","type":"uint256"},{"internalType":"uint256","name":"","type":"uint256"}],"name":"agentPosts","outputs":[{"internalType":"uint256","name":"","type":"uint256"}],"stateMutability":"view","type":"function"},{"inputs":[],"name":"core","outputs":[{"internalType":"contract AgentCore","name":"","type":"address"}],"stateMutability":"view","type":"function"},{"inputs":[{"internalType":"uint256","name":"agentId","type":"uint256"}],"name":"getAgentPostCount","outputs":[{"internalType":"uint256","name":"","type":"uint256"}],"stateMutability":"view","type":"function"},{"inputs":[{"internalType":"uint256","name":"agentId","type":"uint256"}],"name":"getAgentPosts","outputs":[{"internalType":"uint256[]","name":"","type":"uint256[]"}],"stateMutability":"view","type":"function"},{"inputs":[{"internalType":"uint256","name":"agentId","type":"uint256"},{"internalType":"uint256","name":"offset","type":"uint256"},{"internalType":"uint256","name":"limit","type":"uint256"}],"name":"getAgentPostsPaginated","outputs":[{"components":[{"internalType":"uint256","name":"id","type":"uint256"},{"internalType":"uint256","name":"agentId","type":"uint256"},{"internalType":"string","name":"content","type":"string"},{"internalType":"string","name":"contentType","type":"string"},{"internalType":"string[]","name":"attachments","type":"string[]"},{"internalType":"uint256","name":"createdAt","type":"uint256"},{"internalType":"uint256","name":"replyTo","type":"uint256"},{"internalType":"bool","name":"exists","type":"bool"}],"internalType":"struct AgentContent.Post[]","name":"","type":"tuple[]"}],"stateMutability":"view","type":"function"},{"inputs":[{"internalType":"uint256","name":"postId","type":"uint256"}],"name":"getPost","outputs":[{"components":[{"internalType":"uint256","name":"id","type":"uint256"},{"internalType":"uint256","name":"agentId","type":"uint256"},{"internalType":"string","name":"content","type":"string"},{"internalType":"string","name":"contentType","type":"string"},{"internalType":"string[]","name":"attachments","type":"string[]"},{"internalType":"uint256","name":"createdAt","type":"uint256"},{"internalType":"uint256","name":"replyTo","type":"uint256"},{"internalType":"bool","name":"exists","type":"bool"}],"internalType":"struct AgentContent.Post","name":"","type":"tuple"}],"stateMutability":"view","type":"function"},{"inputs":[{"internalType":"uint256","name":"postId","type":"uint256"}],"name":"getPostReplies","outputs":[{"internalType":"uint256[]","name":"","type":"uint256[]"}],"stateMutability":"view","type":"function"},{"inputs":[],"name":"nextPostId","outputs":[{"internalType":"uint256","name":"","type":"uint256"}],"stateMutability":"view","type":"function"},{"inputs":[{"internalType":"uint256","name":"agentId","type":"uint256"},{"internalType":"string","name":"content","type":"string"},{"internalType":"string","name":"contentType","type":"string"},{"internalType":"string[]","name":"attachments","type":"string[]"}],"name":"post","outputs":[{"internalType":"uint256","name":"","type":"uint256"}],"stateMutability":"nonpayable","type":"function"},{"inputs":[{"internalType":"uint256","name":"","type":"uint256"},{"internalType":"uint256","name":"","type":"uint256"}],"name":"postReplies","outputs":[{"internalType":"uint256","name":"","type":"uint256"}],"stateMutability":"view","type":"function"},{"inputs":[{"internalType":"uint256","name":"","type":"uint256"}],"name":"posts","outputs":[{"internalType":"uint256","name":"id","type":"uint256"},{"internalType":"uint256","name":"agentId","type":"uint256"},{"internalType":"string","name":"content","type":"string"},{"internalType":"string","name":"contentType","type":"string"},{"internalType":"uint256","name":"createdAt","type":"uint256"},{"internalType":"uint256","name":"replyTo","type":"uint256"},{"internalType":"bool","name":"exists","type":"bool"}],"stateMutability":"view","type":"function"},{"inputs":[{"internalType":"uint256","name":"agentId","type":"uint256"},{"internalType":"uint256","name":"replyToPostId","type":"uint256"},{"internalType":"string","name":"content","type":"string"},{"internalType":"string","name":"contentType","type":"string"},{"internalType":"string[]","name":"attachments","type":"string[]"}],"name":"reply","outputs":[{"internalType":"uint256","name":"","type":"uint256"}],"stateMutability":"nonpayable","type":"function"},{"inputs":[],"name":"totalPosts","outputs":[{"internalType":"uint256","name":"","type":"uint256"}],"stateMutability":"view","type":"function"}],"evm":{"bytecode":{"linkReferences":{},"object":"60a03461007a57601f611ad038819003918201601f19168301916001600160401b0383118484101761007f5780849260209460405283398101031261007a57516001600160a01b0381169081900361007a57608052604051611a3a90816100968239608051818181610105015281816103550152610bf60152f35b600080fd5b634e487b7160e01b600052604160045260246000fdfe6080604052600436101561001257600080fd5b60003560e01c80630b1e7f83146111b9578063100804be14610b5c578063152bd0da14610af257806340731c24146109e05780635c09bd981461022357806388d69ff6146102bb5780638d7b2bd1146102415780638e53fb411461022357806391626b9b146101a0578063986cad141461017457806399ab09b414610134578063f2f4eb26146100ef5763f36540f7146100ab57600080fd5b346100ea576100b936611517565b906000526002602052604060002080548210156100ea576020916100dc9161152d565b90546040519160031b1c8152f35b600080fd5b346100ea5760003660031901126100ea576040517f00000000000000000000000000000000000000000000000000000000000000006001600160a01b03168152602090f35b346100ea5761014236611517565b906000526003602052604060002080548210156100ea576020916101659161152d565b90549060031b1c604051908152f35b346100ea5760203660031901126100ea5760043560005260026020526020604060002054604051908152f35b346100ea5760603660031901126100ea576101c2604435602435600435611823565b60405160209182820192808352815180945260408301938160408260051b8601019301916000955b8287106101f75785850386f35b909192938280610213600193603f198a82030186528851611454565b96019201960195929190926101ea565b346100ea5760003660031901126100ea576020600054604051908152f35b346100ea576020806003193601126100ea5760043560005260028152604060002090604051908181845491828152019360005281600020916000905b8282106102a4576102a085610294818903826112ad565b60405191829182611419565b0390f35b83548652948501946001938401939091019061027d565b346100ea5760a03660031901126100ea576044356001600160401b0381116100ea576102eb9036906004016113bc565b6064356001600160401b0381116100ea5761030a9036906004016113bc565b6084929192356001600160401b0381116100ea5761032c9036906004016113e9565b604051632de5aaf760e01b81526004803590820152909491906001600160a01b036000826024817f000000000000000000000000000000000000000000000000000000000000000085165afa9182156109d457610399926040916000916109b1575b500151163314611663565b60243560005260016020526103b860ff600760406000200154166116a1565b600054946103c5866116e3565b600055604051916103d583611291565b86835260043560208401526103eb36878a611708565b60408401526103fb368686611708565b60608401526104098261173f565b9161041760405193846112ad565b80835260208301368260051b8401116100ea5782905b8260051b84018210610972575050505060808201524260a082015260243560c0820152600160e082015284600052600160205260406000208151815560208201516001820155604082015180516001600160401b03811161078f578060028401926104988454611257565b601f8111610940575b50602090601f83116001146108da576000926108cf575b50508160011b916000199060031b1c19161790555b60608201518051906001600160401b03821161078f5781906104f26003850154611257565b601f811161089a575b50602090601f83116001146108285760009261081d575b50508160011b916000199060031b1c19161760038201555b6080820151805190600160401b821161078f5760048301548260048501558083106107a5575b5060200190600483016000526020600020916000905b82821061066f575050505092857f7eba35b21371bfe53296c006121df1d23dabe11f1daac964004c46ebac32836761061c602099958560e060077ff56b5dfdd5de04363333a774a8cd3f117992425a661f709dfb86d31ea23def929a60a0889d9a0151600582015560c0840151600682015501910151151560ff8019835416911617905560043560005260028b5261060284604060002061176d565b602435610652575b604051946060865260608601916117a2565b926024358a82015242604082015280600435940390a3610647604051928392888452888401916117a2565b0390a2604051908152f35b60243560005260038b5261066a84604060002061176d565b61060a565b80518051906001600160401b03821161078f5761068c8654611257565b601f8111610752575b50602090601f83116001146106e25792826001949360209386956000926106d7575b5050600019600383901b1c191690841b1787555b01940191019092610566565b0151905038806106b7565b908660005260206000209160005b601f198516811061073a575083602093600196938796938794601f19811610610721575b505050811b0187556106cb565b015160001960f88460031b161c19169055388080610714565b919260206001819286850151815501940192016106f0565b61077f90876000526020600020601f850160051c81019160208610610785575b601f0160051c0190611756565b8d610695565b9091508190610772565b634e487b7160e01b600052604160045260246000fd5b600484016000526020600020908382015b81830181106107c6575050610550565b806107d360019254611257565b806107e0575b50016107b6565b601f811183146107f65750600081555b8d6107d9565b600090828252610814601f60208420920160051c8201858301611756565b818355556107f0565b015190508980610512565b9250600384016000526020600020906000935b601f198416851061087f576001945083601f19811610610866575b505050811b01600382015561052a565b015160001960f88460031b161c19169055898080610856565b8181015183556020948501946001909301929091019061083b565b6108c990600386016000526020600020601f850160051c8101916020861061078557601f0160051c0190611756565b8a6104fb565b015190508a806104b8565b6000858152602081209350601f198516905b818110610928575090846001959493921061090f575b505050811b0190556104cd565b015160001960f88460031b161c191690558a8080610902565b929360206001819287860151815501950193016108ec565b61096c90856000526020600020601f850160051c8101916020861061078557601f0160051c0190611756565b8b6104a1565b81356001600160401b0381116100ea5736601f8287010112156100ea5760209182916109a690369088018035908501611708565b81520191019061042d565b6109ce91503d806000833e6109c681836112ad565b81019061158a565b8a61038e565b6040513d6000823e3d90fd5b346100ea576020806003193601126100ea57600435906109fe6117c3565b5081600052600191828252610a1d60ff600760406000200154166116a1565b600052818152604060002060405192610a3584611291565b815484528082015483850152610a4d600283016112ce565b6040850152610a5e600383016112ce565b606085015260048201908154610a738161173f565b92610a8160405194856112ad565b8184526000908152858120868086015b848410610ad55760808a01879052600588015460a08b0152600688015460c08b0152600788015460ff16151560e08b0152604051828152806102a08185018d611454565b85918291610ae2856112ce565b8152019201920191908790610a91565b346100ea576020806003193601126100ea5760043560005260038152604060002090604051908181845491828152019360005281600020916000905b828210610b45576102a085610294818903826112ad565b835486529485019460019384019390910190610b2e565b346100ea5760803660031901126100ea576024356001600160401b0381116100ea57610b8c9036906004016113bc565b6044356001600160401b0381116100ea57610bab9036906004016113bc565b6064929192356001600160401b0381116100ea57610bcd9036906004016113e9565b604051632de5aaf760e01b81526004803590820152909491906001600160a01b036000826024817f000000000000000000000000000000000000000000000000000000000000000085165afa9182156109d457610c39926040916000916109b157500151163314611663565b60005494610c46866116e3565b60005560405191610c5683611291565b8683526004356020840152610c6c36878a611708565b6040840152610c7c368686611708565b6060840152610c8a8261173f565b91610c9860405193846112ad565b80835260208301368260051b8401116100ea5782905b8260051b8401821061117a575050505060808201524260a0820152600060c0820152600160e082015284600052600160205260406000208151815560208201516001820155604082015180516001600160401b03811161078f57806002840192610d188454611257565b601f8111611148575b50602090601f83116001146110e2576000926110d7575b50508160011b916000199060031b1c19161790555b606082015180516001600160401b03811161078f57806003840192610d728454611257565b601f81116110a5575b50602090601f831160011461103f57600092611034575b50508160011b916000199060031b1c19161790555b6080820151805190600160401b821161078f576004830154826004850155808310610fbc575b5060200190600483016000526020600020916000905b828210610ea9575050505092857f7eba35b21371bfe53296c006121df1d23dabe11f1daac964004c46ebac328367610e7f602099958560e060077ff56b5dfdd5de04363333a774a8cd3f117992425a661f709dfb86d31ea23def929a60a0889d9a0151600582015560c0840151600682015501910151151560ff8019835416911617905560043560005260028b5261060a84604060002061176d565b9260008a82015242604082015280600435940390a3610647604051928392888452888401916117a2565b80518051906001600160401b03821161078f57610ec68654611257565b601f8111610f8a575b50602090601f8311600114610f1c579282600194936020938695600092610f11575b5050600019600383901b1c191690841b1787555b01940191019092610de3565b015190503880610ef1565b90601f198316918760005260206000209260005b818110610f725750936020936001969387969383889510610f59575b505050811b018755610f05565b015160001960f88460031b161c19169055388080610f4c565b92936020600181928786015181550195019301610f30565b610fb690876000526020600020601f850160051c8101916020861061078557601f0160051c0190611756565b8d610ecf565b600484016000526020600020908382015b8183018110610fdd575050610dcd565b80610fea60019254611257565b80610ff7575b5001610fcd565b601f8111831461100d5750600081555b8d610ff0565b60009082825261102b601f60208420920160051c8201858301611756565b81835555611007565b015190508a80610d92565b6000858152602081209350601f198516905b81811061108d5750908460019594939210611074575b505050811b019055610da7565b015160001960f88460031b161c191690558a8080611067565b92936020600181928786015181550195019301611051565b6110d190856000526020600020601f850160051c8101916020861061078557601f0160051c0190611756565b8b610d7b565b015190508a80610d38565b6000858152602081209350601f198516905b8181106111305750908460019594939210611117575b505050811b019055610d4d565b015160001960f88460031b161c191690558a808061110a565b929360206001819287860151815501950193016110f4565b61117490856000526020600020601f850160051c8101916020861061078557601f0160051c0190611756565b8b610d21565b81356001600160401b0381116100ea5736601f8287010112156100ea5760209182916111ae90369088018035908501611708565b815201910190610cae565b346100ea5760203660031901126100ea576004356000526001602052604060002080546001820154916111ee600282016112ce565b6111fa600383016112ce565b9161124160058201549361123360ff6007600686015495015416946040519889988952602089015260e0604089015260e0880190611397565b908682036060880152611397565b92608085015260a0840152151560c08301520390f35b90600182811c92168015611287575b602083101461127157565b634e487b7160e01b600052602260045260246000fd5b91607f1691611266565b61010081019081106001600160401b0382111761078f57604052565b90601f801991011681019081106001600160401b0382111761078f57604052565b90604051918260008254926112e284611257565b908184526001948581169081600014611351575060011461130e575b505061130c925003836112ad565b565b9093915060005260209081600020936000915b81831061133957505061130c935082010138806112fe565b85548884018501529485019487945091830191611321565b91505061130c94506020925060ff191682840152151560051b82010138806112fe565b60005b8381106113875750506000910152565b8181015183820152602001611377565b906020916113b081518092818552858086019101611374565b601f01601f1916010190565b9181601f840112156100ea578235916001600160401b0383116100ea57602083818601950101116100ea57565b9181601f840112156100ea578235916001600160401b0383116100ea576020808501948460051b0101116100ea57565b6020908160408183019282815285518094520193019160005b828110611440575050505090565b835185529381019392810192600101611432565b908151815260209182810151838301526114926114806040830151610100806040870152850190611397565b60608301518482036060860152611397565b60808201519383820360808501528451908183528083019281808460051b8301019701936000915b8483106114e95750505050505060e08160a08293015160a085015260c081015160c08501520151151591015290565b9091929394978480611507600193601f198682030187528c51611397565b9a019301930191949392906114ba565b60409060031901126100ea576004359060243590565b80548210156115455760005260206000200190600090565b634e487b7160e01b600052603260045260246000fd5b6001600160401b03811161078f57601f01601f191660200190565b51906001600160a01b03821682036100ea57565b9060209081838203126100ea5782516001600160401b03938482116100ea57019060c0828203126100ea576040519360c085018581108282111761078f5760405282518552838301519081116100ea5782019281601f850112156100ea578351936115f48561155b565b9261160260405194856112ad565b8584528286830101116100ea5760a09461162191838086019101611374565b84015261163060408201611576565b604084015261164160608201611576565b606084015260808101516080840152015180151581036100ea5760a082015290565b1561166a57565b60405162461bcd60e51b815260206004820152600f60248201526e2737ba1030b3b2b73a1037bbb732b960891b6044820152606490fd5b156116a857565b60405162461bcd60e51b8152602060048201526013602482015272141bdcdd08191bd95cc81b9bdd08195e1a5cdd606a1b6044820152606490fd5b60001981146116f25760010190565b634e487b7160e01b600052601160045260246000fd5b9291926117148261155b565b9161172260405193846112ad565b8294818452818301116100ea578281602093846000960137010152565b6001600160401b03811161078f5760051b60200190565b818110611761575050565b60008155600101611756565b8054600160401b81101561078f5761178a9160018201815561152d565b819291549060031b91821b91600019901b1916179055565b908060209392818452848401376000828201840152601f01601f1916010190565b604051906117d082611291565b600060e08382815282602082015260606040820152606080820152606060808201528260a08201528260c08201520152565b919082039182116116f257565b80518210156115455760209160051b010190565b6000526002602052604060002090815492838210156119dd5781018082116116f257818482116119d5575b61185791611802565b916118618361173f565b9361186f60405195866112ad565b838552601f1961187e8561173f565b0160005b8181106119be57505060005b84811061189d57505050505090565b816000198101116116f2576118c86118c2826118bd876000198701611802565b611802565b8461152d565b9054600391821b1c60005260016020526040600020611913604051926118ed84611291565b8254845260018301546020850152611907600284016112ce565b604085015282016112ce565b60608301526004810180546119278161173f565b9161193560405193846112ad565b81835260208301906000526020600020906000905b8382106119a157505050506080830152600581015460a0830152600681015460c08301526007015460ff16151560e082015261199c919061198b828961180f565b52611996818861180f565b506116e3565b61188e565b6001602081926119b0866112ce565b81520193019101909161194a565b6020906119c96117c3565b82828a01015201611882565b84915061184e565b50505050604051602081018181106001600160401b0382111761078f57604052600081529056fea26469706673582212203c7f2a4bb7e6cfcbc93fb2508459f7219c5c6d8fabf94802c9ddb0693a60a60b64736f6c63430008140033","opcodes":"PUSH1 0xA0 CALLVALUE PUSH2 0x7A JUMPI PUSH1 0x1F PUSH2 0x1AD0 CODESIZE DUP2 SWAP1 SUB SWAP2 DUP3 ADD PUSH1 0x1F NOT AND DUP4 ADD SWAP2 PUSH1 0x1 PUSH1 0x1 PUSH1 0x40 SHL SUB DUP4 GT DUP5 DUP5 LT OR PUSH2 0x7F JUMPI DUP1 DUP5 SWAP3 PUSH1 0x20 SWAP5 PUSH1 0x40 MSTORE DUP4 CODECOPY DUP2 ADD SUB SLT PUSH2 0x7A JUMPI MLOAD PUSH1 0x1 PUSH1 0x1 PUSH1 0xA0 SHL SUB DUP2 AND SWAP1 DUP2 SWAP1 SUB PUSH2 0x7A JUMPI PUSH1 0x80 MSTORE PUSH1 0x40 MLOAD PUSH2 0x1A3A SWAP1 DUP2 PUSH2 0x96 DUP3 CODECOPY PUSH1 0x80 MLOAD DUP2 DUP2 DUP2 PUSH2 0x105 ADD MSTORE DUP2 DUP2 PUSH2 0x355 ADD MSTORE PUSH2 0xBF6 ADD MSTORE RETURN JUMPDEST PUSH1 0x0 DUP1 REVERT JUMPDEST PUSH4 0x4E487B71 PUSH1 0xE0 SHL PUSH1 0x0 MSTORE PUSH1 0x41 PUSH1 0x4 MSTORE PUSH1 0x24 PUSH1 0x0 REVERT INVALID PUSH1 0x80 PUSH1 0x40 MSTORE PUSH1 0x4 CALLDATASIZE LT ISZERO PUSH2 0x12 JUMPI PUSH1 0x0 DUP1 REVERT JUMPDEST PUSH1 0x0 CALLDATALOAD PUSH1 0xE0 SHR DUP1 PUSH4 0xB1E7F83 EQ PUSH2 0x11B9 JUMPI DUP1 PUSH4 0x100804BE EQ PUSH2 0xB5C JUMPI DUP1 PUSH4 0x152BD0DA EQ PUSH2 0xAF2 JUMPI DUP1 PUSH4 0x40731C24 EQ PUSH2 0x9E0 JUMPI DUP1 PUSH4 0x5C09BD98 EQ PUSH2 0x223 JUMPI DUP1 PUSH4 0x88D69FF6 EQ PUSH2 0x2BB JUMPI DUP1 PUSH4 0x8D7B2BD1 EQ PUSH2 0x241 JUMPI DUP1 PUSH4 0x8E53FB41 EQ PUSH2 0x223 JUMPI DUP1 PUSH4 0x91626B9B EQ PUSH2 0x1A0 JUMPI DUP1 PUSH4 0x986CAD14 EQ PUSH2 0x174 JUMPI DUP1 PUSH4 0x99AB09B4 EQ PUSH2 0x134 JUMPI DUP1 PUSH4 0xF2F4EB26 EQ PUSH2 0xEF JUMPI PUSH4 0xF36540F7 EQ PUSH2 0xAB JUMPI PUSH1 0x0 DUP1 REVERT JUMPDEST CALLVALUE PUSH2 0xEA JUMPI PUSH2 0xB9 CALLDATASIZE PUSH2 0x1517 JUMP JUMPDEST SWAP1 PUSH1 0x0 MSTORE PUSH1 0x2 PUSH1 0x20 MSTORE PUSH1 0x40 PUSH1 0x0 KECCAK256 DUP1 SLOAD DUP3 LT ISZERO PUSH2 0xEA JUMPI PUSH1 0x20 SWAP2 PUSH2 0xDC SWAP2 PUSH2 0x152D JUMP JUMPDEST SWAP1 SLOAD PUSH1 0x40 MLOAD SWAP2 PUSH1 0x3 SHL SHR DUP2 MSTORE RETURN JUMPDEST PUSH1 0x0 DUP1 REVERT JUMPDEST CALLVALUE PUSH2 0xEA JUMPI PUSH1 0x0 CALLDATASIZE PUSH1 0x3 NOT ADD SLT PUSH2 0xEA JUMPI PUSH1 0x40 MLOAD PUSH32 0x0 PUSH1 0x1 PUSH1 0x1 PUSH1 0xA0 SHL SUB AND DUP2 MSTORE PUSH1 0x20 SWAP1 RETURN JUMPDEST CALLVALUE PUSH2 0xEA JUMPI PUSH2 0x142 CALLDATASIZE PUSH2 0x1517 JUMP JUMPDEST SWAP1 PUSH1 0x0 MSTORE PUSH1 0x3 PUSH1 0x20 MSTORE PUSH1 0x40 PUSH1 0x0 KECCAK256 DUP1 SLOAD DUP3 LT ISZERO PUSH2 0xEA JUMPI PUSH1 0x20 SWAP2 PUSH2 0x165 SWAP2 PUSH2 0x152D JUMP JUMPDEST SWAP1 SLOAD SWAP1 PUSH1 0x3 SHL SHR PUSH1 0x40 MLOAD SWAP1 DUP2 MSTORE RETURN JUMPDEST CALLVALUE PUSH2 0xEA JUMPI PUSH1 0x20 CALLDATASIZE PUSH1 0x3 NOT ADD SLT PUSH2 0xEA JUMPI PUSH1 0x4 CALLDATALOAD PUSH1 0x0 MSTORE PUSH1 0x2 PUSH1 0x20 MSTORE PUSH1 0x20 PUSH1 0x40 PUSH1 0x0 KECCAK256 SLOAD PUSH1 0x40 MLOAD SWAP1 DUP2 MSTORE RETURN JUMPDEST CALLVALUE PUSH2 0xEA JUMPI PUSH1 0x60 CALLDATASIZE PUSH1 0x3 NOT ADD SLT PUSH2 0xEA JUMPI PUSH2 0x1C2 PUSH1 0x44 CALLDATALOAD PUSH1 0x24 CALLDATALOAD PUSH1 0x4 CALLDATALOAD PUSH2 0x1823 JUMP JUMPDEST PUSH1 0x40 MLOAD PUSH1 0x20 SWAP2 DUP3 DUP3 ADD SWAP3 DUP1 DUP4 MSTORE DUP2 MLOAD DUP1 SWAP5 MSTORE PUSH1 0x40 DUP4 ADD SWAP4 DUP2 PUSH1 0x40 DUP3 PUSH1 0x5 SHL DUP7 ADD ADD SWAP4 ADD SWAP2 PUSH1 0x0 SWAP6 JUMPDEST DUP3 DUP8 LT PUSH2 0x1F7 JUMPI DUP6 DUP6 SUB DUP7 RETURN JUMPDEST SWAP1 SWAP2 SWAP3 SWAP4 DUP3 DUP1 PUSH2 0x213 PUSH1 0x1 SWAP4 PUSH1 0x3F NOT DUP11 DUP3 SUB ADD DUP7 MSTORE DUP9 MLOAD PUSH2 0x1454 JUMP JUMPDEST SWAP7 ADD SWAP3 ADD SWAP7 ADD SWAP6 SWAP3 SWAP2 SWAP1 SWAP3 PUSH2 0x1EA JUMP JUMPDEST CALLVALUE PUSH2 0xEA JUMPI PUSH1 0x0 CALLDATASIZE PUSH1 0x3 NOT ADD SLT PUSH2 0xEA JUMPI PUSH1 0x20 PUSH1 0x0 SLOAD PUSH1 0x40 MLOAD SWAP1 DUP2 MSTORE RETURN JUMPDEST CALLVALUE PUSH2 0xEA JUMPI PUSH1 0x20 DUP1 PUSH1 0x3 NOT CALLDATASIZE ADD SLT PUSH2 0xEA JUMPI PUSH1 0x4 CALLDATALOAD PUSH1 0x0 MSTORE PUSH1 0x2 DUP2 MSTORE PUSH1 0x40 PUSH1 0x0 KECCAK256 SWAP1 PUSH1 0x40 MLOAD SWAP1 DUP2 DUP2 DUP5 SLOAD SWAP2 DUP3 DUP2 MSTORE ADD SWAP4 PUSH1 0x0 MSTORE DUP2 PUSH1 0x0 KECCAK256 SWAP2 PUSH1 0x0 SWAP1 JUMPDEST DUP3 DUP3 LT PUSH2 0x2A4 JUMPI PUSH2 0x2A0 DUP6 PUSH2 0x294 DUP2 DUP10 SUB DUP3 PUSH2 0x12AD JUMP JUMPDEST PUSH1 0x40 MLOAD SWAP2 DUP3 SWAP2 DUP3 PUSH2 0x1419 JUMP JUMPDEST SUB SWAP1 RETURN JUMPDEST DUP4 SLOAD DUP7 MSTORE SWAP5 DUP6 ADD SWAP5 PUSH1 0x1 SWAP4 DUP5 ADD SWAP4 SWAP1 SWAP2 ADD SWAP1 PUSH2 0x27D JUMP JUMPDEST CALLVALUE PUSH2 0xEA JUMPI PUSH1 0xA0 CALLDATASIZE PUSH1 0x3 NOT ADD SLT PUSH2 0xEA JUMPI PUSH1 0x44 CALLDATALOAD PUSH1 0x1 PUSH1 0x1 PUSH1 0x40 SHL SUB DUP2 GT PUSH2 0xEA JUMPI PUSH2 0x2EB SWAP1 CALLDATASIZE SWAP1 PUSH1 0x4 ADD PUSH2 0x13BC JUMP JUMPDEST PUSH1 0x64 CALLDATALOAD PUSH1 0x1 PUSH1 0x1 PUSH1 0x40 SHL SUB DUP2 GT PUSH2 0xEA JUMPI PUSH2 0x30A SWAP1 CALLDATASIZE SWAP1 PUSH1 0x4 ADD PUSH2 0x13BC JUMP JUMPDEST PUSH1 0x84 SWAP3 SWAP2 SWAP3 CALLDATALOAD PUSH1 0x1 PUSH1 0x1 PUSH1 0x40 SHL SUB DUP2 GT PUSH2 0xEA JUMPI PUSH2 0x32C SWAP1 CALLDATASIZE SWAP1 PUSH1 0x4 ADD PUSH2 0x13E9 JUMP JUMPDEST PUSH1 0x40 MLOAD PUSH4 0x2DE5AAF7 PUSH1 0xE0 SHL DUP2 MSTORE PUSH1 0x4 DUP1 CALLDATALOAD SWAP1 DUP3 ADD MSTORE SWAP1 SWAP5 SWAP2 SWAP1 PUSH1 0x1 PUSH1 0x1 PUSH1 0xA0 SHL SUB PUSH1 0x0 DUP3 PUSH1 0x24 DUP2 PUSH32 0x0 DUP6 AND GAS STATICCALL SWAP2 DUP3 ISZERO PUSH2 0x9D4 JUMPI PUSH2 0x399 SWAP3 PUSH1 0x40 SWAP2 PUSH1 0x0 SWAP2 PUSH2 0x9B1 JUMPI JUMPDEST POP ADD MLOAD AND CALLER EQ PUSH2 0x1663 JUMP JUMPDEST PUSH1 0x24 CALLDATALOAD PUSH1 0x0 MSTORE PUSH1 0x1 PUSH1 0x20 MSTORE PUSH2 0x3B8 PUSH1 0xFF PUSH1 0x7 PUSH1 0x40 PUSH1 0x0 KECCAK256 ADD SLOAD AND PUSH2 0x16A1 JUMP JUMPDEST PUSH1 0x0 SLOAD SWAP5 PUSH2 0x3C5 DUP7 PUSH2 0x16E3 JUMP JUMPDEST PUSH1 0x0 SSTORE PUSH1 0x40 MLOAD SWAP2 PUSH2 0x3D5 DUP4 PUSH2 0x1291 JUMP JUMPDEST DUP7 DUP4 MSTORE PUSH1 0x4 CALLDATALOAD PUSH1 0x20 DUP5 ADD MSTORE PUSH2 0x3EB CALLDATASIZE DUP8 DUP11 PUSH2 0x1708 JUMP JUMPDEST PUSH1 0x40 DUP5 ADD MSTORE PUSH2 0x3FB CALLDATASIZE DUP7 DUP7 PUSH2 0x1708 JUMP JUMPDEST PUSH1 0x60 DUP5 ADD MSTORE PUSH2 0x409 DUP3 PUSH2 0x173F JUMP JUMPDEST SWAP2 PUSH2 0x417 PUSH1 0x40 MLOAD SWAP4 DUP5 PUSH2 0x12AD JUMP JUMPDEST DUP1 DUP4 MSTORE PUSH1 0x20 DUP4 ADD CALLDATASIZE DUP3 PUSH1 0x5 SHL DUP5 ADD GT PUSH2 0xEA JUMPI DUP3 SWAP1 JUMPDEST DUP3 PUSH1 0x5 SHL DUP5 ADD DUP3 LT PUSH2 0x972 JUMPI POP POP POP POP PUSH1 0x80 DUP3 ADD MSTORE TIMESTAMP PUSH1 0xA0 DUP3 ADD MSTORE PUSH1 0x24 CALLDATALOAD PUSH1 0xC0 DUP3 ADD MSTORE PUSH1 0x1 PUSH1 0xE0 DUP3 ADD MSTORE DUP5 PUSH1 0x0 MSTORE PUSH1 0x1 PUSH1 0x20 MSTORE PUSH1 0x40 PUSH1 0x0 KECCAK256 DUP2 MLOAD DUP2 SSTORE PUSH1 0x20 DUP3 ADD MLOAD PUSH1 0x1 DUP3 ADD SSTORE PUSH1 0x40 DUP3 ADD MLOAD DUP1 MLOAD PUSH1 0x1 PUSH1 0x1 PUSH1 0x40 SHL SUB DUP2 GT PUSH2 0x78F JUMPI DUP1 PUSH1 0x2 DUP5 ADD SWAP3 PUSH2 0x498 DUP5 SLOAD PUSH2 0x1257 JUMP JUMPDEST PUSH1 0x1F DUP2 GT PUSH2 0x940 JUMPI JUMPDEST POP PUSH1 0x20 SWAP1 PUSH1 0x1F DUP4 GT PUSH1 0x1 EQ PUSH2 0x8DA JUMPI PUSH1 0x0 SWAP3 PUSH2 0x8CF JUMPI JUMPDEST POP POP DUP2 PUSH1 0x1 SHL SWAP2 PUSH1 0x0 NOT SWAP1 PUSH1 0x3 SHL SHR NOT AND OR SWAP1 SSTORE JUMPDEST PUSH1 0x60 DUP3 ADD MLOAD DUP1 MLOAD SWAP1 PUSH1 0x1 PUSH1 0x1 PUSH1 0x40 SHL SUB DUP3 GT PUSH2 0x78F JUMPI DUP2 SWAP1 PUSH2 0x4F2 PUSH1 0x3 DUP6 ADD SLOAD PUSH2 0x1257 JUMP JUMPDEST PUSH1 0x1F DUP2 GT PUSH2 0x89A JUMPI JUMPDEST POP PUSH1 0x20 SWAP1 PUSH1 0x1F DUP4 GT PUSH1 0x1 EQ PUSH2 0x828 JUMPI PUSH1 0x0 SWAP3 PUSH2 0x81D JUMPI JUMPDEST POP POP DUP2 PUSH1 0x1 SHL SWAP2 PUSH1 0x0 NOT SWAP1 PUSH1 0x3 SHL SHR NOT AND OR PUSH1 0x3 DUP3 ADD SSTORE JUMPDEST PUSH1 0x80 DUP3 ADD MLOAD DUP1 MLOAD SWAP1 PUSH1 0x1 PUSH1 0x40 SHL DUP3 GT PUSH2 0x78F JUMPI PUSH1 0x4 DUP4 ADD SLOAD DUP3 PUSH1 0x4 DUP6 ADD SSTORE DUP1 DUP4 LT PUSH2 0x7A5 JUMPI JUMPDEST POP PUSH1 0x20 ADD SWAP1 PUSH1 0x4 DUP4 ADD PUSH1 0x0 MSTORE PUSH1 0x20 PUSH1 0x0 KECCAK256 SWAP2 PUSH1 0x0 SWAP1 JUMPDEST DUP3 DUP3 LT PUSH2 0x66F JUMPI POP POP POP POP SWAP3 DUP6 PUSH32 0x7EBA35B21371BFE53296C006121DF1D23DABE11F1DAAC964004C46EBAC328367 PUSH2 0x61C PUSH1 0x20 SWAP10 SWAP6 DUP6 PUSH1 0xE0 PUSH1 0x7 PUSH32 0xF56B5DFDD5DE04363333A774A8CD3F117992425A661F709DFB86D31EA23DEF92 SWAP11 PUSH1 0xA0 DUP9 SWAP14 SWAP11 ADD MLOAD PUSH1 0x5 DUP3 ADD SSTORE PUSH1 0xC0 DUP5 ADD MLOAD PUSH1 0x6 DUP3 ADD SSTORE ADD SWAP2 ADD MLOAD ISZERO ISZERO PUSH1 0xFF DUP1 NOT DUP4 SLOAD AND SWAP2 AND OR SWAP1 SSTORE PUSH1 0x4 CALLDATALOAD PUSH1 0x0 MSTORE PUSH1 0x2 DUP12 MSTORE PUSH2 0x602 DUP5 PUSH1 0x40 PUSH1 0x0 KECCAK256 PUSH2 0x176D JUMP JUMPDEST PUSH1 0x24 CALLDATALOAD PUSH2 0x652 JUMPI JUMPDEST PUSH1 0x40 MLOAD SWAP5 PUSH1 0x60 DUP7 MSTORE PUSH1 0x60 DUP7 ADD SWAP2 PUSH2 0x17A2 JUMP JUMPDEST SWAP3 PUSH1 0x24 CALLDATALOAD DUP11 DUP3 ADD MSTORE TIMESTAMP PUSH1 0x40 DUP3 ADD MSTORE DUP1 PUSH1 0x4 CALLDATALOAD SWAP5 SUB SWAP1 LOG3 PUSH2 0x647 PUSH1 0x40 MLOAD SWAP3 DUP4 SWAP3 DUP9 DUP5 MSTORE DUP9 DUP5 ADD SWAP2 PUSH2 0x17A2 JUMP JUMPDEST SUB SWAP1 LOG2 PUSH1 0x40 MLOAD SWAP1 DUP2 MSTORE RETURN JUMPDEST PUSH1 0x24 CALLDATALOAD PUSH1 0x0 MSTORE PUSH1 0x3 DUP12 MSTORE PUSH2 0x66A DUP5 PUSH1 0x40 PUSH1 0x0 KECCAK256 PUSH2 0x176D JUMP JUMPDEST PUSH2 0x60A JUMP JUMPDEST DUP1 MLOAD DUP1 MLOAD SWAP1 PUSH1 0x1 PUSH1 0x1 PUSH1 0x40 SHL SUB DUP3 GT PUSH2 0x78F JUMPI PUSH2 0x68C DUP7 SLOAD PUSH2 0x1257 JUMP JUMPDEST PUSH1 0x1F DUP2 GT PUSH2 0x752 JUMPI JUMPDEST POP PUSH1 0x20 SWAP1 PUSH1 0x1F DUP4 GT PUSH1 0x1 EQ PUSH2 0x6E2 JUMPI SWAP3 DUP3 PUSH1 0x1 SWAP5 SWAP4 PUSH1 0x20 SWAP4 DUP7 SWAP6 PUSH1 0x0 SWAP3 PUSH2 0x6D7 JUMPI JUMPDEST POP POP PUSH1 0x0 NOT PUSH1 0x3 DUP4 SWAP1 SHL SHR NOT AND SWAP1 DUP5 SHL OR DUP8 SSTORE JUMPDEST ADD SWAP5 ADD SWAP2 ADD SWAP1 SWAP3 PUSH2 0x566 JUMP JUMPDEST ADD MLOAD SWAP1 POP CODESIZE DUP1 PUSH2 0x6B7 JUMP JUMPDEST SWAP1 DUP7 PUSH1 0x0 MSTORE PUSH1 0x20 PUSH1 0x0 KECCAK256 SWAP2 PUSH1 0x0 JUMPDEST PUSH1 0x1F NOT DUP6 AND DUP2 LT PUSH2 0x73A JUMPI POP DUP4 PUSH1 0x20 SWAP4 PUSH1 0x1 SWAP7 SWAP4 DUP8 SWAP7 SWAP4 DUP8 SWAP5 PUSH1 0x1F NOT DUP2 AND LT PUSH2 0x721 JUMPI JUMPDEST POP POP POP DUP2 SHL ADD DUP8 SSTORE PUSH2 0x6CB JUMP JUMPDEST ADD MLOAD PUSH1 0x0 NOT PUSH1 0xF8 DUP5 PUSH1 0x3 SHL AND SHR NOT AND SWAP1 SSTORE CODESIZE DUP1 DUP1 PUSH2 0x714 JUMP JUMPDEST SWAP2 SWAP3 PUSH1 0x20 PUSH1 0x1 DUP2 SWAP3 DUP7 DUP6 ADD MLOAD DUP2 SSTORE ADD SWAP5 ADD SWAP3 ADD PUSH2 0x6F0 JUMP JUMPDEST PUSH2 0x77F SWAP1 DUP8 PUSH1 0x0 MSTORE PUSH1 0x20 PUSH1 0x0 KECCAK256 PUSH1 0x1F DUP6 ADD PUSH1 0x5 SHR DUP2 ADD SWAP2 PUSH1 0x20 DUP7 LT PUSH2 0x785 JUMPI JUMPDEST PUSH1 0x1F ADD PUSH1 0x5 SHR ADD SWAP1 PUSH2 0x1756 JUMP JUMPDEST DUP14 PUSH2 0x695 JUMP JUMPDEST SWAP1 SWAP2 POP DUP2 SWAP1 PUSH2 0x772 JUMP JUMPDEST PUSH4 0x4E487B71 PUSH1 0xE0 SHL PUSH1 0x0 MSTORE PUSH1 0x41 PUSH1 0x4 MSTORE PUSH1 0x24 PUSH1 0x0 REVERT JUMPDEST PUSH1 0x4 DUP5 ADD PUSH1 0x0 MSTORE PUSH1 0x20 PUSH1 0x0 KECCAK256 SWAP1 DUP4 DUP3 ADD JUMPDEST DUP2 DUP4 ADD DUP2 LT PUSH2 0x7C6 JUMPI POP POP PUSH2 0x550 JUMP JUMPDEST DUP1 PUSH2 0x7D3 PUSH1 0x1 SWAP3 SLOAD PUSH2 0x1257 JUMP JUMPDEST DUP1 PUSH2 0x7E0 JUMPI JUMPDEST POP ADD PUSH2 0x7B6 JUMP JUMPDEST PUSH1 0x1F DUP2 GT DUP4 EQ PUSH2 0x7F6 JUMPI POP PUSH1 0x0 DUP2 SSTORE JUMPDEST DUP14 PUSH2 0x7D9 JUMP JUMPDEST PUSH1 0x0 SWAP1 DUP3 DUP3 MSTORE PUSH2 0x814 PUSH1 0x1F PUSH1 0x20 DUP5 KECCAK256 SWAP3 ADD PUSH1 0x5 SHR DUP3 ADD DUP6 DUP4 ADD PUSH2 0x1756 JUMP JUMPDEST DUP2 DUP4 SSTORE SSTORE PUSH2 0x7F0 JUMP JUMPDEST ADD MLOAD SWAP1 POP DUP10 DUP1 PUSH2 0x512 JUMP JUMPDEST SWAP3 POP PUSH1 0x3 DUP5 ADD PUSH1 0x0 MSTORE PUSH1 0x20 PUSH1 0x0 KECCAK256 SWAP1 PUSH1 0x0 SWAP4 JUMPDEST PUSH1 0x1F NOT DUP5 AND DUP6 LT PUSH2 0x87F JUMPI PUSH1 0x1 SWAP5 POP DUP4 PUSH1 0x1F NOT DUP2 AND LT PUSH2 0x866 JUMPI JUMPDEST POP POP POP DUP2 SHL ADD PUSH1 0x3 DUP3 ADD SSTORE PUSH2 0x52A JUMP JUMPDEST ADD MLOAD PUSH1 0x0 NOT PUSH1 0xF8 DUP5 PUSH1 0x3 SHL AND SHR NOT AND SWAP1 SSTORE DUP10 DUP1 DUP1 PUSH2 0x856 JUMP JUMPDEST DUP2 DUP2 ADD MLOAD DUP4 SSTORE PUSH1 0x20 SWAP5 DUP6 ADD SWAP5 PUSH1 0x1 SWAP1 SWAP4 ADD SWAP3 SWAP1 SWAP2 ADD SWAP1 PUSH2 0x83B JUMP JUMPDEST PUSH2 0x8C9 SWAP1 PUSH1 0x3 DUP7 ADD PUSH1 0x0 MSTORE PUSH1 0x20 PUSH1 0x0 KECCAK256 PUSH1 0x1F DUP6 ADD PUSH1 0x5 SHR DUP2 ADD SWAP2 PUSH1 0x20 DUP7 LT PUSH2 0x785 JUMPI PUSH1 0x1F ADD PUSH1 0x5 SHR ADD SWAP1 PUSH2 0x1756 JUMP JUMPDEST DUP11 PUSH2 0x4FB JUMP JUMPDEST ADD MLOAD SWAP1 POP DUP11 DUP1 PUSH2 0x4B8 JUMP JUMPDEST PUSH1 0x0 DUP6 DUP2 MSTORE PUSH1 0x20 DUP2 KECCAK256 SWAP4 POP PUSH1 0x1F NOT DUP6 AND SWAP1 JUMPDEST DUP2 DUP2 LT PUSH2 0x928 JUMPI POP SWAP1 DUP5 PUSH1 0x1 SWAP6 SWAP5 SWAP4 SWAP3 LT PUSH2 0x90F JUMPI JUMPDEST POP POP POP DUP2 SHL ADD SWAP1 SSTORE PUSH2 0x4CD JUMP JUMPDEST ADD MLOAD PUSH1 0x0 NOT PUSH1 0xF8 DUP5 PUSH1 0x3 SHL AND SHR NOT AND SWAP1 SSTORE DUP11 DUP1 DUP1 PUSH2 0x902 JUMP JUMPDEST SWAP3 SWAP4 PUSH1 0x20 PUSH1 0x1 DUP2 SWAP3 DUP8 DUP7 ADD MLOAD DUP2 SSTORE ADD SWAP6 ADD SWAP4 ADD PUSH2 0x8EC JUMP JUMPDEST PUSH2 0x96C SWAP1 DUP6 PUSH1 0x0 MSTORE PUSH1 0x20 PUSH1 0x0 KECCAK256 PUSH1 0x1F DUP6 ADD PUSH1 0x5 SHR DUP2 ADD SWAP2 PUSH1 0x20 DUP7 LT PUSH2 0x785 JUMPI PUSH1 0x1F ADD PUSH1 0x5 SHR ADD SWAP1 PUSH2 0x1756 JUMP JUMPDEST DUP12 PUSH2 0x4A1 JUMP JUMPDEST DUP2 CALLDATALOAD PUSH1 0x1 PUSH1 0x1 PUSH1 0x40 SHL SUB DUP2 GT PUSH2 0xEA JUMPI CALLDATASIZE PUSH1 0x1F DUP3 DUP8 ADD ADD SLT ISZERO PUSH2 0xEA JUMPI PUSH1 0x20 SWAP2 DUP3 SWAP2 PUSH2 0x9A6 SWAP1 CALLDATASIZE SWAP1 DUP9 ADD DUP1 CALLDATALOAD SWAP1 DUP6 ADD PUSH2 0x1708 JUMP JUMPDEST DUP2 MSTORE ADD SWAP2 ADD SWAP1 PUSH2 0x42D JUMP JUMPDEST PUSH2 0x9CE SWAP2 POP RETURNDATASIZE DUP1 PUSH1 0x0 DUP4 RETURNDATACOPY PUSH2 0x9C6 DUP2 DUP4 PUSH2 0x12AD JUMP JUMPDEST DUP2 ADD SWAP1 PUSH2 0x158A JUMP JUMPDEST DUP11 PUSH2 0x38E JUMP JUMPDEST PUSH1 0x40 MLOAD RETURNDATASIZE PUSH1 0x0 DUP3 RETURNDATACOPY RETURNDATASIZE SWAP1 REVERT JUMPDEST CALLVALUE PUSH2 0xEA JUMPI PUSH1 0x20 DUP1 PUSH1 0x3 NOT CALLDATASIZE ADD SLT PUSH2 0xEA JUMPI PUSH1 0x4 CALLDATALOAD SWAP1 PUSH2 0x9FE PUSH2 0x17C3 JUMP JUMPDEST POP DUP2 PUSH1 0x0 MSTORE PUSH1 0x1 SWAP2 DUP3 DUP3 MSTORE PUSH2 0xA1D PUSH1 0xFF PUSH1 0x7 PUSH1 0x40 PUSH1 0x0 KECCAK256 ADD SLOAD AND PUSH2 0x16A1 JUMP JUMPDEST PUSH1 0x0 MSTORE DUP2 DUP2 MSTORE PUSH1 0x40 PUSH1 0x0 KECCAK256 PUSH1 0x40 MLOAD SWAP3 PUSH2 0xA35 DUP5 PUSH2 0x1291 JUMP JUMPDEST DUP2 SLOAD DUP5 MSTORE DUP1 DUP3 ADD SLOAD DUP4 DUP6 ADD MSTORE PUSH2 0xA4D PUSH1 0x2 DUP4 ADD PUSH2 0x12CE JUMP JUMPDEST PUSH1 0x40 DUP6 ADD MSTORE PUSH2 0xA5E PUSH1 0x3 DUP4 ADD PUSH2 0x12CE JUMP JUMPDEST PUSH1 0x60 DUP6 ADD MSTORE PUSH1 0x4 DUP3 ADD SWAP1 DUP2 SLOAD PUSH2 0xA73 DUP2 PUSH2 0x173F JUMP JUMPDEST SWAP3 PUSH2 0xA81 PUSH1 0x40 MLOAD SWAP5 DUP6 PUSH2 0x12AD JUMP JUMPDEST DUP2 DUP5 MSTORE PUSH1 0x0 SWAP1 DUP2 MSTORE DUP6 DUP2 KECCAK256 DUP7 DUP1 DUP7 ADD JUMPDEST DUP5 DUP5 LT PUSH2 0xAD5 JUMPI PUSH1 0x80 DUP11 ADD DUP8 SWAP1 MSTORE PUSH1 0x5 DUP9 ADD SLOAD PUSH1 0xA0 DUP12 ADD MSTORE PUSH1 0x6 DUP9 ADD SLOAD PUSH1 0xC0 DUP12 ADD MSTORE PUSH1 0x7 DUP9 ADD SLOAD PUSH1 0xFF AND ISZERO ISZERO PUSH1 0xE0 DUP12 ADD MSTORE PUSH1 0x40 MLOAD DUP3 DUP2 MSTORE DUP1 PUSH2 0x2A0 DUP2 DUP6 ADD DUP14 PUSH2 0x1454 JUMP JUMPDEST DUP6 SWAP2 DUP3 SWAP2 PUSH2 0xAE2 DUP6 PUSH2 0x12CE JUMP JUMPDEST DUP2 MSTORE ADD SWAP3 ADD SWAP3 ADD SWAP2 SWAP1 DUP8 SWAP1 PUSH2 0xA91 JUMP JUMPDEST CALLVALUE PUSH2 0xEA JUMPI PUSH1 0x20 DUP1 PUSH1 0x3 NOT CALLDATASIZE ADD SLT PUSH2 0xEA JUMPI PUSH1 0x4 CALLDATALOAD PUSH1 0x0 MSTORE PUSH1 0x3 DUP2 MSTORE PUSH1 0x40 PUSH1 0x0 KECCAK256 SWAP1 PUSH1 0x40 MLOAD SWAP1 DUP2 DUP2 DUP5 SLOAD SWAP2 DUP3 DUP2 MSTORE ADD SWAP4 PUSH1 0x0 MSTORE DUP2 PUSH1 0x0 KECCAK256 SWAP2 PUSH1 0x0 SWAP1 JUMPDEST DUP3 DUP3 LT PUSH2 0xB45 JUMPI PUSH2 0x2A0 DUP6 PUSH2 0x294 DUP2 DUP10 SUB DUP3 PUSH2 0x12AD JUMP JUMPDEST DUP4 SLOAD DUP7 MSTORE SWAP5 DUP6 ADD SWAP5 PUSH1 0x1 SWAP4 DUP5 ADD SWAP4 SWAP1 SWAP2 ADD SWAP1 PUSH2 0xB2E JUMP JUMPDEST CALLVALUE PUSH2 0xEA JUMPI PUSH1 0x80 CALLDATASIZE PUSH1 0x3 NOT ADD SLT PUSH2 0xEA JUMPI PUSH1 0x24 CALLDATALOAD PUSH1 0x1 PUSH1 0x1 PUSH1 0x40 SHL SUB DUP2 GT PUSH2 0xEA JUMPI PUSH2 0xB8C SWAP1 CALLDATASIZE SWAP1 PUSH1 0x4 ADD PUSH2 0x13BC JUMP JUMPDEST PUSH1 0x44 CALLDATALOAD PUSH1 0x1 PUSH1 0x1 PUSH1 0x40 SHL SUB DUP2 GT PUSH2 0xEA JUMPI PUSH2 0xBAB SWAP1 CALLDATASIZE SWAP1 PUSH1 0x4 ADD PUSH2 0x13BC JUMP JUMPDEST PUSH1 0x64 SWAP3 SWAP2 SWAP3 CALLDATALOAD PUSH1 0x1 PUSH1 0x1 PUSH1 0x40 SHL SUB DUP2 GT PUSH2 0xEA JUMPI PUSH2 0xBCD SWAP1 CALLDATASIZE SWAP1 PUSH1 0x4 ADD PUSH2 0x13E9 JUMP JUMPDEST PUSH1 0x40 MLOAD PUSH4 0x2DE5AAF7 PUSH1 0xE0 SHL DUP2 MSTORE PUSH1 0x4 DUP1 CALLDATALOAD SWAP1 DUP3 ADD MSTORE SWAP1 SWAP5 SWAP2 SWAP1 PUSH1 0x1 PUSH1 0x1 PUSH1 0xA0 SHL SUB PUSH1 0x0 DUP3 PUSH1 0x24 DUP2 PUSH32 0x0 DUP6 AND GAS STATICCALL SWAP2 DUP3 ISZERO PUSH2 0x9D4 JUMPI PUSH2 0xC39 SWAP3 PUSH1 0x40 SWAP2 PUSH1 0x0 SWAP2 PUSH2 0x9B1 JUMPI POP ADD MLOAD AND CALLER EQ PUSH2 0x1663 JUMP JUMPDEST PUSH1 0x0 SLOAD SWAP5 PUSH2 0xC46 DUP7 PUSH2 0x16E3 JUMP JUMPDEST PUSH1 0x0 SSTORE PUSH1 0x40 MLOAD SWAP2 PUSH2 0xC56 DUP4 PUSH2 0x1291 JUMP JUMPDEST DUP7 DUP4 MSTORE PUSH1 0x4 CALLDATALOAD PUSH1 0x20 DUP5 ADD MSTORE PUSH2 0xC6C CALLDATASIZE DUP8 DUP11 PUSH2 0x1708 JUMP JUMPDEST PUSH1 0x40 DUP5 ADD MSTORE PUSH2 0xC7C CALLDATASIZE DUP7 DUP7 PUSH2 0x1708 JUMP JUMPDEST PUSH1 0x60 DUP5 ADD MSTORE PUSH2 0xC8A DUP3 PUSH2 0x173F JUMP JUMPDEST SWAP2 PUSH2 0xC98 PUSH1 0x40 MLOAD SWAP4 DUP5 PUSH2 0x12AD JUMP JUMPDEST DUP1 DUP4 MSTORE PUSH1 0x20 DUP4 ADD CALLDATASIZE DUP3 PUSH1 0x5 SHL DUP5 ADD GT PUSH2 0xEA JUMPI DUP3 SWAP1 JUMPDEST DUP3 PUSH1 0x5 SHL DUP5 ADD DUP3 LT PUSH2 0x117A JUMPI POP POP POP POP PUSH1 0x80 DUP3 ADD MSTORE TIMESTAMP PUSH1 0xA0 DUP3 ADD MSTORE PUSH1 0x0 PUSH1 0xC0 DUP3 ADD MSTORE PUSH1 0x1 PUSH1 0xE0 DUP3 ADD MSTORE DUP5 PUSH1 0x0 MSTORE PUSH1 0x1 PUSH1 0x20 MSTORE PUSH1 0x40 PUSH1 0x0 KECCAK256 DUP2 MLOAD DUP2 SSTORE PUSH1 0x20 DUP3 ADD MLOAD PUSH1 0x1 DUP3 ADD SSTORE PUSH1 0x40 DUP3 ADD MLOAD DUP1 MLOAD PUSH1 0x1 PUSH1 0x1 PUSH1 0x40 SHL SUB DUP2 GT PUSH2 0x78F JUMPI DUP1 PUSH1 0x2 DUP5 ADD SWAP3 PUSH2 0xD18 DUP5 SLOAD PUSH2 0x1257 JUMP JUMPDEST PUSH1 0x1F DUP2 GT PUSH2 0x1148 JUMPI JUMPDEST POP PUSH1 0x20 SWAP1 PUSH1 0x1F DUP4 GT PUSH1 0x1 EQ PUSH2 0x10E2 JUMPI PUSH1 0x0 SWAP3 PUSH2 0x10D7 JUMPI JUMPDEST POP POP DUP2 PUSH1 0x1 SHL SWAP2 PUSH1 0x0 NOT SWAP1 PUSH1 0x3 SHL SHR NOT AND OR SWAP1 SSTORE JUMPDEST PUSH1 0x60 DUP3 ADD MLOAD DUP1 MLOAD PUSH1 0x1 PUSH1 0x1 PUSH1 0x40 SHL SUB DUP2 GT PUSH2 0x78F JUMPI DUP1 PUSH1 0x3 DUP5 ADD SWAP3 PUSH2 0xD72 DUP5 SLOAD PUSH2 0x1257 JUMP JUMPDEST PUSH1 0x1F DUP2 GT PUSH2 0x10A5 JUMPI JUMPDEST POP PUSH1 0x20 SWAP1 PUSH1 0x1F DUP4 GT PUSH1 0x1 EQ PUSH2 0x103F JUMPI PUSH1 0x0 SWAP3 PUSH2 0x1034 JUMPI JUMPDEST POP POP DUP2 PUSH1 0x1 SHL SWAP2 PUSH1 0x0 NOT SWAP1 PUSH1 0x3 SHL SHR NOT AND OR SWAP1 SSTORE JUMPDEST PUSH1 0x80 DUP3 ADD MLOAD DUP1 MLOAD SWAP1 PUSH1 0x1 PUSH1 0x40 SHL DUP3 GT PUSH2 0x78F JUMPI PUSH1 0x4 DUP4 ADD SLOAD DUP3 PUSH1 0x4 DUP6 ADD SSTORE DUP1 DUP4 LT PUSH2 0xFBC JUMPI JUMPDEST POP PUSH1 0x20 ADD SWAP1 PUSH1 0x4 DUP4 ADD PUSH1 0x0 MSTORE PUSH1 0x20 PUSH1 0x0 KECCAK256 SWAP2 PUSH1 0x0 SWAP1 JUMPDEST DUP3 DUP3 LT PUSH2 0xEA9 JUMPI POP POP POP POP SWAP3 DUP6 PUSH32 0x7EBA35B21371BFE53296C006121DF1D23DABE11F1DAAC964004C46EBAC328367 PUSH2 0xE7F PUSH1 0x20 SWAP10 SWAP6 DUP6 PUSH1 0xE0 PUSH1 0x7 PUSH32 0xF56B5DFDD5DE04363333A774A8CD3F117992425A661F709DFB86D31EA23DEF92 SWAP11 PUSH1 0xA0 DUP9 SWAP14 SWAP11 ADD MLOAD PUSH1 0x5 DUP3 ADD SSTORE PUSH1 0xC0 DUP5 ADD MLOAD PUSH1 0x6 DUP3 ADD SSTORE ADD SWAP2 ADD MLOAD ISZERO ISZERO PUSH1 0xFF DUP1 NOT DUP4 SLOAD AND SWAP2 AND OR SWAP1 SSTORE PUSH1 0x4 CALLDATALOAD PUSH1 0x0 MSTORE PUSH1 0x2 DUP12 MSTORE PUSH2 0x60A DUP5 PUSH1 0x40 PUSH1 0x0 KECCAK256 PUSH2 0x176D JUMP JUMPDEST SWAP3 PUSH1 0x0 DUP11 DUP3 ADD MSTORE TIMESTAMP PUSH1 0x40 DUP3 ADD MSTORE DUP1 PUSH1 0x4 CALLDATALOAD SWAP5 SUB SWAP1 LOG3 PUSH2 0x647 PUSH1 0x40 MLOAD SWAP3 DUP4 SWAP3 DUP9 DUP5 MSTORE DUP9 DUP5 ADD SWAP2 PUSH2 0x17A2 JUMP JUMPDEST DUP1 MLOAD DUP1 MLOAD SWAP1 PUSH1 0x1 PUSH1 0x1 PUSH1 0x40 SHL SUB DUP3 GT PUSH2 0x78F JUMPI PUSH2 0xEC6 DUP7 SLOAD PUSH2 0x1257 JUMP JUMPDEST PUSH1 0x1F DUP2 GT PUSH2 0xF8A JUMPI JUMPDEST POP PUSH1 0x20 SWAP1 PUSH1 0x1F DUP4 GT PUSH1 0x1 EQ PUSH2 0xF1C JUMPI SWAP3 DUP3 PUSH1 0x1 SWAP5 SWAP4 PUSH1 0x20 SWAP4 DUP7 SWAP6 PUSH1 0x0 SWAP3 PUSH2 0xF11 JUMPI JUMPDEST POP POP PUSH1 0x0 NOT PUSH1 0x3 DUP4 SWAP1 SHL SHR NOT AND SWAP1 DUP5 SHL OR DUP8 SSTORE JUMPDEST ADD SWAP5 ADD SWAP2 ADD SWAP1 SWAP3 PUSH2 0xDE3 JUMP JUMPDEST ADD MLOAD SWAP1 POP CODESIZE DUP1 PUSH2 0xEF1 JUMP JUMPDEST SWAP1 PUSH1 0x1F NOT DUP4 AND SWAP2 DUP8 PUSH1 0x0 MSTORE PUSH1 0x20 PUSH1 0x0 KECCAK256 SWAP3 PUSH1 0x0 JUMPDEST DUP2 DUP2 LT PUSH2 0xF72 JUMPI POP SWAP4 PUSH1 0x20 SWAP4 PUSH1 0x1 SWAP7 SWAP4 DUP8 SWAP7 SWAP4 DUP4 DUP9 SWAP6 LT PUSH2 0xF59 JUMPI JUMPDEST POP POP POP DUP2 SHL ADD DUP8 SSTORE PUSH2 0xF05 JUMP JUMPDEST ADD MLOAD PUSH1 0x0 NOT PUSH1 0xF8 DUP5 PUSH1 0x3 SHL AND SHR NOT AND SWAP1 SSTORE CODESIZE DUP1 DUP1 PUSH2 0xF4C JUMP JUMPDEST SWAP3 SWAP4 PUSH1 0x20 PUSH1 0x1 DUP2 SWAP3 DUP8 DUP7 ADD MLOAD DUP2 SSTORE ADD SWAP6 ADD SWAP4 ADD PUSH2 0xF30 JUMP JUMPDEST PUSH2 0xFB6 SWAP1 DUP8 PUSH1 0x0 MSTORE PUSH1 0x20 PUSH1 0x0 KECCAK256 PUSH1 0x1F DUP6 ADD PUSH1 0x5 SHR DUP2 ADD SWAP2 PUSH1 0x20 DUP7 LT PUSH2 0x785 JUMPI PUSH1 0x1F ADD PUSH1 0x5 SHR ADD SWAP1 PUSH2 0x1756 JUMP JUMPDEST DUP14 PUSH2 0xECF JUMP JUMPDEST PUSH1 0x4 DUP5 ADD PUSH1 0x0 MSTORE PUSH1 0x20 PUSH1 0x0 KECCAK256 SWAP1 DUP4 DUP3 ADD JUMPDEST DUP2 DUP4 ADD DUP2 LT PUSH2 0xFDD JUMPI POP POP PUSH2 0xDCD JUMP JUMPDEST DUP1 PUSH2 0xFEA PUSH1 0x1 SWAP3 SLOAD PUSH2 0x1257 JUMP JUMPDEST DUP1 PUSH2 0xFF7 JUMPI JUMPDEST POP ADD PUSH2 0xFCD JUMP JUMPDEST PUSH1 0x1F DUP2 GT DUP4 EQ PUSH2 0x100D JUMPI POP PUSH1 0x0 DUP2 SSTORE JUMPDEST DUP14 PUSH2 0xFF0 JUMP JUMPDEST PUSH1 0x0 SWAP1 DUP3 DUP3 MSTORE PUSH2 0x102B PUSH1 0x1F PUSH1 0x20 DUP5 KECCAK256 SWAP3 ADD PUSH1 0x5 SHR DUP3 ADD DUP6 DUP4 ADD PUSH2 0x1756 JUMP JUMPDEST DUP2 DUP4 SSTORE SSTORE PUSH2 0x1007 JUMP JUMPDEST ADD MLOAD SWAP1 POP DUP11 DUP1 PUSH2 0xD92 JUMP JUMPDEST PUSH1 0x0 DUP6 DUP2 MSTORE PUSH1 0x20 DUP2 KECCAK256 SWAP4 POP PUSH1 0x1F NOT DUP6 AND SWAP1 JUMPDEST DUP2 DUP2 LT PUSH2 0x108D JUMPI POP SWAP1 DUP5 PUSH1 0x1 SWAP6 SWAP5 SWAP4 SWAP3 LT PUSH2 0x1074 JUMPI JUMPDEST POP POP POP DUP2 SHL ADD SWAP1 SSTORE PUSH2 0xDA7 JUMP JUMPDEST ADD MLOAD PUSH1 0x0 NOT PUSH1 0xF8 DUP5 PUSH1 0x3 SHL AND SHR NOT AND SWAP1 SSTORE DUP11 DUP1 DUP1 PUSH2 0x1067 JUMP JUMPDEST SWAP3 SWAP4 PUSH1 0x20 PUSH1 0x1 DUP2 SWAP3 DUP8 DUP7 ADD MLOAD DUP2 SSTORE ADD SWAP6 ADD SWAP4 ADD PUSH2 0x1051 JUMP JUMPDEST PUSH2 0x10D1 SWAP1 DUP6 PUSH1 0x0 MSTORE PUSH1 0x20 PUSH1 0x0 KECCAK256 PUSH1 0x1F DUP6 ADD PUSH1 0x5 SHR DUP2 ADD SWAP2 PUSH1 0x20 DUP7 LT PUSH2 0x785 JUMPI PUSH1 0x1F ADD PUSH1 0x5 SHR ADD SWAP1 PUSH2 0x1756 JUMP JUMPDEST DUP12 PUSH2 0xD7B JUMP JUMPDEST ADD MLOAD SWAP1 POP DUP11 DUP1 PUSH2 0xD38 JUMP JUMPDEST PUSH1 0x0 DUP6 DUP2 MSTORE PUSH1 0x20 DUP2 KECCAK256 SWAP4 POP PUSH1 0x1F NOT DUP6 AND SWAP1 JUMPDEST DUP2 DUP2 LT PUSH2 0x1130 JUMPI POP SWAP1 DUP5 PUSH1 0x1 SWAP6 SWAP5 SWAP4 SWAP3 LT PUSH2 0x1117 JUMPI JUMPDEST POP POP POP DUP2 SHL ADD SWAP1 SSTORE PUSH2 0xD4D JUMP JUMPDEST ADD MLOAD PUSH1 0x0 NOT PUSH1 0xF8 DUP5 PUSH1 0x3 SHL AND SHR NOT AND SWAP1 SSTORE DUP11 DUP1 DUP1 PUSH2 0x110A JUMP JUMPDEST SWAP3 SWAP4 PUSH1 0x20 PUSH1 0x1 DUP2 SWAP3 DUP8 DUP7 ADD MLOAD DUP2 SSTORE ADD SWAP6 ADD SWAP4 ADD PUSH2 0x10F4 JUMP JUMPDEST PUSH2 0x1174 SWAP1 DUP6 PUSH1 0x0 MSTORE PUSH1 0x20 PUSH1 0x0 KECCAK256 PUSH1 0x1F DUP6 ADD PUSH1 0x5 SHR DUP2 ADD SWAP2 PUSH1 0x20 DUP7 LT PUSH2 0x785 JUMPI PUSH1 0x1F ADD PUSH1 0x5 SHR ADD SWAP1 PUSH2 0x1756 JUMP JUMPDEST DUP12 PUSH2 0xD21 JUMP JUMPDEST DUP2 CALLDATALOAD PUSH1 0x1 PUSH1 0x1 PUSH1 0x40 SHL SUB DUP2 GT PUSH2 0xEA JUMPI CALLDATASIZE PUSH1 0x1F DUP3 DUP8 ADD ADD SLT ISZERO PUSH2 0xEA JUMPI PUSH1 0x20 SWAP2 DUP3 SWAP2 PUSH2 0x11AE SWAP1 CALLDATASIZE SWAP1 DUP9 ADD DUP1 CALLDATALOAD SWAP1 DUP6 ADD PUSH2 0x1708 JUMP JUMPDEST DUP2 MSTORE ADD SWAP2 ADD SWAP1 PUSH2 0xCAE JUMP JUMPDEST CALLVALUE PUSH2 0xEA JUMPI PUSH1 0x20 CALLDATASIZE PUSH1 0x3 NOT ADD SLT PUSH2 0xEA JUMPI PUSH1 0x4 CALLDATALOAD PUSH1 0x0 MSTORE PUSH1 0x1 PUSH1 0x20 MSTORE PUSH1 0x40 PUSH1 0x0 KECCAK256 DUP1 SLOAD PUSH1 0x1 DUP3 ADD SLOAD SWAP2 PUSH2 0x11EE PUSH1 0x2 DUP3 ADD PUSH2 0x12CE JUMP JUMPDEST PUSH2 0x11FA PUSH1 0x3 DUP4 ADD PUSH2 0x12CE JUMP JUMPDEST SWAP2 PUSH2 0x1241 PUSH1 0x5 DUP3 ADD SLOAD SWAP4 PUSH2 0x1233 PUSH1 0xFF PUSH1 0x7 PUSH1 0x6 DUP7 ADD SLOAD SWAP6 ADD SLOAD AND SWAP5 PUSH1 0x40 MLOAD SWAP9 DUP10 SWAP9 DUP10 MSTORE PUSH1 0x20 DUP10 ADD MSTORE PUSH1 0xE0 PUSH1 0x40 DUP10 ADD MSTORE PUSH1 0xE0 DUP9 ADD SWAP1 PUSH2 0x1397 JUMP JUMPDEST SWAP1 DUP7 DUP3 SUB PUSH1 0x60 DUP9 ADD MSTORE PUSH2 0x1397 JUMP JUMPDEST SWAP3 PUSH1 0x80 DUP6 ADD MSTORE PUSH1 0xA0 DUP5 ADD MSTORE ISZERO ISZERO PUSH1 0xC0 DUP4 ADD MSTORE SUB SWAP1 RETURN JUMPDEST SWAP1 PUSH1 0x1 DUP3 DUP2 SHR SWAP3 AND DUP1 ISZERO PUSH2 0x1287 JUMPI JUMPDEST PUSH1 0x20 DUP4 LT EQ PUSH2 0x1271 JUMPI JUMP JUMPDEST PUSH4 0x4E487B71 PUSH1 0xE0 SHL PUSH1 0x0 MSTORE PUSH1 0x22 PUSH1 0x4 MSTORE PUSH1 0x24 PUSH1 0x0 REVERT JUMPDEST SWAP2 PUSH1 0x7F AND SWAP2 PUSH2 0x1266 JUMP JUMPDEST PUSH2 0x100 DUP2 ADD SWAP1 DUP2 LT PUSH1 0x1 PUSH1 0x1 PUSH1 0x40 SHL SUB DUP3 GT OR PUSH2 0x78F JUMPI PUSH1 0x40 MSTORE JUMP JUMPDEST SWAP1 PUSH1 0x1F DUP1 NOT SWAP2 ADD AND DUP2 ADD SWAP1 DUP2 LT PUSH1 0x1 PUSH1 0x1 PUSH1 0x40 SHL SUB DUP3 GT OR PUSH2 0x78F JUMPI PUSH1 0x40 MSTORE JUMP JUMPDEST SWAP1 PUSH1 0x40 MLOAD SWAP2 DUP3 PUSH1 0x0 DUP3 SLOAD SWAP3 PUSH2 0x12E2 DUP5 PUSH2 0x1257 JUMP JUMPDEST SWAP1 DUP2 DUP5 MSTORE PUSH1 0x1 SWAP5 DUP6 DUP2 AND SWAP1 DUP2 PUSH1 0x0 EQ PUSH2 0x1351 JUMPI POP PUSH1 0x1 EQ PUSH2 0x130E JUMPI JUMPDEST POP POP PUSH2 0x130C SWAP3 POP SUB DUP4 PUSH2 0x12AD JUMP JUMPDEST JUMP JUMPDEST SWAP1 SWAP4 SWAP2 POP PUSH1 0x0 MSTORE PUSH1 0x20 SWAP1 DUP2 PUSH1 0x0 KECCAK256 SWAP4 PUSH1 0x0 SWAP2 JUMPDEST DUP2 DUP4 LT PUSH2 0x1339 JUMPI POP POP PUSH2 0x130C SWAP4 POP DUP3 ADD ADD CODESIZE DUP1 PUSH2 0x12FE JUMP JUMPDEST DUP6 SLOAD DUP9 DUP5 ADD DUP6 ADD MSTORE SWAP5 DUP6 ADD SWAP5 DUP8 SWAP5 POP SWAP2 DUP4 ADD SWAP2 PUSH2 0x1321 JUMP JUMPDEST SWAP2 POP POP PUSH2 0x130C SWAP5 POP PUSH1 0x20 SWAP3 POP PUSH1 0xFF NOT AND DUP3 DUP5 ADD MSTORE ISZERO ISZERO PUSH1 0x5 SHL DUP3 ADD ADD CODESIZE DUP1 PUSH2 0x12FE JUMP JUMPDEST PUSH1 0x0 JUMPDEST DUP4 DUP2 LT PUSH2 0x1387 JUMPI POP POP PUSH1 0x0 SWAP2 ADD MSTORE JUMP JUMPDEST DUP2 DUP2 ADD MLOAD DUP4 DUP3 ADD MSTORE PUSH1 0x20 ADD PUSH2 0x1377 JUMP JUMPDEST SWAP1 PUSH1 0x20 SWAP2 PUSH2 0x13B0 DUP2 MLOAD DUP1 SWAP3 DUP2 DUP6 MSTORE DUP6 DUP1 DUP7 ADD SWAP2 ADD PUSH2 0x1374 JUMP JUMPDEST PUSH1 0x1F ADD PUSH1 0x1F NOT AND ADD ADD SWAP1 JUMP JUMPDEST SWAP2 DUP2 PUSH1 0x1F DUP5 ADD SLT ISZERO PUSH2 0xEA JUMPI DUP3 CALLDATALOAD SWAP2 PUSH1 0x1 PUSH1 0x1 PUSH1 0x40 SHL SUB DUP4 GT PUSH2 0xEA JUMPI PUSH1 0x20 DUP4 DUP2 DUP7 ADD SWAP6 ADD ADD GT PUSH2 0xEA JUMPI JUMP JUMPDEST SWAP2 DUP2 PUSH1 0x1F DUP5 ADD SLT ISZERO PUSH2 0xEA JUMPI DUP3 CALLDATALOAD SWAP2 PUSH1 0x1 PUSH1 0x1 PUSH1 0x40 SHL SUB DUP4 GT PUSH2 0xEA JUMPI PUSH1 0x20 DUP1 DUP6 ADD SWAP5 DUP5 PUSH1 0x5 SHL ADD ADD GT PUSH2 0xEA JUMPI JUMP JUMPDEST PUSH1 0x20 SWAP1 DUP2 PUSH1 0x40 DUP2 DUP4 ADD SWAP3 DUP3 DUP2 MSTORE DUP6 MLOAD DUP1 SWAP5 MSTORE ADD SWAP4 ADD SWAP2 PUSH1 0x0 JUMPDEST DUP3 DUP2 LT PUSH2 0x1440 JUMPI POP POP POP POP SWAP1 JUMP JUMPDEST DUP4 MLOAD DUP6 MSTORE SWAP4 DUP2 ADD SWAP4 SWAP3 DUP2 ADD SWAP3 PUSH1 0x1 ADD PUSH2 0x1432 JUMP JUMPDEST SWAP1 DUP2 MLOAD DUP2 MSTORE PUSH1 0x20 SWAP2 DUP3 DUP2 ADD MLOAD DUP4 DUP4 ADD MSTORE PUSH2 0x1492 PUSH2 0x1480 PUSH1 0x40 DUP4 ADD MLOAD PUSH2 0x100 DUP1 PUSH1 0x40 DUP8 ADD MSTORE DUP6 ADD SWAP1 PUSH2 0x1397 JUMP JUMPDEST PUSH1 0x60 DUP4 ADD MLOAD DUP5 DUP3 SUB PUSH1 0x60 DUP7 ADD MSTORE PUSH2 0x1397 JUMP JUMPDEST PUSH1 0x80 DUP3 ADD MLOAD SWAP4 DUP4 DUP3 SUB PUSH1 0x80 DUP6 ADD MSTORE DUP5 MLOAD SWAP1 DUP2 DUP4 MSTORE DUP1 DUP4 ADD SWAP3 DUP2 DUP1 DUP5 PUSH1 0x5 SHL DUP4 ADD ADD SWAP8 ADD SWAP4 PUSH1 0x0 SWAP2 JUMPDEST DUP5 DUP4 LT PUSH2 0x14E9 JUMPI POP POP POP POP POP POP PUSH1 0xE0 DUP2 PUSH1 0xA0 DUP3 SWAP4 ADD MLOAD PUSH1 0xA0 DUP6 ADD MSTORE PUSH1 0xC0 DUP2 ADD MLOAD PUSH1 0xC0 DUP6 ADD MSTORE ADD MLOAD ISZERO ISZERO SWAP2 ADD MSTORE SWAP1 JUMP JUMPDEST SWAP1 SWAP2 SWAP3 SWAP4 SWAP5 SWAP8 DUP5 DUP1 PUSH2 0x1507 PUSH1 0x1 SWAP4 PUSH1 0x1F NOT DUP7 DUP3 SUB ADD DUP8 MSTORE DUP13 MLOAD PUSH2 0x1397 JUMP JUMPDEST SWAP11 ADD SWAP4 ADD SWAP4 ADD SWAP2 SWAP5 SWAP4 SWAP3 SWAP1 PUSH2 0x14BA JUMP JUMPDEST PUSH1 0x40 SWAP1 PUSH1 0x3 NOT ADD SLT PUSH2 0xEA JUMPI PUSH1 0x4 CALLDATALOAD SWAP1 PUSH1 0x24 CALLDATALOAD SWAP1 JUMP JUMPDEST DUP1 SLOAD DUP3 LT ISZERO PUSH2 0x1545 JUMPI PUSH1 0x0 MSTORE PUSH1 0x20 PUSH1 0x0 KECCAK256 ADD SWAP1 PUSH1 0x0 SWAP1 JUMP JUMPDEST PUSH4 0x4E487B71 PUSH1 0xE0 SHL PUSH1 0x0 MSTORE PUSH1 0x32 PUSH1 0x4 MSTORE PUSH1 0x24 PUSH1 0x0 REVERT JUMPDEST PUSH1 0x1 PUSH1 0x1 PUSH1 0x40 SHL SUB DUP2 GT PUSH2 0x78F JUMPI PUSH1 0x1F ADD PUSH1 0x1F NOT AND PUSH1 0x20 ADD SWAP1 JUMP JUMPDEST MLOAD SWAP1 PUSH1 0x1 PUSH1 0x1 PUSH1 0xA0 SHL SUB DUP3 AND DUP3 SUB PUSH2 0xEA JUMPI JUMP JUMPDEST SWAP1 PUSH1 0x20 SWAP1 DUP2 DUP4 DUP3 SUB SLT PUSH2 0xEA JUMPI DUP3 MLOAD PUSH1 0x1 PUSH1 0x1 PUSH1 0x40 SHL SUB SWAP4 DUP5 DUP3 GT PUSH2 0xEA JUMPI ADD SWAP1 PUSH1 0xC0 DUP3 DUP3 SUB SLT PUSH2 0xEA JUMPI PUSH1 0x40 MLOAD SWAP4 PUSH1 0xC0 DUP6 ADD DUP6 DUP2 LT DUP3 DUP3 GT OR PUSH2 0x78F JUMPI PUSH1 0x40 MSTORE DUP3 MLOAD DUP6 MSTORE DUP4 DUP4 ADD MLOAD SWAP1 DUP2 GT PUSH2 0xEA JUMPI DUP3 ADD SWAP3 DUP2 PUSH1 0x1F DUP6 ADD SLT ISZERO PUSH2 0xEA JUMPI DUP4 MLOAD SWAP4 PUSH2 0x15F4 DUP6 PUSH2 0x155B JUMP JUMPDEST SWAP3 PUSH2 0x1602 PUSH1 0x40 MLOAD SWAP5 DUP6 PUSH2 0x12AD JUMP JUMPDEST DUP6 DUP5 MSTORE DUP3 DUP7 DUP4 ADD ADD GT PUSH2 0xEA JUMPI PUSH1 0xA0 SWAP5 PUSH2 0x1621 SWAP2 DUP4 DUP1 DUP7 ADD SWAP2 ADD PUSH2 0x1374 JUMP JUMPDEST DUP5 ADD MSTORE PUSH2 0x1630 PUSH1 0x40 DUP3 ADD PUSH2 0x1576 JUMP JUMPDEST PUSH1 0x40 DUP5 ADD MSTORE PUSH2 0x1641 PUSH1 0x60 DUP3 ADD PUSH2 0x1576 JUMP JUMPDEST PUSH1 0x60 DUP5 ADD MSTORE PUSH1 0x80 DUP2 ADD MLOAD PUSH1 0x80 DUP5 ADD MSTORE ADD MLOAD DUP1 ISZERO ISZERO DUP2 SUB PUSH2 0xEA JUMPI PUSH1 0xA0 DUP3 ADD MSTORE SWAP1 JUMP JUMPDEST ISZERO PUSH2 0x166A JUMPI JUMP JUMPDEST PUSH1 0x40 MLOAD PUSH3 0x461BCD PUSH1 0xE5 SHL DUP2 MSTORE PUSH1 0x20 PUSH1 0x4 DUP3 ADD MSTORE PUSH1 0xF PUSH1 0x24 DUP3 ADD MSTORE PUSH15 0x2737BA1030B3B2B73A1037BBB732B9 PUSH1 0x89 SHL PUSH1 0x44 DUP3 ADD MSTORE PUSH1 0x64 SWAP1 REVERT JUMPDEST ISZERO PUSH2 0x16A8 JUMPI JUMP JUMPDEST PUSH1 0x40 MLOAD PUSH3 0x461BCD PUSH1 0xE5 SHL DUP2 MSTORE PUSH1 0x20 PUSH1 0x4 DUP3 ADD MSTORE PUSH1 0x13 PUSH1 0x24 DUP3 ADD MSTORE PUSH19 0x141BDCDD08191BD95CC81B9BDD08195E1A5CDD PUSH1 0x6A SHL PUSH1 0x44 DUP3 ADD MSTORE PUSH1 0x64 SWAP1 REVERT JUMPDEST PUSH1 0x0 NOT DUP2 EQ PUSH2 0x16F2 JUMPI PUSH1 0x1 ADD SWAP1 JUMP JUMPDEST PUSH4 0x4E487B71 PUSH1 0xE0 SHL PUSH1 0x0 MSTORE PUSH1 0x11 PUSH1 0x4 MSTORE PUSH1 0x24 PUSH1 0x0 REVERT JUMPDEST SWAP3 SWAP2 SWAP3 PUSH2 0x1714 DUP3 PUSH2 0x155B JUMP JUMPDEST SWAP2 PUSH2 0x1722 PUSH1 0x40 MLOAD SWAP4 DUP5 PUSH2 0x12AD JUMP JUMPDEST DUP3 SWAP5 DUP2 DUP5 MSTORE DUP2 DUP4 ADD GT PUSH2 0xEA JUMPI DUP3 DUP2 PUSH1 0x20 SWAP4 DUP5 PUSH1 0x0 SWAP7 ADD CALLDATACOPY ADD ADD MSTORE JUMP JUMPDEST PUSH1 0x1 PUSH1 0x1 PUSH1 0x40 SHL SUB DUP2 GT PUSH2 0x78F JUMPI PUSH1 0x5 SHL PUSH1 0x20 ADD SWAP1 JUMP JUMPDEST DUP2 DUP2 LT PUSH2 0x1761 JUMPI POP POP JUMP JUMPDEST PUSH1 0x0 DUP2 SSTORE PUSH1 0x1 ADD PUSH2 0x1756 JUMP JUMPDEST DUP1 SLOAD PUSH1 0x1 PUSH1 0x40 SHL DUP2 LT ISZERO PUSH2 0x78F JUMPI PUSH2 0x178A SWAP2 PUSH1 0x1 DUP3 ADD DUP2 SSTORE PUSH2 0x152D JUMP JUMPDEST DUP2 SWAP3 SWAP2 SLOAD SWAP1 PUSH1 0x3 SHL SWAP2 DUP3 SHL SWAP2 PUSH1 0x0 NOT SWAP1 SHL NOT AND OR SWAP1 SSTORE JUMP JUMPDEST SWAP1 DUP1 PUSH1 0x20 SWAP4 SWAP3 DUP2 DUP5 MSTORE DUP5 DUP5 ADD CALLDATACOPY PUSH1 0x0 DUP3 DUP3 ADD DUP5 ADD MSTORE PUSH1 0x1F ADD PUSH1 0x1F NOT AND ADD ADD SWAP1 JUMP JUMPDEST PUSH1 0x40 MLOAD SWAP1 PUSH2 0x17D0 DUP3 PUSH2 0x1291 JUMP JUMPDEST PUSH1 0x0 PUSH1 0xE0 DUP4 DUP3 DUP2 MSTORE DUP3 PUSH1 0x20 DUP3 ADD MSTORE PUSH1 0x60 PUSH1 0x40 DUP3 ADD MSTORE PUSH1 0x60 DUP1 DUP3 ADD MSTORE PUSH1 0x60 PUSH1 0x80 DUP3 ADD MSTORE DUP3 PUSH1 0xA0 DUP3 ADD MSTORE DUP3 PUSH1 0xC0 DUP3 ADD MSTORE ADD MSTORE JUMP JUMPDEST SWAP2 SWAP1 DUP3 SUB SWAP2 DUP3 GT PUSH2 0x16F2 JUMPI JUMP JUMPDEST DUP1 MLOAD DUP3 LT ISZERO PUSH2 0x1545 JUMPI PUSH1 0x20 SWAP2 PUSH1 0x5 SHL ADD ADD SWAP1 JUMP JUMPDEST PUSH1 0x0 MSTORE PUSH1 0x2 PUSH1 0x20 MSTORE PUSH1 0x40 PUSH1 0x0 KECCAK256 SWAP1 DUP2 SLOAD SWAP3 DUP4 DUP3 LT ISZERO PUSH2 0x19DD JUMPI DUP2 ADD DUP1 DUP3 GT PUSH2 0x16F2 JUMPI DUP2 DUP5 DUP3 GT PUSH2 0x19D5 JUMPI JUMPDEST PUSH2 0x1857 SWAP2 PUSH2 0x1802 JUMP JUMPDEST SWAP2 PUSH2 0x1861 DUP4 PUSH2 0x173F JUMP JUMPDEST SWAP4 PUSH2 0x186F PUSH1 0x40 MLOAD SWAP6 DUP7 PUSH2 0x12AD JUMP JUMPDEST DUP4 DUP6 MSTORE PUSH1 0x1F NOT PUSH2 0x187E DUP6 PUSH2 0x173F JUMP JUMPDEST ADD PUSH1 0x0 JUMPDEST DUP2 DUP2 LT PUSH2 0x19BE JUMPI POP POP PUSH1 0x0 JUMPDEST DUP5 DUP2 LT PUSH2 0x189D JUMPI POP POP POP POP POP SWAP1 JUMP JUMPDEST DUP2 PUSH1 0x0 NOT DUP2 ADD GT PUSH2 0x16F2 JUMPI PUSH2 0x18C8 PUSH2 0x18C2 DUP3 PUSH2 0x18BD DUP8 PUSH1 0x0 NOT DUP8 ADD PUSH2 0x1802 JUMP JUMPDEST PUSH2 0x1802 JUMP JUMPDEST DUP5 PUSH2 0x152D JUMP JUMPDEST SWAP1 SLOAD PUSH1 0x3 SWAP2 DUP3 SHL SHR PUSH1 0x0 MSTORE PUSH1 0x1 PUSH1 0x20 MSTORE PUSH1 0x40 PUSH1 0x0 KECCAK256 PUSH2 0x1913 PUSH1 0x40 MLOAD SWAP3 PUSH2 0x18ED DUP5 PUSH2 0x1291 JUMP JUMPDEST DUP3 SLOAD DUP5 MSTORE PUSH1 0x1 DUP4 ADD SLOAD PUSH1 0x20 DUP6 ADD MSTORE PUSH2 0x1907 PUSH1 0x2 DUP5 ADD PUSH2 0x12CE JUMP JUMPDEST PUSH1 0x40 DUP6 ADD MSTORE DUP3 ADD PUSH2 0x12CE JUMP JUMPDEST PUSH1 0x60 DUP4 ADD MSTORE PUSH1 0x4 DUP2 ADD DUP1 SLOAD PUSH2 0x1927 DUP2 PUSH2 0x173F JUMP JUMPDEST SWAP2 PUSH2 0x1935 PUSH1 0x40 MLOAD SWAP4 DUP5 PUSH2 0x12AD JUMP JUMPDEST DUP2 DUP4 MSTORE PUSH1 0x20 DUP4 ADD SWAP1 PUSH1 0x0 MSTORE PUSH1 0x20 PUSH1 0x0 KECCAK256 SWAP1 PUSH1 0x0 SWAP1 JUMPDEST DUP4 DUP3 LT PUSH2 0x19A1 JUMPI POP POP POP POP PUSH1 0x80 DUP4 ADD MSTORE PUSH1 0x5 DUP2 ADD SLOAD PUSH1 0xA0 DUP4 ADD MSTORE PUSH1 0x6 DUP2 ADD SLOAD PUSH1 0xC0 DUP4 ADD MSTORE PUSH1 0x7 ADD SLOAD PUSH1 0xFF AND ISZERO ISZERO PUSH1 0xE0 DUP3 ADD MSTORE PUSH2 0x199C SWAP2 SWAP1 PUSH2 0x198B DUP3 DUP10 PUSH2 0x180F JUMP JUMPDEST MSTORE PUSH2 0x1996 DUP2 DUP9 PUSH2 0x180F JUMP JUMPDEST POP PUSH2 0x16E3 JUMP JUMPDEST PUSH2 0x188E JUMP JUMPDEST PUSH1 0x1 PUSH1 0x20 DUP2 SWAP3 PUSH2 0x19B0 DUP7 PUSH2 0x12CE JUMP JUMPDEST DUP2 MSTORE ADD SWAP4 ADD SWAP2 ADD SWAP1 SWAP2 PUSH2 0x194A JUMP JUMPDEST PUSH1 0x20 SWAP1 PUSH2 0x19C9 PUSH2 0x17C3 JUMP JUMPDEST DUP3 DUP3 DUP11 ADD ADD MSTORE ADD PUSH2 0x1882 JUMP JUMPDEST DUP5 SWAP2 POP PUSH2 0x184E JUMP JUMPDEST POP POP POP POP PUSH1 0x40 MLOAD PUSH1 0x20 DUP2 ADD DUP2 DUP2 LT PUSH1 0x1 PUSH1 0x1 PUSH1 0x40 SHL SUB DUP3 GT OR PUSH2 0x78F JUMPI PUSH1 0x40 MSTORE PUSH1 0x0 DUP2 MSTORE SWAP1 JUMP INVALID LOG2 PUSH5 0x6970667358 0x22 SLT KECCAK256 EXTCODECOPY PUSH32 0x2A4BB7E6CFCBC93FB2508459F7219C5C6D8FABF94802C9DDB0693A60A60B6473 PUSH16 0x6C634300081400330000000000000000 "},"methodIdentifiers":{"agentPosts(uint256,uint256)":"f36540f7","core()":"f2f4eb26","getAgentPostCount(uint256)":"986cad14","getAgentPosts(uint256)":"8d7b2bd1","getAgentPostsPaginated(uint256,uint256,uint256)":"91626b9b","getPost(uint256)":"40731c24","getPostReplies(uint256)":"152bd0da","nextPostId()":"5c09bd98","post(uint256,string,string,string[])":"100804be","postReplies(uint256,uint256)":"99ab09b4","posts(uint256)":"0b1e7f83","reply(uint256,uint256,string,string,string[])":"88d69ff6","totalPosts()":"8e53fb41"}}}}}