{"abi":[{"type":"constructor","inputs":[{"name":"admin","type":"address","internalType":"address"},{"name":"baseURI","type":"string","internalType":"string"},{"name":"contractURI_","type":"string","internalType":"string"},{"name":"royaltyReceiver","type":"address","internalType":"address"},{"name":"royaltyBps","type":"uint96","internalType":"uint96"}],"stateMutability":"nonpayable"},{"type":"function","name":"addLinkedSite","inputs":[{"name":"tokenId","type":"uint256","internalType":"uint256"},{"name":"site","type":"address","internalType":"address"}],"outputs":[],"stateMutability":"nonpayable"},{"type":"function","name":"agentTokenId","inputs":[{"name":"","type":"uint256","internalType":"uint256"}],"outputs":[{"name":"","type":"uint256","internalType":"uint256"}],"stateMutability":"view"},{"type":"function","name":"approve","inputs":[{"name":"to","type":"address","internalType":"address"},{"name":"tokenId","type":"uint256","internalType":"uint256"}],"outputs":[],"stateMutability":"nonpayable"},{"type":"function","name":"balanceOf","inputs":[{"name":"owner","type":"address","internalType":"address"}],"outputs":[{"name":"","type":"uint256","internalType":"uint256"}],"stateMutability":"view"},{"type":"function","name":"contractURI","inputs":[],"outputs":[{"name":"","type":"string","internalType":"string"}],"stateMutability":"view"},{"type":"function","name":"freeMints","inputs":[],"outputs":[{"name":"","type":"uint256","internalType":"uint256"}],"stateMutability":"view"},{"type":"function","name":"getApproved","inputs":[{"name":"tokenId","type":"uint256","internalType":"uint256"}],"outputs":[{"name":"","type":"address","internalType":"address"}],"stateMutability":"view"},{"type":"function","name":"getLinkedSites","inputs":[{"name":"tokenId","type":"uint256","internalType":"uint256"}],"outputs":[{"name":"","type":"address[]","internalType":"address[]"}],"stateMutability":"view"},{"type":"function","name":"isApprovedForAll","inputs":[{"name":"owner","type":"address","internalType":"address"},{"name":"operator","type":"address","internalType":"address"}],"outputs":[{"name":"","type":"bool","internalType":"bool"}],"stateMutability":"view"},{"type":"function","name":"mint","inputs":[{"name":"agentId","type":"uint256","internalType":"uint256"},{"name":"site","type":"address","internalType":"address"}],"outputs":[],"stateMutability":"payable"},{"type":"function","name":"mintPrice","inputs":[],"outputs":[{"name":"","type":"uint256","internalType":"uint256"}],"stateMutability":"view"},{"type":"function","name":"mintTo","inputs":[{"name":"to","type":"address","internalType":"address"},{"name":"agentId","type":"uint256","internalType":"uint256"},{"name":"site","type":"address","internalType":"address"}],"outputs":[],"stateMutability":"payable"},{"type":"function","name":"name","inputs":[],"outputs":[{"name":"","type":"string","internalType":"string"}],"stateMutability":"view"},{"type":"function","name":"nextTokenId","inputs":[],"outputs":[{"name":"","type":"uint256","internalType":"uint256"}],"stateMutability":"view"},{"type":"function","name":"owner","inputs":[],"outputs":[{"name":"","type":"address","internalType":"address"}],"stateMutability":"view"},{"type":"function","name":"ownerOf","inputs":[{"name":"tokenId","type":"uint256","internalType":"uint256"}],"outputs":[{"name":"","type":"address","internalType":"address"}],"stateMutability":"view"},{"type":"function","name":"renounceOwnership","inputs":[],"outputs":[],"stateMutability":"nonpayable"},{"type":"function","name":"royaltyInfo","inputs":[{"name":"tokenId","type":"uint256","internalType":"uint256"},{"name":"salePrice","type":"uint256","internalType":"uint256"}],"outputs":[{"name":"receiver","type":"address","internalType":"address"},{"name":"amount","type":"uint256","internalType":"uint256"}],"stateMutability":"view"},{"type":"function","name":"safeTransferFrom","inputs":[{"name":"from","type":"address","internalType":"address"},{"name":"to","type":"address","internalType":"address"},{"name":"tokenId","type":"uint256","internalType":"uint256"}],"outputs":[],"stateMutability":"nonpayable"},{"type":"function","name":"safeTransferFrom","inputs":[{"name":"from","type":"address","internalType":"address"},{"name":"to","type":"address","internalType":"address"},{"name":"tokenId","type":"uint256","internalType":"uint256"},{"name":"data","type":"bytes","internalType":"bytes"}],"outputs":[],"stateMutability":"nonpayable"},{"type":"function","name":"setApprovalForAll","inputs":[{"name":"operator","type":"address","internalType":"address"},{"name":"approved","type":"bool","internalType":"bool"}],"outputs":[],"stateMutability":"nonpayable"},{"type":"function","name":"setBaseURI","inputs":[{"name":"baseURI","type":"string","internalType":"string"}],"outputs":[],"stateMutability":"nonpayable"},{"type":"function","name":"setContractURI","inputs":[{"name":"uri","type":"string","internalType":"string"}],"outputs":[],"stateMutability":"nonpayable"},{"type":"function","name":"setDefaultRoyalty","inputs":[{"name":"receiver","type":"address","internalType":"address"},{"name":"feeBps","type":"uint96","internalType":"uint96"}],"outputs":[],"stateMutability":"nonpayable"},{"type":"function","name":"setFreeMints","inputs":[{"name":"count","type":"uint256","internalType":"uint256"}],"outputs":[],"stateMutability":"nonpayable"},{"type":"function","name":"setMintPrice","inputs":[{"name":"price","type":"uint256","internalType":"uint256"}],"outputs":[],"stateMutability":"nonpayable"},{"type":"function","name":"supportsInterface","inputs":[{"name":"interfaceId","type":"bytes4","internalType":"bytes4"}],"outputs":[{"name":"","type":"bool","internalType":"bool"}],"stateMutability":"view"},{"type":"function","name":"symbol","inputs":[],"outputs":[{"name":"","type":"string","internalType":"string"}],"stateMutability":"view"},{"type":"function","name":"tokenAgentId","inputs":[{"name":"","type":"uint256","internalType":"uint256"}],"outputs":[{"name":"","type":"uint256","internalType":"uint256"}],"stateMutability":"view"},{"type":"function","name":"tokenURI","inputs":[{"name":"tokenId","type":"uint256","internalType":"uint256"}],"outputs":[{"name":"","type":"string","internalType":"string"}],"stateMutability":"view"},{"type":"function","name":"transferFrom","inputs":[{"name":"from","type":"address","internalType":"address"},{"name":"to","type":"address","internalType":"address"},{"name":"tokenId","type":"uint256","internalType":"uint256"}],"outputs":[],"stateMutability":"nonpayable"},{"type":"function","name":"transferOwnership","inputs":[{"name":"newOwner","type":"address","internalType":"address"}],"outputs":[],"stateMutability":"nonpayable"},{"type":"function","name":"updatePFP","inputs":[{"name":"tokenId","type":"uint256","internalType":"uint256"},{"name":"newSite","type":"address","internalType":"address"}],"outputs":[],"stateMutability":"nonpayable"},{"type":"function","name":"withdraw","inputs":[],"outputs":[],"stateMutability":"nonpayable"},{"type":"event","name":"Approval","inputs":[{"name":"owner","type":"address","indexed":true,"internalType":"address"},{"name":"approved","type":"address","indexed":true,"internalType":"address"},{"name":"tokenId","type":"uint256","indexed":true,"internalType":"uint256"}],"anonymous":false},{"type":"event","name":"ApprovalForAll","inputs":[{"name":"owner","type":"address","indexed":true,"internalType":"address"},{"name":"operator","type":"address","indexed":true,"internalType":"address"},{"name":"approved","type":"bool","indexed":false,"internalType":"bool"}],"anonymous":false},{"type":"event","name":"BaseURIUpdated","inputs":[{"name":"newBaseURI","type":"string","indexed":false,"internalType":"string"}],"anonymous":false},{"type":"event","name":"ContractURIUpdated","inputs":[{"name":"newContractURI","type":"string","indexed":false,"internalType":"string"}],"anonymous":false},{"type":"event","name":"FreeMintUpdated","inputs":[{"name":"remaining","type":"uint256","indexed":false,"internalType":"uint256"}],"anonymous":false},{"type":"event","name":"MintPriceUpdated","inputs":[{"name":"newPrice","type":"uint256","indexed":false,"internalType":"uint256"}],"anonymous":false},{"type":"event","name":"OwnershipTransferred","inputs":[{"name":"previousOwner","type":"address","indexed":true,"internalType":"address"},{"name":"newOwner","type":"address","indexed":true,"internalType":"address"}],"anonymous":false},{"type":"event","name":"PFPMinted","inputs":[{"name":"tokenId","type":"uint256","indexed":true,"internalType":"uint256"},{"name":"agentId","type":"uint256","indexed":true,"internalType":"uint256"},{"name":"owner","type":"address","indexed":true,"internalType":"address"}],"anonymous":false},{"type":"event","name":"SiteLinked","inputs":[{"name":"tokenId","type":"uint256","indexed":true,"internalType":"uint256"},{"name":"site","type":"address","indexed":false,"internalType":"address"}],"anonymous":false},{"type":"event","name":"SiteUnlinked","inputs":[{"name":"tokenId","type":"uint256","indexed":true,"internalType":"uint256"},{"name":"site","type":"address","indexed":false,"internalType":"address"}],"anonymous":false},{"type":"event","name":"Transfer","inputs":[{"name":"from","type":"address","indexed":true,"internalType":"address"},{"name":"to","type":"address","indexed":true,"internalType":"address"},{"name":"tokenId","type":"uint256","indexed":true,"internalType":"uint256"}],"anonymous":false},{"type":"error","name":"ERC2981InvalidDefaultRoyalty","inputs":[{"name":"numerator","type":"uint256","internalType":"uint256"},{"name":"denominator","type":"uint256","internalType":"uint256"}]},{"type":"error","name":"ERC2981InvalidDefaultRoyaltyReceiver","inputs":[{"name":"receiver","type":"address","internalType":"address"}]},{"type":"error","name":"ERC2981InvalidTokenRoyalty","inputs":[{"name":"tokenId","type":"uint256","internalType":"uint256"},{"name":"numerator","type":"uint256","internalType":"uint256"},{"name":"denominator","type":"uint256","internalType":"uint256"}]},{"type":"error","name":"ERC2981InvalidTokenRoyaltyReceiver","inputs":[{"name":"tokenId","type":"uint256","internalType":"uint256"},{"name":"receiver","type":"address","internalType":"address"}]},{"type":"error","name":"ERC721IncorrectOwner","inputs":[{"name":"sender","type":"address","internalType":"address"},{"name":"tokenId","type":"uint256","internalType":"uint256"},{"name":"owner","type":"address","internalType":"address"}]},{"type":"error","name":"ERC721InsufficientApproval","inputs":[{"name":"operator","type":"address","internalType":"address"},{"name":"tokenId","type":"uint256","internalType":"uint256"}]},{"type":"error","name":"ERC721InvalidApprover","inputs":[{"name":"approver","type":"address","internalType":"address"}]},{"type":"error","name":"ERC721InvalidOperator","inputs":[{"name":"operator","type":"address","internalType":"address"}]},{"type":"error","name":"ERC721InvalidOwner","inputs":[{"name":"owner","type":"address","internalType":"address"}]},{"type":"error","name":"ERC721InvalidReceiver","inputs":[{"name":"receiver","type":"address","internalType":"address"}]},{"type":"error","name":"ERC721InvalidSender","inputs":[{"name":"sender","type":"address","internalType":"address"}]},{"type":"error","name":"ERC721NonexistentToken","inputs":[{"name":"tokenId","type":"uint256","internalType":"uint256"}]},{"type":"error","name":"OwnableInvalidOwner","inputs":[{"name":"owner","type":"address","internalType":"address"}]},{"type":"error","name":"OwnableUnauthorizedAccount","inputs":[{"name":"account","type":"address","internalType":"address"}]}],"bytecode":{"object":"0x6080604052346100335761001d61001461021b565b93929092610650565b610025610038565b613ccc610ab98239613ccc90f35b61003e565b60405190565b5f80fd5b601f801991011690565b634e487b7160e01b5f52604160045260245ffd5b9061006a90610042565b810190811060018060401b0382111761008257604052565b61004c565b9061009a610093610038565b9283610060565b565b5f80fd5b5f80fd5b60018060a01b031690565b6100b8906100a4565b90565b6100c4816100af565b036100cb57565b5f80fd5b905051906100dc826100bb565b565b5f80fd5b5f80fd5b60018060401b038111610102576100fe602091610042565b0190565b61004c565b90825f9392825e0152565b90929192610127610122826100e6565b610087565b938185526020850190828401116101435761014192610107565b565b6100e2565b9080601f830112156101665781602061016393519101610112565b90565b6100de565b60018060601b031690565b61017f8161016b565b0361018657565b5f80fd5b9050519061019782610176565b565b919060a083820312610216576101b1815f85016100cf565b92602081015160018060401b03811161021157826101d0918301610148565b92604082015160018060401b03811161020c576101f284610209928501610148565b9361020081606086016100cf565b9360800161018a565b90565b6100a0565b6100a0565b61009c565b6102396147858038038061022e81610087565b928339810190610199565b9091929394565b9061025261024d836100e6565b610087565b918252565b5f7f41474e5420504650730000000000000000000000000000000000000000000000910152565b6102886009610240565b9061029560208301610257565b565b61029f61027e565b90565b5f7f41474e5450465000000000000000000000000000000000000000000000000000910152565b6102d36007610240565b906102e0602083016102a2565b565b6102ea6102c9565b90565b5f1b90565b906102fe5f19916102ed565b9181191691161790565b90565b90565b90565b61032561032061032a92610308565b61030e565b61030b565b90565b90565b9061034561034061034c92610311565b61032d565b82546102f2565b9055565b90565b61036761036261036c92610350565b61030e565b61030b565b90565b9061038461037f61038b92610353565b61032d565b82546102f2565b9055565b90565b6103a66103a16103ab9261038f565b61030e565b61030b565b90565b906103c36103be6103ca92610392565b61032d565b82546102f2565b9055565b5190565b634e487b7160e01b5f52602260045260245ffd5b9060016002830492168015610406575b602083101461040157565b6103d2565b91607f16916103f6565b5f5260205f2090565b601f602091010490565b1b90565b9190600861044291029161043c5f1984610423565b92610423565b9181191691161790565b61046061045b6104659261030b565b61030e565b61030b565b90565b919061047e6104796104869361044c565b61032d565b908354610427565b9055565b5f90565b6104a09161049a61048a565b91610468565b565b5f5b8281106104b057505050565b806104bf5f600193850161048e565b016104a4565b9190601f81116104d5575b505050565b8181116104e2575b6104d0565b6104f76104f161051594610410565b91610419565b91602061050382610419565b911061051d575b8091019103906104a2565b5f80806104dd565b505f61050a565b1c90565b90610538905f1990600802610524565b191690565b8161054791610528565b906002021790565b90610559816103ce565b9060018060401b0382116106175761057b8261057585546103e6565b856104c5565b602090601f83116001146105af5791809161059e935f926105a3575b505061053d565b90555b565b90915001515f80610597565b601f198316916105be85610410565b925f5b8181106105ff575091600293918560019694106105e5575b505050020190556105a1565b6105f5910151601f841690610528565b90555f80806105d9565b919360206001819287870151815501950192016105c1565b61004c565b906106269161054f565b565b61063c6106376106419261038f565b61030e565b6100a4565b90565b61064d90610628565b90565b6106a6929161067561069f92969596610667610297565b61066f6102e2565b916106fd565b61068160016009610330565b61068d6064600a61036f565b6106985f600b6103ae565b600c61061c565b600d61061c565b816106c16106bb6106b65f610644565b6100af565b916100af565b036106cb575b5050565b6106d491610929565b5f806106c7565b6106e4906100af565b9052565b91906106fb905f602085019401906106db565b565b9161070791610759565b8061072261071c6107175f610644565b6100af565b916100af565b146107325761073090610a1d565b565b61075561073e5f610644565b5f918291631e4fbdf760e01b8352600483016106e8565b0390fd5b9061076391610765565b565b9061077361077a925f61061c565b600161061c565b565b61079061078b6107959261016b565b61030e565b61030b565b90565b6107a19061077c565b9052565b6107ae9061030b565b9052565b9160206107d39294936107cc60408201965f830190610798565b01906107a5565b565b6107df6040610087565b90565b906107ec906100af565b9052565b906107fa9061016b565b9052565b61080890516100af565b90565b9061081c60018060a01b03916102ed565b9181191691161790565b61083a61083561083f926100a4565b61030e565b6100a4565b90565b61084b90610826565b90565b61085790610842565b90565b90565b9061087261086d6108799261084e565b61085a565b825461080b565b9055565b610887905161016b565b90565b60a01b90565b906108a260018060a01b03199161088a565b9181191691161790565b6108c06108bb6108c59261016b565b61030e565b61016b565b90565b90565b906108e06108db6108e7926108ac565b6108c8565b8254610890565b9055565b9061091560205f61091b9461090d8282016109078488016107fe565b9061085d565b01920161087d565b906108cb565b565b90610927916108eb565b565b9061093a610935610aa1565b61077c565b8161094d6109478361030b565b9161077c565b116109c857508161096e6109686109635f610644565b6100af565b916100af565b146109a15761099861099f929161098f6109866107d5565b935f85016107e2565b602083016107f0565b600661091d565b565b6109c46109ad5f610644565b5f918291635b6cc80560e11b8352600483016106e8565b0390fd5b906109e35f928392636f483d0960e01b8452600484016107b2565b0390fd5b5f1c90565b60018060a01b031690565b610a03610a08916109e7565b6109ec565b90565b610a1590546109f7565b90565b5f0190565b610a276008610a0b565b610a3282600861085d565b90610a66610a607f8be0079c531659141344cd1fd0a4f28419497f9722a3daafe3b4186f6b6457e09361084e565b9161084e565b91610a6f610038565b80610a7981610a18565b0390a3565b5f90565b90565b610a99610a94610a9e92610a82565b61030e565b61016b565b90565b610aa9610a7e565b50610ab5612710610a85565b9056fe60806040526004361015610013575b611026565b61001d5f3561023c565b806301ffc9a71461023757806304634d8d1461023257806306fdde031461022d578063081812fc14610228578063095ea7b3146102235780630e98302f1461021e57806323b872dd146102195780632a55205a1461021457806333693a271461020f5780633ccfd60b1461020a57806342842e0e14610205578063438b1b4b1461020057806355f804b3146101fb5780636352211e146101f65780636817c76c146101f157806370a08231146101ec578063715018a6146101e757806375794a3c146101e257806380b17335146101dd5780638da5cb5b146101d85780638df459c9146101d3578063938e3d7b146101ce57806394bf804d146101c957806395d89b41146101c4578063a22cb465146101bf578063b88d4fde146101ba578063c87b56dd146101b5578063d7db9144146101b0578063e7db8fb0146101ab578063e8a3d485146101a6578063e985e9c5146101a1578063f2fde38b1461019c578063f4a0a528146101975763f90308610361000e57610ff1565b610f1f565b610eec565b610eb6565b610e54565b610e21565b610ded565b610db8565b610d81565b610c11565b610b8c565b610b62565b610b2e565b610af9565b610aab565b610a76565b610a32565b6109f0565b6109bb565b610968565b610924565b6108f0565b610845565b6107d7565b6107a4565b61076f565b6106a8565b610617565b6105a9565b610548565b6104e6565b61044b565b61039d565b6102c8565b60e01c90565b60405190565b5f80fd5b5f80fd5b5f80fd5b63ffffffff60e01b1690565b61026981610254565b0361027057565b5f80fd5b9050359061028182610260565b565b9060208282031261029c57610299915f01610274565b90565b61024c565b151590565b6102af906102a1565b9052565b91906102c6905f602085019401906102a6565b565b346102f8576102f46102e36102de366004610283565b61102e565b6102eb610242565b918291826102b3565b0390f35b610248565b60018060a01b031690565b610311906102fd565b90565b61031d81610308565b0361032457565b5f80fd5b9050359061033582610314565b565b6bffffffffffffffffffffffff1690565b61035181610337565b0361035857565b5f80fd5b9050359061036982610348565b565b91906040838203126103935780610387610390925f8601610328565b9360200161035c565b90565b61024c565b5f0190565b346103cc576103b66103b036600461036b565b90611063565b6103be610242565b806103c881610398565b0390f35b610248565b5f9103126103db57565b61024c565b5190565b60209181520190565b90825f9392825e0152565b601f801991011690565b61042161042a60209361042f93610418816103e0565b938480936103e4565b958691016103ed565b6103f8565b0190565b6104489160208201915f818403910152610402565b90565b3461047b5761045b3660046103d1565b61047761046661118b565b61046e610242565b91829182610433565b0390f35b610248565b90565b61048c81610480565b0361049357565b5f80fd5b905035906104a482610483565b565b906020828203126104bf576104bc915f01610497565b90565b61024c565b6104cd90610308565b9052565b91906104e4905f602085019401906104c4565b565b34610516576105126105016104fc3660046104a6565b6111a4565b610509610242565b918291826104d1565b0390f35b610248565b91906040838203126105435780610537610540925f8601610328565b93602001610497565b90565b61024c565b346105775761056161055b36600461051b565b906111c3565b610569610242565b8061057381610398565b0390f35b610248565b91906040838203126105a457806105986105a1925f8601610497565b93602001610328565b90565b61024c565b346105d8576105c26105bc36600461057c565b90611426565b6105ca610242565b806105d481610398565b0390f35b610248565b90916060828403126106125761060f6105f8845f8501610328565b936106068160208601610328565b93604001610497565b90565b61024c565b346106465761063061062a3660046105dd565b91611503565b610638610242565b8061064281610398565b0390f35b610248565b91906040838203126106735780610667610670925f8601610497565b93602001610497565b90565b61024c565b61068190610480565b9052565b9160206106a692949361069f60408201965f8301906104c4565b0190610678565b565b346106da576106c16106bb36600461064b565b906116bf565b906106d66106cd610242565b92839283610685565b0390f35b610248565b90565b6106f66106f16106fb92610480565b6106df565b610480565b90565b90610708906106e2565b5f5260205260405f2090565b1c90565b90565b61072b9060086107309302610714565b610718565b90565b9061073e915461071b565b90565b61075790610752600f915f926106fe565b610733565b90565b919061076d905f60208501940190610678565b565b3461079f5761079b61078a6107853660046104a6565b610741565b610792610242565b9182918261075a565b0390f35b610248565b346107d2576107b43660046103d1565b6107bc6118c2565b6107c4610242565b806107ce81610398565b0390f35b610248565b34610806576107f06107ea3660046105dd565b9161191d565b6107f8610242565b8061080281610398565b0390f35b610248565b90916060828403126108405761083d610826845f8501610328565b936108348160208601610497565b93604001610328565b90565b61024c565b61085961085336600461080b565b91611b6c565b610861610242565b8061086b81610398565b0390f35b5f80fd5b5f80fd5b5f80fd5b909182601f830112156108b55781359167ffffffffffffffff83116108b05760200192600183028401116108ab57565b610877565b610873565b61086f565b906020828203126108eb575f82013567ffffffffffffffff81116108e6576108e2920161087b565b9091565b610250565b61024c565b3461091f576109096109033660046108ba565b90611ff5565b610911610242565b8061091b81610398565b0390f35b610248565b346109545761095061093f61093a3660046104a6565b612001565b610947610242565b918291826104d1565b0390f35b610248565b610965600b5f90610733565b90565b34610998576109783660046103d1565b610994610983610959565b61098b610242565b9182918261075a565b0390f35b610248565b906020828203126109b6576109b3915f01610328565b90565b61024c565b346109eb576109e76109d66109d136600461099d565b61202c565b6109de610242565b9182918261075a565b0390f35b610248565b34610a1e57610a003660046103d1565b610a086120b7565b610a10610242565b80610a1a81610398565b0390f35b610248565b610a2f60095f90610733565b90565b34610a6257610a423660046103d1565b610a5e610a4d610a23565b610a55610242565b9182918261075a565b0390f35b610248565b610a73600a5f90610733565b90565b34610aa657610a863660046103d1565b610aa2610a91610a67565b610a99610242565b9182918261075a565b0390f35b610248565b34610adb57610abb3660046103d1565b610ad7610ac66120c1565b610ace610242565b918291826104d1565b0390f35b610248565b610af690610af16010915f926106fe565b610733565b90565b34610b2957610b25610b14610b0f3660046104a6565b610ae0565b610b1c610242565b9182918261075a565b0390f35b610248565b34610b5d57610b47610b413660046108ba565b90612134565b610b4f610242565b80610b5981610398565b0390f35b610248565b610b76610b7036600461057c565b90612140565b610b7e610242565b80610b8881610398565b0390f35b34610bbc57610b9c3660046103d1565b610bb8610ba761230a565b610baf610242565b91829182610433565b0390f35b610248565b610bca816102a1565b03610bd157565b5f80fd5b90503590610be282610bc1565b565b9190604083820312610c0c5780610c00610c09925f8601610328565b93602001610bd5565b90565b61024c565b34610c4057610c2a610c24366004610be4565b90612320565b610c32610242565b80610c3c81610398565b0390f35b610248565b5f80fd5b634e487b7160e01b5f52604160045260245ffd5b90610c67906103f8565b810190811067ffffffffffffffff821117610c8157604052565b610c49565b90610c99610c92610242565b9283610c5d565b565b67ffffffffffffffff8111610cb957610cb56020916103f8565b0190565b610c49565b90825f939282370152565b90929192610cde610cd982610c9b565b610c86565b93818552602085019082840111610cfa57610cf892610cbe565b565b610c45565b9080601f83011215610d1d57816020610d1a93359101610cc9565b90565b61086f565b90608082820312610d7c57610d39815f8401610328565b92610d478260208501610328565b92610d558360408301610497565b92606082013567ffffffffffffffff8111610d7757610d749201610cff565b90565b610250565b61024c565b34610db357610d9d610d94366004610d22565b92919091612336565b610da5610242565b80610daf81610398565b0390f35b610248565b34610de857610de4610dd3610dce3660046104a6565b6124c7565b610ddb610242565b91829182610433565b0390f35b610248565b34610e1c57610e06610e0036600461057c565b90612693565b610e0e610242565b80610e1881610398565b0390f35b610248565b34610e4f57610e39610e343660046104a6565b612855565b610e41610242565b80610e4b81610398565b0390f35b610248565b34610e8457610e643660046103d1565b610e80610e6f612860565b610e77610242565b91829182610433565b0390f35b610248565b9190604083820312610eb15780610ea5610eae925f8601610328565b93602001610328565b90565b61024c565b34610ee757610ee3610ed2610ecc366004610e89565b906128c9565b610eda610242565b918291826102b3565b0390f35b610248565b34610f1a57610f04610eff36600461099d565b612956565b610f0c610242565b80610f1681610398565b0390f35b610248565b34610f4d57610f37610f323660046104a6565b6129ba565b610f3f610242565b80610f4981610398565b0390f35b610248565b5190565b60209181520190565b60200190565b610f6e90610308565b9052565b90610f7f81602093610f65565b0190565b60200190565b90610fa6610fa0610f9984610f52565b8093610f56565b92610f5f565b905f5b818110610fb65750505090565b909192610fcf610fc96001928651610f72565b94610f83565b9101919091610fa9565b610fee9160208201915f818403910152610f89565b90565b346110215761101d61100c6110073660046104a6565b612a78565b611014610242565b91829182610fd9565b0390f35b610248565b5f80fd5b5f90565b6110409061103a61102a565b50612ae2565b90565b9061105591611050612b22565b611057565b565b9061106191612cc5565b565b9061106d91611043565b565b606090565b634e487b7160e01b5f52602260045260245ffd5b90600160028304921680156110a8575b60208310146110a357565b611074565b91607f1691611098565b60209181520190565b5f5260205f2090565b905f92918054906110de6110d783611088565b80946110b2565b916001811690815f1461113557506001146110f9575b505050565b61110691929394506110bb565b915f925b81841061111d57505001905f80806110f4565b6001816020929593955484860152019101929061110a565b92949550505060ff19168252151560200201905f80806110f4565b9061115a916110c4565b90565b9061117d6111769261116d610242565b93848092611150565b0383610c5d565b565b6111889061115d565b90565b61119361106f565b5061119d5f61117f565b90565b5f90565b6111c0906111b06111a0565b506111ba81612d83565b50612def565b90565b906111d791906111d1612e0e565b91612e1b565b565b5f7f4e6f7420746f6b656e206f776e65720000000000000000000000000000000000910152565b61120d600f6020926103e4565b611216816111d9565b0190565b61122f9060208101905f818303910152611200565b90565b1561123957565b611241610242565b62461bcd60e51b8152806112576004820161121a565b0390fd5b90565b61127261126d6112779261125b565b6106df565b6102fd565b90565b6112839061125e565b90565b5f7f496e76616c696420736974652061646472657373000000000000000000000000910152565b6112ba60146020926103e4565b6112c381611286565b0190565b6112dc9060208101905f8183039101526112ad565b90565b156112e657565b6112ee610242565b62461bcd60e51b815280611304600482016112c7565b0390fd5b90611312906106e2565b5f5260205260405f2090565b90565b5f5260205f2090565b634e487b7160e01b5f52603260045260245ffd5b5490565b61134b8161133e565b8210156113655761135d600191611321565b910201905f90565b61132a565b1b90565b9190600861138e91029161138860018060a01b038461136a565b9261136a565b9181191691161790565b6113ac6113a76113b1926102fd565b6106df565b6102fd565b90565b6113bd90611398565b90565b6113c9906113b4565b90565b90565b91906113e56113e06113ed936113c0565b6113cc565b90835461136e565b9055565b9081549168010000000000000000831015611421578261141991600161141f95018155611342565b906113cf565b565b610c49565b61144a61143282612001565b61144461143e33610308565b91610308565b14611232565b61146f8261146861146261145d5f61127a565b610308565b91610308565b14156112df565b61148d611486611481600e8490611308565b61131e565b83906113f1565b6114cc6114ba7fa1845a21d5cfa0c571f3ee93ebe46c671e48722f684a16635bcdab38ede3ef18926106e2565b926114c3610242565b918291826104d1565b0390a2565b6040906114fa61150194969593966114f060608401985f8501906104c4565b6020830190610678565b01906104c4565b565b91908061152061151a6115155f61127a565b610308565b91610308565b14611577576115389082611532612e0e565b91612e66565b918261154c61154683610308565b91610308565b0361155657505050565b6115739091925f9384936364283d7b60e01b8552600485016114d1565b0390fd5b61159a6115835f61127a565b5f918291633250574960e11b8352600483016104d1565b0390fd5b5f90565b906115ac906106e2565b5f5260205260405f2090565b90565b5f1c90565b60018060a01b031690565b6115d76115dc916115bb565b6115c0565b90565b6115e990546115cb565b90565b60a01c90565b6bffffffffffffffffffffffff1690565b61160f611614916115ec565b6115f2565b90565b6116219054611603565b90565b61163861163361163d92610337565b6106df565b610480565b90565b634e487b7160e01b5f52601160045260245ffd5b61166361166991939293610480565b92610480565b91611675838202610480565b92818404149015171561168457565b611640565b634e487b7160e01b5f52601260045260245ffd5b6116a96116af91610480565b91610480565b9081156116ba570490565b611689565b6116e26116e7919392936116d16111a0565b506116da61159e565b5060076115a2565b6115b8565b916116fe5f6116f78186016115df565b9401611617565b908361171a61171461170f5f61127a565b610308565b91610308565b14611750575b61174d916117316117379291611624565b90611654565b61174761174261300a565b611624565b9061169d565b90565b92505061174d6117376117655f6006016115df565b936117316117755f600601611617565b9350509050611720565b611787612b22565b61178f611884565b565b61179a906113b4565b90565b905090565b6117ad5f809261179d565b0190565b6117ba906117a2565b90565b906117cf6117ca83610c9b565b610c86565b918252565b606090565b3d5f146117f4576117e93d6117bd565b903d5f602084013e5b565b6117fc6117d4565b906117f2565b5f7f5769746864726177206661696c65640000000000000000000000000000000000910152565b611836600f6020926103e4565b61183f81611802565b0190565b6118589060208101905f818303910152611829565b90565b1561186257565b61186a610242565b62461bcd60e51b81528061188060048201611843565b0390fd5b6118c05f806118916120c1565b61189a30611791565b316118a3610242565b90816118ae816117b1565b03925af16118ba6117d9565b5061185b565b565b6118ca61177f565b565b67ffffffffffffffff81116118ea576118e66020916103f8565b0190565b610c49565b906119016118fc836118cc565b610c86565b918252565b61190f5f6118ef565b90565b61191a611906565b90565b91611931929161192b611912565b92612336565b565b61193f611944916115bb565b610718565b90565b6119519054611933565b90565b61196861196361196d9261125b565b6106df565b610480565b90565b5f7f4167656e7420616c726561647920686173206120504650000000000000000000910152565b6119a460176020926103e4565b6119ad81611970565b0190565b6119c69060208101905f818303910152611997565b90565b156119d057565b6119d8610242565b62461bcd60e51b8152806119ee600482016119b1565b0390fd5b5f7f496e76616c696420726563697069656e74000000000000000000000000000000910152565b611a2660116020926103e4565b611a2f816119f2565b0190565b611a489060208101905f818303910152611a19565b90565b15611a5257565b611a5a610242565b62461bcd60e51b815280611a7060048201611a33565b0390fd5b5f7f496e73756666696369656e74207061796d656e74000000000000000000000000910152565b611aa860146020926103e4565b611ab181611a74565b0190565b611aca9060208101905f818303910152611a9b565b90565b15611ad457565b611adc610242565b62461bcd60e51b815280611af260048201611ab5565b0390fd5b611aff90610480565b5f8114611b0d576001900390565b611640565b5f1b90565b90611b235f1991611b12565b9181191691161790565b90565b90611b45611b40611b4c926106e2565b611b2d565b8254611b17565b9055565b611b5990610480565b5f198114611b675760010190565b611640565b90611b9c611b84611b7f600f84906106fe565b611947565b611b96611b905f611954565b91610480565b146119c9565b611bc183611bba611bb4611baf5f61127a565b610308565b91610308565b14156112df565b611be682611bdf611bd9611bd45f61127a565b610308565b91610308565b1415611a4b565b611bf0600a611947565b611c02611bfc5f611954565b91610480565b115f14611d2f57611c25611c1e611c19600a611947565b611af6565b600a611b30565b5b611c306009611947565b611c43611c3c82611b50565b6009611b30565b91611c4f818490613021565b611c6d611c66611c61600e8690611308565b61131e565b85906113f1565b611c8283611c7d600f85906106fe565b611b30565b611c9782611c92601086906106fe565b611b30565b8291611cd5611ccf611cc97f3a07676e7e8bae14bf508604aa7d77606304069625fc40b87a9f3f4981a232fc956106e2565b926106e2565b926113c0565b92611cde610242565b80611ce881610398565b0390a4611d2a611d187fa1845a21d5cfa0c571f3ee93ebe46c671e48722f684a16635bcdab38ede3ef18926106e2565b92611d21610242565b918291826104d1565b0390a2565b611d5534611d4e611d48611d43600b611947565b610480565b91610480565b1015611acd565b611c26565b90611d6c91611d67612b22565b611fac565b565b634e487b7160e01b5f525f60045260245ffd5b5090565b601f602091010490565b91906008611daa910291611da45f198461136a565b9261136a565b9181191691161790565b9190611dca611dc5611dd2936106e2565b611b2d565b908354611d8f565b9055565b611de891611de261159e565b91611db4565b565b5f5b828110611df857505050565b80611e075f6001938501611dd6565b01611dec565b9190601f8111611e1d575b505050565b818111611e2a575b611e18565b611e3f611e39611e5d946110bb565b91611d85565b916020611e4b82611d85565b9110611e65575b809101910390611dea565b5f8080611e25565b505f611e52565b90611e7c905f1990600802610714565b191690565b81611e8b91611e6c565b906002021790565b91611e9e9082611d81565b9067ffffffffffffffff8211611f5d57611ec282611ebc8554611088565b85611e0d565b5f90601f8311600114611ef557918091611ee4935f92611ee9575b5050611e81565b90555b565b90915001355f80611edd565b601f19831691611f04856110bb565b925f5b818110611f4557509160029391856001969410611f2b575b50505002019055611ee7565b611f3b910135601f841690611e6c565b90555f8080611f1f565b91936020600181928787013581550195019201611f07565b610c49565b90611f6d9291611e93565b565b9190611f8981611f8281611f8e956103e4565b8095610cbe565b6103f8565b0190565b9091611fa99260208301925f818503910152611f6f565b90565b611fb9818390600c611f62565b907f6741b2fc379fad678116fe3d4d4b9a1a184ab53ba36b86ad0fa66340b1ab41ad91611ff0611fe7610242565b92839283611f92565b0390a1565b90611fff91611d5a565b565b6120139061200d6111a0565b50612d83565b90565b90612020906113c0565b5f5260205260405f2090565b61203461159e565b508061205061204a6120455f61127a565b610308565b91610308565b1461206b57612063612068916003612016565b611947565b90565b61208e6120775f61127a565b5f9182916322718ad960e21b8352600483016104d1565b0390fd5b61209a612b22565b6120a26120a4565b565b6120b56120b05f61127a565b613037565b565b6120bf612092565b565b6120c96111a0565b506120d460086115df565b90565b906120e9916120e4612b22565b6120eb565b565b6120f8818390600d611f62565b907f905d981207a7d0b6c62cc46ab0be2a076d0298e4a86d0ab79882dbd01ac373789161212f612126610242565b92839283611f92565b0390a1565b9061213e916120d7565b565b61216f612157612152600f84906106fe565b611947565b6121696121635f611954565b91610480565b146119c9565b6121948261218d6121876121825f61127a565b610308565b91610308565b14156112df565b61219e600a611947565b6121b06121aa5f611954565b91610480565b115f146122df576121d36121cc6121c7600a611947565b611af6565b600a611b30565b5b6121de6009611947565b6121f16121ea82611b50565b6009611b30565b906121fd338390613021565b61221b61221461220f600e8590611308565b61131e565b84906113f1565b6122308261222b600f84906106fe565b611b30565b61224581612240601085906106fe565b611b30565b8190339061228561227f6122797f3a07676e7e8bae14bf508604aa7d77606304069625fc40b87a9f3f4981a232fc956106e2565b926106e2565b926113c0565b9261228e610242565b8061229881610398565b0390a46122da6122c87fa1845a21d5cfa0c571f3ee93ebe46c671e48722f684a16635bcdab38ede3ef18926106e2565b926122d1610242565b918291826104d1565b0390a2565b612305346122fe6122f86122f3600b611947565b610480565b91610480565b1015611acd565b6121d4565b61231261106f565b5061231d600161117f565b90565b6123349161232c612e0e565b9190916130dd565b565b9161235a939161234884828491611503565b612350612e0e565b9390919293613266565b565b5f7f546f6b656e20646f6573206e6f74206578697374000000000000000000000000910152565b61239060146020926103e4565b6123998161235c565b0190565b6123b29060208101905f818303910152612383565b90565b156123bc57565b6123c4610242565b62461bcd60e51b8152806123da6004820161239d565b0390fd5b90565b6123eb9054611088565b90565b6123f6611906565b90565b905090565b905f929180549061241861241183611088565b80946123f9565b916001811690815f1461246a5750600114612433575b505050565b61244091929394506110bb565b5f905b83821061245657505001905f808061242e565b600181602092548486015201910190612443565b92949550505060ff191682528015150201905f808061242e565b6124a96124a092602092612497816103e0565b948580936123f9565b938491016103ed565b0190565b6124bb906124c193926123fe565b90612484565b90565b90565b6124cf61106f565b50806124e36124dd5f611954565b91610480565b1180612569575b6124f3906123b5565b612505612500600c6123de565b6123e1565b6125176125115f611954565b91610480565b1461255d5761255a9061255561252e600c92613436565b9161254661253a610242565b938492602084016124ad565b60208201810382520382610c5d565b6124c4565b90565b506125666123ee565b90565b506124f38161258961258361257e6009611947565b610480565b91610480565b1090506124ea565b600161259d9101610480565b90565b6125b09060086125b59302610714565b6115c0565b90565b906125c391546125a0565b90565b5490565b600190818003010490565b5f5260205f2090565b5f5b8281106125ec57505050565b806125fb5f6001938501611dd6565b016125e0565b9190808210612610575b505050565b61263a92612629612623612631936125ca565b936125ca565b9182916125d5565b019103906125de565b5f808061260b565b9068010000000000000000811161266b5781612660612669936125c6565b90828155612601565b565b610c49565b5f61267a91612642565b565b905f0361268e5761268c90612670565b565b611d6e565b6126b761269f82612001565b6126b16126ab33610308565b91610308565b14611232565b6126dc826126d56126cf6126ca5f61127a565b610308565b91610308565b14156112df565b6126f06126eb600e8390611308565b61131e565b926126fa5f611954565b5b8061271661271061270b8861133e565b610480565b91610480565b10156127825761277d908361273561272f888490611342565b906125b8565b906127756127637f8aff2485e2dd68dd6365746f9a892862a65a0dd5c28de8bead25baab7672a09a926106e2565b9261276c610242565b918291826104d1565b0390a2612591565b6126fb565b50925061279a5f612795600e8490611308565b61267c565b6127b86127b16127ac600e8490611308565b61131e565b83906113f1565b6127f76127e57fa1845a21d5cfa0c571f3ee93ebe46c671e48722f684a16635bcdab38ede3ef18926106e2565b926127ee610242565b918291826104d1565b0390a2565b61280d90612808612b22565b61280f565b565b61281a81600a611b30565b6128507ff1fce28386f46827a9c6ee50a6a18876e91946000ae2db5a10537b1422d63fe291612847610242565b9182918261075a565b0390a1565b61285e906127fc565b565b61286861106f565b50612873600d61117f565b90565b90612880906113c0565b5f5260205260405f2090565b90612896906113c0565b5f5260205260405f2090565b60ff1690565b6128b46128b9916115bb565b6128a2565b90565b6128c690546128a8565b90565b6128ee916128e46128e9926128dc61102a565b506005612876565b61288c565b6128bc565b90565b612902906128fd612b22565b612904565b565b8061291f6129196129145f61127a565b610308565b91610308565b1461292f5761292d90613037565b565b61295261293b5f61127a565b5f918291631e4fbdf760e01b8352600483016104d1565b0390fd5b61295f906128f1565b565b6129729061296d612b22565b612974565b565b61297f81600b611b30565b6129b57f525b762709cc2a983aec5ccdfd807a061f993c91090b5bcd7da92ca254976aaa916129ac610242565b9182918261075a565b0390a1565b6129c390612961565b565b606090565b60209181520190565b6129dd90546115cb565b90565b60010190565b90612a036129fd6129f6846125c6565b80936129ca565b926125d5565b905f5b818110612a135750505090565b909192612a33612a2d600192612a28876129d3565b610f72565b946129e0565b9101919091612a06565b90612a47916129e6565b90565b90612a6a612a6392612a5a610242565b93848092612a3d565b0383610c5d565b565b612a7590612a4a565b90565b612ab2612ab791612a876129c5565b5080612a9b612a955f611954565b91610480565b1180612aba575b612aab906123b5565b600e611308565b612a6c565b90565b50612aab81612ada612ad4612acf6009611947565b610480565b91610480565b109050612aa2565b612aea61102a565b5080612b05612aff63152a902d60e11b610254565b91610254565b14908115612b12575b5090565b612b1c91506134df565b5f612b0e565b612b2a6120c1565b612b43612b3d612b38612e0e565b610308565b91610308565b03612b4a57565b612b6c612b55612e0e565b5f91829163118cdaa760e01b8352600483016104d1565b0390fd5b612b7990611624565b9052565b916020612b9e929493612b9760408201965f830190612b70565b0190610678565b565b612baa6040610c86565b90565b90612bb790610308565b9052565b90612bc590610337565b9052565b612bd39051610308565b90565b90612be760018060a01b0391611b12565b9181191691161790565b90612c06612c01612c0d926113c0565b6113cc565b8254612bd6565b9055565b612c1b9051610337565b90565b60a01b90565b90612c3e6bffffffffffffffffffffffff60a01b91612c1e565b9181191691161790565b612c5c612c57612c6192610337565b6106df565b610337565b90565b90565b90612c7c612c77612c8392612c48565b612c64565b8254612c24565b9055565b90612cb160205f612cb794612ca9828201612ca3848801612bc9565b90612bf1565b019201612c11565b90612c67565b565b90612cc391612c87565b565b90612cd6612cd161300a565b611624565b81612ce9612ce383610480565b91611624565b11612d64575081612d0a612d04612cff5f61127a565b610308565b91610308565b14612d3d57612d34612d3b9291612d2b612d22612ba0565b935f8501612bad565b60208301612bbb565b6006612cb9565b565b612d60612d495f61127a565b5f918291635b6cc80560e11b8352600483016104d1565b0390fd5b90612d7f5f928392636f483d0960e01b845260048401612b7d565b0390fd5b612d8b6111a0565b50612d9581613547565b9081612db1612dab612da65f61127a565b610308565b91610308565b14612dba575090565b612dd5905f918291637e27328960e01b83526004830161075a565b0390fd5b90612de3906106e2565b5f5260205260405f2090565b612e06612e0b91612dfe6111a0565b506004612dd9565b6115df565b90565b612e166111a0565b503390565b91612e299291600192613566565b565b90565b612e42612e3d612e4792612e2b565b6106df565b610480565b90565b90612e559103610480565b90565b90612e639101610480565b90565b90612e6f6111a0565b50612e7981613547565b9280612e95612e8f612e8a5f61127a565b610308565b91610308565b03612fd4575b5082612eb7612eb1612eac5f61127a565b610308565b91610308565b03612f80575b81612ed8612ed2612ecd5f61127a565b610308565b91610308565b03612f4a575b612ef382612eee60028490612dd9565b612bf1565b8291612f31612f2b612f257fddf252ad1be2c89b69c2b068fc378daa952ba7f163c4a11628f55a4df523b3ef956113c0565b926113c0565b926106e2565b92612f3a610242565b80612f4481610398565b0390a490565b612f7b612f576001612e2e565b612f75612f6660038690612016565b91612f7083611947565b612e58565b90611b30565b612ede565b612f9e612f8c5f61127a565b82612f965f61127a565b905f92613566565b612fcf612fab6001612e2e565b612fc9612fba60038790612016565b91612fc483611947565b612e4a565b90611b30565b612ebd565b612fe190849083916136b0565b5f612e9b565b5f90565b90565b613002612ffd61300792612feb565b6106df565b610337565b90565b613012612fe7565b5061301e612710612fee565b90565b90613035919061302f611912565b9161372c565b565b61304160086115df565b61304c826008612bf1565b9061308061307a7f8be0079c531659141344cd1fd0a4f28419497f9722a3daafe3b4186f6b6457e0936113c0565b916113c0565b91613089610242565b8061309381610398565b0390a3565b906130a460ff91611b12565b9181191691161790565b6130b7906102a1565b90565b90565b906130d26130cd6130d9926130ae565b6130ba565b8254613098565b9055565b919091826130fb6130f56130f05f61127a565b610308565b91610308565b1461316f5761311f8261311a61311360058590612876565b869061288c565b6130bd565b91909161316a6131586131527f17307eab39ab6107e8899845ad3d59bd9653f200f220920489ca2b5937696c31936113c0565b936113c0565b93613161610242565b918291826102b3565b0390a3565b61318a835f918291630b61174360e31b8352600483016104d1565b0390fd5b61319790611398565b90565b6131a39061318e565b90565b6131af906113b4565b90565b60e01b90565b905051906131c582610260565b565b906020828203126131e0576131dd915f016131b8565b90565b61024c565b5190565b60209181520190565b61321161321a60209361321f93613208816131e5565b938480936131e9565b958691016103ed565b6103f8565b0190565b90926132569061324c613263969461324260808601975f8701906104c4565b60208501906104c4565b6040830190610678565b60608184039101526131f2565b90565b9193843b61327c6132765f611954565b91610480565b11613289575b5050505050565b6132c15f6020946132cc6132a461329f8a61319a565b6131a6565b9463150b7a029296986132b5610242565b998a98899788966131b2565b865260048601613223565b03925af180915f9261338a575b50155f14613347575060016132f457505b5f80808080613282565b6132fc6117d9565b90613306826131e5565b6133186133125f611954565b91610480565b145f1461333e5761333a905f918291633250574960e11b8352600483016104d1565b0390fd5b50602081519101fd5b61336061335a630a85bd0160e11b610254565b91610254565b0361336b57506132ea565b613386905f918291633250574960e11b8352600483016104d1565b0390fd5b6133ac91925060203d81116133b3575b6133a48183610c5d565b8101906131c7565b905f6132d9565b503d61339a565b369037565b906133e46133cc836118ef565b926020806133da86936118cc565b92019103906133ba565b565b60016133f29103610480565b90565b90565b61340c613407613411926133f5565b6106df565b610480565b90565b61342061342691610480565b91610480565b908115613431570490565b611689565b61343e61106f565b5061345b61344b826138cb565b6134556001612e2e565b90612e58565b90613465826133bf565b9161346e61159e565b5060208301015b6001156134d8576134886134b4916133e6565b916f181899199a1a9b1b9c1cb0b131b232b360811b600a82061a83536134ae600a6133f8565b90613414565b806134c76134c15f611954565b91610480565b146134d25790613475565b50505b90565b50506134d5565b6134e761102a565b50806135026134fc6380ac58cd60e01b610254565b91610254565b148015613526575b908115613516575b5090565b6135209150613b2c565b5f613512565b508061354161353b635b5e139f60e01b610254565b91610254565b1461350a565b61355e613563916135566111a0565b506002612dd9565b6115df565b90565b91909280801561368d575b61358f575b50509061358861358d92916004612dd9565b612bf1565b565b61359884612d83565b91806135b46135ae6135a95f61127a565b610308565b91610308565b141580613672575b80613658575b6136395750916135889161358d94936135de575b509192613576565b81849061361d6136176136117f8c5be1e5ebec7d5bd14f71427d1e84f3dd0314c0f7b2291e5b200ac8c7c3b925956113c0565b926113c0565b926106e2565b92613626610242565b8061363081610398565b0390a45f6135d6565b613654905f91829163a9fbf51f60e01b8352600483016104d1565b0390fd5b5061366d6136678483906128c9565b156102a1565b6135c2565b508261368661368083610308565b91610308565b14156135bc565b50816136a96136a361369e5f61127a565b610308565b91610308565b1415613571565b6136c56136bf82848691613b52565b156102a1565b6136ce57505050565b6136e86136e26136dd5f61127a565b610308565b91610308565b145f1461370e5761370a825f918291637e27328960e01b83526004830161075a565b0390fd5b6137285f92839263177e802f60e01b845260048401610685565b0390fd5b90916137589261373d838290613bf2565b613745612e0e565b9261374f5f61127a565b90919293613266565b565b90565b61377161376c6137769261375a565b6106df565b610480565b90565b90565b61379061378b61379592613779565b6106df565b610480565b90565b90565b6137af6137aa6137b492613798565b6106df565b610480565b90565b90565b6137ce6137c96137d3926137b7565b6106df565b610480565b90565b90565b6137ed6137e86137f2926137d6565b6106df565b610480565b90565b90565b61380c613807613811926137f5565b6106df565b610480565b90565b90565b61382b61382661383092613814565b6106df565b610480565b90565b90565b61384a61384561384f92613833565b6106df565b610480565b90565b61386661386161386b92612feb565b6106df565b610480565b90565b90565b61388561388061388a9261386e565b6106df565b610480565b90565b90565b6138a461389f6138a99261388d565b6106df565b610480565b90565b90565b6138c36138be6138c8926138ac565b6106df565b610480565b90565b6138d361159e565b506138dd5f611954565b908061390c6139067a184f03e93ff9f4daa797ed6e38ed64bf6a1f01000000000000000061375d565b91610480565b1015613ae4575b8061393461392e6d04ee2d6d415b85acef810000000061379b565b91610480565b1015613aa9575b8061395561394f662386f26fc100006137d9565b91610480565b1015613a75575b8061397361396d6305f5e100613817565b91610480565b1015613a44575b8061398f613989612710613852565b91610480565b1015613a15575b806139aa6139a46064613890565b91610480565b10156139e7575b6139c46139be600a6133f8565b91610480565b10156139ce575b90565b6139e2906139dc6001612e2e565b90612e58565b6139cb565b6139fe613a0f916139f86064613890565b90613414565b91613a0960026138af565b90612e58565b906139b1565b613a2d613a3e91613a27612710613852565b90613414565b91613a386004613871565b90612e58565b90613996565b613a5e613a6f91613a586305f5e100613817565b90613414565b91613a696008613836565b90612e58565b9061397a565b613a92613aa391613a8c662386f26fc100006137d9565b90613414565b91613a9d60106137f8565b90612e58565b9061395c565b613acd613ade91613ac76d04ee2d6d415b85acef810000000061379b565b90613414565b91613ad860206137ba565b90612e58565b9061393b565b613b15613b2691613b0f7a184f03e93ff9f4daa797ed6e38ed64bf6a1f01000000000000000061375d565b90613414565b91613b20604061377c565b90612e58565b90613913565b613b3461102a565b50613b4e613b486301ffc9a760e01b610254565b91610254565b1490565b9190613b5c61102a565b5080613b78613b72613b6d5f61127a565b610308565b91610308565b14159283613b87575b50505090565b8091929350613b9e613b9884610308565b91610308565b14908115613be0575b50918215613bba575b50505f8080613b81565b613bd8919250613bcc613bd291612def565b92610308565b91610308565b145f80613bb0565b613bec915082906128c9565b5f613ba7565b9081613c0e613c08613c035f61127a565b610308565b91610308565b14613c6f57613c279190613c215f61127a565b91612e66565b613c41613c3b613c365f61127a565b610308565b91610308565b03613c4857565b613c6b613c545f61127a565b5f9182916339e3563760e11b8352600483016104d1565b0390fd5b613c92613c7b5f61127a565b5f918291633250574960e11b8352600483016104d1565b0390fdfea26469706673582212202816d16309513fd76c97285dabde389c53ae268bef309ea14cda8f59978c18a764736f6c63430008210033","linkReferences":{}},"methodIdentifiers":{"addLinkedSite(uint256,address)":"0e98302f","agentTokenId(uint256)":"33693a27","approve(address,uint256)":"095ea7b3","balanceOf(address)":"70a08231","contractURI()":"e8a3d485","freeMints()":"80b17335","getApproved(uint256)":"081812fc","getLinkedSites(uint256)":"f9030861","isApprovedForAll(address,address)":"e985e9c5","mint(uint256,address)":"94bf804d","mintPrice()":"6817c76c","mintTo(address,uint256,address)":"438b1b4b","name()":"06fdde03","nextTokenId()":"75794a3c","owner()":"8da5cb5b","ownerOf(uint256)":"6352211e","renounceOwnership()":"715018a6","royaltyInfo(uint256,uint256)":"2a55205a","safeTransferFrom(address,address,uint256)":"42842e0e","safeTransferFrom(address,address,uint256,bytes)":"b88d4fde","setApprovalForAll(address,bool)":"a22cb465","setBaseURI(string)":"55f804b3","setContractURI(string)":"938e3d7b","setDefaultRoyalty(address,uint96)":"04634d8d","setFreeMints(uint256)":"e7db8fb0","setMintPrice(uint256)":"f4a0a528","supportsInterface(bytes4)":"01ffc9a7","symbol()":"95d89b41","tokenAgentId(uint256)":"8df459c9","tokenURI(uint256)":"c87b56dd","transferFrom(address,address,uint256)":"23b872dd","transferOwnership(address)":"f2fde38b","updatePFP(uint256,address)":"d7db9144","withdraw()":"3ccfd60b"},"id":18}