{"abi":[{"type":"constructor","inputs":[{"name":"admin","type":"address","internalType":"address"}],"stateMutability":"nonpayable"},{"type":"function","name":"addLinkedSite","inputs":[{"name":"tokenId","type":"uint256","internalType":"uint256"},{"name":"site","type":"address","internalType":"address"}],"outputs":[],"stateMutability":"nonpayable"},{"type":"function","name":"agentTokenId","inputs":[{"name":"","type":"uint256","internalType":"uint256"}],"outputs":[{"name":"","type":"uint256","internalType":"uint256"}],"stateMutability":"view"},{"type":"function","name":"approve","inputs":[{"name":"to","type":"address","internalType":"address"},{"name":"tokenId","type":"uint256","internalType":"uint256"}],"outputs":[],"stateMutability":"nonpayable"},{"type":"function","name":"balanceOf","inputs":[{"name":"owner","type":"address","internalType":"address"}],"outputs":[{"name":"","type":"uint256","internalType":"uint256"}],"stateMutability":"view"},{"type":"function","name":"freeMints","inputs":[],"outputs":[{"name":"","type":"uint256","internalType":"uint256"}],"stateMutability":"view"},{"type":"function","name":"getApproved","inputs":[{"name":"tokenId","type":"uint256","internalType":"uint256"}],"outputs":[{"name":"","type":"address","internalType":"address"}],"stateMutability":"view"},{"type":"function","name":"getLinkedSites","inputs":[{"name":"tokenId","type":"uint256","internalType":"uint256"}],"outputs":[{"name":"","type":"address[]","internalType":"address[]"}],"stateMutability":"view"},{"type":"function","name":"isApprovedForAll","inputs":[{"name":"owner","type":"address","internalType":"address"},{"name":"operator","type":"address","internalType":"address"}],"outputs":[{"name":"","type":"bool","internalType":"bool"}],"stateMutability":"view"},{"type":"function","name":"mint","inputs":[{"name":"agentId","type":"uint256","internalType":"uint256"},{"name":"site","type":"address","internalType":"address"}],"outputs":[],"stateMutability":"payable"},{"type":"function","name":"mintPrice","inputs":[],"outputs":[{"name":"","type":"uint256","internalType":"uint256"}],"stateMutability":"view"},{"type":"function","name":"name","inputs":[],"outputs":[{"name":"","type":"string","internalType":"string"}],"stateMutability":"view"},{"type":"function","name":"nextTokenId","inputs":[],"outputs":[{"name":"","type":"uint256","internalType":"uint256"}],"stateMutability":"view"},{"type":"function","name":"owner","inputs":[],"outputs":[{"name":"","type":"address","internalType":"address"}],"stateMutability":"view"},{"type":"function","name":"ownerOf","inputs":[{"name":"tokenId","type":"uint256","internalType":"uint256"}],"outputs":[{"name":"","type":"address","internalType":"address"}],"stateMutability":"view"},{"type":"function","name":"renounceOwnership","inputs":[],"outputs":[],"stateMutability":"nonpayable"},{"type":"function","name":"safeTransferFrom","inputs":[{"name":"from","type":"address","internalType":"address"},{"name":"to","type":"address","internalType":"address"},{"name":"tokenId","type":"uint256","internalType":"uint256"}],"outputs":[],"stateMutability":"nonpayable"},{"type":"function","name":"safeTransferFrom","inputs":[{"name":"from","type":"address","internalType":"address"},{"name":"to","type":"address","internalType":"address"},{"name":"tokenId","type":"uint256","internalType":"uint256"},{"name":"data","type":"bytes","internalType":"bytes"}],"outputs":[],"stateMutability":"nonpayable"},{"type":"function","name":"setApprovalForAll","inputs":[{"name":"operator","type":"address","internalType":"address"},{"name":"approved","type":"bool","internalType":"bool"}],"outputs":[],"stateMutability":"nonpayable"},{"type":"function","name":"setFreeMints","inputs":[{"name":"count","type":"uint256","internalType":"uint256"}],"outputs":[],"stateMutability":"nonpayable"},{"type":"function","name":"setMintPrice","inputs":[{"name":"price","type":"uint256","internalType":"uint256"}],"outputs":[],"stateMutability":"nonpayable"},{"type":"function","name":"supportsInterface","inputs":[{"name":"interfaceId","type":"bytes4","internalType":"bytes4"}],"outputs":[{"name":"","type":"bool","internalType":"bool"}],"stateMutability":"view"},{"type":"function","name":"symbol","inputs":[],"outputs":[{"name":"","type":"string","internalType":"string"}],"stateMutability":"view"},{"type":"function","name":"tokenAgentId","inputs":[{"name":"","type":"uint256","internalType":"uint256"}],"outputs":[{"name":"","type":"uint256","internalType":"uint256"}],"stateMutability":"view"},{"type":"function","name":"tokenURI","inputs":[{"name":"tokenId","type":"uint256","internalType":"uint256"}],"outputs":[{"name":"","type":"string","internalType":"string"}],"stateMutability":"view"},{"type":"function","name":"transferFrom","inputs":[{"name":"from","type":"address","internalType":"address"},{"name":"to","type":"address","internalType":"address"},{"name":"tokenId","type":"uint256","internalType":"uint256"}],"outputs":[],"stateMutability":"nonpayable"},{"type":"function","name":"transferOwnership","inputs":[{"name":"newOwner","type":"address","internalType":"address"}],"outputs":[],"stateMutability":"nonpayable"},{"type":"function","name":"updatePFP","inputs":[{"name":"tokenId","type":"uint256","internalType":"uint256"},{"name":"newSite","type":"address","internalType":"address"}],"outputs":[],"stateMutability":"nonpayable"},{"type":"function","name":"withdraw","inputs":[],"outputs":[],"stateMutability":"nonpayable"},{"type":"event","name":"Approval","inputs":[{"name":"owner","type":"address","indexed":true,"internalType":"address"},{"name":"approved","type":"address","indexed":true,"internalType":"address"},{"name":"tokenId","type":"uint256","indexed":true,"internalType":"uint256"}],"anonymous":false},{"type":"event","name":"ApprovalForAll","inputs":[{"name":"owner","type":"address","indexed":true,"internalType":"address"},{"name":"operator","type":"address","indexed":true,"internalType":"address"},{"name":"approved","type":"bool","indexed":false,"internalType":"bool"}],"anonymous":false},{"type":"event","name":"FreeMintUpdated","inputs":[{"name":"remaining","type":"uint256","indexed":false,"internalType":"uint256"}],"anonymous":false},{"type":"event","name":"MintPriceUpdated","inputs":[{"name":"newPrice","type":"uint256","indexed":false,"internalType":"uint256"}],"anonymous":false},{"type":"event","name":"OwnershipTransferred","inputs":[{"name":"previousOwner","type":"address","indexed":true,"internalType":"address"},{"name":"newOwner","type":"address","indexed":true,"internalType":"address"}],"anonymous":false},{"type":"event","name":"PFPMinted","inputs":[{"name":"tokenId","type":"uint256","indexed":true,"internalType":"uint256"},{"name":"agentId","type":"uint256","indexed":true,"internalType":"uint256"},{"name":"owner","type":"address","indexed":true,"internalType":"address"}],"anonymous":false},{"type":"event","name":"SiteLinked","inputs":[{"name":"tokenId","type":"uint256","indexed":true,"internalType":"uint256"},{"name":"site","type":"address","indexed":false,"internalType":"address"}],"anonymous":false},{"type":"event","name":"SiteUnlinked","inputs":[{"name":"tokenId","type":"uint256","indexed":true,"internalType":"uint256"},{"name":"site","type":"address","indexed":false,"internalType":"address"}],"anonymous":false},{"type":"event","name":"Transfer","inputs":[{"name":"from","type":"address","indexed":true,"internalType":"address"},{"name":"to","type":"address","indexed":true,"internalType":"address"},{"name":"tokenId","type":"uint256","indexed":true,"internalType":"uint256"}],"anonymous":false},{"type":"error","name":"ERC721IncorrectOwner","inputs":[{"name":"sender","type":"address","internalType":"address"},{"name":"tokenId","type":"uint256","internalType":"uint256"},{"name":"owner","type":"address","internalType":"address"}]},{"type":"error","name":"ERC721InsufficientApproval","inputs":[{"name":"operator","type":"address","internalType":"address"},{"name":"tokenId","type":"uint256","internalType":"uint256"}]},{"type":"error","name":"ERC721InvalidApprover","inputs":[{"name":"approver","type":"address","internalType":"address"}]},{"type":"error","name":"ERC721InvalidOperator","inputs":[{"name":"operator","type":"address","internalType":"address"}]},{"type":"error","name":"ERC721InvalidOwner","inputs":[{"name":"owner","type":"address","internalType":"address"}]},{"type":"error","name":"ERC721InvalidReceiver","inputs":[{"name":"receiver","type":"address","internalType":"address"}]},{"type":"error","name":"ERC721InvalidSender","inputs":[{"name":"sender","type":"address","internalType":"address"}]},{"type":"error","name":"ERC721NonexistentToken","inputs":[{"name":"tokenId","type":"uint256","internalType":"uint256"}]},{"type":"error","name":"OwnableInvalidOwner","inputs":[{"name":"owner","type":"address","internalType":"address"}]},{"type":"error","name":"OwnableUnauthorizedAccount","inputs":[{"name":"account","type":"address","internalType":"address"}]}],"bytecode":{"object":"0x60806040523461002f576100196100146100f4565b6102c4565b610021610034565b613006610724823961300690f35b61003a565b60405190565b5f80fd5b601f801991011690565b634e487b7160e01b5f52604160045260245ffd5b906100669061003e565b810190811060018060401b0382111761007e57604052565b610048565b9061009661008f610034565b928361005c565b565b5f80fd5b60018060a01b031690565b6100b09061009c565b90565b6100bc816100a7565b036100c357565b5f80fd5b905051906100d4826100b3565b565b906020828203126100ef576100ec915f016100c7565b90565b610098565b61011261372a8038038061010781610083565b9283398101906100d6565b90565b60018060401b0381116101315761012d60209161003e565b0190565b610048565b9061014861014383610115565b610083565b918252565b5f7f41474e5420504650730000000000000000000000000000000000000000000000910152565b61017e6009610136565b9061018b6020830161014d565b565b610195610174565b90565b5f7f41474e5450465000000000000000000000000000000000000000000000000000910152565b6101c96007610136565b906101d660208301610198565b565b6101e06101bf565b90565b5f1b90565b906101f45f19916101e3565b9181191691161790565b90565b90565b90565b61021b610216610220926101fe565b610204565b610201565b90565b90565b9061023b61023661024292610207565b610223565b82546101e8565b9055565b90565b61025d61025861026292610246565b610204565b610201565b90565b9061027a61027561028192610249565b610223565b82546101e8565b9055565b90565b61029c6102976102a192610285565b610204565b610201565b90565b906102b96102b46102c092610288565b610223565b82546101e8565b9055565b6102de906102d061018d565b6102d86101d8565b9161034d565b6102ea60016007610226565b6102f660646008610265565b6103015f60096102a4565b565b61031761031261031c92610285565b610204565b61009c565b90565b61032890610303565b90565b610334906100a7565b9052565b919061034b905f6020850194019061032b565b565b9161035791610603565b8061037261036c6103675f61031f565b6100a7565b916100a7565b1461038257610380906106c2565b565b6103a561038e5f61031f565b5f918291631e4fbdf760e01b835260048301610338565b0390fd5b5190565b634e487b7160e01b5f52602260045260245ffd5b90600160028304921680156103e1575b60208310146103dc57565b6103ad565b91607f16916103d1565b5f5260205f2090565b601f602091010490565b1b90565b9190600861041d9102916104175f19846103fe565b926103fe565b9181191691161790565b61043b61043661044092610201565b610204565b610201565b90565b919061045961045461046193610427565b610223565b908354610402565b9055565b5f90565b61047b91610475610465565b91610443565b565b5f5b82811061048b57505050565b8061049a5f6001938501610469565b0161047f565b9190601f81116104b0575b505050565b8181116104bd575b6104ab565b6104d26104cc6104f0946103eb565b916103f4565b9160206104de826103f4565b91106104f8575b80910191039061047d565b5f80806104b8565b505f6104e5565b1c90565b90610513905f19906008026104ff565b191690565b8161052291610503565b906002021790565b90610534816103a9565b9060018060401b0382116105f2576105568261055085546103c1565b856104a0565b602090601f831160011461058a57918091610579935f9261057e575b5050610518565b90555b565b90915001515f80610572565b601f19831691610599856103eb565b925f5b8181106105da575091600293918560019694106105c0575b5050500201905561057c565b6105d0910151601f841690610503565b90555f80806105b4565b9193602060018192878701518155019501920161059c565b610048565b906106019161052a565b565b90610611610618925f6105f7565b60016105f7565b565b5f1c90565b60018060a01b031690565b61063661063b9161061a565b61061f565b90565b610648905461062a565b90565b9061065c60018060a01b03916101e3565b9181191691161790565b61067a61067561067f9261009c565b610204565b61009c565b90565b61068b90610666565b90565b61069790610682565b90565b90565b906106b26106ad6106b99261068e565b61069a565b825461064b565b9055565b5f0190565b6106cc600661063e565b6106d782600661069d565b9061070b6107057f8be0079c531659141344cd1fd0a4f28419497f9722a3daafe3b4186f6b6457e09361068e565b9161068e565b91610714610034565b8061071e816106bd565b0390a356fe60806040526004361015610013575b610d2c565b61001d5f356101dc565b806301ffc9a7146101d757806306fdde03146101d2578063081812fc146101cd578063095ea7b3146101c85780630e98302f146101c357806323b872dd146101be57806333693a27146101b95780633ccfd60b146101b457806342842e0e146101af5780636352211e146101aa5780636817c76c146101a557806370a08231146101a0578063715018a61461019b57806375794a3c1461019657806380b17335146101915780638da5cb5b1461018c5780638df459c91461018757806394bf804d1461018257806395d89b411461017d578063a22cb46514610178578063b88d4fde14610173578063c87b56dd1461016e578063d7db914414610169578063e7db8fb014610164578063e985e9c51461015f578063f2fde38b1461015a578063f4a0a528146101555763f90308610361000e57610cf7565b610c25565b610bf2565b610bbc565b610b5c565b610b28565b610af3565b610abc565b610948565b6108c3565b610899565b610864565b610816565b6107e1565b61079d565b61075b565b610726565b6106d3565b61068f565b61065b565b610628565b6105f3565b610522565b6104b4565b610453565b6103c9565b610317565b610268565b60e01c90565b60405190565b5f80fd5b5f80fd5b5f80fd5b63ffffffff60e01b1690565b610209816101f4565b0361021057565b5f80fd5b9050359061022182610200565b565b9060208282031261023c57610239915f01610214565b90565b6101ec565b151590565b61024f90610241565b9052565b9190610266905f60208501940190610246565b565b346102985761029461028361027e366004610223565b610d34565b61028b6101e2565b91829182610253565b0390f35b6101e8565b5f9103126102a757565b6101ec565b5190565b60209181520190565b90825f9392825e0152565b601f801991011690565b6102ed6102f66020936102fb936102e4816102ac565b938480936102b0565b958691016102b9565b6102c4565b0190565b6103149160208201915f8184039101526102ce565b90565b346103475761032736600461029d565b610343610332610eb8565b61033a6101e2565b918291826102ff565b0390f35b6101e8565b90565b6103588161034c565b0361035f57565b5f80fd5b905035906103708261034f565b565b9060208282031261038b57610388915f01610363565b90565b6101ec565b60018060a01b031690565b6103a490610390565b90565b6103b09061039b565b9052565b91906103c7905f602085019401906103a7565b565b346103f9576103f56103e46103df366004610372565b610ed1565b6103ec6101e2565b918291826103b4565b0390f35b6101e8565b6104078161039b565b0361040e57565b5f80fd5b9050359061041f826103fe565b565b9190604083820312610449578061043d610446925f8601610412565b93602001610363565b90565b6101ec565b5f0190565b346104825761046c610466366004610421565b90610ef0565b6104746101e2565b8061047e8161044e565b0390f35b6101e8565b91906040838203126104af57806104a36104ac925f8601610363565b93602001610412565b90565b6101ec565b346104e3576104cd6104c7366004610487565b90611153565b6104d56101e2565b806104df8161044e565b0390f35b6101e8565b909160608284031261051d5761051a610503845f8501610412565b936105118160208601610412565b93604001610363565b90565b6101ec565b346105515761053b6105353660046104e8565b91611230565b6105436101e2565b8061054d8161044e565b0390f35b6101e8565b90565b61056d6105686105729261034c565b610556565b61034c565b90565b9061057f90610559565b5f5260205260405f2090565b1c90565b90565b6105a29060086105a7930261058b565b61058f565b90565b906105b59154610592565b90565b6105ce906105c9600b915f92610575565b6105aa565b90565b6105da9061034c565b9052565b91906105f1905f602085019401906105d1565b565b346106235761061f61060e610609366004610372565b6105b8565b6106166101e2565b918291826105de565b0390f35b6101e8565b346106565761063836600461029d565b61064061140e565b6106486101e2565b806106528161044e565b0390f35b6101e8565b3461068a5761067461066e3660046104e8565b91611469565b61067c6101e2565b806106868161044e565b0390f35b6101e8565b346106bf576106bb6106aa6106a5366004610372565b61147f565b6106b26101e2565b918291826103b4565b0390f35b6101e8565b6106d060095f906105aa565b90565b34610703576106e336600461029d565b6106ff6106ee6106c4565b6106f66101e2565b918291826105de565b0390f35b6101e8565b906020828203126107215761071e915f01610412565b90565b6101ec565b346107565761075261074161073c366004610708565b6114d4565b6107496101e2565b918291826105de565b0390f35b6101e8565b346107895761076b36600461029d565b61077361155f565b61077b6101e2565b806107858161044e565b0390f35b6101e8565b61079a60075f906105aa565b90565b346107cd576107ad36600461029d565b6107c96107b861078e565b6107c06101e2565b918291826105de565b0390f35b6101e8565b6107de60085f906105aa565b90565b34610811576107f136600461029d565b61080d6107fc6107d2565b6108046101e2565b918291826105de565b0390f35b6101e8565b346108465761082636600461029d565b610842610831611595565b6108396101e2565b918291826103b4565b0390f35b6101e8565b6108619061085c600c915f92610575565b6105aa565b90565b346108945761089061087f61087a366004610372565b61084b565b6108876101e2565b918291826105de565b0390f35b6101e8565b6108ad6108a7366004610487565b90611755565b6108b56101e2565b806108bf8161044e565b0390f35b346108f3576108d336600461029d565b6108ef6108de61191f565b6108e66101e2565b918291826102ff565b0390f35b6101e8565b61090181610241565b0361090857565b5f80fd5b90503590610919826108f8565b565b91906040838203126109435780610937610940925f8601610412565b9360200161090c565b90565b6101ec565b346109775761096161095b36600461091b565b90611935565b6109696101e2565b806109738161044e565b0390f35b6101e8565b5f80fd5b5f80fd5b634e487b7160e01b5f52604160045260245ffd5b906109a2906102c4565b810190811067ffffffffffffffff8211176109bc57604052565b610984565b906109d46109cd6101e2565b9283610998565b565b67ffffffffffffffff81116109f4576109f06020916102c4565b0190565b610984565b90825f939282370152565b90929192610a19610a14826109d6565b6109c1565b93818552602085019082840111610a3557610a33926109f9565b565b610980565b9080601f83011215610a5857816020610a5593359101610a04565b90565b61097c565b90608082820312610ab757610a74815f8401610412565b92610a828260208501610412565b92610a908360408301610363565b92606082013567ffffffffffffffff8111610ab257610aaf9201610a3a565b90565b6101f0565b6101ec565b34610aee57610ad8610acf366004610a5d565b9291909161194b565b610ae06101e2565b80610aea8161044e565b0390f35b6101e8565b34610b2357610b1f610b0e610b09366004610372565b6119f5565b610b166101e2565b918291826102ff565b0390f35b6101e8565b34610b5757610b41610b3b366004610487565b90611bd1565b610b496101e2565b80610b538161044e565b0390f35b6101e8565b34610b8a57610b74610b6f366004610372565b611d93565b610b7c6101e2565b80610b868161044e565b0390f35b6101e8565b9190604083820312610bb75780610bab610bb4925f8601610412565b93602001610412565b90565b6101ec565b34610bed57610be9610bd8610bd2366004610b8f565b90611df1565b610be06101e2565b91829182610253565b0390f35b6101e8565b34610c2057610c0a610c05366004610708565b611e7e565b610c126101e2565b80610c1c8161044e565b0390f35b6101e8565b34610c5357610c3d610c38366004610372565b611ee2565b610c456101e2565b80610c4f8161044e565b0390f35b6101e8565b5190565b60209181520190565b60200190565b610c749061039b565b9052565b90610c8581602093610c6b565b0190565b60200190565b90610cac610ca6610c9f84610c58565b8093610c5c565b92610c65565b905f5b818110610cbc5750505090565b909192610cd5610ccf6001928651610c78565b94610c89565b9101919091610caf565b610cf49160208201915f818403910152610c8f565b90565b34610d2757610d23610d12610d0d366004610372565b612022565b610d1a6101e2565b91829182610cdf565b0390f35b6101e8565b5f80fd5b5f90565b610d3c610d30565b5080610d57610d516380ac58cd60e01b6101f4565b916101f4565b148015610d7b575b908115610d6b575b5090565b610d75915061208c565b5f610d67565b5080610d96610d90635b5e139f60e01b6101f4565b916101f4565b14610d5f565b606090565b634e487b7160e01b5f52602260045260245ffd5b9060016002830492168015610dd5575b6020831014610dd057565b610da1565b91607f1691610dc5565b60209181520190565b5f5260205f2090565b905f9291805490610e0b610e0483610db5565b8094610ddf565b916001811690815f14610e625750600114610e26575b505050565b610e339192939450610de8565b915f925b818410610e4a57505001905f8080610e21565b60018160209295939554848601520191019290610e37565b92949550505060ff19168252151560200201905f8080610e21565b90610e8791610df1565b90565b90610eaa610ea392610e9a6101e2565b93848092610e7d565b0383610998565b565b610eb590610e8a565b90565b610ec0610d9c565b50610eca5f610eac565b90565b5f90565b610eed90610edd610ecd565b50610ee7816120b2565b5061211e565b90565b90610f049190610efe61213d565b9161214a565b565b5f7f4e6f7420746f6b656e206f776e65720000000000000000000000000000000000910152565b610f3a600f6020926102b0565b610f4381610f06565b0190565b610f5c9060208101905f818303910152610f2d565b90565b15610f6657565b610f6e6101e2565b62461bcd60e51b815280610f8460048201610f47565b0390fd5b90565b610f9f610f9a610fa492610f88565b610556565b610390565b90565b610fb090610f8b565b90565b5f7f496e76616c696420736974652061646472657373000000000000000000000000910152565b610fe760146020926102b0565b610ff081610fb3565b0190565b6110099060208101905f818303910152610fda565b90565b1561101357565b61101b6101e2565b62461bcd60e51b81528061103160048201610ff4565b0390fd5b9061103f90610559565b5f5260205260405f2090565b90565b5f5260205f2090565b634e487b7160e01b5f52603260045260245ffd5b5490565b6110788161106b565b8210156110925761108a60019161104e565b910201905f90565b611057565b1b90565b919060086110bb9102916110b560018060a01b0384611097565b92611097565b9181191691161790565b6110d96110d46110de92610390565b610556565b610390565b90565b6110ea906110c5565b90565b6110f6906110e1565b90565b90565b919061111261110d61111a936110ed565b6110f9565b90835461109b565b9055565b908154916801000000000000000083101561114e578261114691600161114c9501815561106f565b906110fc565b565b610984565b61117761115f8261147f565b61117161116b3361039b565b9161039b565b14610f5f565b61119c8261119561118f61118a5f610fa7565b61039b565b9161039b565b141561100c565b6111ba6111b36111ae600a8490611035565b61104b565b839061111e565b6111f96111e77fa1845a21d5cfa0c571f3ee93ebe46c671e48722f684a16635bcdab38ede3ef1892610559565b926111f06101e2565b918291826103b4565b0390a2565b60409061122761122e949695939661121d60608401985f8501906103a7565b60208301906105d1565b01906103a7565b565b91908061124d6112476112425f610fa7565b61039b565b9161039b565b146112a457611265908261125f61213d565b916121d0565b91826112796112738361039b565b9161039b565b0361128357505050565b6112a09091925f9384936364283d7b60e01b8552600485016111fe565b0390fd5b6112c76112b05f610fa7565b5f918291633250574960e11b8352600483016103b4565b0390fd5b6112d3612351565b6112db6113d0565b565b6112e6906110e1565b90565b905090565b6112f95f80926112e9565b0190565b611306906112ee565b90565b9061131b611316836109d6565b6109c1565b918252565b606090565b3d5f14611340576113353d611309565b903d5f602084013e5b565b611348611320565b9061133e565b5f7f5769746864726177206661696c65640000000000000000000000000000000000910152565b611382600f6020926102b0565b61138b8161134e565b0190565b6113a49060208101905f818303910152611375565b90565b156113ae57565b6113b66101e2565b62461bcd60e51b8152806113cc6004820161138f565b0390fd5b61140c5f806113dd611595565b6113e6306112dd565b316113ef6101e2565b90816113fa816112fd565b03925af1611406611325565b506113a7565b565b6114166112cb565b565b67ffffffffffffffff8111611436576114326020916102c4565b0190565b610984565b9061144d61144883611418565b6109c1565b918252565b61145b5f61143b565b90565b611466611452565b90565b9161147d929161147761145e565b9261194b565b565b6114919061148b610ecd565b506120b2565b90565b5f90565b906114a2906110ed565b5f5260205260405f2090565b5f1c90565b6114bf6114c4916114ae565b61058f565b90565b6114d190546114b3565b90565b6114dc611494565b50806114f86114f26114ed5f610fa7565b61039b565b9161039b565b146115135761150b611510916003611498565b6114c7565b90565b61153661151f5f610fa7565b5f9182916322718ad960e21b8352600483016103b4565b0390fd5b611542612351565b61154a61154c565b565b61155d6115585f610fa7565b61239f565b565b61156761153a565b565b60018060a01b031690565b611580611585916114ae565b611569565b90565b6115929054611574565b90565b61159d610ecd565b506115a86006611588565b90565b6115bf6115ba6115c492610f88565b610556565b61034c565b90565b5f7f4167656e7420616c726561647920686173206120504650000000000000000000910152565b6115fb60176020926102b0565b611604816115c7565b0190565b61161d9060208101905f8183039101526115ee565b90565b1561162757565b61162f6101e2565b62461bcd60e51b81528061164560048201611608565b0390fd5b5f7f496e73756666696369656e74207061796d656e74000000000000000000000000910152565b61167d60146020926102b0565b61168681611649565b0190565b61169f9060208101905f818303910152611670565b90565b156116a957565b6116b16101e2565b62461bcd60e51b8152806116c76004820161168a565b0390fd5b634e487b7160e01b5f52601160045260245ffd5b6116e89061034c565b5f81146116f6576001900390565b6116cb565b5f1b90565b9061170c5f19916116fb565b9181191691161790565b90565b9061172e61172961173592610559565b611716565b8254611700565b9055565b6117429061034c565b5f1981146117505760010190565b6116cb565b61178461176c611767600b8490610575565b6114c7565b61177e6117785f6115ab565b9161034c565b14611620565b6117a9826117a261179c6117975f610fa7565b61039b565b9161039b565b141561100c565b6117b360086114c7565b6117c56117bf5f6115ab565b9161034c565b115f146118f4576117e86117e16117dc60086114c7565b6116df565b6008611719565b5b6117f360076114c7565b6118066117ff82611739565b6007611719565b90611812338390612400565b611830611829611824600a8590611035565b61104b565b849061111e565b61184582611840600b8490610575565b611719565b61185a81611855600c8590610575565b611719565b8190339061189a61189461188e7f3a07676e7e8bae14bf508604aa7d77606304069625fc40b87a9f3f4981a232fc95610559565b92610559565b926110ed565b926118a36101e2565b806118ad8161044e565b0390a46118ef6118dd7fa1845a21d5cfa0c571f3ee93ebe46c671e48722f684a16635bcdab38ede3ef1892610559565b926118e66101e2565b918291826103b4565b0390a2565b61191a3461191361190d61190860096114c7565b61034c565b9161034c565b10156116a2565b6117e9565b611927610d9c565b506119326001610eac565b90565b6119499161194161213d565b91909161245b565b565b9161196f939161195d84828491611230565b61196561213d565b93909192936125e0565b565b90565b5190565b611980611452565b90565b905090565b6119ad6119a49260209261199b816102ac565b94858093611983565b938491016102b9565b0190565b6119bf906119c59392611988565b90611988565b90565b6119e792916119f3916119d96101e2565b9485926020840192836119b1565b90810382520383610998565b565b6119fd610d9c565b50611a07816120b2565b50611a10612734565b90611a22611a1d83611971565b611974565b611a34611a2e5f6115ab565b9161034c565b115f14611a5257611a48611a4e92916127d8565b906119c8565b5b90565b5050611a5c611978565b611a4f565b6001611a6d910161034c565b90565b611a80906008611a85930261058b565b611569565b90565b90611a939154611a70565b90565b5490565b600190818003010490565b5f5260205f2090565b91906008611ac9910291611ac35f1984611097565b92611097565b9181191691161790565b9190611ae9611ae4611af193610559565b611716565b908354611aae565b9055565b611b0791611b01611494565b91611ad3565b565b5f5b828110611b1757505050565b80611b265f6001938501611af5565b01611b0b565b9190808210611b3b575b505050565b611b6592611b54611b4e611b5c93611a9a565b93611a9a565b918291611aa5565b01910390611b09565b5f8080611b36565b90680100000000000000008111611b965781611b8b611b9493611a96565b90828155611b2c565b565b610984565b5f611ba591611b6d565b565b634e487b7160e01b5f525f60045260245ffd5b905f03611bcc57611bca90611b9b565b565b611ba7565b611bf5611bdd8261147f565b611bef611be93361039b565b9161039b565b14610f5f565b611c1a82611c13611c0d611c085f610fa7565b61039b565b9161039b565b141561100c565b611c2e611c29600a8390611035565b61104b565b92611c385f6115ab565b5b80611c54611c4e611c498861106b565b61034c565b9161034c565b1015611cc057611cbb9083611c73611c6d88849061106f565b90611a88565b90611cb3611ca17f8aff2485e2dd68dd6365746f9a892862a65a0dd5c28de8bead25baab7672a09a92610559565b92611caa6101e2565b918291826103b4565b0390a2611a61565b611c39565b509250611cd85f611cd3600a8490611035565b611bba565b611cf6611cef611cea600a8490611035565b61104b565b839061111e565b611d35611d237fa1845a21d5cfa0c571f3ee93ebe46c671e48722f684a16635bcdab38ede3ef1892610559565b92611d2c6101e2565b918291826103b4565b0390a2565b611d4b90611d46612351565b611d4d565b565b611d58816008611719565b611d8e7ff1fce28386f46827a9c6ee50a6a18876e91946000ae2db5a10537b1422d63fe291611d856101e2565b918291826105de565b0390a1565b611d9c90611d3a565b565b90611da8906110ed565b5f5260205260405f2090565b90611dbe906110ed565b5f5260205260405f2090565b60ff1690565b611ddc611de1916114ae565b611dca565b90565b611dee9054611dd0565b90565b611e1691611e0c611e1192611e04610d30565b506005611d9e565b611db4565b611de4565b90565b611e2a90611e25612351565b611e2c565b565b80611e47611e41611e3c5f610fa7565b61039b565b9161039b565b14611e5757611e559061239f565b565b611e7a611e635f610fa7565b5f918291631e4fbdf760e01b8352600483016103b4565b0390fd5b611e8790611e19565b565b611e9a90611e95612351565b611e9c565b565b611ea7816009611719565b611edd7f525b762709cc2a983aec5ccdfd807a061f993c91090b5bcd7da92ca254976aaa91611ed46101e2565b918291826105de565b0390a1565b611eeb90611e89565b565b606090565b5f7f546f6b656e20646f6573206e6f74206578697374000000000000000000000000910152565b611f2660146020926102b0565b611f2f81611ef2565b0190565b611f489060208101905f818303910152611f19565b90565b15611f5257565b611f5a6101e2565b62461bcd60e51b815280611f7060048201611f33565b0390fd5b60209181520190565b611f879054611574565b90565b60010190565b90611fad611fa7611fa084611a96565b8093611f74565b92611aa5565b905f5b818110611fbd5750505090565b909192611fdd611fd7600192611fd287611f7d565b610c78565b94611f8a565b9101919091611fb0565b90611ff191611f90565b90565b9061201461200d926120046101e2565b93848092611fe7565b0383610998565b565b61201f90611ff4565b90565b61205c61206191612031611eed565b508061204561203f5f6115ab565b9161034c565b1180612064575b61205590611f4b565b600a611035565b612016565b90565b506120558161208461207e61207960076114c7565b61034c565b9161034c565b10905061204c565b612094610d30565b506120ae6120a86301ffc9a760e01b6101f4565b916101f4565b1490565b6120ba610ecd565b506120c481612881565b90816120e06120da6120d55f610fa7565b61039b565b9161039b565b146120e9575090565b612104905f918291637e27328960e01b8352600483016105de565b0390fd5b9061211290610559565b5f5260205260405f2090565b61213561213a9161212d610ecd565b506004612108565b611588565b90565b612145610ecd565b503390565b9161215892916001926128a0565b565b90565b61217161216c6121769261215a565b610556565b61034c565b90565b90612184910361034c565b90565b90612192910161034c565b90565b906121a660018060a01b03916116fb565b9181191691161790565b906121c56121c06121cc926110ed565b6110f9565b8254612195565b9055565b906121d9610ecd565b506121e381612881565b92806121ff6121f96121f45f610fa7565b61039b565b9161039b565b0361233e575b508261222161221b6122165f610fa7565b61039b565b9161039b565b036122ea575b8161224261223c6122375f610fa7565b61039b565b9161039b565b036122b4575b61225d8261225860028490612108565b6121b0565b829161229b61229561228f7fddf252ad1be2c89b69c2b068fc378daa952ba7f163c4a11628f55a4df523b3ef956110ed565b926110ed565b92610559565b926122a46101e2565b806122ae8161044e565b0390a490565b6122e56122c1600161215d565b6122df6122d060038690611498565b916122da836114c7565b612187565b90611719565b612248565b6123086122f65f610fa7565b826123005f610fa7565b905f926128a0565b612339612315600161215d565b61233361232460038790611498565b9161232e836114c7565b612179565b90611719565b612227565b61234b9084908391612a0d565b5f612205565b612359611595565b61237261236c61236761213d565b61039b565b9161039b565b0361237957565b61239b61238461213d565b5f91829163118cdaa760e01b8352600483016103b4565b0390fd5b6123a96006611588565b6123b48260066121b0565b906123e86123e27f8be0079c531659141344cd1fd0a4f28419497f9722a3daafe3b4186f6b6457e0936110ed565b916110ed565b916123f16101e2565b806123fb8161044e565b0390a3565b90612414919061240e61145e565b91612a89565b565b9061242260ff916116fb565b9181191691161790565b61243590610241565b90565b90565b9061245061244b6124579261242c565b612438565b8254612416565b9055565b9190918261247961247361246e5f610fa7565b61039b565b9161039b565b146124ed5761249d8261249861249160058590611d9e565b8690611db4565b61243b565b9190916124e86124d66124d07f17307eab39ab6107e8899845ad3d59bd9653f200f220920489ca2b5937696c31936110ed565b936110ed565b936124df6101e2565b91829182610253565b0390a3565b612508835f918291630b61174360e31b8352600483016103b4565b0390fd5b612515906110c5565b90565b6125219061250c565b90565b61252d906110e1565b90565b60e01b90565b9050519061254382610200565b565b9060208282031261255e5761255b915f01612536565b90565b6101ec565b60209181520190565b61258b6125946020936125999361258281611974565b93848093612563565b958691016102b9565b6102c4565b0190565b90926125d0906125c66125dd96946125bc60808601975f8701906103a7565b60208501906103a7565b60408301906105d1565b606081840391015261256c565b90565b9193843b6125f66125f05f6115ab565b9161034c565b11612603575b5050505050565b61263b5f60209461264661261e6126198a612518565b612524565b9463150b7a0292969861262f6101e2565b998a9889978896612530565b86526004860161259d565b03925af180915f92612704575b50155f146126c15750600161266e57505b5f808080806125fc565b612676611325565b9061268082611974565b61269261268c5f6115ab565b9161034c565b145f146126b8576126b4905f918291633250574960e11b8352600483016103b4565b0390fd5b50602081519101fd5b6126da6126d4630a85bd0160e11b6101f4565b916101f4565b036126e55750612664565b612700905f918291633250574960e11b8352600483016103b4565b0390fd5b61272691925060203d811161272d575b61271e8183610998565b810190612545565b905f612653565b503d612714565b61273c610d9c565b50612745611978565b90565b369037565b9061277261275a8361143b565b926020806127688693611418565b9201910390612748565b565b6001612780910361034c565b90565b90565b61279a61279561279f92612783565b610556565b61034c565b90565b634e487b7160e01b5f52601260045260245ffd5b6127c26127c89161034c565b9161034c565b9081156127d3570490565b6127a2565b6127e0610d9c565b506127fd6127ed82612c2b565b6127f7600161215d565b90612187565b906128078261274d565b91612810611494565b5060208301015b60011561287a5761282a61285691612774565b916f181899199a1a9b1b9c1cb0b131b232b360811b600a82061a8353612850600a612786565b906127b6565b806128696128635f6115ab565b9161034c565b146128745790612817565b50505b90565b5050612877565b61289861289d91612890610ecd565b506002612108565b611588565b90565b9190928080156129c7575b6128c9575b5050906128c26128c792916004612108565b6121b0565b565b6128d2846120b2565b91806128ee6128e86128e35f610fa7565b61039b565b9161039b565b1415806129ac575b80612992575b6129735750916128c2916128c79493612918575b5091926128b0565b81849061295761295161294b7f8c5be1e5ebec7d5bd14f71427d1e84f3dd0314c0f7b2291e5b200ac8c7c3b925956110ed565b926110ed565b92610559565b926129606101e2565b8061296a8161044e565b0390a45f612910565b61298e905f91829163a9fbf51f60e01b8352600483016103b4565b0390fd5b506129a76129a1848390611df1565b15610241565b6128fc565b50826129c06129ba8361039b565b9161039b565b14156128f6565b50816129e36129dd6129d85f610fa7565b61039b565b9161039b565b14156128ab565b916020612a0b929493612a0460408201965f8301906103a7565b01906105d1565b565b612a22612a1c82848691612e8c565b15610241565b612a2b57505050565b612a45612a3f612a3a5f610fa7565b61039b565b9161039b565b145f14612a6b57612a67825f918291637e27328960e01b8352600483016105de565b0390fd5b612a855f92839263177e802f60e01b8452600484016129ea565b0390fd5b9091612ab592612a9a838290612f2c565b612aa261213d565b92612aac5f610fa7565b909192936125e0565b565b90565b612ace612ac9612ad392612ab7565b610556565b61034c565b90565b90565b612aed612ae8612af292612ad6565b610556565b61034c565b90565b90565b612b0c612b07612b1192612af5565b610556565b61034c565b90565b90565b612b2b612b26612b3092612b14565b610556565b61034c565b90565b90565b612b4a612b45612b4f92612b33565b610556565b61034c565b90565b90565b612b69612b64612b6e92612b52565b610556565b61034c565b90565b90565b612b88612b83612b8d92612b71565b610556565b61034c565b90565b90565b612ba7612ba2612bac92612b90565b610556565b61034c565b90565b90565b612bc6612bc1612bcb92612baf565b610556565b61034c565b90565b90565b612be5612be0612bea92612bce565b610556565b61034c565b90565b90565b612c04612bff612c0992612bed565b610556565b61034c565b90565b90565b612c23612c1e612c2892612c0c565b610556565b61034c565b90565b612c33611494565b50612c3d5f6115ab565b9080612c6c612c667a184f03e93ff9f4daa797ed6e38ed64bf6a1f010000000000000000612aba565b9161034c565b1015612e44575b80612c94612c8e6d04ee2d6d415b85acef8100000000612af8565b9161034c565b1015612e09575b80612cb5612caf662386f26fc10000612b36565b9161034c565b1015612dd5575b80612cd3612ccd6305f5e100612b74565b9161034c565b1015612da4575b80612cef612ce9612710612bb2565b9161034c565b1015612d75575b80612d0a612d046064612bf0565b9161034c565b1015612d47575b612d24612d1e600a612786565b9161034c565b1015612d2e575b90565b612d4290612d3c600161215d565b90612187565b612d2b565b612d5e612d6f91612d586064612bf0565b906127b6565b91612d696002612c0f565b90612187565b90612d11565b612d8d612d9e91612d87612710612bb2565b906127b6565b91612d986004612bd1565b90612187565b90612cf6565b612dbe612dcf91612db86305f5e100612b74565b906127b6565b91612dc96008612b93565b90612187565b90612cda565b612df2612e0391612dec662386f26fc10000612b36565b906127b6565b91612dfd6010612b55565b90612187565b90612cbc565b612e2d612e3e91612e276d04ee2d6d415b85acef8100000000612af8565b906127b6565b91612e386020612b17565b90612187565b90612c9b565b612e75612e8691612e6f7a184f03e93ff9f4daa797ed6e38ed64bf6a1f010000000000000000612aba565b906127b6565b91612e806040612ad9565b90612187565b90612c73565b9190612e96610d30565b5080612eb2612eac612ea75f610fa7565b61039b565b9161039b565b14159283612ec1575b50505090565b8091929350612ed8612ed28461039b565b9161039b565b14908115612f1a575b50918215612ef4575b50505f8080612ebb565b612f12919250612f06612f0c9161211e565b9261039b565b9161039b565b145f80612eea565b612f2691508290611df1565b5f612ee1565b9081612f48612f42612f3d5f610fa7565b61039b565b9161039b565b14612fa957612f619190612f5b5f610fa7565b916121d0565b612f7b612f75612f705f610fa7565b61039b565b9161039b565b03612f8257565b612fa5612f8e5f610fa7565b5f9182916339e3563760e11b8352600483016103b4565b0390fd5b612fcc612fb55f610fa7565b5f918291633250574960e11b8352600483016103b4565b0390fdfea2646970667358221220518da36ffae3dc7e9b20574e9ad34a67112ee944f887a9a98316e83f6957229a64736f6c63430008210033","linkReferences":{}},"methodIdentifiers":{"addLinkedSite(uint256,address)":"0e98302f","agentTokenId(uint256)":"33693a27","approve(address,uint256)":"095ea7b3","balanceOf(address)":"70a08231","freeMints()":"80b17335","getApproved(uint256)":"081812fc","getLinkedSites(uint256)":"f9030861","isApprovedForAll(address,address)":"e985e9c5","mint(uint256,address)":"94bf804d","mintPrice()":"6817c76c","name()":"06fdde03","nextTokenId()":"75794a3c","owner()":"8da5cb5b","ownerOf(uint256)":"6352211e","renounceOwnership()":"715018a6","safeTransferFrom(address,address,uint256)":"42842e0e","safeTransferFrom(address,address,uint256,bytes)":"b88d4fde","setApprovalForAll(address,bool)":"a22cb465","setFreeMints(uint256)":"e7db8fb0","setMintPrice(uint256)":"f4a0a528","supportsInterface(bytes4)":"01ffc9a7","symbol()":"95d89b41","tokenAgentId(uint256)":"8df459c9","tokenURI(uint256)":"c87b56dd","transferFrom(address,address,uint256)":"23b872dd","transferOwnership(address)":"f2fde38b","updatePFP(uint256,address)":"d7db9144","withdraw()":"3ccfd60b"},"id":16}