{
  "_format": "hh-sol-artifact-1",
  "contractName": "AgentSocial",
  "sourceName": "contracts/megaeth/social/AgentSocial.sol",
  "abi": [
    {
      "inputs": [
        {
          "internalType": "address",
          "name": "coreAddress",
          "type": "address"
        }
      ],
      "stateMutability": "nonpayable",
      "type": "constructor"
    },
    {
      "anonymous": false,
      "inputs": [
        {
          "indexed": true,
          "internalType": "uint256",
          "name": "follower",
          "type": "uint256"
        },
        {
          "indexed": true,
          "internalType": "uint256",
          "name": "followed",
          "type": "uint256"
        },
        {
          "indexed": false,
          "internalType": "uint256",
          "name": "timestamp",
          "type": "uint256"
        }
      ],
      "name": "Followed",
      "type": "event"
    },
    {
      "anonymous": false,
      "inputs": [
        {
          "indexed": true,
          "internalType": "uint256",
          "name": "follower",
          "type": "uint256"
        },
        {
          "indexed": true,
          "internalType": "uint256",
          "name": "unfollowed",
          "type": "uint256"
        },
        {
          "indexed": false,
          "internalType": "uint256",
          "name": "timestamp",
          "type": "uint256"
        }
      ],
      "name": "Unfollowed",
      "type": "event"
    },
    {
      "inputs": [
        {
          "internalType": "uint256",
          "name": "agentId",
          "type": "uint256"
        },
        {
          "internalType": "uint256",
          "name": "targetId",
          "type": "uint256"
        }
      ],
      "name": "checkFollowing",
      "outputs": [
        {
          "internalType": "bool",
          "name": "",
          "type": "bool"
        }
      ],
      "stateMutability": "view",
      "type": "function"
    },
    {
      "inputs": [],
      "name": "core",
      "outputs": [
        {
          "internalType": "contract AgentCore",
          "name": "",
          "type": "address"
        }
      ],
      "stateMutability": "view",
      "type": "function"
    },
    {
      "inputs": [
        {
          "internalType": "uint256",
          "name": "agentId",
          "type": "uint256"
        },
        {
          "internalType": "uint256",
          "name": "targetId",
          "type": "uint256"
        }
      ],
      "name": "follow",
      "outputs": [],
      "stateMutability": "nonpayable",
      "type": "function"
    },
    {
      "inputs": [
        {
          "internalType": "uint256",
          "name": "",
          "type": "uint256"
        }
      ],
      "name": "followerCount",
      "outputs": [
        {
          "internalType": "uint256",
          "name": "",
          "type": "uint256"
        }
      ],
      "stateMutability": "view",
      "type": "function"
    },
    {
      "inputs": [
        {
          "internalType": "uint256",
          "name": "",
          "type": "uint256"
        },
        {
          "internalType": "uint256",
          "name": "",
          "type": "uint256"
        }
      ],
      "name": "followers",
      "outputs": [
        {
          "internalType": "uint256",
          "name": "",
          "type": "uint256"
        }
      ],
      "stateMutability": "view",
      "type": "function"
    },
    {
      "inputs": [
        {
          "internalType": "uint256",
          "name": "",
          "type": "uint256"
        },
        {
          "internalType": "uint256",
          "name": "",
          "type": "uint256"
        }
      ],
      "name": "following",
      "outputs": [
        {
          "internalType": "uint256",
          "name": "",
          "type": "uint256"
        }
      ],
      "stateMutability": "view",
      "type": "function"
    },
    {
      "inputs": [
        {
          "internalType": "uint256",
          "name": "",
          "type": "uint256"
        }
      ],
      "name": "followingCount",
      "outputs": [
        {
          "internalType": "uint256",
          "name": "",
          "type": "uint256"
        }
      ],
      "stateMutability": "view",
      "type": "function"
    },
    {
      "inputs": [
        {
          "internalType": "uint256",
          "name": "agentId",
          "type": "uint256"
        }
      ],
      "name": "getActiveFollowers",
      "outputs": [
        {
          "internalType": "uint256[]",
          "name": "",
          "type": "uint256[]"
        }
      ],
      "stateMutability": "view",
      "type": "function"
    },
    {
      "inputs": [
        {
          "internalType": "uint256",
          "name": "agentId",
          "type": "uint256"
        }
      ],
      "name": "getActiveFollowing",
      "outputs": [
        {
          "internalType": "uint256[]",
          "name": "",
          "type": "uint256[]"
        }
      ],
      "stateMutability": "view",
      "type": "function"
    },
    {
      "inputs": [
        {
          "internalType": "uint256",
          "name": "agentId",
          "type": "uint256"
        }
      ],
      "name": "getFollowerCount",
      "outputs": [
        {
          "internalType": "uint256",
          "name": "",
          "type": "uint256"
        }
      ],
      "stateMutability": "view",
      "type": "function"
    },
    {
      "inputs": [
        {
          "internalType": "uint256",
          "name": "agentId",
          "type": "uint256"
        }
      ],
      "name": "getFollowers",
      "outputs": [
        {
          "internalType": "uint256[]",
          "name": "",
          "type": "uint256[]"
        }
      ],
      "stateMutability": "view",
      "type": "function"
    },
    {
      "inputs": [
        {
          "internalType": "uint256",
          "name": "agentId",
          "type": "uint256"
        }
      ],
      "name": "getFollowing",
      "outputs": [
        {
          "internalType": "uint256[]",
          "name": "",
          "type": "uint256[]"
        }
      ],
      "stateMutability": "view",
      "type": "function"
    },
    {
      "inputs": [
        {
          "internalType": "uint256",
          "name": "agentId",
          "type": "uint256"
        }
      ],
      "name": "getFollowingCount",
      "outputs": [
        {
          "internalType": "uint256",
          "name": "",
          "type": "uint256"
        }
      ],
      "stateMutability": "view",
      "type": "function"
    },
    {
      "inputs": [
        {
          "internalType": "uint256",
          "name": "",
          "type": "uint256"
        },
        {
          "internalType": "uint256",
          "name": "",
          "type": "uint256"
        }
      ],
      "name": "isFollowing",
      "outputs": [
        {
          "internalType": "bool",
          "name": "",
          "type": "bool"
        }
      ],
      "stateMutability": "view",
      "type": "function"
    },
    {
      "inputs": [
        {
          "internalType": "uint256",
          "name": "agentId",
          "type": "uint256"
        },
        {
          "internalType": "uint256",
          "name": "targetId",
          "type": "uint256"
        }
      ],
      "name": "unfollow",
      "outputs": [],
      "stateMutability": "nonpayable",
      "type": "function"
    }
  ],
  "bytecode": "0x60a03461007957601f610bdf38819003918201601f19168301916001600160401b0383118484101761007e5780849260209460405283398101031261007957516001600160a01b0381169081900361007957608052604051610b4a9081610095823960805181818160fa0152818161026701526103a10152f35b600080fd5b634e487b7160e01b600052604160045260246000fdfe60406080815260048036101561001457600080fd5b600091823560e01c8063053acf851461080657806311d528011461072c5780632ffeb82c1461066a578063336730a0146105ff57806347720ebb146105cf57806372bd81d7146106265780637467124f146105ff5780637cdd25231461022a578063800c36de146105cf578063821defc2146103725780638e70d3b91461030f578063a8c6178f1461029a578063f2f4eb2614610252578063f99632391461022a5763fb1bf05d146100c557600080fd5b34610226576100d336610839565b8251632de5aaf760e01b815280850183905290939192906001600160a01b039086816024817f000000000000000000000000000000000000000000000000000000000000000086165afa90811561021c5761013d9291849189916101fa575b500151163314610a0c565b828552602091858352818620858752835260ff8287205416156101c957907fb8c6d592f20bf807d12daa01437f64592e92dfc3900d733f34ffbdef211712da9291848752868352818720868852835281872060ff198154169055848752600383528187206101ab8154610aa9565b905585875282528086206101bf8154610aa9565b905551428152a380f35b82606492519162461bcd60e51b8352820152600d60248201526c4e6f7420666f6c6c6f77696e6760981b6044820152fd5b61021691503d808b833e61020e81836108bd565b810190610916565b38610132565b83513d89823e3d90fd5b8280fd5b5090346102265760203660031901126102265760209282913581526003845220549051908152f35b838234610296578160031936011261029657517f00000000000000000000000000000000000000000000000000000000000000006001600160a01b03168152602090f35b5080fd5b5034610226576020918260031936011261030b573583526001928383528181209382518094808754928381520196845280842093905b8282106102f6576102f287876102e8828c03836108bd565b5191829182610882565b0390f35b845488529687019693830193908301906102d0565b8380fd5b5034610226576020918260031936011261030b57358352600282528083209281518093808654928381520195835280832092905b82821061035b576102f286866102e8828b03836108bd565b835487529586019560019384019390910190610343565b50346102265761038136610839565b8251632de5aaf760e01b8152848101839052909391926001600160a01b037f000000000000000000000000000000000000000000000000000000000000000081169391928781602481885afa9081156105c5576103ec929185918a916105b157500151163314610a0c565b84841461057a57815180936324f9bb1760e11b8252868383015281602460209687935afa90811561021c578791610541575b501561050057838652858352818620858752835260ff82872054166104cb57907f3208077dc5258a26bfd73edd667e0abf8b932d316d08950edf92ef2c943d08fb92918487528683528187208688528352818720600160ff198254161790558487526001835261049086838920610a4a565b858752600283526104a385838920610a4a565b848752600383528187206104b78154610a84565b905585875282528086206101bf8154610a84565b82606492519162461bcd60e51b83528201526011602482015270416c726561647920666f6c6c6f77696e6760781b6044820152fd5b82606492519162461bcd60e51b8352820152601b60248201527f546172676574206167656e7420646f6573206e6f7420657869737400000000006044820152fd5b90508381813d8311610573575b61055881836108bd565b8101031261056f5761056990610909565b3861041e565b8680fd5b503d61054e565b6020606492519162461bcd60e51b8352820152601260248201527121b0b73737ba103337b63637bb9039b2b63360711b6044820152fd5b61021691503d808c833e61020e81836108bd565b84513d8a823e3d90fd5b8382346102965760ff816020936105e536610839565b908252818652828220908252855220541690519015158152f35b50903461022657602036600319011261022657602092818392358252845220549051908152f35b8382346102965761063636610839565b929081526002602052818120908154841015610667575060209261065991610854565b91905490519160031b1c8152f35b80fd5b509134610667576020806003193601126102965782359081835260028152848320938152848320549361069c85610ace565b93809381968354975b88811080610723575b1561071657806106c16106e89287610854565b9054600391821b1c86528588528b8620858752885260ff8c872054166106ed575b50610a84565b6106a5565b6106f78288610854565b9054911b1c61070f6107088a610a84565b998b610b00565b52386106e2565b8951806102f28a82610882565b508187106106ae565b5091346106675760209182600319360112610296573591828252600191828252848120600391828452868120549361076385610ace565b96829587848654915b61077e575b8b51806102f28d82610882565b818110806107fd575b156107f8578386528585528b862061079f8289610854565b9054908a1b1c875285528a60ff8d882054166107c6575b506107c090610a84565b8961076c565b98906107c0916107ef6107d9838b610854565b9054908c1b1c916107e981610a84565b9c610b00565b5290508a6107b6565b610771565b50828910610787565b8382346102965761081636610839565b929081526001602052818120908154841015610667575060209261065991610854565b604090600319011261084f576004359060243590565b600080fd5b805482101561086c5760005260206000200190600090565b634e487b7160e01b600052603260045260246000fd5b6020908160408183019282815285518094520193019160005b8281106108a9575050505090565b83518552938101939281019260010161089b565b90601f8019910116810190811067ffffffffffffffff8211176108df57604052565b634e487b7160e01b600052604160045260246000fd5b51906001600160a01b038216820361084f57565b5190811515820361084f57565b90602090818382031261084f57825167ffffffffffffffff9384821161084f57019160c08383031261084f576040519360c08501858110828211176108df57604052835185528184015181811161084f57840183601f8201121561084f5780519182116108df5760405193610994601f8401601f19168501866108bd565b82855283838301011161084f5760005b8281106109f957505060009083018201528301526109f19060a0906109cb604082016108f5565b60408501526109dc606082016108f5565b60608501526080810151608085015201610909565b60a082015290565b81810184015185820185015283016109a4565b15610a1357565b60405162461bcd60e51b815260206004820152600f60248201526e2737ba1030b3b2b73a1037bbb732b960891b6044820152606490fd5b8054680100000000000000008110156108df57610a6c91600182018155610854565b819291549060031b91821b91600019901b1916179055565b6000198114610a935760010190565b634e487b7160e01b600052601160045260246000fd5b8015610a93576000190190565b67ffffffffffffffff81116108df5760051b60200190565b90610ad882610ab6565b610ae560405191826108bd565b8281528092610af6601f1991610ab6565b0190602036910137565b805182101561086c5760209160051b01019056fea2646970667358221220133153a6c5d9ac50cf407f3c67c4f9ed2e430c44c546b8a9ae93fd938de1d56464736f6c63430008140033",
  "linkReferences": {},
  "deployedLinkReferences": {}
}