{
  "_format": "hh-sol-artifact-1",
  "contractName": "AgentAssets",
  "sourceName": "contracts/megaeth/assets/AgentAssets.sol",
  "abi": [
    {
      "inputs": [
        {
          "internalType": "address",
          "name": "coreAddress",
          "type": "address"
        }
      ],
      "stateMutability": "nonpayable",
      "type": "constructor"
    },
    {
      "anonymous": false,
      "inputs": [
        {
          "indexed": true,
          "internalType": "uint256",
          "name": "assetId",
          "type": "uint256"
        },
        {
          "indexed": true,
          "internalType": "uint256",
          "name": "agentId",
          "type": "uint256"
        },
        {
          "indexed": false,
          "internalType": "string",
          "name": "name",
          "type": "string"
        },
        {
          "indexed": false,
          "internalType": "string",
          "name": "mimeType",
          "type": "string"
        },
        {
          "indexed": false,
          "internalType": "uint256",
          "name": "size",
          "type": "uint256"
        }
      ],
      "name": "AssetCreated",
      "type": "event"
    },
    {
      "anonymous": false,
      "inputs": [
        {
          "indexed": true,
          "internalType": "uint256",
          "name": "agentId",
          "type": "uint256"
        },
        {
          "indexed": true,
          "internalType": "uint256",
          "name": "assetId",
          "type": "uint256"
        }
      ],
      "name": "PrimaryPfpSet",
      "type": "event"
    },
    {
      "inputs": [
        {
          "internalType": "uint256",
          "name": "",
          "type": "uint256"
        },
        {
          "internalType": "uint256",
          "name": "",
          "type": "uint256"
        }
      ],
      "name": "agentAssets",
      "outputs": [
        {
          "internalType": "uint256",
          "name": "",
          "type": "uint256"
        }
      ],
      "stateMutability": "view",
      "type": "function"
    },
    {
      "inputs": [
        {
          "internalType": "uint256",
          "name": "",
          "type": "uint256"
        }
      ],
      "name": "agentPrimaryPfp",
      "outputs": [
        {
          "internalType": "uint256",
          "name": "",
          "type": "uint256"
        }
      ],
      "stateMutability": "view",
      "type": "function"
    },
    {
      "inputs": [
        {
          "internalType": "uint256",
          "name": "",
          "type": "uint256"
        }
      ],
      "name": "assets",
      "outputs": [
        {
          "internalType": "uint256",
          "name": "id",
          "type": "uint256"
        },
        {
          "internalType": "uint256",
          "name": "agentId",
          "type": "uint256"
        },
        {
          "internalType": "string",
          "name": "name",
          "type": "string"
        },
        {
          "internalType": "string",
          "name": "mimeType",
          "type": "string"
        },
        {
          "internalType": "uint256",
          "name": "totalSize",
          "type": "uint256"
        },
        {
          "internalType": "uint256",
          "name": "createdAt",
          "type": "uint256"
        },
        {
          "internalType": "bool",
          "name": "exists",
          "type": "bool"
        }
      ],
      "stateMutability": "view",
      "type": "function"
    },
    {
      "inputs": [],
      "name": "core",
      "outputs": [
        {
          "internalType": "contract AgentCore",
          "name": "",
          "type": "address"
        }
      ],
      "stateMutability": "view",
      "type": "function"
    },
    {
      "inputs": [
        {
          "internalType": "uint256",
          "name": "agentId",
          "type": "uint256"
        }
      ],
      "name": "getAgentAssets",
      "outputs": [
        {
          "internalType": "uint256[]",
          "name": "",
          "type": "uint256[]"
        }
      ],
      "stateMutability": "view",
      "type": "function"
    },
    {
      "inputs": [
        {
          "internalType": "uint256",
          "name": "assetId",
          "type": "uint256"
        }
      ],
      "name": "getAsset",
      "outputs": [
        {
          "components": [
            {
              "internalType": "uint256",
              "name": "id",
              "type": "uint256"
            },
            {
              "internalType": "uint256",
              "name": "agentId",
              "type": "uint256"
            },
            {
              "internalType": "string",
              "name": "name",
              "type": "string"
            },
            {
              "internalType": "string",
              "name": "mimeType",
              "type": "string"
            },
            {
              "internalType": "address[]",
              "name": "chunks",
              "type": "address[]"
            },
            {
              "internalType": "uint256",
              "name": "totalSize",
              "type": "uint256"
            },
            {
              "internalType": "uint256",
              "name": "createdAt",
              "type": "uint256"
            },
            {
              "internalType": "bool",
              "name": "exists",
              "type": "bool"
            }
          ],
          "internalType": "struct AgentAssets.Asset",
          "name": "",
          "type": "tuple"
        }
      ],
      "stateMutability": "view",
      "type": "function"
    },
    {
      "inputs": [
        {
          "internalType": "uint256",
          "name": "assetId",
          "type": "uint256"
        }
      ],
      "name": "getAssetData",
      "outputs": [
        {
          "internalType": "bytes",
          "name": "",
          "type": "bytes"
        }
      ],
      "stateMutability": "view",
      "type": "function"
    },
    {
      "inputs": [
        {
          "internalType": "uint256",
          "name": "agentId",
          "type": "uint256"
        }
      ],
      "name": "getPrimaryPfp",
      "outputs": [
        {
          "internalType": "uint256",
          "name": "",
          "type": "uint256"
        }
      ],
      "stateMutability": "view",
      "type": "function"
    },
    {
      "inputs": [
        {
          "internalType": "uint256",
          "name": "agentId",
          "type": "uint256"
        }
      ],
      "name": "getPrimaryPfpData",
      "outputs": [
        {
          "internalType": "bytes",
          "name": "",
          "type": "bytes"
        },
        {
          "internalType": "string",
          "name": "",
          "type": "string"
        }
      ],
      "stateMutability": "view",
      "type": "function"
    },
    {
      "inputs": [],
      "name": "nextAssetId",
      "outputs": [
        {
          "internalType": "uint256",
          "name": "",
          "type": "uint256"
        }
      ],
      "stateMutability": "view",
      "type": "function"
    },
    {
      "inputs": [
        {
          "internalType": "uint256",
          "name": "agentId",
          "type": "uint256"
        },
        {
          "internalType": "uint256",
          "name": "assetId",
          "type": "uint256"
        }
      ],
      "name": "setPrimaryPfp",
      "outputs": [],
      "stateMutability": "nonpayable",
      "type": "function"
    },
    {
      "inputs": [
        {
          "internalType": "uint256",
          "name": "agentId",
          "type": "uint256"
        },
        {
          "internalType": "string",
          "name": "name",
          "type": "string"
        },
        {
          "internalType": "string",
          "name": "mimeType",
          "type": "string"
        },
        {
          "internalType": "bytes",
          "name": "data",
          "type": "bytes"
        }
      ],
      "name": "storeAsset",
      "outputs": [
        {
          "internalType": "uint256",
          "name": "",
          "type": "uint256"
        }
      ],
      "stateMutability": "nonpayable",
      "type": "function"
    }
  ],
  "bytecode": "0x60a03461007a57601f6114b438819003918201601f19168301916001600160401b0383118484101761007f5780849260209460405283398101031261007a57516001600160a01b0381169081900361007a5760805260405161141e90816100968239608051818181610197015281816108b801526109ad0152f35b600080fd5b634e487b7160e01b600052604160045260246000fdfe6080604052600436101561001257600080fd5b60003560e01c80633b22ac6f146100d25780636a422313146100cd57806373623c69146100af5780637d1108f5146100c857806385adc70c146100c35780638ed91318146100be578063b036cd18146100b9578063cf35bdd0146100b4578063d982eb48146100af578063eac8f5b8146100aa578063f2f4eb26146100a55763f473d83b146100a057600080fd5b610915565b6108a2565b610817565b6102a4565b6106b1565b6104c9565b610470565b610429565b61032c565b610156565b61010a565b634e487b7160e01b600052603260045260246000fd5b80548210156101055760005260206000200190600090565b6100d7565b346101515760403660031901126101515760243560043560005260026020526040600020805482101561015157602091610143916100ed565b90546040519160031b1c8152f35b600080fd5b3461015157604080600319360112610151578051632de5aaf760e01b8152600480359082018190526000926024803593906001600160a01b039086908390817f000000000000000000000000000000000000000000000000000000000000000085165afa91821561029f576101d9928491889161027d575b500151163314610cb4565b82845260016020526101f360ff60078387200154166110a5565b828452600160205281600182862001540361024657508161021e826000526003602052604060002090565b557f11938771f0164995df4c20ec6499c0a25db922262e84dce18965fc292441ad998380a380f35b5162461bcd60e51b8152602060048201526011602482015270139bdd081859d95b9d09dcc8185cdcd95d607a1b6044820152606490fd5b61029991503d808a833e61029181836105e9565b810190610bff565b386101ce565b610ca8565b346101515760203660031901126101515760043560005260036020526020604060002054604051908152f35b60005b8381106102e35750506000910152565b81810151838201526020016102d3565b9060209161030c815180928185528580860191016102d0565b601f01601f1916010190565b9060206103299281815201906102f3565b90565b3461015157602036600319011261015157600060043581526001806020526040822061036461035f600783015460ff1690565b6110a5565b610371600582015461125c565b918360048193018054935b84811061039557604051806103918882610318565b0390f35b6103bf6103ba6103a583856100ed565b905460039190911b1c6001600160a01b031690565b611295565b8484815b6103d9575b5050506103d490610d08565b61037c565b825181101561042457806104016103f361041e9386611284565b516001600160f81b03191690565b9a61041861040e82610d08565b9c891a918c611284565b53610d08565b816103c3565b6103c8565b346101515760203660031901126101515761046261039161044b60043561130d565b6040929192519384936040855260408501906102f3565b9083820360208501526102f3565b34610151576000366003190112610151576020600054604051908152f35b6020908160408183019282815285518094520193019160005b8281106104b5575050505090565b8351855293810193928101926001016104a7565b34610151576020806003193601126101515760043560005260028152604060002090604051908181845491828152019360005281600020916000905b828210610528576103918561051c818903826105e9565b6040519182918261048e565b835486529485019460019384019390910190610505565b90600182811c9216801561056f575b602083101461055957565b634e487b7160e01b600052602260045260246000fd5b91607f169161054e565b634e487b7160e01b600052604160045260246000fd5b610100810190811067ffffffffffffffff8211176105ac57604052565b610579565b60c0810190811067ffffffffffffffff8211176105ac57604052565b6020810190811067ffffffffffffffff8211176105ac57604052565b90601f8019910116810190811067ffffffffffffffff8211176105ac57604052565b906040519182600082549261061f8461053f565b90818452600194858116908160001461068e575060011461064b575b5050610649925003836105e9565b565b9093915060005260209081600020936000915b8183106106765750506106499350820101388061063b565b8554888401850152948501948794509183019161065e565b91505061064994506020925060ff191682840152151560051b820101388061063b565b34610151576020366003190112610151576004356000526001602052604060002080546001820154916106e66002820161060b565b6106f26003830161060b565b9161073960058201549361072b60ff6007600686015495015416946040519889988952602089015260e0604089015260e08801906102f3565b9086820360608801526102f3565b92608085015260a0840152151560c08301520390f35b90815180825260208080930193019160005b82811061076f575050505090565b83516001600160a01b031685529381019392810192600101610761565b61032990602081528251602082015260208301516040820152604083015160e06107f86107c7610100938460608701526101208601906102f3565b6107e3606088015191601f1992838883030160808901526102f3565b906080880151908683030160a087015261074f565b9460a081015160c085015260c081015182850152015191019015159052565b3461015157602036600319011261015157610391610896604060e060043582516108408161058f565b6000928184809352826020820152606086820152606080820152606060808201528260a08201528260c08201520152808252600160205261088960ff60078585200154166110a5565b81526001602052206111d1565b6040519182918261078c565b34610151576000366003190112610151576040517f00000000000000000000000000000000000000000000000000000000000000006001600160a01b03168152602090f35b9181601f840112156101515782359167ffffffffffffffff8311610151576020838186019501011161015157565b346101515760803660031901126101515760043567ffffffffffffffff6024358181116101515761094a9036906004016108e7565b604493919335838111610151576109659036906004016108e7565b949093606435908111610151576109809036906004016108e7565b604051632de5aaf760e01b815260048101869052919660009691929091906001600160a01b0388826024817f000000000000000000000000000000000000000000000000000000000000000085165afa91821561029f576109ef926040918b91610b6c57500151163314610cb4565b8654966109fb88610d08565b8155610a19610a11610a0c86610d1c565b610d2b565b615dc0900490565b610a2281610d52565b915b818110610b03576103918a8a817f7ae2169eda7d6d6002bac56b65d2ed17df9ea129c81b5ed7d116f80aeecec60e8c8c610af08d8d8d610ac78e610a66610b80565b908a82528b6020830152610a7b368a8a610db3565b6040830152610a8b368686610db3565b606083015260808201528460a08201524260c0820152610aae60e0820160019052565b610ac28a6000526001602052604060002090565b610f29565b610ae488610adf8b6000526002602052604060002090565b611020565b60405195869586611076565b0390a36040519081529081906020820190565b80610b59610b40610b3b610b348f610b1d610b5e97610d84565b8c610b2782610d1c565b92818411610b6357610d9b565b3691610db3565b6110e8565b610b4a8387610dea565b6001600160a01b039091169052565b610d08565b610a24565b92508092610d9b565b61029991503d808d833e61029181836105e9565b604051906106498261058f565b67ffffffffffffffff81116105ac57601f01601f191660200190565b90929192610bb681610b8d565b91610bc460405193846105e9565b8294828452828201116101515760206106499301906102d0565b51906001600160a01b038216820361015157565b5190811515820361015157565b9060208282031261015157815167ffffffffffffffff9283821161015157019060c0828203126101515760405192610c36846105b1565b8251845260208301519081116101515782019181601f8401121561015157610c6960a092846020610ca096519101610ba9565b6020850152610c7a60408201610bde565b6040850152610c8b60608201610bde565b60608501526080810151608085015201610bf2565b60a082015290565b6040513d6000823e3d90fd5b15610cbb57565b60405162461bcd60e51b815260206004820152600f60248201526e2737ba1030b3b2b73a1037bbb732b960891b6044820152606490fd5b634e487b7160e01b600052601160045260246000fd5b6000198114610d175760010190565b610cf2565b90615dc08201809211610d1757565b600019810191908211610d1757565b67ffffffffffffffff81116105ac5760051b60200190565b90610d5c82610d3a565b610d6960405191826105e9565b8281528092610d7a601f1991610d3a565b0190602036910137565b90615dc091828102928184041490151715610d1757565b90939293848311610151578411610151578101920390565b929192610dbf82610b8d565b91610dcd60405193846105e9565b829481845281830111610151578281602093846000960137010152565b80518210156101055760209160051b010190565b818110610e09575050565b60008155600101610dfe565b9190601f8111610e2457505050565b610649926000526020600020906020601f840160051c83019310610e50575b601f0160051c0190610dfe565b9091508190610e43565b919091825167ffffffffffffffff81116105ac57610e8281610e7c845461053f565b84610e15565b602080601f8311600114610ebe575081929394600092610eb3575b50508160011b916000199060031b1c1916179055565b015190503880610e9d565b90601f19831695610ed485600052602060002090565b926000905b888210610f1157505083600195969710610ef8575b505050811b019055565b015160001960f88460031b161c19169055388080610eee565b80600185968294968601518155019501930190610ed9565b90805182556020808201519060019182850155610f4d604084015160028601610e5a565b610f5e606084015160038601610e5a565b6004840160808401519182519267ffffffffffffffff84116105ac57600160401b84116105ac5781908354858555808610611003575b500191600052806000209060005b848110610fe957505050505050906007610fd660e08460a0610649960151600586015560c081015160068601550151151590565b91019060ff801983541691151516179055565b83516001600160a01b031683820155928101928501610fa2565b61101a908560005286846000209182019101610dfe565b38610f94565b8054600160401b8110156105ac5761103d916001820181556100ed565b819291549060031b91821b91600019901b1916179055565b908060209392818452848401376000828201840152601f01601f1916010190565b959493611092604094926110a09460608a5260608a0191611055565b918783036020890152611055565b930152565b156110ac57565b60405162461bcd60e51b8152602060048201526014602482015273105cdcd95d08191bd95cc81b9bdd08195e1a5cdd60621b6044820152606490fd5b60405161111d60218260208101946000865261110d81518092602086860191016102d0565b81010360018101845201826105e9565b51906000f06001600160a01b038116156111345790565b60405162461bcd60e51b815260206004820152601a60248201527f5353544f5245323a206465706c6f796d656e74206661696c65640000000000006044820152606490fd5b9060405191828154918282526020928383019160005283600020936000905b8282106111ae57505050610649925003836105e9565b85546001600160a01b031684526001958601958895509381019390910190611198565b9061064961124060076111e2610b80565b9480548652600181015460208701526111fd6002820161060b565b604087015261120e6003820161060b565b606087015261121f60048201611179565b6080870152600581015460a0870152600681015460c0870152015460ff1690565b151560e0840152565b60405190611256826105cd565b60008252565b9061126682610b8d565b61127360405191826105e9565b8281528092610d7a601f1991610b8d565b908151811015610105570160200190565b803b60018111156112c1576000198101908111610d175760016112b78261125c565b9260208401903c90565b50506040516112cf816105cd565b6000815290565b6020818303126101515780519067ffffffffffffffff821161015157019080601f8301121561015157815161032992602001610ba9565b611321906000526003602052604060002090565b5490811580156113c0575b6113ad576113696000611349846000526001602052604060002090565b9360405180938192637d1108f560e01b8352600483019190602083019252565b0381305afa90811561029f576103299160039160009161138c575b50930161060b565b6113a7913d8091833e61139f81836105e9565b8101906112d6565b38611384565b90506113b7611249565b90610329611249565b506113e360ff60076113dc856000526001602052604060002090565b0154161590565b61132c56fea2646970667358221220ff390d067e0903b00c44de1577a1c5b49bd873fe556c06efa1d312e8497ca49d64736f6c63430008140033",
  "linkReferences": {},
  "deployedLinkReferences": {}
}