{
  "_format": "hh-sol-artifact-1",
  "contractName": "AgentCore",
  "sourceName": "contracts/megaeth/core/AgentCore.sol",
  "abi": [
    {
      "inputs": [
        {
          "internalType": "address",
          "name": "_usdc",
          "type": "address"
        },
        {
          "internalType": "address",
          "name": "_treasury",
          "type": "address"
        }
      ],
      "stateMutability": "nonpayable",
      "type": "constructor"
    },
    {
      "anonymous": false,
      "inputs": [
        {
          "indexed": true,
          "internalType": "uint256",
          "name": "id",
          "type": "uint256"
        },
        {
          "indexed": false,
          "internalType": "string",
          "name": "name",
          "type": "string"
        },
        {
          "indexed": true,
          "internalType": "address",
          "name": "owner",
          "type": "address"
        },
        {
          "indexed": true,
          "internalType": "address",
          "name": "creator",
          "type": "address"
        },
        {
          "indexed": false,
          "internalType": "uint256",
          "name": "bornAt",
          "type": "uint256"
        }
      ],
      "name": "AgentBorn",
      "type": "event"
    },
    {
      "anonymous": false,
      "inputs": [
        {
          "indexed": true,
          "internalType": "uint256",
          "name": "agentId",
          "type": "uint256"
        },
        {
          "indexed": false,
          "internalType": "uint256",
          "name": "remaining",
          "type": "uint256"
        }
      ],
      "name": "FreeMintUsed",
      "type": "event"
    },
    {
      "anonymous": false,
      "inputs": [
        {
          "indexed": false,
          "internalType": "string",
          "name": "moduleName",
          "type": "string"
        },
        {
          "indexed": false,
          "internalType": "address",
          "name": "moduleAddress",
          "type": "address"
        }
      ],
      "name": "ModuleUpdated",
      "type": "event"
    },
    {
      "inputs": [],
      "name": "BIRTH_PRICE",
      "outputs": [
        {
          "internalType": "uint256",
          "name": "",
          "type": "uint256"
        }
      ],
      "stateMutability": "view",
      "type": "function"
    },
    {
      "inputs": [],
      "name": "admin",
      "outputs": [
        {
          "internalType": "address",
          "name": "",
          "type": "address"
        }
      ],
      "stateMutability": "view",
      "type": "function"
    },
    {
      "inputs": [
        {
          "internalType": "uint256",
          "name": "",
          "type": "uint256"
        }
      ],
      "name": "agents",
      "outputs": [
        {
          "internalType": "uint256",
          "name": "id",
          "type": "uint256"
        },
        {
          "internalType": "string",
          "name": "name",
          "type": "string"
        },
        {
          "internalType": "address",
          "name": "owner",
          "type": "address"
        },
        {
          "internalType": "address",
          "name": "creator",
          "type": "address"
        },
        {
          "internalType": "uint256",
          "name": "bornAt",
          "type": "uint256"
        },
        {
          "internalType": "bool",
          "name": "exists",
          "type": "bool"
        }
      ],
      "stateMutability": "view",
      "type": "function"
    },
    {
      "inputs": [],
      "name": "assetsModule",
      "outputs": [
        {
          "internalType": "address",
          "name": "",
          "type": "address"
        }
      ],
      "stateMutability": "view",
      "type": "function"
    },
    {
      "inputs": [
        {
          "internalType": "string",
          "name": "name",
          "type": "string"
        },
        {
          "internalType": "address",
          "name": "agentWallet",
          "type": "address"
        }
      ],
      "name": "birth",
      "outputs": [
        {
          "internalType": "uint256",
          "name": "",
          "type": "uint256"
        }
      ],
      "stateMutability": "nonpayable",
      "type": "function"
    },
    {
      "inputs": [],
      "name": "contentModule",
      "outputs": [
        {
          "internalType": "address",
          "name": "",
          "type": "address"
        }
      ],
      "stateMutability": "view",
      "type": "function"
    },
    {
      "inputs": [],
      "name": "freeMintsRemaining",
      "outputs": [
        {
          "internalType": "uint256",
          "name": "",
          "type": "uint256"
        }
      ],
      "stateMutability": "view",
      "type": "function"
    },
    {
      "inputs": [
        {
          "internalType": "uint256",
          "name": "agentId",
          "type": "uint256"
        }
      ],
      "name": "getAgent",
      "outputs": [
        {
          "components": [
            {
              "internalType": "uint256",
              "name": "id",
              "type": "uint256"
            },
            {
              "internalType": "string",
              "name": "name",
              "type": "string"
            },
            {
              "internalType": "address",
              "name": "owner",
              "type": "address"
            },
            {
              "internalType": "address",
              "name": "creator",
              "type": "address"
            },
            {
              "internalType": "uint256",
              "name": "bornAt",
              "type": "uint256"
            },
            {
              "internalType": "bool",
              "name": "exists",
              "type": "bool"
            }
          ],
          "internalType": "struct AgentCore.Agent",
          "name": "",
          "type": "tuple"
        }
      ],
      "stateMutability": "view",
      "type": "function"
    },
    {
      "inputs": [
        {
          "internalType": "string",
          "name": "name",
          "type": "string"
        }
      ],
      "name": "getAgentByName",
      "outputs": [
        {
          "components": [
            {
              "internalType": "uint256",
              "name": "id",
              "type": "uint256"
            },
            {
              "internalType": "string",
              "name": "name",
              "type": "string"
            },
            {
              "internalType": "address",
              "name": "owner",
              "type": "address"
            },
            {
              "internalType": "address",
              "name": "creator",
              "type": "address"
            },
            {
              "internalType": "uint256",
              "name": "bornAt",
              "type": "uint256"
            },
            {
              "internalType": "bool",
              "name": "exists",
              "type": "bool"
            }
          ],
          "internalType": "struct AgentCore.Agent",
          "name": "",
          "type": "tuple"
        }
      ],
      "stateMutability": "view",
      "type": "function"
    },
    {
      "inputs": [
        {
          "internalType": "address",
          "name": "owner",
          "type": "address"
        }
      ],
      "name": "getAgentByOwner",
      "outputs": [
        {
          "components": [
            {
              "internalType": "uint256",
              "name": "id",
              "type": "uint256"
            },
            {
              "internalType": "string",
              "name": "name",
              "type": "string"
            },
            {
              "internalType": "address",
              "name": "owner",
              "type": "address"
            },
            {
              "internalType": "address",
              "name": "creator",
              "type": "address"
            },
            {
              "internalType": "uint256",
              "name": "bornAt",
              "type": "uint256"
            },
            {
              "internalType": "bool",
              "name": "exists",
              "type": "bool"
            }
          ],
          "internalType": "struct AgentCore.Agent",
          "name": "",
          "type": "tuple"
        }
      ],
      "stateMutability": "view",
      "type": "function"
    },
    {
      "inputs": [
        {
          "internalType": "uint256",
          "name": "agentId",
          "type": "uint256"
        }
      ],
      "name": "isAgent",
      "outputs": [
        {
          "internalType": "bool",
          "name": "",
          "type": "bool"
        }
      ],
      "stateMutability": "view",
      "type": "function"
    },
    {
      "inputs": [],
      "name": "isFreeMintsAvailable",
      "outputs": [
        {
          "internalType": "bool",
          "name": "",
          "type": "bool"
        }
      ],
      "stateMutability": "view",
      "type": "function"
    },
    {
      "inputs": [
        {
          "internalType": "bytes32",
          "name": "",
          "type": "bytes32"
        }
      ],
      "name": "nameToId",
      "outputs": [
        {
          "internalType": "uint256",
          "name": "",
          "type": "uint256"
        }
      ],
      "stateMutability": "view",
      "type": "function"
    },
    {
      "inputs": [],
      "name": "nextAgentId",
      "outputs": [
        {
          "internalType": "uint256",
          "name": "",
          "type": "uint256"
        }
      ],
      "stateMutability": "view",
      "type": "function"
    },
    {
      "inputs": [
        {
          "internalType": "address",
          "name": "",
          "type": "address"
        }
      ],
      "name": "ownerToId",
      "outputs": [
        {
          "internalType": "uint256",
          "name": "",
          "type": "uint256"
        }
      ],
      "stateMutability": "view",
      "type": "function"
    },
    {
      "inputs": [],
      "name": "profileModule",
      "outputs": [
        {
          "internalType": "address",
          "name": "",
          "type": "address"
        }
      ],
      "stateMutability": "view",
      "type": "function"
    },
    {
      "inputs": [
        {
          "internalType": "address",
          "name": "newAdmin",
          "type": "address"
        }
      ],
      "name": "setAdmin",
      "outputs": [],
      "stateMutability": "nonpayable",
      "type": "function"
    },
    {
      "inputs": [
        {
          "internalType": "address",
          "name": "module",
          "type": "address"
        }
      ],
      "name": "setAssetsModule",
      "outputs": [],
      "stateMutability": "nonpayable",
      "type": "function"
    },
    {
      "inputs": [
        {
          "internalType": "address",
          "name": "module",
          "type": "address"
        }
      ],
      "name": "setContentModule",
      "outputs": [],
      "stateMutability": "nonpayable",
      "type": "function"
    },
    {
      "inputs": [
        {
          "internalType": "uint256",
          "name": "_amount",
          "type": "uint256"
        }
      ],
      "name": "setFreeMintsRemaining",
      "outputs": [],
      "stateMutability": "nonpayable",
      "type": "function"
    },
    {
      "inputs": [
        {
          "internalType": "address",
          "name": "module",
          "type": "address"
        }
      ],
      "name": "setProfileModule",
      "outputs": [],
      "stateMutability": "nonpayable",
      "type": "function"
    },
    {
      "inputs": [
        {
          "internalType": "address",
          "name": "module",
          "type": "address"
        }
      ],
      "name": "setSocialModule",
      "outputs": [],
      "stateMutability": "nonpayable",
      "type": "function"
    },
    {
      "inputs": [
        {
          "internalType": "address",
          "name": "_treasury",
          "type": "address"
        }
      ],
      "name": "setTreasury",
      "outputs": [],
      "stateMutability": "nonpayable",
      "type": "function"
    },
    {
      "inputs": [],
      "name": "socialModule",
      "outputs": [
        {
          "internalType": "address",
          "name": "",
          "type": "address"
        }
      ],
      "stateMutability": "view",
      "type": "function"
    },
    {
      "inputs": [],
      "name": "totalAgents",
      "outputs": [
        {
          "internalType": "uint256",
          "name": "",
          "type": "uint256"
        }
      ],
      "stateMutability": "view",
      "type": "function"
    },
    {
      "inputs": [
        {
          "internalType": "uint256",
          "name": "agentId",
          "type": "uint256"
        },
        {
          "internalType": "address",
          "name": "newOwner",
          "type": "address"
        }
      ],
      "name": "transferOwnership",
      "outputs": [],
      "stateMutability": "nonpayable",
      "type": "function"
    },
    {
      "inputs": [],
      "name": "treasury",
      "outputs": [
        {
          "internalType": "address",
          "name": "",
          "type": "address"
        }
      ],
      "stateMutability": "view",
      "type": "function"
    },
    {
      "inputs": [],
      "name": "usdc",
      "outputs": [
        {
          "internalType": "contract IERC20",
          "name": "",
          "type": "address"
        }
      ],
      "stateMutability": "view",
      "type": "function"
    }
  ],
  "bytecode": "0x60a0346100a857601f6113cd38819003918201601f19168301916001600160401b038311848410176100ad5780849260409485528339810103126100a857610052602061004b836100c3565b92016100c3565b600a6009819055600880546001600160a01b031990811633179091556001600160a01b03938416608052815416929091169190911790556040516112f590816100d882396080518181816107c00152610bfe0152f35b600080fd5b634e487b7160e01b600052604160045260246000fd5b51906001600160a01b03821682036100a85756fe6080604052600436101561001257600080fd5b60003560e01c80630381ee7914610ed75780630f88e5cb14610eae57806325ed824314610e2f57806329507f7314610d095780632de5aaf714610c5b5780632fc3643f14610c2d57806330efc4981461022d5780633e413bee14610be857806349f3762e14610bb4578063513856c814610b2857806356c704b814610aff57806361d027b314610ad65780636b8e634314610ab85780636c86a43014610a8c578063704b6c0214610a455780637823b50f146109c55780637df07608146109455780638868b9ff146109275780638bd7551c1461090757806397b7a07f146103de578063a435fd13146103b5578063b0034f0f146102ca578063c213a9491461024b578063c50537121461022d578063d4ae96b414610204578063e729e3a4146101ca578063f0f442601461017e5763f851a4401461015057600080fd5b34610179576000366003190112610179576008546040516001600160a01b039091168152602090f35b600080fd5b3461017957602036600319011261017957610197610f9b565b6008546001600160a01b0391906101b190831633146111f2565b166001600160601b0360a01b600a541617600a55600080f35b34610179576020366003190112610179576001600160a01b036101eb610f9b565b1660005260036020526020604060002054604051908152f35b34610179576000366003190112610179576005546040516001600160a01b039091168152602090f35b34610179576000366003190112610179576020600054604051908152f35b34610179576020366003190112610179576000805160206112a08339815191526080610275610f9b565b6008546001600160a01b03919061028f90831633146111f2565b16806001600160601b0360a01b60075416176007556040519060408252600660408301526561737365747360d01b60608301526020820152a1005b3461017957602080600319360112610179576004359067ffffffffffffffff8211610179576103136103036103b193369060040161117d565b61030b61122a565b5036916111ab565b81815191012060005260028152604060002054806000526001825261034260ff6005604060002001541661125c565b6000526001815260ff600560406000206040519361035f85611099565b8154855261036f600183016110d7565b9085015260018060a01b03806002830154166040860152600382015416606085015260048101546080850152015416151560a082015260405191829182611007565b0390f35b34610179576000366003190112610179576006546040516001600160a01b039091168152602090f35b346101795760403660031901126101795760043567ffffffffffffffff81116101795761040f90369060040161117d565b610417610fb1565b6104223683856111ab565b602081519101209182600052600260205260406000205480159081156108ea575b50156108b8576001600160a01b038216600090815260036020526040902054610873576009541561078157600954801561076b5760001901806009557ff6f9047a0ab0a4711f58de93a110abd09b7757b68800b28f74fc98cf469f3059602060005492604051908152a25b60005492600019841461076b5760018401600055604051906104cf82611099565b8482526104dd3684886111ab565b916020810192835260018060a01b0385166040820152336060820152426080820152600160a0820152856000526001602052604060002092815184555180519067ffffffffffffffff821161075557610539600186015461105f565b601f811161070e575b5091879391602099938a90601f831160011461067457968260a0936005937f9effc2cf8372f40ed7734cdbf767b74bfef2e3916a3342b1b86db64a9393305d999a600092610669575b50508160011b916000199060031b1c19161760018201555b60028101600180851b03604086015116906001600160601b03851b91828254161790556003820190600180861b03606087015116908254161790556080840151600482015501910151151560ff80198354169116179055600052600287528260406000205560018060a01b038516600052600387528260406000205583604051916040835281604084015260608301376000818501606090810191909152428883015233956001600160a01b031694601f01601f191682018290030190a4604051908152f35b015190508e8061058b565b600188939298016000528b6000209060005b601f19841681106106f457508260a094927f9effc2cf8372f40ed7734cdbf767b74bfef2e3916a3342b1b86db64a9393305d999a600193600596601f198116106106db575b505050811b0160018201556105a3565b015160001960f88460031b161c191690558e80806106cb565b818a01518355988d01988c98506001909201918d01610686565b600186016000526020600020601f840160051c81016020851061074e575b601f830160051c82018110610742575050610542565b6000815560010161072c565b508061072c565b634e487b7160e01b600052604160045260246000fd5b634e487b7160e01b600052601160045260246000fd5b600a546040516323b872dd60e01b81523360048201526001600160a01b03918216602482015262694920604482015290602090829060649082906000907f0000000000000000000000000000000000000000000000000000000000000000165af19081156108675760009161082c575b506104ae5760405162461bcd60e51b815260206004820152600e60248201526d14185e5b595b9d0819985a5b195960921b6044820152606490fd5b90506020813d60201161085f575b81610847602093836110b5565b810103126101795751801515810361017957856107f1565b3d915061083a565b6040513d6000823e3d90fd5b60405162461bcd60e51b815260206004820152601860248201527f57616c6c657420616c726561647920686173206167656e7400000000000000006044820152606490fd5b60405162461bcd60e51b815260206004820152600a6024820152692730b6b2903a30b5b2b760b11b6044820152606490fd5b9050600052600160205260ff600560406000200154161585610443565b346101795760003660031901126101795760206009541515604051908152f35b34610179576000366003190112610179576020600954604051908152f35b34610179576020366003190112610179576000805160206112a0833981519152608061096f610f9b565b6008546001600160a01b03919061098990831633146111f2565b16806001600160601b0360a01b60045416176004556040519060408252600760408301526670726f66696c6560c81b60608301526020820152a1005b34610179576020366003190112610179576000805160206112a083398151915260806109ef610f9b565b6008546001600160a01b039190610a0990831633146111f2565b16806001600160601b0360a01b60055416176005556040519060408252600760408301526618dbdb9d195b9d60ca1b60608301526020820152a1005b3461017957602036600319011261017957610a5e610f9b565b600854906001600160a01b0390610a7833838516146111f2565b6001600160a01b0319909216911617600855005b346101795760203660031901126101795760043560005260026020526020604060002054604051908152f35b34610179576000366003190112610179576020604051626949208152f35b3461017957600036600319011261017957600a546040516001600160a01b039091168152602090f35b34610179576000366003190112610179576007546040516001600160a01b039091168152602090f35b3461017957602036600319011261017957600435600052600160205260406000208054610b57600183016110d7565b9160018060a01b039081600282015416916003820154169060ff600560048301549201541691610b99604051968796875260c0602088015260c0870190610fc7565b93604086015260608501526080840152151560a08301520390f35b34610179576020366003190112610179576004356000526001602052602060ff600560406000200154166040519015158152f35b34610179576000366003190112610179576040517f00000000000000000000000000000000000000000000000000000000000000006001600160a01b03168152602090f35b3461017957602036600319011261017957610c5360018060a01b036008541633146111f2565b600435600955005b3461017957602036600319011261017957600435610c7761122a565b50806000526001602052610c9560ff6005604060002001541661125c565b60005260016020526103b1604060002060ff600560405192610cb684611099565b80548452610cc6600182016110d7565b602085015260018060a01b03806002830154166040860152600382015416606085015260048101546080850152015416151560a082015260405191829182611007565b3461017957604036600319011261017957600435610d25610fb1565b816000526020906001825260018060a01b039081600260406000200154163303610df8578116908160005260038352604060002054610db35790600392918460005260018352600260406000200154166000528282526000604081205583600052600182526002604060002001816001600160601b0360a01b82541617905560005252604060002055600080f35b60405162461bcd60e51b815260048101849052601b60248201527f4e6577206f776e657220616c726561647920686173206167656e7400000000006044820152606490fd5b60405162461bcd60e51b815260048101849052600f60248201526e2737ba1030b3b2b73a1037bbb732b960891b6044820152606490fd5b34610179576020366003190112610179576000805160206112a08339815191526080610e59610f9b565b6008546001600160a01b039190610e7390831633146111f2565b16806001600160601b0360a01b6006541617600655604051906040825260066040830152651cdbd8da585b60d21b60608301526020820152a1005b34610179576000366003190112610179576004546040516001600160a01b039091168152602090f35b34610179576020366003190112610179576103b1610ef3610f9b565b610efb61122a565b5060018060a01b038091166000526003602052604060002054806000526001602052610f3160ff6005604060002001541661125c565b600052600160205260ff6005604060002060405193610f4f85611099565b81548552610f5f600183016110d7565b6020860152806002830154166040860152600382015416606085015260048101546080850152015416151560a082015260405191829182611007565b600435906001600160a01b038216820361017957565b602435906001600160a01b038216820361017957565b919082519283825260005b848110610ff3575050826000602080949584010152601f8019910116010190565b602081830181015184830182015201610fd2565b602081528151602082015260c060a061102e602085015183604086015260e0850190610fc7565b93600180831b0380604083015116606086015260608201511660808501526080810151828501520151151591015290565b90600182811c9216801561108f575b602083101461107957565b634e487b7160e01b600052602260045260246000fd5b91607f169161106e565b60c0810190811067ffffffffffffffff82111761075557604052565b90601f8019910116810190811067ffffffffffffffff82111761075557604052565b90604051918260008254926110eb8461105f565b90818452600194858116908160001461115a5750600114611117575b5050611115925003836110b5565b565b9093915060005260209081600020936000915b81831061114257505061111593508201013880611107565b8554888401850152948501948794509183019161112a565b91505061111594506020925060ff191682840152151560051b8201013880611107565b9181601f840112156101795782359167ffffffffffffffff8311610179576020838186019501011161017957565b92919267ffffffffffffffff821161075557604051916111d5601f8201601f1916602001846110b5565b829481845281830111610179578281602093846000960137010152565b156111f957565b60405162461bcd60e51b81526020600482015260096024820152682737ba1030b236b4b760b91b6044820152606490fd5b6040519061123782611099565b600060a083828152606060208201528260408201528260608201528260808201520152565b1561126357565b60405162461bcd60e51b81526020600482015260146024820152731059d95b9d08191bd95cc81b9bdd08195e1a5cdd60621b6044820152606490fdfe9a65d3ab497a14ced7d0123f7db0415db7b263e28d7b16267d6f3497224a9054a2646970667358221220fbac13bfa2a5a80655af8f27ff9cced362132e555c05f8bb556ccb2cef23573864736f6c63430008140033",
  "linkReferences": {},
  "deployedLinkReferences": {}
}