{
  "_format": "hh-sol-artifact-1",
  "contractName": "AgentContent",
  "sourceName": "contracts/megaeth/content/AgentContent.sol",
  "abi": [
    {
      "inputs": [
        {
          "internalType": "address",
          "name": "coreAddress",
          "type": "address"
        }
      ],
      "stateMutability": "nonpayable",
      "type": "constructor"
    },
    {
      "anonymous": false,
      "inputs": [
        {
          "indexed": true,
          "internalType": "uint256",
          "name": "postId",
          "type": "uint256"
        },
        {
          "indexed": false,
          "internalType": "string",
          "name": "content",
          "type": "string"
        }
      ],
      "name": "PostContent",
      "type": "event"
    },
    {
      "anonymous": false,
      "inputs": [
        {
          "indexed": true,
          "internalType": "uint256",
          "name": "postId",
          "type": "uint256"
        },
        {
          "indexed": true,
          "internalType": "uint256",
          "name": "agentId",
          "type": "uint256"
        },
        {
          "indexed": false,
          "internalType": "string",
          "name": "contentType",
          "type": "string"
        },
        {
          "indexed": false,
          "internalType": "uint256",
          "name": "replyTo",
          "type": "uint256"
        },
        {
          "indexed": false,
          "internalType": "uint256",
          "name": "timestamp",
          "type": "uint256"
        }
      ],
      "name": "PostCreated",
      "type": "event"
    },
    {
      "inputs": [
        {
          "internalType": "uint256",
          "name": "",
          "type": "uint256"
        },
        {
          "internalType": "uint256",
          "name": "",
          "type": "uint256"
        }
      ],
      "name": "agentPosts",
      "outputs": [
        {
          "internalType": "uint256",
          "name": "",
          "type": "uint256"
        }
      ],
      "stateMutability": "view",
      "type": "function"
    },
    {
      "inputs": [],
      "name": "core",
      "outputs": [
        {
          "internalType": "contract AgentCore",
          "name": "",
          "type": "address"
        }
      ],
      "stateMutability": "view",
      "type": "function"
    },
    {
      "inputs": [
        {
          "internalType": "uint256",
          "name": "agentId",
          "type": "uint256"
        }
      ],
      "name": "getAgentPostCount",
      "outputs": [
        {
          "internalType": "uint256",
          "name": "",
          "type": "uint256"
        }
      ],
      "stateMutability": "view",
      "type": "function"
    },
    {
      "inputs": [
        {
          "internalType": "uint256",
          "name": "agentId",
          "type": "uint256"
        }
      ],
      "name": "getAgentPosts",
      "outputs": [
        {
          "internalType": "uint256[]",
          "name": "",
          "type": "uint256[]"
        }
      ],
      "stateMutability": "view",
      "type": "function"
    },
    {
      "inputs": [
        {
          "internalType": "uint256",
          "name": "agentId",
          "type": "uint256"
        },
        {
          "internalType": "uint256",
          "name": "offset",
          "type": "uint256"
        },
        {
          "internalType": "uint256",
          "name": "limit",
          "type": "uint256"
        }
      ],
      "name": "getAgentPostsPaginated",
      "outputs": [
        {
          "components": [
            {
              "internalType": "uint256",
              "name": "id",
              "type": "uint256"
            },
            {
              "internalType": "uint256",
              "name": "agentId",
              "type": "uint256"
            },
            {
              "internalType": "string",
              "name": "content",
              "type": "string"
            },
            {
              "internalType": "string",
              "name": "contentType",
              "type": "string"
            },
            {
              "internalType": "string[]",
              "name": "attachments",
              "type": "string[]"
            },
            {
              "internalType": "uint256",
              "name": "createdAt",
              "type": "uint256"
            },
            {
              "internalType": "uint256",
              "name": "replyTo",
              "type": "uint256"
            },
            {
              "internalType": "bool",
              "name": "exists",
              "type": "bool"
            }
          ],
          "internalType": "struct AgentContent.Post[]",
          "name": "",
          "type": "tuple[]"
        }
      ],
      "stateMutability": "view",
      "type": "function"
    },
    {
      "inputs": [
        {
          "internalType": "uint256",
          "name": "postId",
          "type": "uint256"
        }
      ],
      "name": "getPost",
      "outputs": [
        {
          "components": [
            {
              "internalType": "uint256",
              "name": "id",
              "type": "uint256"
            },
            {
              "internalType": "uint256",
              "name": "agentId",
              "type": "uint256"
            },
            {
              "internalType": "string",
              "name": "content",
              "type": "string"
            },
            {
              "internalType": "string",
              "name": "contentType",
              "type": "string"
            },
            {
              "internalType": "string[]",
              "name": "attachments",
              "type": "string[]"
            },
            {
              "internalType": "uint256",
              "name": "createdAt",
              "type": "uint256"
            },
            {
              "internalType": "uint256",
              "name": "replyTo",
              "type": "uint256"
            },
            {
              "internalType": "bool",
              "name": "exists",
              "type": "bool"
            }
          ],
          "internalType": "struct AgentContent.Post",
          "name": "",
          "type": "tuple"
        }
      ],
      "stateMutability": "view",
      "type": "function"
    },
    {
      "inputs": [
        {
          "internalType": "uint256",
          "name": "postId",
          "type": "uint256"
        }
      ],
      "name": "getPostReplies",
      "outputs": [
        {
          "internalType": "uint256[]",
          "name": "",
          "type": "uint256[]"
        }
      ],
      "stateMutability": "view",
      "type": "function"
    },
    {
      "inputs": [],
      "name": "nextPostId",
      "outputs": [
        {
          "internalType": "uint256",
          "name": "",
          "type": "uint256"
        }
      ],
      "stateMutability": "view",
      "type": "function"
    },
    {
      "inputs": [
        {
          "internalType": "uint256",
          "name": "agentId",
          "type": "uint256"
        },
        {
          "internalType": "string",
          "name": "content",
          "type": "string"
        },
        {
          "internalType": "string",
          "name": "contentType",
          "type": "string"
        },
        {
          "internalType": "string[]",
          "name": "attachments",
          "type": "string[]"
        }
      ],
      "name": "post",
      "outputs": [
        {
          "internalType": "uint256",
          "name": "",
          "type": "uint256"
        }
      ],
      "stateMutability": "nonpayable",
      "type": "function"
    },
    {
      "inputs": [
        {
          "internalType": "uint256",
          "name": "",
          "type": "uint256"
        },
        {
          "internalType": "uint256",
          "name": "",
          "type": "uint256"
        }
      ],
      "name": "postReplies",
      "outputs": [
        {
          "internalType": "uint256",
          "name": "",
          "type": "uint256"
        }
      ],
      "stateMutability": "view",
      "type": "function"
    },
    {
      "inputs": [
        {
          "internalType": "uint256",
          "name": "",
          "type": "uint256"
        }
      ],
      "name": "posts",
      "outputs": [
        {
          "internalType": "uint256",
          "name": "id",
          "type": "uint256"
        },
        {
          "internalType": "uint256",
          "name": "agentId",
          "type": "uint256"
        },
        {
          "internalType": "string",
          "name": "content",
          "type": "string"
        },
        {
          "internalType": "string",
          "name": "contentType",
          "type": "string"
        },
        {
          "internalType": "uint256",
          "name": "createdAt",
          "type": "uint256"
        },
        {
          "internalType": "uint256",
          "name": "replyTo",
          "type": "uint256"
        },
        {
          "internalType": "bool",
          "name": "exists",
          "type": "bool"
        }
      ],
      "stateMutability": "view",
      "type": "function"
    },
    {
      "inputs": [
        {
          "internalType": "uint256",
          "name": "agentId",
          "type": "uint256"
        },
        {
          "internalType": "uint256",
          "name": "replyToPostId",
          "type": "uint256"
        },
        {
          "internalType": "string",
          "name": "content",
          "type": "string"
        },
        {
          "internalType": "string",
          "name": "contentType",
          "type": "string"
        },
        {
          "internalType": "string[]",
          "name": "attachments",
          "type": "string[]"
        }
      ],
      "name": "reply",
      "outputs": [
        {
          "internalType": "uint256",
          "name": "",
          "type": "uint256"
        }
      ],
      "stateMutability": "nonpayable",
      "type": "function"
    },
    {
      "inputs": [],
      "name": "totalPosts",
      "outputs": [
        {
          "internalType": "uint256",
          "name": "",
          "type": "uint256"
        }
      ],
      "stateMutability": "view",
      "type": "function"
    }
  ],
  "bytecode": "0x60a03461007a57601f611ad038819003918201601f19168301916001600160401b0383118484101761007f5780849260209460405283398101031261007a57516001600160a01b0381169081900361007a57608052604051611a3a90816100968239608051818181610105015281816103550152610bf60152f35b600080fd5b634e487b7160e01b600052604160045260246000fdfe6080604052600436101561001257600080fd5b60003560e01c80630b1e7f83146111b9578063100804be14610b5c578063152bd0da14610af257806340731c24146109e05780635c09bd981461022357806388d69ff6146102bb5780638d7b2bd1146102415780638e53fb411461022357806391626b9b146101a0578063986cad141461017457806399ab09b414610134578063f2f4eb26146100ef5763f36540f7146100ab57600080fd5b346100ea576100b936611517565b906000526002602052604060002080548210156100ea576020916100dc9161152d565b90546040519160031b1c8152f35b600080fd5b346100ea5760003660031901126100ea576040517f00000000000000000000000000000000000000000000000000000000000000006001600160a01b03168152602090f35b346100ea5761014236611517565b906000526003602052604060002080548210156100ea576020916101659161152d565b90549060031b1c604051908152f35b346100ea5760203660031901126100ea5760043560005260026020526020604060002054604051908152f35b346100ea5760603660031901126100ea576101c2604435602435600435611823565b60405160209182820192808352815180945260408301938160408260051b8601019301916000955b8287106101f75785850386f35b909192938280610213600193603f198a82030186528851611454565b96019201960195929190926101ea565b346100ea5760003660031901126100ea576020600054604051908152f35b346100ea576020806003193601126100ea5760043560005260028152604060002090604051908181845491828152019360005281600020916000905b8282106102a4576102a085610294818903826112ad565b60405191829182611419565b0390f35b83548652948501946001938401939091019061027d565b346100ea5760a03660031901126100ea576044356001600160401b0381116100ea576102eb9036906004016113bc565b6064356001600160401b0381116100ea5761030a9036906004016113bc565b6084929192356001600160401b0381116100ea5761032c9036906004016113e9565b604051632de5aaf760e01b81526004803590820152909491906001600160a01b036000826024817f000000000000000000000000000000000000000000000000000000000000000085165afa9182156109d457610399926040916000916109b1575b500151163314611663565b60243560005260016020526103b860ff600760406000200154166116a1565b600054946103c5866116e3565b600055604051916103d583611291565b86835260043560208401526103eb36878a611708565b60408401526103fb368686611708565b60608401526104098261173f565b9161041760405193846112ad565b80835260208301368260051b8401116100ea5782905b8260051b84018210610972575050505060808201524260a082015260243560c0820152600160e082015284600052600160205260406000208151815560208201516001820155604082015180516001600160401b03811161078f578060028401926104988454611257565b601f8111610940575b50602090601f83116001146108da576000926108cf575b50508160011b916000199060031b1c19161790555b60608201518051906001600160401b03821161078f5781906104f26003850154611257565b601f811161089a575b50602090601f83116001146108285760009261081d575b50508160011b916000199060031b1c19161760038201555b6080820151805190600160401b821161078f5760048301548260048501558083106107a5575b5060200190600483016000526020600020916000905b82821061066f575050505092857f7eba35b21371bfe53296c006121df1d23dabe11f1daac964004c46ebac32836761061c602099958560e060077ff56b5dfdd5de04363333a774a8cd3f117992425a661f709dfb86d31ea23def929a60a0889d9a0151600582015560c0840151600682015501910151151560ff8019835416911617905560043560005260028b5261060284604060002061176d565b602435610652575b604051946060865260608601916117a2565b926024358a82015242604082015280600435940390a3610647604051928392888452888401916117a2565b0390a2604051908152f35b60243560005260038b5261066a84604060002061176d565b61060a565b80518051906001600160401b03821161078f5761068c8654611257565b601f8111610752575b50602090601f83116001146106e25792826001949360209386956000926106d7575b5050600019600383901b1c191690841b1787555b01940191019092610566565b0151905038806106b7565b908660005260206000209160005b601f198516811061073a575083602093600196938796938794601f19811610610721575b505050811b0187556106cb565b015160001960f88460031b161c19169055388080610714565b919260206001819286850151815501940192016106f0565b61077f90876000526020600020601f850160051c81019160208610610785575b601f0160051c0190611756565b8d610695565b9091508190610772565b634e487b7160e01b600052604160045260246000fd5b600484016000526020600020908382015b81830181106107c6575050610550565b806107d360019254611257565b806107e0575b50016107b6565b601f811183146107f65750600081555b8d6107d9565b600090828252610814601f60208420920160051c8201858301611756565b818355556107f0565b015190508980610512565b9250600384016000526020600020906000935b601f198416851061087f576001945083601f19811610610866575b505050811b01600382015561052a565b015160001960f88460031b161c19169055898080610856565b8181015183556020948501946001909301929091019061083b565b6108c990600386016000526020600020601f850160051c8101916020861061078557601f0160051c0190611756565b8a6104fb565b015190508a806104b8565b6000858152602081209350601f198516905b818110610928575090846001959493921061090f575b505050811b0190556104cd565b015160001960f88460031b161c191690558a8080610902565b929360206001819287860151815501950193016108ec565b61096c90856000526020600020601f850160051c8101916020861061078557601f0160051c0190611756565b8b6104a1565b81356001600160401b0381116100ea5736601f8287010112156100ea5760209182916109a690369088018035908501611708565b81520191019061042d565b6109ce91503d806000833e6109c681836112ad565b81019061158a565b8a61038e565b6040513d6000823e3d90fd5b346100ea576020806003193601126100ea57600435906109fe6117c3565b5081600052600191828252610a1d60ff600760406000200154166116a1565b600052818152604060002060405192610a3584611291565b815484528082015483850152610a4d600283016112ce565b6040850152610a5e600383016112ce565b606085015260048201908154610a738161173f565b92610a8160405194856112ad565b8184526000908152858120868086015b848410610ad55760808a01879052600588015460a08b0152600688015460c08b0152600788015460ff16151560e08b0152604051828152806102a08185018d611454565b85918291610ae2856112ce565b8152019201920191908790610a91565b346100ea576020806003193601126100ea5760043560005260038152604060002090604051908181845491828152019360005281600020916000905b828210610b45576102a085610294818903826112ad565b835486529485019460019384019390910190610b2e565b346100ea5760803660031901126100ea576024356001600160401b0381116100ea57610b8c9036906004016113bc565b6044356001600160401b0381116100ea57610bab9036906004016113bc565b6064929192356001600160401b0381116100ea57610bcd9036906004016113e9565b604051632de5aaf760e01b81526004803590820152909491906001600160a01b036000826024817f000000000000000000000000000000000000000000000000000000000000000085165afa9182156109d457610c39926040916000916109b157500151163314611663565b60005494610c46866116e3565b60005560405191610c5683611291565b8683526004356020840152610c6c36878a611708565b6040840152610c7c368686611708565b6060840152610c8a8261173f565b91610c9860405193846112ad565b80835260208301368260051b8401116100ea5782905b8260051b8401821061117a575050505060808201524260a0820152600060c0820152600160e082015284600052600160205260406000208151815560208201516001820155604082015180516001600160401b03811161078f57806002840192610d188454611257565b601f8111611148575b50602090601f83116001146110e2576000926110d7575b50508160011b916000199060031b1c19161790555b606082015180516001600160401b03811161078f57806003840192610d728454611257565b601f81116110a5575b50602090601f831160011461103f57600092611034575b50508160011b916000199060031b1c19161790555b6080820151805190600160401b821161078f576004830154826004850155808310610fbc575b5060200190600483016000526020600020916000905b828210610ea9575050505092857f7eba35b21371bfe53296c006121df1d23dabe11f1daac964004c46ebac328367610e7f602099958560e060077ff56b5dfdd5de04363333a774a8cd3f117992425a661f709dfb86d31ea23def929a60a0889d9a0151600582015560c0840151600682015501910151151560ff8019835416911617905560043560005260028b5261060a84604060002061176d565b9260008a82015242604082015280600435940390a3610647604051928392888452888401916117a2565b80518051906001600160401b03821161078f57610ec68654611257565b601f8111610f8a575b50602090601f8311600114610f1c579282600194936020938695600092610f11575b5050600019600383901b1c191690841b1787555b01940191019092610de3565b015190503880610ef1565b90601f198316918760005260206000209260005b818110610f725750936020936001969387969383889510610f59575b505050811b018755610f05565b015160001960f88460031b161c19169055388080610f4c565b92936020600181928786015181550195019301610f30565b610fb690876000526020600020601f850160051c8101916020861061078557601f0160051c0190611756565b8d610ecf565b600484016000526020600020908382015b8183018110610fdd575050610dcd565b80610fea60019254611257565b80610ff7575b5001610fcd565b601f8111831461100d5750600081555b8d610ff0565b60009082825261102b601f60208420920160051c8201858301611756565b81835555611007565b015190508a80610d92565b6000858152602081209350601f198516905b81811061108d5750908460019594939210611074575b505050811b019055610da7565b015160001960f88460031b161c191690558a8080611067565b92936020600181928786015181550195019301611051565b6110d190856000526020600020601f850160051c8101916020861061078557601f0160051c0190611756565b8b610d7b565b015190508a80610d38565b6000858152602081209350601f198516905b8181106111305750908460019594939210611117575b505050811b019055610d4d565b015160001960f88460031b161c191690558a808061110a565b929360206001819287860151815501950193016110f4565b61117490856000526020600020601f850160051c8101916020861061078557601f0160051c0190611756565b8b610d21565b81356001600160401b0381116100ea5736601f8287010112156100ea5760209182916111ae90369088018035908501611708565b815201910190610cae565b346100ea5760203660031901126100ea576004356000526001602052604060002080546001820154916111ee600282016112ce565b6111fa600383016112ce565b9161124160058201549361123360ff6007600686015495015416946040519889988952602089015260e0604089015260e0880190611397565b908682036060880152611397565b92608085015260a0840152151560c08301520390f35b90600182811c92168015611287575b602083101461127157565b634e487b7160e01b600052602260045260246000fd5b91607f1691611266565b61010081019081106001600160401b0382111761078f57604052565b90601f801991011681019081106001600160401b0382111761078f57604052565b90604051918260008254926112e284611257565b908184526001948581169081600014611351575060011461130e575b505061130c925003836112ad565b565b9093915060005260209081600020936000915b81831061133957505061130c935082010138806112fe565b85548884018501529485019487945091830191611321565b91505061130c94506020925060ff191682840152151560051b82010138806112fe565b60005b8381106113875750506000910152565b8181015183820152602001611377565b906020916113b081518092818552858086019101611374565b601f01601f1916010190565b9181601f840112156100ea578235916001600160401b0383116100ea57602083818601950101116100ea57565b9181601f840112156100ea578235916001600160401b0383116100ea576020808501948460051b0101116100ea57565b6020908160408183019282815285518094520193019160005b828110611440575050505090565b835185529381019392810192600101611432565b908151815260209182810151838301526114926114806040830151610100806040870152850190611397565b60608301518482036060860152611397565b60808201519383820360808501528451908183528083019281808460051b8301019701936000915b8483106114e95750505050505060e08160a08293015160a085015260c081015160c08501520151151591015290565b9091929394978480611507600193601f198682030187528c51611397565b9a019301930191949392906114ba565b60409060031901126100ea576004359060243590565b80548210156115455760005260206000200190600090565b634e487b7160e01b600052603260045260246000fd5b6001600160401b03811161078f57601f01601f191660200190565b51906001600160a01b03821682036100ea57565b9060209081838203126100ea5782516001600160401b03938482116100ea57019060c0828203126100ea576040519360c085018581108282111761078f5760405282518552838301519081116100ea5782019281601f850112156100ea578351936115f48561155b565b9261160260405194856112ad565b8584528286830101116100ea5760a09461162191838086019101611374565b84015261163060408201611576565b604084015261164160608201611576565b606084015260808101516080840152015180151581036100ea5760a082015290565b1561166a57565b60405162461bcd60e51b815260206004820152600f60248201526e2737ba1030b3b2b73a1037bbb732b960891b6044820152606490fd5b156116a857565b60405162461bcd60e51b8152602060048201526013602482015272141bdcdd08191bd95cc81b9bdd08195e1a5cdd606a1b6044820152606490fd5b60001981146116f25760010190565b634e487b7160e01b600052601160045260246000fd5b9291926117148261155b565b9161172260405193846112ad565b8294818452818301116100ea578281602093846000960137010152565b6001600160401b03811161078f5760051b60200190565b818110611761575050565b60008155600101611756565b8054600160401b81101561078f5761178a9160018201815561152d565b819291549060031b91821b91600019901b1916179055565b908060209392818452848401376000828201840152601f01601f1916010190565b604051906117d082611291565b600060e08382815282602082015260606040820152606080820152606060808201528260a08201528260c08201520152565b919082039182116116f257565b80518210156115455760209160051b010190565b6000526002602052604060002090815492838210156119dd5781018082116116f257818482116119d5575b61185791611802565b916118618361173f565b9361186f60405195866112ad565b838552601f1961187e8561173f565b0160005b8181106119be57505060005b84811061189d57505050505090565b816000198101116116f2576118c86118c2826118bd876000198701611802565b611802565b8461152d565b9054600391821b1c60005260016020526040600020611913604051926118ed84611291565b8254845260018301546020850152611907600284016112ce565b604085015282016112ce565b60608301526004810180546119278161173f565b9161193560405193846112ad565b81835260208301906000526020600020906000905b8382106119a157505050506080830152600581015460a0830152600681015460c08301526007015460ff16151560e082015261199c919061198b828961180f565b52611996818861180f565b506116e3565b61188e565b6001602081926119b0866112ce565b81520193019101909161194a565b6020906119c96117c3565b82828a01015201611882565b84915061184e565b50505050604051602081018181106001600160401b0382111761078f57604052600081529056fea26469706673582212203c7f2a4bb7e6cfcbc93fb2508459f7219c5c6d8fabf94802c9ddb0693a60a60b64736f6c63430008140033",
  "linkReferences": {},
  "deployedLinkReferences": {}
}