{"abi":[{"type":"constructor","inputs":[{"name":"_usdc","type":"address","internalType":"address"},{"name":"_treasury","type":"address","internalType":"address"}],"stateMutability":"nonpayable"},{"type":"function","name":"BIRTH_PRICE","inputs":[],"outputs":[{"name":"","type":"uint256","internalType":"uint256"}],"stateMutability":"view"},{"type":"function","name":"admin","inputs":[],"outputs":[{"name":"","type":"address","internalType":"address"}],"stateMutability":"view"},{"type":"function","name":"agents","inputs":[{"name":"","type":"uint256","internalType":"uint256"}],"outputs":[{"name":"id","type":"uint256","internalType":"uint256"},{"name":"name","type":"string","internalType":"string"},{"name":"owner","type":"address","internalType":"address"},{"name":"creator","type":"address","internalType":"address"},{"name":"bornAt","type":"uint256","internalType":"uint256"},{"name":"exists","type":"bool","internalType":"bool"}],"stateMutability":"view"},{"type":"function","name":"assetsModule","inputs":[],"outputs":[{"name":"","type":"address","internalType":"address"}],"stateMutability":"view"},{"type":"function","name":"birth","inputs":[{"name":"name","type":"string","internalType":"string"},{"name":"agentWallet","type":"address","internalType":"address"}],"outputs":[{"name":"","type":"uint256","internalType":"uint256"}],"stateMutability":"nonpayable"},{"type":"function","name":"contentModule","inputs":[],"outputs":[{"name":"","type":"address","internalType":"address"}],"stateMutability":"view"},{"type":"function","name":"freeMintsRemaining","inputs":[],"outputs":[{"name":"","type":"uint256","internalType":"uint256"}],"stateMutability":"view"},{"type":"function","name":"getAgent","inputs":[{"name":"agentId","type":"uint256","internalType":"uint256"}],"outputs":[{"name":"","type":"tuple","internalType":"struct AgentCore.Agent","components":[{"name":"id","type":"uint256","internalType":"uint256"},{"name":"name","type":"string","internalType":"string"},{"name":"owner","type":"address","internalType":"address"},{"name":"creator","type":"address","internalType":"address"},{"name":"bornAt","type":"uint256","internalType":"uint256"},{"name":"exists","type":"bool","internalType":"bool"}]}],"stateMutability":"view"},{"type":"function","name":"getAgentByName","inputs":[{"name":"name","type":"string","internalType":"string"}],"outputs":[{"name":"","type":"tuple","internalType":"struct AgentCore.Agent","components":[{"name":"id","type":"uint256","internalType":"uint256"},{"name":"name","type":"string","internalType":"string"},{"name":"owner","type":"address","internalType":"address"},{"name":"creator","type":"address","internalType":"address"},{"name":"bornAt","type":"uint256","internalType":"uint256"},{"name":"exists","type":"bool","internalType":"bool"}]}],"stateMutability":"view"},{"type":"function","name":"getAgentByOwner","inputs":[{"name":"owner","type":"address","internalType":"address"}],"outputs":[{"name":"","type":"tuple","internalType":"struct AgentCore.Agent","components":[{"name":"id","type":"uint256","internalType":"uint256"},{"name":"name","type":"string","internalType":"string"},{"name":"owner","type":"address","internalType":"address"},{"name":"creator","type":"address","internalType":"address"},{"name":"bornAt","type":"uint256","internalType":"uint256"},{"name":"exists","type":"bool","internalType":"bool"}]}],"stateMutability":"view"},{"type":"function","name":"isAgent","inputs":[{"name":"agentId","type":"uint256","internalType":"uint256"}],"outputs":[{"name":"","type":"bool","internalType":"bool"}],"stateMutability":"view"},{"type":"function","name":"isFreeMintsAvailable","inputs":[],"outputs":[{"name":"","type":"bool","internalType":"bool"}],"stateMutability":"view"},{"type":"function","name":"nameToId","inputs":[{"name":"","type":"bytes32","internalType":"bytes32"}],"outputs":[{"name":"","type":"uint256","internalType":"uint256"}],"stateMutability":"view"},{"type":"function","name":"nextAgentId","inputs":[],"outputs":[{"name":"","type":"uint256","internalType":"uint256"}],"stateMutability":"view"},{"type":"function","name":"ownerToId","inputs":[{"name":"","type":"address","internalType":"address"}],"outputs":[{"name":"","type":"uint256","internalType":"uint256"}],"stateMutability":"view"},{"type":"function","name":"profileModule","inputs":[],"outputs":[{"name":"","type":"address","internalType":"address"}],"stateMutability":"view"},{"type":"function","name":"setAdmin","inputs":[{"name":"newAdmin","type":"address","internalType":"address"}],"outputs":[],"stateMutability":"nonpayable"},{"type":"function","name":"setAssetsModule","inputs":[{"name":"module","type":"address","internalType":"address"}],"outputs":[],"stateMutability":"nonpayable"},{"type":"function","name":"setContentModule","inputs":[{"name":"module","type":"address","internalType":"address"}],"outputs":[],"stateMutability":"nonpayable"},{"type":"function","name":"setFreeMintsRemaining","inputs":[{"name":"_amount","type":"uint256","internalType":"uint256"}],"outputs":[],"stateMutability":"nonpayable"},{"type":"function","name":"setProfileModule","inputs":[{"name":"module","type":"address","internalType":"address"}],"outputs":[],"stateMutability":"nonpayable"},{"type":"function","name":"setSocialModule","inputs":[{"name":"module","type":"address","internalType":"address"}],"outputs":[],"stateMutability":"nonpayable"},{"type":"function","name":"setTreasury","inputs":[{"name":"_treasury","type":"address","internalType":"address"}],"outputs":[],"stateMutability":"nonpayable"},{"type":"function","name":"socialModule","inputs":[],"outputs":[{"name":"","type":"address","internalType":"address"}],"stateMutability":"view"},{"type":"function","name":"totalAgents","inputs":[],"outputs":[{"name":"","type":"uint256","internalType":"uint256"}],"stateMutability":"view"},{"type":"function","name":"transferOwnership","inputs":[{"name":"agentId","type":"uint256","internalType":"uint256"},{"name":"newOwner","type":"address","internalType":"address"}],"outputs":[],"stateMutability":"nonpayable"},{"type":"function","name":"treasury","inputs":[],"outputs":[{"name":"","type":"address","internalType":"address"}],"stateMutability":"view"},{"type":"function","name":"usdc","inputs":[],"outputs":[{"name":"","type":"address","internalType":"contract IERC20"}],"stateMutability":"view"},{"type":"event","name":"AgentBorn","inputs":[{"name":"id","type":"uint256","indexed":true,"internalType":"uint256"},{"name":"name","type":"string","indexed":false,"internalType":"string"},{"name":"owner","type":"address","indexed":true,"internalType":"address"},{"name":"creator","type":"address","indexed":true,"internalType":"address"},{"name":"bornAt","type":"uint256","indexed":false,"internalType":"uint256"}],"anonymous":false},{"type":"event","name":"FreeMintUsed","inputs":[{"name":"agentId","type":"uint256","indexed":true,"internalType":"uint256"},{"name":"remaining","type":"uint256","indexed":false,"internalType":"uint256"}],"anonymous":false},{"type":"event","name":"ModuleUpdated","inputs":[{"name":"moduleName","type":"string","indexed":false,"internalType":"string"},{"name":"moduleAddress","type":"address","indexed":false,"internalType":"address"}],"anonymous":false}],"bytecode":{"object":"0x60a0604052346100405761001a610014610114565b90610223565b610022610045565b6124be610254823960805181818161060c01526121d701526124be90f35b61004b565b60405190565b5f80fd5b601f801991011690565b634e487b7160e01b5f52604160045260245ffd5b906100779061004f565b810190811060018060401b0382111761008f57604052565b610059565b906100a76100a0610045565b928361006d565b565b5f80fd5b60018060a01b031690565b6100c1906100ad565b90565b6100cd816100b8565b036100d457565b5f80fd5b905051906100e5826100c4565b565b919060408382031261010f578061010361010c925f86016100d8565b936020016100d8565b90565b6100a9565b6101326127128038038061012781610094565b9283398101906100e7565b9091565b5f1b90565b906101475f1991610136565b9181191691161790565b90565b90565b90565b61016e61016961017392610151565b610157565b610154565b90565b90565b9061018e6101896101959261015a565b610176565b825461013b565b9055565b906101aa60018060a01b0391610136565b9181191691161790565b6101c86101c36101cd926100ad565b610157565b6100ad565b90565b6101d9906101b4565b90565b6101e5906101d0565b90565b90565b906102006101fb610207926101dc565b6101e8565b8254610199565b9055565b610214906101b4565b90565b6102209061020b565b90565b9061024761025192610237600a6009610179565b6102423360086101eb565b610217565b608052600a6101eb565b56fe60806040526004361015610013575b610fe6565b61001d5f356101dc565b80630381ee79146101d75780630f88e5cb146101d257806325ed8243146101cd57806329507f73146101c85780632de5aaf7146101c35780632fc3643f146101be57806330efc498146101b95780633e413bee146101b457806349f3762e146101af578063513856c8146101aa57806356c704b8146101a557806361d027b3146101a05780636b8e63431461019b5780636c86a43014610196578063704b6c02146101915780637823b50f1461018c5780637df07608146101875780638868b9ff146101825780638bd7551c1461017d57806397b7a07f14610178578063a435fd1314610173578063b0034f0f1461016e578063c213a94914610169578063c505371214610164578063d4ae96b41461015f578063e729e3a41461015a578063f0f44260146101555763f851a4400361000e57610fb1565b610f6f565b610f3a565b610eca565b610e86565b610e53565b610e1d565b610db2565b610d6d565b610ca8565b610c73565b610c31565b610bfe565b610bcb565b610b96565b610ae2565b610a74565b610a30565b6109e5565b6106de565b610687565b6105d5565b610549565b610514565b6104c2565b61043f565b610405565b61035b565b60e01c90565b60405190565b5f80fd5b5f80fd5b5f80fd5b60018060a01b031690565b610208906101f4565b90565b610214816101ff565b0361021b57565b5f80fd5b9050359061022c8261020b565b565b9060208282031261024757610244915f0161021f565b90565b6101ec565b90565b6102589061024c565b9052565b5190565b60209181520190565b90825f9392825e0152565b601f801991011690565b61029d6102a66020936102ab936102948161025c565b93848093610260565b95869101610269565b610274565b0190565b6102b8906101ff565b9052565b151590565b6102ca906102bc565b9052565b906103409060a0806102ff60c084016102ed5f8801515f87019061024f565b6020870151858203602087015261027e565b94610312604082015160408601906102af565b610324606082015160608601906102af565b6103366080820151608086019061024f565b01519101906102c1565b90565b6103589160208201915f8184039101526102ce565b90565b3461038b5761038761037661037136600461022e565b6111d2565b61037e6101e2565b91829182610343565b0390f35b6101e8565b5f91031261039a57565b6101ec565b1c90565b60018060a01b031690565b6103be9060086103c3930261039f565b6103a3565b90565b906103d191546103ae565b90565b6103e060045f906103c6565b90565b6103ec906101ff565b9052565b9190610403905f602085019401906103e3565b565b3461043557610415366004610390565b6104316104206103d4565b6104286101e2565b918291826103f0565b0390f35b6101e8565b5f0190565b3461046d5761045761045236600461022e565b6113c3565b61045f6101e2565b806104698161043a565b0390f35b6101e8565b61047b8161024c565b0361048257565b5f80fd5b9050359061049382610472565b565b91906040838203126104bd57806104b16104ba925f8601610486565b9360200161021f565b90565b6101ec565b346104f1576104db6104d5366004610495565b90611653565b6104e36101e2565b806104ed8161043a565b0390f35b6101e8565b9060208282031261050f5761050c915f01610486565b90565b6101ec565b346105445761054061052f61052a3660046104f6565b61165f565b6105376101e2565b91829182610343565b0390f35b6101e8565b346105775761056161055c3660046104f6565b6116da565b6105696101e2565b806105738161043a565b0390f35b6101e8565b90565b61058f906008610594930261039f565b61057c565b90565b906105a2915461057f565b90565b6105b05f5f90610597565b90565b6105bc9061024c565b9052565b91906105d3905f602085019401906105b3565b565b34610605576105e5366004610390565b6106016105f06105a5565b6105f86101e2565b918291826105c0565b0390f35b6101e8565b7f000000000000000000000000000000000000000000000000000000000000000090565b90565b61064561064061064a926101f4565b61062e565b6101f4565b90565b61065690610631565b90565b6106629061064d565b90565b61066e90610659565b9052565b9190610685905f60208501940190610665565b565b346106b757610697366004610390565b6106b36106a261060a565b6106aa6101e2565b91829182610672565b0390f35b6101e8565b6106c5906102bc565b9052565b91906106dc905f602085019401906106bc565b565b3461070e5761070a6106f96106f43660046104f6565b6116e9565b6107016101e2565b918291826106c9565b0390f35b6101e8565b61072761072261072c9261024c565b61062e565b61024c565b90565b9061073990610713565b5f5260205260405f2090565b5f1c90565b61075661075b91610745565b61057c565b90565b610768905461074a565b90565b634e487b7160e01b5f52602260045260245ffd5b906001600283049216801561079f575b602083101461079a57565b61076b565b91607f169161078f565b5f5260205f2090565b905f92918054906107cc6107c58361077f565b8094610260565b916001811690815f1461082357506001146107e7575b505050565b6107f491929394506107a9565b915f925b81841061080b57505001905f80806107e2565b600181602092959395548486015201910192906107f8565b92949550505060ff19168252151560200201905f80806107e2565b90610848916107b2565b90565b634e487b7160e01b5f52604160045260245ffd5b9061086990610274565b810190811067ffffffffffffffff82111761088357604052565b61084b565b906108a86108a1926108986101e2565b9384809261083e565b038361085f565b565b6108b66108bb91610745565b6103a3565b90565b6108c890546108aa565b90565b60ff1690565b6108dd6108e291610745565b6108cb565b90565b6108ef90546108d1565b90565b6108fd90600161072f565b906109095f830161075e565b9161091660018201610888565b91610923600283016108be565b91610930600382016108be565b9161094960056109426004850161075e565b93016108e5565b90565b60209181520190565b61097461097d6020936109829361096b8161025c565b9384809361094c565b95869101610269565b610274565b0190565b91946109d260a0949897956109c86109bd6109dc956109e39a6109b060c08a01925f8b01906105b3565b88820360208a0152610955565b9a60408701906103e3565b60608501906103e3565b60808301906105b3565b01906106bc565b565b34610a1c57610a18610a006109fb3660046104f6565b6108f2565b92610a0f9694969291926101e2565b96879687610986565b0390f35b6101e8565b610a2d60075f906103c6565b90565b34610a6057610a40366004610390565b610a5c610a4b610a21565b610a536101e2565b918291826103f0565b0390f35b6101e8565b610a71600a5f906103c6565b90565b34610aa457610a84366004610390565b610aa0610a8f610a65565b610a976101e2565b918291826103f0565b0390f35b6101e8565b90565b610ac0610abb610ac592610aa9565b61062e565b61024c565b90565b610ad462694920610aac565b90565b610adf610ac8565b90565b34610b1257610af2366004610390565b610b0e610afd610ad7565b610b056101e2565b918291826105c0565b0390f35b6101e8565b90565b610b2381610b17565b03610b2a57565b5f80fd5b90503590610b3b82610b1a565b565b90602082820312610b5657610b53915f01610b2e565b90565b6101ec565b610b6490610b17565b90565b90610b7190610b5b565b5f5260205260405f2090565b610b9390610b8e6002915f92610b67565b610597565b90565b34610bc657610bc2610bb1610bac366004610b3d565b610b7d565b610bb96101e2565b918291826105c0565b0390f35b6101e8565b34610bf957610be3610bde36600461022e565b611748565b610beb6101e2565b80610bf58161043a565b0390f35b6101e8565b34610c2c57610c16610c1136600461022e565b61182f565b610c1e6101e2565b80610c288161043a565b0390f35b6101e8565b34610c5f57610c49610c4436600461022e565b611916565b610c516101e2565b80610c5b8161043a565b0390f35b6101e8565b610c7060095f90610597565b90565b34610ca357610c83366004610390565b610c9f610c8e610c64565b610c966101e2565b918291826105c0565b0390f35b6101e8565b34610cd857610cb8366004610390565b610cd4610cc3611921565b610ccb6101e2565b918291826106c9565b0390f35b6101e8565b5f80fd5b5f80fd5b5f80fd5b909182601f83011215610d235781359167ffffffffffffffff8311610d1e576020019260018302840111610d1957565b610ce5565b610ce1565b610cdd565b91604083830312610d68575f83013567ffffffffffffffff8111610d6357610d5583610d60928601610ce9565b93909460200161021f565b90565b6101f0565b6101ec565b34610d9e57610d9a610d89610d83366004610d28565b91611f88565b610d916101e2565b918291826105c0565b0390f35b6101e8565b610daf60065f906103c6565b90565b34610de257610dc2366004610390565b610dde610dcd610da3565b610dd56101e2565b918291826103f0565b0390f35b6101e8565b90602082820312610e18575f82013567ffffffffffffffff8111610e1357610e0f9201610ce9565b9091565b6101f0565b6101ec565b34610e4e57610e4a610e39610e33366004610de7565b906122cf565b610e416101e2565b91829182610343565b0390f35b6101e8565b34610e8157610e6b610e6636600461022e565b612420565b610e736101e2565b80610e7d8161043a565b0390f35b6101e8565b34610eb657610e96366004610390565b610eb2610ea161242b565b610ea96101e2565b918291826105c0565b0390f35b6101e8565b610ec760055f906103c6565b90565b34610efa57610eda366004610390565b610ef6610ee5610ebb565b610eed6101e2565b918291826103f0565b0390f35b6101e8565b610f089061064d565b90565b90610f1590610eff565b5f5260205260405f2090565b610f3790610f326003915f92610f0b565b610597565b90565b34610f6a57610f66610f55610f5036600461022e565b610f21565b610f5d6101e2565b918291826105c0565b0390f35b6101e8565b34610f9d57610f87610f8236600461022e565b61247d565b610f8f6101e2565b80610f998161043a565b0390f35b6101e8565b610fae60085f906103c6565b90565b34610fe157610fc1366004610390565b610fdd610fcc610fa2565b610fd46101e2565b918291826103f0565b0390f35b6101e8565b5f80fd5b90610ffd610ff66101e2565b928361085f565b565b61100960c0610fea565b90565b5f90565b606090565b5f90565b5f90565b611025610fff565b90602080808080808761103661100c565b815201611041611010565b81520161104c611015565b815201611057611015565b81520161106261100c565b81520161106d611019565b81525050565b61107b61101d565b90565b5f7f4167656e7420646f6573206e6f74206578697374000000000000000000000000910152565b6110b2601460209261094c565b6110bb8161107e565b0190565b6110d49060208101905f8183039101526110a5565b90565b156110de57565b6110e66101e2565b62461bcd60e51b8152806110fc600482016110bf565b0390fd5b9061110a9061024c565b9052565b52565b9061111b906101ff565b9052565b90611129906102bc565b9052565b906111c46111bb600561113e610fff565b9461115561114d5f830161075e565b5f8801611100565b61116d61116460018301610888565b6020880161110e565b61118561117c600283016108be565b60408801611111565b61119d611194600383016108be565b60608801611111565b6111b56111ac6004830161075e565b60808801611100565b016108e5565b60a0840161111f565b565b6111cf9061112d565b90565b61121a6111f46111ef61121f936111e7611073565b506003610f0b565b61075e565b61121361120e60056112086001859061072f565b016108e5565b6110d7565b600161072f565b6111c6565b90565b5f7f4e6f742061646d696e0000000000000000000000000000000000000000000000910152565b611256600960209261094c565b61125f81611222565b0190565b6112789060208101905f818303910152611249565b90565b1561128257565b61128a6101e2565b62461bcd60e51b8152806112a060048201611263565b0390fd5b6112d2906112cd336112c76112c16112bc60086108be565b6101ff565b916101ff565b1461127b565b61137d565b565b5f1b90565b906112ea60018060a01b03916112d4565b9181191691161790565b90565b9061130c61130761131392610eff565b6112f4565b82546112d9565b9055565b5f7f736f6369616c0000000000000000000000000000000000000000000000000000910152565b61134b600660209261094c565b61135481611317565b0190565b919061137b906020611373604086018681035f88015261133e565b9401906103e3565b565b6113888160066112f7565b6113be7f9a65d3ab497a14ced7d0123f7db0415db7b263e28d7b16267d6f3497224a9054916113b56101e2565b91829182611358565b0390a1565b6113cc906112a4565b565b5f7f4e6f74206167656e74206f776e65720000000000000000000000000000000000910152565b611402600f60209261094c565b61140b816113ce565b0190565b6114249060208101905f8183039101526113f5565b90565b1561142e57565b6114366101e2565b62461bcd60e51b81528061144c6004820161140f565b0390fd5b9061148b9161148661146e600261146884600161072f565b016108be565b61148061147a336101ff565b916101ff565b14611427565b6115ca565b565b90565b6114a461149f6114a99261148d565b61062e565b61024c565b90565b5f7f4e6577206f776e657220616c726561647920686173206167656e740000000000910152565b6114e0601b60209261094c565b6114e9816114ac565b0190565b6115029060208101905f8183039101526114d3565b90565b1561150c57565b6115146101e2565b62461bcd60e51b81528061152a600482016114ed565b0390fd5b1b90565b9190600861154d9102916115475f198461152e565b9261152e565b9181191691161790565b90565b919061157061156b61157893610713565b611557565b908354611532565b9055565b5f90565b6115929161158c61157c565b9161155a565b565b906115a05f19916112d4565b9181191691161790565b906115bf6115ba6115c692610713565b611557565b8254611594565b9055565b9061164c611651926116016115e96115e460038690610f0b565b61075e565b6115fb6115f55f611490565b9161024c565b14611505565b61162c5f6116276003611621600261161b6001889061072f565b016108be565b90610f0b565b611580565b61164483600261163e6001859061072f565b016112f7565b916003610f0b565b6115aa565b565b9061165d91611450565b565b61169561169a9161166e611073565b5061168e61168960056116836001859061072f565b016108e5565b6110d7565b600161072f565b6111c6565b90565b6116cb906116c6336116c06116ba6116b560086108be565b6101ff565b916101ff565b1461127b565b6116cd565b565b6116d89060096115aa565b565b6116e39061169d565b565b5f90565b6005611702611708926116fa6116e5565b50600161072f565b016108e5565b90565b611739906117343361172e61172861172360086108be565b6101ff565b916101ff565b1461127b565b61173b565b565b6117469060086112f7565b565b6117519061170b565b565b6117819061177c3361177661177061176b60086108be565b6101ff565b916101ff565b1461127b565b6117e9565b565b5f7f636f6e74656e7400000000000000000000000000000000000000000000000000910152565b6117b7600760209261094c565b6117c081611783565b0190565b91906117e79060206117df604086018681035f8801526117aa565b9401906103e3565b565b6117f48160056112f7565b61182a7f9a65d3ab497a14ced7d0123f7db0415db7b263e28d7b16267d6f3497224a9054916118216101e2565b918291826117c4565b0390a1565b61183890611753565b565b611868906118633361185d61185761185260086108be565b6101ff565b916101ff565b1461127b565b6118d0565b565b5f7f70726f66696c6500000000000000000000000000000000000000000000000000910152565b61189e600760209261094c565b6118a78161186a565b0190565b91906118ce9060206118c6604086018681035f880152611891565b9401906103e3565b565b6118db8160046112f7565b6119117f9a65d3ab497a14ced7d0123f7db0415db7b263e28d7b16267d6f3497224a9054916119086101e2565b918291826118ab565b0390a1565b61191f9061183a565b565b6119296116e5565b50611934600961075e565b6119466119405f611490565b9161024c565b1190565b91565b5f80fd5b67ffffffffffffffff811161196f5761196b602091610274565b0190565b61084b565b90825f939282370152565b9092919261199461198f82611951565b610fea565b938185526020850190828401116119b0576119ae92611974565b565b61194d565b6119c091369161197f565b90565b60200190565b5190565b5f7f4e616d652074616b656e00000000000000000000000000000000000000000000910152565b611a01600a60209261094c565b611a0a816119cd565b0190565b611a239060208101905f8183039101526119f4565b90565b15611a2d57565b611a356101e2565b62461bcd60e51b815280611a4b60048201611a0e565b0390fd5b5f7f57616c6c657420616c726561647920686173206167656e740000000000000000910152565b611a83601860209261094c565b611a8c81611a4f565b0190565b611aa59060208101905f818303910152611a76565b90565b15611aaf57565b611ab76101e2565b62461bcd60e51b815280611acd60048201611a90565b0390fd5b60e01b90565b611ae0816102bc565b03611ae757565b5f80fd5b90505190611af882611ad7565b565b90602082820312611b1357611b10915f01611aeb565b90565b6101ec565b604090611b41611b489496959396611b3760608401985f8501906103e3565b60208301906103e3565b01906105b3565b565b611b526101e2565b3d5f823e3d90fd5b5f7f5061796d656e74206661696c6564000000000000000000000000000000000000910152565b611b8e600e60209261094c565b611b9781611b5a565b0190565b611bb09060208101905f818303910152611b81565b90565b15611bba57565b611bc26101e2565b62461bcd60e51b815280611bd860048201611b9b565b0390fd5b634e487b7160e01b5f52601160045260245ffd5b611bf99061024c565b5f8114611c07576001900390565b611bdc565b611c159061024c565b5f198114611c235760010190565b611bdc565b611c3260c0610fea565b90565b67ffffffffffffffff8111611c5357611c4f602091610274565b0190565b61084b565b90929192611c6d611c6882611c35565b610fea565b93818552602085019082840111611c8957611c8792611974565b565b61194d565b611c99913691611c58565b90565b611ca6905161024c565b90565b5190565b601f602091010490565b5f5b828110611cc557505050565b80611cd45f6001938501611580565b01611cb9565b9190601f8111611cea575b505050565b818111611cf7575b611ce5565b611d0c611d06611d2a946107a9565b91611cad565b916020611d1882611cad565b9110611d32575b809101910390611cb7565b5f8080611cf2565b505f611d1f565b90611d49905f199060080261039f565b191690565b81611d5891611d39565b906002021790565b90611d6a8161025c565b9067ffffffffffffffff8211611e2a57611d8e82611d88855461077f565b85611cda565b602090601f8311600114611dc257918091611db1935f92611db6575b5050611d4e565b90555b565b90915001515f80611daa565b601f19831691611dd1856107a9565b925f5b818110611e1257509160029391856001969410611df8575b50505002019055611db4565b611e08910151601f841690611d39565b90555f8080611dec565b91936020600181928787015181550195019201611dd4565b61084b565b90611e3991611d60565b565b611e4590516101ff565b90565b611e5290516102bc565b90565b90611e6160ff916112d4565b9181191691161790565b611e74906102bc565b90565b90565b90611e8f611e8a611e9692611e6b565b611e77565b8254611e55565b9055565b90611f2960a06005611f2f94611ebd5f8201611eb75f8801611c9c565b906115aa565b611ed660018201611ed060208801611ca9565b90611e2f565b611eef60028201611ee960408801611e3b565b906112f7565b611f0860038201611f0260608801611e3b565b906112f7565b611f2160048201611f1b60808801611c9c565b906115aa565b019201611e48565b90611e7a565b565b90611f3b91611e9a565b565b9190611f5781611f5081611f5c9561094c565b8095611974565b610274565b0190565b939290611f7e602091611f869460408801918883035f8a0152611f3d565b9401906105b3565b565b91611f9161157c565b50611fa6611fa084849061194a565b906119b5565b611fb8611fb2826119c9565b916119c3565b2092611fce611fc960028690610b67565b61075e565b611fe0611fda5f611490565b9161024c565b148015612291575b611ff190611a26565b61202061200861200360038590610f0b565b61075e565b61201a6120145f611490565b9161024c565b14611aa8565b61202a600961075e565b61203c6120365f611490565b9161024c565b115f146121d25761205f612058612053600961075e565b611bf0565b60096115aa565b6120685f61075e565b612072600961075e565b906120b26120a07ff6f9047a0ab0a4711f58de93a110abd09b7757b68800b28f74fc98cf469f305992610713565b926120a96101e2565b918291826105c0565b0390a25b61215d6120c25f61075e565b6120d46120ce82611c0c565b5f6115aa565b9461214c5f61213b88612132876121298b6121208c61211761210e3394429761210960019b612101611c28565b9e8f01611100565b611c8e565b60208b0161110e565b60408901611111565b60608701611111565b60808501611100565b60a0830161111f565b6121476001899061072f565b611f31565b61215886916002610b67565b6115aa565b6121728461216d60038590610f0b565b6115aa565b8390929190339242946121cc6121ba6121b46121ae7f9effc2cf8372f40ed7734cdbf767b74bfef2e3916a3342b1b86db64a9393305d96610713565b96610eff565b96610eff565b966121c36101e2565b93849384611f60565b0390a490565b6121fb7f0000000000000000000000000000000000000000000000000000000000000000610659565b60206323b872dd9133906122335f612213600a6108be565b9561223e61221f610ac8565b6122276101e2565b98899788968795611ad1565b855260048501611b18565b03925af1801561228c57612259915f9161225e575b50611bb3565b6120b6565b61227f915060203d8111612285575b612277818361085f565b810190611afa565b5f612253565b503d61226d565b611b4a565b50611ff16122c86122c260056122bc60016122b66122b160028c90610b67565b61075e565b9061072f565b016108e5565b156102bc565b9050611fe8565b6123166123116122f76122f16123419561233c956122eb611073565b5061194a565b906119b5565b612309612303826119c9565b916119c3565b206002610b67565b61075e565b612335612330600561232a6001859061072f565b016108e5565b6110d7565b600161072f565b6111c6565b90565b6123729061236d3361236761236161235c60086108be565b6101ff565b916101ff565b1461127b565b6123da565b565b5f7f6173736574730000000000000000000000000000000000000000000000000000910152565b6123a8600660209261094c565b6123b181612374565b0190565b91906123d89060206123d0604086018681035f88015261239b565b9401906103e3565b565b6123e58160076112f7565b61241b7f9a65d3ab497a14ced7d0123f7db0415db7b263e28d7b16267d6f3497224a9054916124126101e2565b918291826123b5565b0390a1565b61242990612344565b565b61243361157c565b5061243d5f61075e565b90565b61246e906124693361246361245d61245860086108be565b6101ff565b916101ff565b1461127b565b612470565b565b61247b90600a6112f7565b565b61248690612440565b56fea26469706673582212207748a04fb90970c26b70040374c8948015424288c413338a612f0ec3bf20038864736f6c63430008210033","linkReferences":{}},"methodIdentifiers":{"BIRTH_PRICE()":"6b8e6343","admin()":"f851a440","agents(uint256)":"513856c8","assetsModule()":"56c704b8","birth(string,address)":"97b7a07f","contentModule()":"d4ae96b4","freeMintsRemaining()":"8868b9ff","getAgent(uint256)":"2de5aaf7","getAgentByName(string)":"b0034f0f","getAgentByOwner(address)":"0381ee79","isAgent(uint256)":"49f3762e","isFreeMintsAvailable()":"8bd7551c","nameToId(bytes32)":"6c86a430","nextAgentId()":"30efc498","ownerToId(address)":"e729e3a4","profileModule()":"0f88e5cb","setAdmin(address)":"704b6c02","setAssetsModule(address)":"c213a949","setContentModule(address)":"7823b50f","setFreeMintsRemaining(uint256)":"2fc3643f","setProfileModule(address)":"7df07608","setSocialModule(address)":"25ed8243","setTreasury(address)":"f0f44260","socialModule()":"a435fd13","totalAgents()":"c5053712","transferOwnership(uint256,address)":"29507f73","treasury()":"61d027b3","usdc()":"3e413bee"},"id":21}