{
  "_format": "hh-sol-artifact-1",
  "contractName": "AgentProfile",
  "sourceName": "contracts/megaeth/core/AgentProfile.sol",
  "abi": [
    {
      "inputs": [
        {
          "internalType": "address",
          "name": "coreAddress",
          "type": "address"
        }
      ],
      "stateMutability": "nonpayable",
      "type": "constructor"
    },
    {
      "anonymous": false,
      "inputs": [
        {
          "indexed": true,
          "internalType": "uint256",
          "name": "agentId",
          "type": "uint256"
        },
        {
          "indexed": false,
          "internalType": "string",
          "name": "avatar",
          "type": "string"
        }
      ],
      "name": "AvatarUpdated",
      "type": "event"
    },
    {
      "anonymous": false,
      "inputs": [
        {
          "indexed": true,
          "internalType": "uint256",
          "name": "agentId",
          "type": "uint256"
        },
        {
          "indexed": false,
          "internalType": "string",
          "name": "bio",
          "type": "string"
        }
      ],
      "name": "BioUpdated",
      "type": "event"
    },
    {
      "anonymous": false,
      "inputs": [
        {
          "indexed": true,
          "internalType": "uint256",
          "name": "agentId",
          "type": "uint256"
        }
      ],
      "name": "LinksUpdated",
      "type": "event"
    },
    {
      "anonymous": false,
      "inputs": [
        {
          "indexed": true,
          "internalType": "uint256",
          "name": "agentId",
          "type": "uint256"
        },
        {
          "indexed": false,
          "internalType": "uint256",
          "name": "timestamp",
          "type": "uint256"
        }
      ],
      "name": "ProfileUpdated",
      "type": "event"
    },
    {
      "inputs": [],
      "name": "core",
      "outputs": [
        {
          "internalType": "contract AgentCore",
          "name": "",
          "type": "address"
        }
      ],
      "stateMutability": "view",
      "type": "function"
    },
    {
      "inputs": [
        {
          "internalType": "uint256",
          "name": "agentId",
          "type": "uint256"
        }
      ],
      "name": "getAvatar",
      "outputs": [
        {
          "internalType": "string",
          "name": "",
          "type": "string"
        }
      ],
      "stateMutability": "view",
      "type": "function"
    },
    {
      "inputs": [
        {
          "internalType": "uint256",
          "name": "agentId",
          "type": "uint256"
        }
      ],
      "name": "getBio",
      "outputs": [
        {
          "internalType": "string",
          "name": "",
          "type": "string"
        }
      ],
      "stateMutability": "view",
      "type": "function"
    },
    {
      "inputs": [
        {
          "internalType": "uint256",
          "name": "agentId",
          "type": "uint256"
        }
      ],
      "name": "getProfile",
      "outputs": [
        {
          "components": [
            {
              "internalType": "string",
              "name": "bio",
              "type": "string"
            },
            {
              "internalType": "string",
              "name": "avatar",
              "type": "string"
            },
            {
              "internalType": "string",
              "name": "website",
              "type": "string"
            },
            {
              "internalType": "string",
              "name": "twitter",
              "type": "string"
            },
            {
              "internalType": "string",
              "name": "github",
              "type": "string"
            },
            {
              "internalType": "string[]",
              "name": "tags",
              "type": "string[]"
            },
            {
              "internalType": "uint256",
              "name": "updatedAt",
              "type": "uint256"
            }
          ],
          "internalType": "struct AgentProfile.Profile",
          "name": "",
          "type": "tuple"
        }
      ],
      "stateMutability": "view",
      "type": "function"
    },
    {
      "inputs": [
        {
          "internalType": "uint256",
          "name": "agentId",
          "type": "uint256"
        }
      ],
      "name": "getTags",
      "outputs": [
        {
          "internalType": "string[]",
          "name": "",
          "type": "string[]"
        }
      ],
      "stateMutability": "view",
      "type": "function"
    },
    {
      "inputs": [
        {
          "internalType": "uint256",
          "name": "",
          "type": "uint256"
        }
      ],
      "name": "profiles",
      "outputs": [
        {
          "internalType": "string",
          "name": "bio",
          "type": "string"
        },
        {
          "internalType": "string",
          "name": "avatar",
          "type": "string"
        },
        {
          "internalType": "string",
          "name": "website",
          "type": "string"
        },
        {
          "internalType": "string",
          "name": "twitter",
          "type": "string"
        },
        {
          "internalType": "string",
          "name": "github",
          "type": "string"
        },
        {
          "internalType": "uint256",
          "name": "updatedAt",
          "type": "uint256"
        }
      ],
      "stateMutability": "view",
      "type": "function"
    },
    {
      "inputs": [
        {
          "internalType": "uint256",
          "name": "agentId",
          "type": "uint256"
        },
        {
          "internalType": "string",
          "name": "avatar",
          "type": "string"
        }
      ],
      "name": "setAvatar",
      "outputs": [],
      "stateMutability": "nonpayable",
      "type": "function"
    },
    {
      "inputs": [
        {
          "internalType": "uint256",
          "name": "agentId",
          "type": "uint256"
        },
        {
          "internalType": "string",
          "name": "bio",
          "type": "string"
        }
      ],
      "name": "setBio",
      "outputs": [],
      "stateMutability": "nonpayable",
      "type": "function"
    },
    {
      "inputs": [
        {
          "internalType": "uint256",
          "name": "agentId",
          "type": "uint256"
        },
        {
          "internalType": "string",
          "name": "website",
          "type": "string"
        },
        {
          "internalType": "string",
          "name": "twitter",
          "type": "string"
        },
        {
          "internalType": "string",
          "name": "github",
          "type": "string"
        }
      ],
      "name": "setLinks",
      "outputs": [],
      "stateMutability": "nonpayable",
      "type": "function"
    },
    {
      "inputs": [
        {
          "internalType": "uint256",
          "name": "agentId",
          "type": "uint256"
        },
        {
          "internalType": "string",
          "name": "bio",
          "type": "string"
        },
        {
          "internalType": "string",
          "name": "avatar",
          "type": "string"
        },
        {
          "internalType": "string",
          "name": "website",
          "type": "string"
        },
        {
          "internalType": "string",
          "name": "twitter",
          "type": "string"
        },
        {
          "internalType": "string",
          "name": "github",
          "type": "string"
        },
        {
          "internalType": "string[]",
          "name": "tags",
          "type": "string[]"
        }
      ],
      "name": "setProfile",
      "outputs": [],
      "stateMutability": "nonpayable",
      "type": "function"
    },
    {
      "inputs": [
        {
          "internalType": "uint256",
          "name": "agentId",
          "type": "uint256"
        },
        {
          "internalType": "string[]",
          "name": "tags",
          "type": "string[]"
        }
      ],
      "name": "setTags",
      "outputs": [],
      "stateMutability": "nonpayable",
      "type": "function"
    }
  ],
  "bytecode": "0x60a03461008e57601f611b6b38819003918201601f19168301916001600160401b038311848410176100935780849260209460405283398101031261008e57516001600160a01b0381169081900361008e57608052604051611ac190816100aa823960805181818160ca015281816102a501528181610521015281816109d60152818161112b01526113100152f35b600080fd5b634e487b7160e01b600052604160045260246000fdfe6080604052600436101561001257600080fd5b60003560e01c80631328ec9b1461156657806329d29cb3146114db5780637a6e9514146112b557806387beeb2b146110f6578063b9200ff5146110b2578063c2932529146108e1578063c36fe3d614610819578063deb711de14610491578063f08f4f64146102d4578063f2f4eb261461028f5763f948dbf61461009557600080fd5b3461028a576100a33661163a565b604051632de5aaf760e01b8152600481018490529192916001600160a01b036000826024817f000000000000000000000000000000000000000000000000000000000000000085165afa91821561027e5761010e9260409160009161025b575b500151163314611891565b816000526020926000845260406000206001600160401b038311610245576101408361013a835461166d565b83611934565b6000601f84116001146101bc5794600091847f4125a3f7b6a26be6d9d563489005ca79d7d2262a7142a0e02a7321ae0a3dc9e4969784916101b1575b508560011b9084198760031b1c19161790555b85825252426006604060002001556101ac60405192839283611a0e565b0390a2005b90508401353861017c565b601f1984169082600052866000209160005b81811061022e57509160009391867f4125a3f7b6a26be6d9d563489005ca79d7d2262a7142a0e02a7321ae0a3dc9e498999410610215575b5050600185811b01905561018f565b841960f88860031b161c19908601351690553880610206565b9192886001819286890135815501940192016101ce565b634e487b7160e01b600052604160045260246000fd5b61027891503d806000833e61027081836116c2565b8101906117b8565b38610103565b6040513d6000823e3d90fd5b600080fd5b3461028a57600036600319011261028a576040517f00000000000000000000000000000000000000000000000000000000000000006001600160a01b03168152602090f35b3461028a5760208060031936011261028a576040516102f2816116a7565b606090818152818382015281604082015281808201528160808201528160a082015260c001600090526004356000526000825260406000209160405191610338836116a7565b610341846116e3565b83526001936103518186016116e3565b84840190815290610364600282016116e3565b6040860190815292610378600383016116e3565b86820190815261038a600484016116e3565b608088019081529161039e60058501611a36565b9360a08901948552600601549560c0890196875260405198888a5251888a0160e090526101008a016103cf916115b8565b9551601f1996878b82030160408c01526103e8916115b8565b905191868a830301908a01526103fd916115b8565b90519084888203016080890152610413916115b8565b905190838782030160a0880152610429916115b8565b905193828683030160c087015284519182815281810182808560051b8401019701946000925b85841061046357875160e08b01528989038af35b90919293949597858061048083868f958790030188528c516115b8565b9a019401940192959493919061044f565b3461028a57608036600319011261028a576001600160401b0360043560243582811161028a576104c590369060040161160d565b909260443581811161028a576104df90369060040161160d565b9060643583811161028a576104f890369060040161160d565b604051632de5aaf760e01b81526004810188905291979093916001600160a01b036000826024817f000000000000000000000000000000000000000000000000000000000000000085165afa91821561027e57610564926040916000916107fe57500151163314611891565b86600052602095600087526002604060002001918682116102455781906105958261058f865461166d565b86611934565b600090601f831160011461079457600092610789575b50508160011b916000199060031b1c19161790555b85600052600085526003604060002001918482116102455781906105e88261058f865461166d565b600090601f831160011461071f57600092610714575b50508160011b916000199060031b1c19161790555b836000526000835260046040600020019181116102455761063e81610638845461166d565b84611934565b6000601f82116001146106ac5781906000959686926106a1575b50508160011b9185199060031b1c19161790555b82825252426006604060002001557fd477f7e3831f9775cc88977a1d40d3a1ca3b6aeb32558fe078de53f6e9c33200600080a2005b013590508680610658565b601f1982169083600052846000209160005b8181106106fd57509683929160019460009899106106e4575b505050811b01905561066c565b871960f88560031b161c199101351690558680806106d7565b91928660018192868c0135815501940192016106be565b0135905088806105fe565b909150601f1983169184600052876000209260005b89828210610773575050908460019594939210610759575b505050811b019055610613565b0135600019600384901b60f8161c1916905588808061074c565b6001849682939587013581550195019201610734565b013590508a806105ab565b909150601f1983169184600052896000209260005b8b8282106107e85750509084600195949392106107ce575b505050811b0190556105c0565b0135600019600384901b60f8161c191690558a80806107c1565b60018496829395870135815501950192016107a9565b61081391503d806000833e61027081836116c2565b8c610103565b3461028a57602036600319011261028a57600435600052600060205261089f6040600020610846816116e3565b906108d7610856600183016116e3565b916108c9610866600283016116e3565b6108bb610875600385016116e3565b916108ad6006610887600488016116e3565b960154976040519a8b9a60c08c5260c08c01906115b8565b908a820360208c01526115b8565b9088820360408a01526115b8565b9086820360608801526115b8565b9084820360808601526115b8565b9060a08301520390f35b3461028a5760e036600319011261028a576024356001600160401b03811161028a5761091190369060040161160d565b906044356001600160401b03811161028a5761093190369060040161160d565b906064356001600160401b03811161028a5761095190369060040161160d565b906084356001600160401b03811161028a5761097190369060040161160d565b909160a4356001600160401b03811161028a5761099290369060040161160d565b94909560c4356001600160401b03811161028a576109b49036906004016115dd565b604051632de5aaf760e01b81526004803590820152919a9099916000816024817f00000000000000000000000000000000000000000000000000000000000000006001600160a01b03165afa90811561027e57600091611097575b5060400151610a28906001600160a01b03163314611891565b6040519b610a358d6116a7565b3690610a40926118cf565b8b523690610a4d926118cf565b60208a01523690610a5d926118cf565b60408801523690610a6d926118cf565b60608601523690610a7d926118cf565b6080840152610a8b81611906565b9160405192610a9a90846116c2565b818352602083019160051b81019036821161028a5780925b82841061105b57858560a082015260c08101904282526004356000526000602052604060002081519283516001600160401b03811161024557610aff81610af9855461166d565b85611934565b6020601f8211600114610ff2578192939495600092610fe7575b50508160011b916000199060031b1c19161782555b60208301519283516001600160401b03811161024557610b5e81610b55600187015461166d565b60018701611934565b6020601f8211600114610f78578192939495600092610f6d575b50508160011b916000199060031b1c19161760018401555b60408101519283516001600160401b03811161024557610bc081610bb7600285015461166d565b60028501611934565b6020601f8211600114610efe578192939495600092610ef3575b50508160011b916000199060031b1c19161760028201555b60608201519283516001600160401b03811161024557610c2281610c19600386015461166d565b60038601611934565b6020601f8211600114610e84578192939495600092610e79575b50508160011b916000199060031b1c19161760038301555b60808301519283516001600160401b03811161024557610c8481610c7b600487015461166d565b60048701611934565b6020601f8211600114610e0a578192939495600092610dff575b50508160011b916000199060031b1c19161760048401555b60a0600584019101516020815191610cce8385611979565b01916000526020600020916000905b828210610d1c5785600686519101556040514281527f01671f396a8fbe50f9b0f459e32fc0abeba32a54e644feb8cfba8ce4d3d061b9602060043592a2005b80518051906001600160401b03821161024557610d4382610d3d885461166d565b88611934565b602090601f8311600114610d8f579282600194936020938695600092610d84575b5050600019600383901b1c191690841b1787555b01940191019092610cdd565b015190508b80610d64565b908660005260206000209160005b601f1985168110610de7575083602093600196938796938794601f19811610610dce575b505050811b018755610d78565b015160001960f88460031b161c191690558b8080610dc1565b91926020600181928685015181550194019201610d9d565b015190508580610c9e565b6004850160005260206000209060005b601f1984168110610e61575060019394959683601f19811610610e48575b505050811b016004840155610cb6565b015160001960f88460031b161c19169055858080610e38565b9091602060018192858b015181550193019101610e1a565b015190508580610c3c565b6003840160005260206000209060005b601f1984168110610edb575060019394959683601f19811610610ec2575b505050811b016003830155610c54565b015160001960f88460031b161c19169055858080610eb2565b9091602060018192858b015181550193019101610e94565b015190508580610bda565b6002830160005260206000209060005b601f1984168110610f55575060019394959683601f19811610610f3c575b505050811b016002820155610bf2565b015160001960f88460031b161c19169055858080610f2c565b9091602060018192858b015181550193019101610f0e565b015190508580610b78565b6001850160005260206000209060005b601f1984168110610fcf575060019394959683601f19811610610fb6575b505050811b016001840155610b90565b015160001960f88460031b161c19169055858080610fa6565b9091602060018192858b015181550193019101610f88565b015190508580610b19565b8360005260206000209060005b601f1984168110611043575060019394959683601f1981161061102a575b505050811b018255610b2e565b015160001960f88460031b161c1916905585808061101d565b9091602060018192858b015181550193019101610fff565b83356001600160401b03811161028a57820136601f8201121561028a5760209161108c8392369084813591016118cf565b815201930192610ab2565b6110ac91503d806000833e61027081836116c2565b8d610a0f565b3461028a57602036600319011261028a5760043560005260006020526110f26110de60406000206116e3565b6040519182916020835260208301906115b8565b0390f35b3461028a576111043661163a565b604051632de5aaf760e01b8152600481018490529192916001600160a01b036000826024817f000000000000000000000000000000000000000000000000000000000000000085165afa91821561027e5761116e9260409160009161129a57500151163314611891565b8160005260209260008452600180604060002001906001600160401b0384116102455761119f84610638845461166d565b6000601f8511600114611214579184807f574711df185befcbbbdebb797aa57d7f3d8b43497f6ad174a29d2c331dfb02b29798936000958693611209575b501b9084198760031b1c191617905585825252426006604060002001556101ac60405192839283611a0e565b87013592508a6111dd565b601f1985169083600052876000209160005b8181106112855750917f574711df185befcbbbdebb797aa57d7f3d8b43497f6ad174a29d2c331dfb02b29798939187600096941061126c575b505085811b01905561018f565b851960f88960031b161c1990870135169055888061125f565b86830135845592840192918901918901611226565b6112af91503d806000833e61027081836116c2565b87610103565b3461028a57604036600319011261028a576001600160401b0360043560243582811161028a576112e99036906004016115dd565b604051632de5aaf760e01b8152600481018490529193916001600160a01b036000826024817f000000000000000000000000000000000000000000000000000000000000000085165afa91821561027e57611357926040916000916114c0575b509694960151163314611891565b82600052602091600083526005604060002001946113758387611979565b600095865283862091805b8488106113c557867f01671f396a8fbe50f9b0f459e32fc0abeba32a54e644feb8cfba8ce4d3d061b987826000526000815242600660406000200155604051428152a2005b8035601e198336030181121561028a578201803584811161028a578036038883011361028a578791611401826113fb895461166d565b89611934565b600090601f831160011461144f5791808460019693879695600093611442575b505050600019600383901b1c191690841b1787555b01940197019692611380565b0101359050838e80611421565b601f1983169188600052846000209260005b8181106114a657509185600197949286899897951061148a575b50505050831b83018755611436565b60001960f88660031b161c19920101351690558c80848161147b565b82840187013585558c966001909501949283019201611461565b6114d591503d806000833e61027081836116c2565b88611349565b3461028a5760208060031936011261028a57600435600052600081526115076005604060002001611a36565b6040519082820192808352815180945260408301938160408260051b8601019301916000955b82871061153a5785850386f35b909192938280611556600193603f198a820301865288516115b8565b960192019601959291909261152d565b3461028a57602036600319011261028a5760043560005260006020526110f26110de60016040600020016116e3565b60005b8381106115a85750506000910152565b8181015183820152602001611598565b906020916115d181518092818552858086019101611595565b601f01601f1916010190565b9181601f8401121561028a578235916001600160401b03831161028a576020808501948460051b01011161028a57565b9181601f8401121561028a578235916001600160401b03831161028a576020838186019501011161028a57565b90604060031983011261028a5760043591602435906001600160401b03821161028a576116699160040161160d565b9091565b90600182811c9216801561169d575b602083101461168757565b634e487b7160e01b600052602260045260246000fd5b91607f169161167c565b60e081019081106001600160401b0382111761024557604052565b90601f801991011681019081106001600160401b0382111761024557604052565b90604051918260008254926116f78461166d565b9081845260019485811690816000146117665750600114611723575b5050611721925003836116c2565b565b9093915060005260209081600020936000915b81831061174e57505061172193508201013880611713565b85548884018501529485019487945091830191611736565b91505061172194506020925060ff191682840152151560051b8201013880611713565b6001600160401b03811161024557601f01601f191660200190565b51906001600160a01b038216820361028a57565b90602090818382031261028a5782516001600160401b039384821161028a57019060c08282031261028a576040519360c085018581108282111761024557604052825185528383015190811161028a5782019281601f8501121561028a5783519361182285611789565b9261183060405194856116c2565b85845282868301011161028a5760a09461184f91838086019101611595565b84015261185e604082016117a4565b604084015261186f606082016117a4565b6060840152608081015160808401520151801515810361028a5760a082015290565b1561189857565b60405162461bcd60e51b815260206004820152600f60248201526e2737ba1030b3b2b73a1037bbb732b960891b6044820152606490fd5b9291926118db82611789565b916118e960405193846116c2565b82948184528183011161028a578281602093846000960137010152565b6001600160401b0381116102455760051b60200190565b818110611928575050565b6000815560010161191d565b9190601f811161194357505050565b611721926000526020600020906020601f840160051c8301931061196f575b601f0160051c019061191d565b9091508190611962565b6801000000000000000082116102455780549180825582811061199b57505050565b600091825260209081832093840193015b8381106119b95750505050565b80836119c76001935461166d565b806119d5575b5050016119ac565b601f80821185146119ec57505081555b83386119cd565b611a0590848452868420920160051c820185830161191d565b818355556119e5565b90918060409360208452816020850152848401376000828201840152601f01601f1916010190565b908154611a4281611906565b92611a5060405194856116c2565b818452600090815260208082208186015b848410611a6f575050505050565b6001838192611a7d856116e3565b815201920193019290611a6156fea264697066735822122064d5ec709547c8437f994a49fd45997af4a9fef850ce8b80f65836a2742a0b5264736f6c63430008140033",
  "linkReferences": {},
  "deployedLinkReferences": {}
}