{"abi":[{"type":"constructor","inputs":[{"name":"coreAddress","type":"address","internalType":"address"}],"stateMutability":"nonpayable"},{"type":"function","name":"adminSetAvatar","inputs":[{"name":"agentId","type":"uint256","internalType":"uint256"},{"name":"avatar","type":"string","internalType":"string"}],"outputs":[],"stateMutability":"nonpayable"},{"type":"function","name":"adminSetProfile","inputs":[{"name":"agentId","type":"uint256","internalType":"uint256"},{"name":"bio","type":"string","internalType":"string"},{"name":"avatar","type":"string","internalType":"string"},{"name":"website","type":"string","internalType":"string"},{"name":"twitter","type":"string","internalType":"string"},{"name":"github","type":"string","internalType":"string"}],"outputs":[],"stateMutability":"nonpayable"},{"type":"function","name":"core","inputs":[],"outputs":[{"name":"","type":"address","internalType":"contract AgentCore"}],"stateMutability":"view"},{"type":"function","name":"getAvatar","inputs":[{"name":"agentId","type":"uint256","internalType":"uint256"}],"outputs":[{"name":"","type":"string","internalType":"string"}],"stateMutability":"view"},{"type":"function","name":"getBio","inputs":[{"name":"agentId","type":"uint256","internalType":"uint256"}],"outputs":[{"name":"","type":"string","internalType":"string"}],"stateMutability":"view"},{"type":"function","name":"getProfile","inputs":[{"name":"agentId","type":"uint256","internalType":"uint256"}],"outputs":[{"name":"","type":"tuple","internalType":"struct AgentProfile.Profile","components":[{"name":"bio","type":"string","internalType":"string"},{"name":"avatar","type":"string","internalType":"string"},{"name":"website","type":"string","internalType":"string"},{"name":"twitter","type":"string","internalType":"string"},{"name":"github","type":"string","internalType":"string"},{"name":"tags","type":"string[]","internalType":"string[]"},{"name":"updatedAt","type":"uint256","internalType":"uint256"}]}],"stateMutability":"view"},{"type":"function","name":"getTags","inputs":[{"name":"agentId","type":"uint256","internalType":"uint256"}],"outputs":[{"name":"","type":"string[]","internalType":"string[]"}],"stateMutability":"view"},{"type":"function","name":"profiles","inputs":[{"name":"","type":"uint256","internalType":"uint256"}],"outputs":[{"name":"bio","type":"string","internalType":"string"},{"name":"avatar","type":"string","internalType":"string"},{"name":"website","type":"string","internalType":"string"},{"name":"twitter","type":"string","internalType":"string"},{"name":"github","type":"string","internalType":"string"},{"name":"updatedAt","type":"uint256","internalType":"uint256"}],"stateMutability":"view"},{"type":"function","name":"setAvatar","inputs":[{"name":"agentId","type":"uint256","internalType":"uint256"},{"name":"avatar","type":"string","internalType":"string"}],"outputs":[],"stateMutability":"nonpayable"},{"type":"function","name":"setBio","inputs":[{"name":"agentId","type":"uint256","internalType":"uint256"},{"name":"bio","type":"string","internalType":"string"}],"outputs":[],"stateMutability":"nonpayable"},{"type":"function","name":"setLinks","inputs":[{"name":"agentId","type":"uint256","internalType":"uint256"},{"name":"website","type":"string","internalType":"string"},{"name":"twitter","type":"string","internalType":"string"},{"name":"github","type":"string","internalType":"string"}],"outputs":[],"stateMutability":"nonpayable"},{"type":"function","name":"setProfile","inputs":[{"name":"agentId","type":"uint256","internalType":"uint256"},{"name":"bio","type":"string","internalType":"string"},{"name":"avatar","type":"string","internalType":"string"},{"name":"website","type":"string","internalType":"string"},{"name":"twitter","type":"string","internalType":"string"},{"name":"github","type":"string","internalType":"string"},{"name":"tags","type":"string[]","internalType":"string[]"}],"outputs":[],"stateMutability":"nonpayable"},{"type":"function","name":"setTags","inputs":[{"name":"agentId","type":"uint256","internalType":"uint256"},{"name":"tags","type":"string[]","internalType":"string[]"}],"outputs":[],"stateMutability":"nonpayable"},{"type":"event","name":"AvatarUpdated","inputs":[{"name":"agentId","type":"uint256","indexed":true,"internalType":"uint256"},{"name":"avatar","type":"string","indexed":false,"internalType":"string"}],"anonymous":false},{"type":"event","name":"BioUpdated","inputs":[{"name":"agentId","type":"uint256","indexed":true,"internalType":"uint256"},{"name":"bio","type":"string","indexed":false,"internalType":"string"}],"anonymous":false},{"type":"event","name":"LinksUpdated","inputs":[{"name":"agentId","type":"uint256","indexed":true,"internalType":"uint256"}],"anonymous":false},{"type":"event","name":"ProfileUpdated","inputs":[{"name":"agentId","type":"uint256","indexed":true,"internalType":"uint256"},{"name":"timestamp","type":"uint256","indexed":false,"internalType":"uint256"}],"anonymous":false}],"bytecode":{"object":"0x60a0604052346100695761001961001461012e565b610186565b61002161006e565b61261a6101958239608051818181610c4d015281816111c801528181611315015281816116c201528181611b3401528181611ca4015281816121d101526124ab015261261a90f35b610074565b60405190565b5f80fd5b601f801991011690565b634e487b7160e01b5f52604160045260245ffd5b906100a090610078565b810190811060018060401b038211176100b857604052565b610082565b906100d06100c961006e565b9283610096565b565b5f80fd5b60018060a01b031690565b6100ea906100d6565b90565b6100f6816100e1565b036100fd57565b5f80fd5b9050519061010e826100ed565b565b9060208282031261012957610126915f01610101565b90565b6100d2565b61014c6127af80380380610141816100bd565b928339810190610110565b90565b90565b61016661016161016b926100d6565b61014f565b6100d6565b90565b61017790610152565b90565b6101839061016e565b90565b61018f9061017a565b60805256fe60a06040526004361015610013575b610d39565b61001d5f356100ec565b80631328ec9b146100e757806329d29cb3146100e25780632cf2be9f146100dd57806376cc13c9146100d85780637a6e9514146100d357806387beeb2b146100ce578063b9200ff5146100c9578063c2932529146100c4578063c36fe3d6146100bf578063deb711de146100ba578063f08f4f64146100b5578063f2f4eb26146100b05763f948dbf60361000e57610d05565b610cd0565b610c07565b610aa2565b6109d0565b610719565b6105d9565b6105a5565b610571565b6104ac565b610392565b6102c7565b6101b3565b60e01c90565b60405190565b5f80fd5b5f80fd5b5f80fd5b90565b61011081610104565b0361011757565b5f80fd5b9050359061012882610107565b565b9060208282031261014357610140915f0161011b565b90565b6100fc565b5190565b60209181520190565b90825f9392825e0152565b601f801991011690565b6101896101926020936101979361018081610148565b9384809361014c565b95869101610155565b610160565b0190565b6101b09160208201915f81840391015261016a565b90565b346101e3576101df6101ce6101c936600461012a565b610d4e565b6101d66100f2565b9182918261019b565b0390f35b6100f8565b5190565b60209181520190565b60200190565b60209181520190565b61022361022c6020936102319361021a81610148565b938480936101fb565b95869101610155565b610160565b0190565b9061023f91610204565b90565b60200190565b9061025c610255836101e8565b80926101ec565b908161026d602083028401946101f5565b925f915b83831061028057505050505090565b909192939460206102a261029c83856001950387528951610235565b97610242565b9301930191939290610271565b6102c49160208201915f818403910152610248565b90565b346102f7576102f36102e26102dd36600461012a565b610e24565b6102ea6100f2565b918291826102af565b0390f35b6100f8565b5f80fd5b5f80fd5b5f80fd5b909182601f830112156103425781359167ffffffffffffffff831161033d57602001926001830284011161033857565b610304565b610300565b6102fc565b91909160408184031261038857610360835f830161011b565b92602082013567ffffffffffffffff81116103835761037f9201610308565b9091565b610100565b6100fc565b5f0190565b346103c1576103ab6103a5366004610347565b916111bd565b6103b36100f2565b806103bd8161038d565b0390f35b6100f8565b91909160c0818403126104a7576103df835f830161011b565b92602082013567ffffffffffffffff81116104a25781610400918401610308565b929093604082013567ffffffffffffffff811161049d5783610423918401610308565b929093606082013567ffffffffffffffff81116104985781610446918401610308565b929093608082013567ffffffffffffffff81116104935783610469918401610308565b92909360a082013567ffffffffffffffff811161048e5761048a9201610308565b9091565b610100565b610100565b610100565b610100565b610100565b6100fc565b346104e7576104d16104bf3660046103c6565b999890989791979692969593956112fe565b6104d96100f2565b806104e38161038d565b0390f35b6100f8565b909182601f830112156105265781359167ffffffffffffffff831161052157602001926020830284011161051c57565b610304565b610300565b6102fc565b91909160408184031261056c57610544835f830161011b565b92602082013567ffffffffffffffff81116105675761056392016104ec565b9091565b610100565b6100fc565b346105a05761058a61058436600461052b565b91611b1a565b6105926100f2565b8061059c8161038d565b0390f35b6100f8565b346105d4576105be6105b8366004610347565b91611c61565b6105c66100f2565b806105d08161038d565b0390f35b6100f8565b34610609576106056105f46105ef36600461012a565b611c6e565b6105fc6100f2565b9182918261019b565b0390f35b6100f8565b60e08183031261071457610624825f830161011b565b92602082013567ffffffffffffffff811161070f5783610645918401610308565b929093604082013567ffffffffffffffff811161070a5781610668918401610308565b929093606082013567ffffffffffffffff8111610705578361068b918401610308565b929093608082013567ffffffffffffffff811161070057816106ae918401610308565b92909360a082013567ffffffffffffffff81116106fb57836106d1918401610308565b92909360c082013567ffffffffffffffff81116106f6576106f292016104ec565b9091565b610100565b610100565b610100565b610100565b610100565b610100565b6100fc565b346107575761074161072c36600461060e565b9b9a909a9991999892989793979694966121a9565b6107496100f2565b806107538161038d565b0390f35b6100f8565b90565b61077361076e61077892610104565b61075c565b610104565b90565b906107859061075f565b5f5260205260405f2090565b634e487b7160e01b5f52602260045260245ffd5b90600160028304921680156107c5575b60208310146107c057565b610791565b91607f16916107b5565b5f5260205f2090565b905f92918054906107f26107eb836107a5565b80946101fb565b916001811690815f14610849575060011461080d575b505050565b61081a91929394506107cf565b915f925b81841061083157505001905f8080610808565b6001816020929593955484860152019101929061081e565b92949550505060ff19168252151560200201905f8080610808565b9061086e916107d8565b90565b634e487b7160e01b5f52604160045260245ffd5b9061088f90610160565b810190811067ffffffffffffffff8211176108a957604052565b610871565b906108ce6108c7926108be6100f2565b93848092610864565b0383610885565b565b5f1c90565b90565b6108e46108e9916108d0565b6108d5565b90565b6108f690546108d8565b90565b610903905f61077b565b9061090f5f83016108ae565b9161091c600182016108ae565b91610929600283016108ae565b91610936600382016108ae565b9161094f6006610948600485016108ae565b93016108ec565b90565b61095b90610104565b9052565b9695936109b8906109aa60a09561099c6109c69661098d8d6109ce9c9860c08201915f81840391015261016a565b908d602081840391015261016a565b908b820360408d015261016a565b9089820360608b015261016a565b90878203608089015261016a565b940190610952565b565b34610a0757610a036109eb6109e636600461012a565b6108f9565b926109fa9694969291926100f2565b9687968761095f565b0390f35b6100f8565b919091608081840312610a9d57610a25835f830161011b565b92602082013567ffffffffffffffff8111610a985781610a46918401610308565b929093604082013567ffffffffffffffff8111610a935783610a69918401610308565b929093606082013567ffffffffffffffff8111610a8e57610a8a9201610308565b9091565b610100565b610100565b610100565b6100fc565b34610ad757610ac1610ab5366004610a0c565b9594909493919361232a565b610ac96100f2565b80610ad38161038d565b0390f35b6100f8565b60209181520190565b90610af9610af2836101e8565b8092610adc565b9081610b0a602083028401946101f5565b925f915b838310610b1d57505050505090565b90919293946020610b3f610b3983856001950387528951610235565b97610242565b9301930191939290610b0e565b610b5590610104565b9052565b90610bec9060c080610be1610bcf610bbd610bab610b99610b8760e089015f8c01518a82035f8c0152610204565b60208b015189820360208b0152610204565b60408a015188820360408a0152610204565b60608901518782036060890152610204565b60808801518682036080880152610204565b60a087015185820360a0870152610ae5565b940151910190610b4c565b90565b610c049160208201915f818403910152610b59565b90565b34610c3757610c33610c22610c1d36600461012a565b612480565b610c2a6100f2565b91829182610bef565b0390f35b6100f8565b5f910312610c4657565b6100fc565b7f000000000000000000000000000000000000000000000000000000000000000090565b60018060a01b031690565b610c8e610c89610c9392610c6f565b61075c565b610c6f565b90565b610c9f90610c7a565b90565b610cab90610c96565b90565b610cb790610ca2565b9052565b9190610cce905f60208501940190610cae565b565b34610d0057610ce0366004610c3c565b610cfc610ceb610c4b565b610cf36100f2565b91829182610cbb565b0390f35b6100f8565b34610d3457610d1e610d18366004610347565b916125d7565b610d266100f2565b80610d308161038d565b0390f35b6100f8565b5f80fd5b606090565b610d4b906108ae565b90565b6001610d66610d6c92610d5f610d3d565b505f61077b565b01610d42565b90565b606090565b5490565b90610d8b610d846100f2565b9283610885565b565b67ffffffffffffffff8111610da55760208091020190565b610871565b90610dbc610db783610d8d565b610d78565b918252565b5f5260205f2090565b90610dd482610d74565b610ddd81610daa565b92610deb6020850191610dc1565b5f915b838310610dfb5750505050565b600160208192610e0a85610d42565b815201920192019190610dee565b610e2190610dca565b90565b6005610e3c610e4292610e35610d6f565b505f61077b565b01610e18565b90565b60e01b90565b610e5490610c6f565b90565b610e6081610e4b565b03610e6757565b5f80fd5b90505190610e7882610e57565b565b90602082820312610e9357610e90915f01610e6b565b90565b6100fc565b610ea06100f2565b3d5f823e3d90fd5b5f7f4e6f742061646d696e0000000000000000000000000000000000000000000000910152565b610edc600960209261014c565b610ee581610ea8565b0190565b610efe9060208101905f818303910152610ecf565b90565b15610f0857565b610f106100f2565b62461bcd60e51b815280610f2660048201610ee9565b0390fd5b634e487b7160e01b5f525f60045260245ffd5b5090565b601f602091010490565b1b90565b91906008610f6a910291610f645f1984610f4b565b92610f4b565b9181191691161790565b90565b9190610f8d610f88610f959361075f565b610f74565b908354610f4f565b9055565b5f90565b610faf91610fa9610f99565b91610f77565b565b5f5b828110610fbf57505050565b80610fce5f6001938501610f9d565b01610fb3565b9190601f8111610fe4575b505050565b818111610ff1575b610fdf565b611006611000611024946107cf565b91610f41565b91602061101282610f41565b911061102c575b809101910390610fb1565b5f8080610fec565b505f611019565b1c90565b90611047905f1990600802611033565b191690565b8161105691611037565b906002021790565b916110699082610f3d565b9067ffffffffffffffff82116111285761108d8261108785546107a5565b85610fd4565b5f90601f83116001146110c0579180916110af935f926110b4575b505061104c565b90555b565b90915001355f806110a8565b601f198316916110cf856107cf565b925f5b818110611110575091600293918560019694106110f6575b505050020190556110b2565b611106910135601f841690611037565b90555f80806110ea565b919360206001819287870135815501950192016110d2565b610871565b90611138929161105e565b565b5f1b90565b9061114b5f199161113a565b9181191691161790565b9061116a6111656111719261075f565b610f74565b825461113f565b9055565b90825f939282370152565b919061119a816111938161119f9561014c565b8095611175565b610160565b0190565b90916111ba9260208301925f818503910152611180565b90565b6112023360206111ec7f0000000000000000000000000000000000000000000000000000000000000000610ca2565b63f851a440906111fa6100f2565b948592610e45565b825281806112126004820161038d565b03915afa80156112e45761123461123a91611240945f916112b6575b50610e4b565b91610e4b565b14610f01565b61125982849060016112535f869061077b565b0161112d565b61127042600661126a5f859061077b565b01611155565b909161129c7f574711df185befcbbbdebb797aa57d7f3d8b43497f6ad174a29d2c331dfb02b29261075f565b926112b16112a86100f2565b928392836111a3565b0390a2565b6112d7915060203d81116112dd575b6112cf8183610885565b810190610e7a565b5f61122e565b503d6112c5565b610e98565b91906112fc905f60208501940190610952565b565b9997949061134f93969299979499339a60206113397f0000000000000000000000000000000000000000000000000000000000000000610ca2565b63f851a440906113476100f2565b988992610e45565b8252818061135f6004820161038d565b03915afa95861561148d576113c36113ef9a8f946114029f906113c9976113a96113bb936113a361139d6113dc9f60019a5f9161145f575b50610e4b565b91610e4b565b14610f01565b5f6113b5818a9061077b565b0161112d565b92935f61077b565b0161112d565b60026113d65f8c9061077b565b0161112d565b60036113e95f899061077b565b0161112d565b60046113fc5f869061077b565b0161112d565b6114194260066114135f859061077b565b01611155565b429061145a6114487f01671f396a8fbe50f9b0f459e32fc0abeba32a54e644feb8cfba8ce4d3d061b99261075f565b926114516100f2565b918291826112e9565b0390a2565b611480915060203d8111611486575b6114788183610885565b810190610e7a565b5f611397565b503d61146e565b610e98565b5f80fd5b5f80fd5b905051906114a782610107565b565b5f80fd5b67ffffffffffffffff81116114cb576114c7602091610160565b0190565b610871565b909291926114e56114e0826114ad565b610d78565b93818552602085019082840111611501576114ff92610155565b565b6114a9565b9080601f8301121561152457816020611521935191016114d0565b90565b6102fc565b151590565b61153781611529565b0361153e57565b5f80fd5b9050519061154f8261152e565b565b91909160c0818403126115ec5761156860c0610d78565b92611575815f840161149a565b5f85015260208201519167ffffffffffffffff83116115e75761159d826115e0948301611506565b60208601526115af8260408301610e6b565b60408601526115c18260608301610e6b565b60608601526115d3826080830161149a565b608086015260a001611542565b60a0830152565b611496565b611492565b90602082820312611621575f82015167ffffffffffffffff811161161c576116199201611551565b90565b610100565b6100fc565b6116309051610e4b565b90565b5f7f4e6f74206167656e74206f776e65720000000000000000000000000000000000910152565b611667600f60209261014c565b61167081611633565b0190565b6116899060208101905f81830391015261165a565b90565b1561169357565b61169b6100f2565b62461bcd60e51b8152806116b160048201611674565b0390fd5b9061170d92915f816116e67f0000000000000000000000000000000000000000000000000000000000000000610ca2565b611702632de5aaf76116f66100f2565b98899485938493610e45565b8352600483016112e9565b03915afa9384156117745761173360406117509661174b935f91611752575b5001611626565b61174561173f33610e4b565b91610e4b565b1461168c565b611aa5565b565b61176e91503d805f833e6117668183610885565b8101906115f1565b5f61172c565b610e98565b90565b5f80fd5b5f80fd5b5f80fd5b9035906001602003813603038212156117ca570180359067ffffffffffffffff82116117c5576020019160018202360383136117c057565b611784565b611780565b61177c565b600190818003010490565b906117ed905f1990602003600802611033565b8154169055565b905f9161180b611803826107cf565b92835461104c565b905555565b919290602082105f1461186957601f84116001146118395761183392935061104c565b90555b5b565b509061185f61186493600180611857611851866107cf565b93610f41565b039101610fb1565b6117f4565b611836565b506001919261188061187a83610f41565b91610f41565b908061188b866107cf565b0190601f8416806118c1575b508083116118ae575b505050600202179055611837565b6118b9920390610fb1565b5f80806118a0565b6118cd908684036117da565b5f611897565b929091680100000000000000008211611933576020115f1461192457602081105f14611908576119029161104c565b90555b5b565b60019160ff1916611918846107cf565b55600202019055611905565b60019150600202019055611906565b610871565b908154611944816107a5565b9081831161196d575b81831061195b575b50505050565b61196493611810565b5f808080611955565b611979838383876118d3565b61194d565b5f61198891611938565b565b905f0361199c5761199a9061197e565b565b610f2a565b5f5b8281106119af57505050565b806119be5f600193850161198a565b016119a3565b91908082106119d3575b505050565b6119fd926119ec6119e66119f4936117cf565b936117cf565b918291610dc1565b019103906119a1565b5f80806119ce565b90680100000000000000008111611a2e5781611a23611a2c93610d74565b908281556119c4565b565b610871565b5090565b9091611a439083611a33565b91611a4e8383611a05565b611a60611a5a82611779565b92610dc1565b905f925b848410611a72575050505050565b6001602082611a8c611a85849587611788565b908861112d565b01930193019291611a64565b90611aa39291611a37565b565b91611abd916005611ab75f869061077b565b01611a98565b611ad4426006611ace5f859061077b565b01611155565b4290611b15611b037f01671f396a8fbe50f9b0f459e32fc0abeba32a54e644feb8cfba8ce4d3d061b99261075f565b92611b0c6100f2565b918291826112e9565b0390a2565b90611b2592916116b5565b565b90611b7f92915f81611b587f0000000000000000000000000000000000000000000000000000000000000000610ca2565b611b74632de5aaf7611b686100f2565b98899485938493610e45565b8352600483016112e9565b03915afa938415611be657611ba56040611bc296611bbd935f91611bc4575b5001611626565b611bb7611bb133610e4b565b91610e4b565b1461168c565b611beb565b565b611be091503d805f833e611bd88183610885565b8101906115f1565b5f611b9e565b610e98565b611c048284906001611bfe5f869061077b565b0161112d565b611c1b426006611c155f859061077b565b01611155565b9091611c477f574711df185befcbbbdebb797aa57d7f3d8b43497f6ad174a29d2c331dfb02b29261075f565b92611c5c611c536100f2565b928392836111a3565b0390a2565b90611c6c9291611b27565b565b5f611c85611c8b92611c7e610d3d565b508261077b565b01610d42565b90565b9b9a999897969594939291905f8d611cf0611cc87f0000000000000000000000000000000000000000000000000000000000000000610ca2565b91611ce1632de5aaf7611cd96100f2565b608052610e45565b608051526004608051016112e9565b9060805191608051900390608051905afa9c8d15611d7557611d3f9d5f90611d41575b611d226040611d3a9201611626565b611d34611d2e33610e4b565b91610e4b565b1461168c565b612091565b565b50611d3a611d226040611d6c3d805f6080513e611d6081608051610885565b608051016080516115f1565b92505050611d13565b610e98565b611d8460e0610d78565b90565b90929192611d9c611d97826114ad565b610d78565b93818552602085019082840111611db857611db692611175565b565b6114a9565b611dc8913691611d87565b90565b52565b9080601f83011215611dec57816020611de993359101611d87565b90565b6102fc565b929190611e05611e0082610d8d565b610d78565b9381855260208086019202810191838311611e5c5781905b838210611e2b575050505050565b813567ffffffffffffffff8111611e5757602091611e4c8784938701611dce565b815201910190611e1d565b6102fc565b610304565b611e6c913691611df1565b90565b52565b90611e7c90610104565b9052565b5190565b90611e8e81610148565b9067ffffffffffffffff8211611f4e57611eb282611eac85546107a5565b85610fd4565b602090601f8311600114611ee657918091611ed5935f92611eda575b505061104c565b90555b565b90915001515f80611ece565b601f19831691611ef5856107cf565b925f5b818110611f3657509160029391856001969410611f1c575b50505002019055611ed8565b611f2c910151601f841690611037565b90555f8080611f10565b91936020600181928787015181550195019201611ef8565b610871565b90611f5d91611e84565b565b5190565b611f88611f82611f72846101e8565b93611f7d8585611a05565b6101f5565b91610dc1565b5f915b838310611f985750505050565b6001602082611fb0611faa8495611e80565b86611f53565b01920192019190611f8b565b90611fc691611f63565b565b611fd29051610104565b90565b9061207d60c0600661208394611ff85f8201611ff25f8801611e80565b90611f53565b6120116001820161200b60208801611e80565b90611f53565b61202a6002820161202460408801611e80565b90611f53565b6120436003820161203d60608801611e80565b90611f53565b61205c6004820161205660808801611e80565b90611f53565b6120756005820161206f60a08801611f5f565b90611fbc565b019201611fc8565b90611155565b565b9061208f91611fd5565b565b9b9893909a95929a99969199979497999a90979291949396959897429a6120b6611d7a565b9c6120c091611dbd565b5f8d01906120cd91611dcb565b6120d691611dbd565b60208b01906120e491611dcb565b6120ed91611dbd565b60408901906120fb91611dcb565b61210491611dbd565b606087019061211291611dcb565b61211b91611dbd565b608085019061212991611dcb565b61213291611e61565b60a083019061214091611e6f565b60c082019061214e91611e72565b5f826121599161077b565b9061216391612085565b42907f01671f396a8fbe50f9b0f459e32fc0abeba32a54e644feb8cfba8ce4d3d061b9906121909061075f565b916121996100f2565b6121a48192826112e9565b0390a2565b906121be9c9b9a999897969594939291611c8e565b565b9061221c9695949392915f816121f57f0000000000000000000000000000000000000000000000000000000000000000610ca2565b612211632de5aaf76122056100f2565b9c8d9485938493610e45565b8352600483016112e9565b03915afa97881561228357612242604061225f9a61225a935f91612261575b5001611626565b61225461224e33610e4b565b91610e4b565b1461168c565b612288565b565b61227d91503d805f833e6122758183610885565b8101906115f1565b5f61223b565b610e98565b959390926122ab6122be936122d1979560026122a55f8c9061077b565b0161112d565b60036122b85f899061077b565b0161112d565b60046122cb5f869061077b565b0161112d565b6122e84260066122e25f859061077b565b01611155565b6123127fd477f7e3831f9775cc88977a1d40d3a1ca3b6aeb32558fe078de53f6e9c332009161075f565b9061231b6100f2565b806123258161038d565b0390a2565b906123399695949392916121c0565b565b61234560e0610d78565b90565b606090565b606090565b5f90565b61235e61233b565b90602080808080808088612370612348565b81520161237b612348565b815201612386612348565b815201612391612348565b81520161239c612348565b8152016123a761234d565b8152016123b2612352565b81525050565b6123c0612356565b90565b9061247261246960066123d461233b565b946123eb6123e35f83016108ae565b5f8801611dcb565b6124036123fa600183016108ae565b60208801611dcb565b61241b612412600283016108ae565b60408801611dcb565b61243361242a600383016108ae565b60608801611dcb565b61244b612442600483016108ae565b60808801611dcb565b61246361245a60058301610dca565b60a08801611e6f565b016108ec565b60c08401611e72565b565b61247d906123c3565b90565b61249661249b9161248f6123b8565b505f61077b565b612474565b90565b906124f692915f816124cf7f0000000000000000000000000000000000000000000000000000000000000000610ca2565b6124eb632de5aaf76124df6100f2565b98899485938493610e45565b8352600483016112e9565b03915afa93841561255d5761251c604061253996612534935f9161253b575b5001611626565b61252e61252833610e4b565b91610e4b565b1461168c565b612562565b565b61255791503d805f833e61254f8183610885565b8101906115f1565b5f612515565b610e98565b61257a8284905f61257481869061077b565b0161112d565b61259142600661258b5f859061077b565b01611155565b90916125bd7f4125a3f7b6a26be6d9d563489005ca79d7d2262a7142a0e02a7321ae0a3dc9e49261075f565b926125d26125c96100f2565b928392836111a3565b0390a2565b906125e2929161249e565b56fea2646970667358221220d898ed478176978d93502ed3d46b09beb70128d14df40e2225536db005561d1e64736f6c63430008210033","linkReferences":{}},"methodIdentifiers":{"adminSetAvatar(uint256,string)":"2cf2be9f","adminSetProfile(uint256,string,string,string,string,string)":"76cc13c9","core()":"f2f4eb26","getAvatar(uint256)":"1328ec9b","getBio(uint256)":"b9200ff5","getProfile(uint256)":"f08f4f64","getTags(uint256)":"29d29cb3","profiles(uint256)":"c36fe3d6","setAvatar(uint256,string)":"87beeb2b","setBio(uint256,string)":"f948dbf6","setLinks(uint256,string,string,string)":"deb711de","setProfile(uint256,string,string,string,string,string,string[])":"c2932529","setTags(uint256,string[])":"7a6e9514"},"id":41}