{"abi":[{"type":"constructor","inputs":[{"name":"coreAddress","type":"address","internalType":"address"}],"stateMutability":"nonpayable"},{"type":"function","name":"core","inputs":[],"outputs":[{"name":"","type":"address","internalType":"contract AgentCore"}],"stateMutability":"view"},{"type":"function","name":"getAvatar","inputs":[{"name":"agentId","type":"uint256","internalType":"uint256"}],"outputs":[{"name":"","type":"string","internalType":"string"}],"stateMutability":"view"},{"type":"function","name":"getBio","inputs":[{"name":"agentId","type":"uint256","internalType":"uint256"}],"outputs":[{"name":"","type":"string","internalType":"string"}],"stateMutability":"view"},{"type":"function","name":"getProfile","inputs":[{"name":"agentId","type":"uint256","internalType":"uint256"}],"outputs":[{"name":"","type":"tuple","internalType":"struct AgentProfile.Profile","components":[{"name":"bio","type":"string","internalType":"string"},{"name":"avatar","type":"string","internalType":"string"},{"name":"website","type":"string","internalType":"string"},{"name":"twitter","type":"string","internalType":"string"},{"name":"github","type":"string","internalType":"string"},{"name":"tags","type":"string[]","internalType":"string[]"},{"name":"updatedAt","type":"uint256","internalType":"uint256"}]}],"stateMutability":"view"},{"type":"function","name":"getTags","inputs":[{"name":"agentId","type":"uint256","internalType":"uint256"}],"outputs":[{"name":"","type":"string[]","internalType":"string[]"}],"stateMutability":"view"},{"type":"function","name":"profiles","inputs":[{"name":"","type":"uint256","internalType":"uint256"}],"outputs":[{"name":"bio","type":"string","internalType":"string"},{"name":"avatar","type":"string","internalType":"string"},{"name":"website","type":"string","internalType":"string"},{"name":"twitter","type":"string","internalType":"string"},{"name":"github","type":"string","internalType":"string"},{"name":"updatedAt","type":"uint256","internalType":"uint256"}],"stateMutability":"view"},{"type":"function","name":"setAvatar","inputs":[{"name":"agentId","type":"uint256","internalType":"uint256"},{"name":"avatar","type":"string","internalType":"string"}],"outputs":[],"stateMutability":"nonpayable"},{"type":"function","name":"setBio","inputs":[{"name":"agentId","type":"uint256","internalType":"uint256"},{"name":"bio","type":"string","internalType":"string"}],"outputs":[],"stateMutability":"nonpayable"},{"type":"function","name":"setLinks","inputs":[{"name":"agentId","type":"uint256","internalType":"uint256"},{"name":"website","type":"string","internalType":"string"},{"name":"twitter","type":"string","internalType":"string"},{"name":"github","type":"string","internalType":"string"}],"outputs":[],"stateMutability":"nonpayable"},{"type":"function","name":"setProfile","inputs":[{"name":"agentId","type":"uint256","internalType":"uint256"},{"name":"bio","type":"string","internalType":"string"},{"name":"avatar","type":"string","internalType":"string"},{"name":"website","type":"string","internalType":"string"},{"name":"twitter","type":"string","internalType":"string"},{"name":"github","type":"string","internalType":"string"},{"name":"tags","type":"string[]","internalType":"string[]"}],"outputs":[],"stateMutability":"nonpayable"},{"type":"function","name":"setTags","inputs":[{"name":"agentId","type":"uint256","internalType":"uint256"},{"name":"tags","type":"string[]","internalType":"string[]"}],"outputs":[],"stateMutability":"nonpayable"},{"type":"event","name":"AvatarUpdated","inputs":[{"name":"agentId","type":"uint256","indexed":true,"internalType":"uint256"},{"name":"avatar","type":"string","indexed":false,"internalType":"string"}],"anonymous":false},{"type":"event","name":"BioUpdated","inputs":[{"name":"agentId","type":"uint256","indexed":true,"internalType":"uint256"},{"name":"bio","type":"string","indexed":false,"internalType":"string"}],"anonymous":false},{"type":"event","name":"LinksUpdated","inputs":[{"name":"agentId","type":"uint256","indexed":true,"internalType":"uint256"}],"anonymous":false},{"type":"event","name":"ProfileUpdated","inputs":[{"name":"agentId","type":"uint256","indexed":true,"internalType":"uint256"},{"name":"timestamp","type":"uint256","indexed":false,"internalType":"uint256"}],"anonymous":false}],"bytecode":{"object":"0x60a06040523461005b57610019610014610120565b610178565b610021610060565b6121406101878239608051818181610ad301528181610f5501528181611612015281816117ca01528181611cf70152611fd1015261214090f35b610066565b60405190565b5f80fd5b601f801991011690565b634e487b7160e01b5f52604160045260245ffd5b906100929061006a565b810190811060018060401b038211176100aa57604052565b610074565b906100c26100bb610060565b9283610088565b565b5f80fd5b60018060a01b031690565b6100dc906100c8565b90565b6100e8816100d3565b036100ef57565b5f80fd5b90505190610100826100df565b565b9060208282031261011b57610118915f016100f3565b90565b6100c4565b61013e6122c780380380610133816100af565b928339810190610102565b90565b90565b61015861015361015d926100c8565b610141565b6100c8565b90565b61016990610144565b90565b61017590610160565b90565b6101819061016c565b60805256fe60a06040526004361015610013575b610bbf565b61001d5f356100cc565b80631328ec9b146100c757806329d29cb3146100c25780637a6e9514146100bd57806387beeb2b146100b8578063b9200ff5146100b3578063c2932529146100ae578063c36fe3d6146100a9578063deb711de146100a4578063f08f4f641461009f578063f2f4eb261461009a5763f948dbf60361000e57610b8b565b610b56565b610a8d565b610928565b610856565b61059f565b61045f565b61042b565b610372565b6102a7565b610193565b60e01c90565b60405190565b5f80fd5b5f80fd5b5f80fd5b90565b6100f0816100e4565b036100f757565b5f80fd5b90503590610108826100e7565b565b9060208282031261012357610120915f016100fb565b90565b6100dc565b5190565b60209181520190565b90825f9392825e0152565b601f801991011690565b6101696101726020936101779361016081610128565b9384809361012c565b95869101610135565b610140565b0190565b6101909160208201915f81840391015261014a565b90565b346101c3576101bf6101ae6101a936600461010a565b610bd4565b6101b66100d2565b9182918261017b565b0390f35b6100d8565b5190565b60209181520190565b60200190565b60209181520190565b61020361020c602093610211936101fa81610128565b938480936101db565b95869101610135565b610140565b0190565b9061021f916101e4565b90565b60200190565b9061023c610235836101c8565b80926101cc565b908161024d602083028401946101d5565b925f915b83831061026057505050505090565b9091929394602061028261027c83856001950387528951610215565b97610222565b9301930191939290610251565b6102a49160208201915f818403910152610228565b90565b346102d7576102d36102c26102bd36600461010a565b610caa565b6102ca6100d2565b9182918261028f565b0390f35b6100d8565b5f80fd5b5f80fd5b5f80fd5b909182601f830112156103225781359167ffffffffffffffff831161031d57602001926020830284011161031857565b6102e4565b6102e0565b6102dc565b91909160408184031261036857610340835f83016100fb565b92602082013567ffffffffffffffff81116103635761035f92016102e8565b9091565b6100e0565b6100dc565b5f0190565b346103a15761038b610385366004610327565b916115f8565b6103936100d2565b8061039d8161036d565b0390f35b6100d8565b909182601f830112156103e05781359167ffffffffffffffff83116103db5760200192600183028401116103d657565b6102e4565b6102e0565b6102dc565b919091604081840312610426576103fe835f83016100fb565b92602082013567ffffffffffffffff81116104215761041d92016103a6565b9091565b6100e0565b6100dc565b3461045a5761044461043e3660046103e5565b91611787565b61044c6100d2565b806104568161036d565b0390f35b6100d8565b3461048f5761048b61047a61047536600461010a565b611794565b6104826100d2565b9182918261017b565b0390f35b6100d8565b60e08183031261059a576104aa825f83016100fb565b92602082013567ffffffffffffffff811161059557836104cb9184016103a6565b929093604082013567ffffffffffffffff811161059057816104ee9184016103a6565b929093606082013567ffffffffffffffff811161058b57836105119184016103a6565b929093608082013567ffffffffffffffff811161058657816105349184016103a6565b92909360a082013567ffffffffffffffff811161058157836105579184016103a6565b92909360c082013567ffffffffffffffff811161057c5761057892016102e8565b9091565b6100e0565b6100e0565b6100e0565b6100e0565b6100e0565b6100e0565b6100dc565b346105dd576105c76105b2366004610494565b9b9a909a999199989298979397969496611ccf565b6105cf6100d2565b806105d98161036d565b0390f35b6100d8565b90565b6105f96105f46105fe926100e4565b6105e2565b6100e4565b90565b9061060b906105e5565b5f5260205260405f2090565b634e487b7160e01b5f52602260045260245ffd5b906001600283049216801561064b575b602083101461064657565b610617565b91607f169161063b565b5f5260205f2090565b905f92918054906106786106718361062b565b80946101db565b916001811690815f146106cf5750600114610693575b505050565b6106a09192939450610655565b915f925b8184106106b757505001905f808061068e565b600181602092959395548486015201910192906106a4565b92949550505060ff19168252151560200201905f808061068e565b906106f49161065e565b90565b634e487b7160e01b5f52604160045260245ffd5b9061071590610140565b810190811067ffffffffffffffff82111761072f57604052565b6106f7565b9061075461074d926107446100d2565b938480926106ea565b038361070b565b565b5f1c90565b90565b61076a61076f91610756565b61075b565b90565b61077c905461075e565b90565b610789905f610601565b906107955f8301610734565b916107a260018201610734565b916107af60028301610734565b916107bc60038201610734565b916107d560066107ce60048501610734565b9301610772565b90565b6107e1906100e4565b9052565b96959361083e9061083060a09561082261084c966108138d6108549c9860c08201915f81840391015261014a565b908d602081840391015261014a565b908b820360408d015261014a565b9089820360608b015261014a565b90878203608089015261014a565b9401906107d8565b565b3461088d5761088961087161086c36600461010a565b61077f565b926108809694969291926100d2565b968796876107e5565b0390f35b6100d8565b919091608081840312610923576108ab835f83016100fb565b92602082013567ffffffffffffffff811161091e57816108cc9184016103a6565b929093604082013567ffffffffffffffff811161091957836108ef9184016103a6565b929093606082013567ffffffffffffffff81116109145761091092016103a6565b9091565b6100e0565b6100e0565b6100e0565b6100dc565b3461095d5761094761093b366004610892565b95949094939193611e50565b61094f6100d2565b806109598161036d565b0390f35b6100d8565b60209181520190565b9061097f610978836101c8565b8092610962565b9081610990602083028401946101d5565b925f915b8383106109a357505050505090565b909192939460206109c56109bf83856001950387528951610215565b97610222565b9301930191939290610994565b6109db906100e4565b9052565b90610a729060c080610a67610a55610a43610a31610a1f610a0d60e089015f8c01518a82035f8c01526101e4565b60208b015189820360208b01526101e4565b60408a015188820360408a01526101e4565b606089015187820360608901526101e4565b608088015186820360808801526101e4565b60a087015185820360a087015261096b565b9401519101906109d2565b90565b610a8a9160208201915f8184039101526109df565b90565b34610abd57610ab9610aa8610aa336600461010a565b611fa6565b610ab06100d2565b91829182610a75565b0390f35b6100d8565b5f910312610acc57565b6100dc565b7f000000000000000000000000000000000000000000000000000000000000000090565b60018060a01b031690565b610b14610b0f610b1992610af5565b6105e2565b610af5565b90565b610b2590610b00565b90565b610b3190610b1c565b90565b610b3d90610b28565b9052565b9190610b54905f60208501940190610b34565b565b34610b8657610b66366004610ac2565b610b82610b71610ad1565b610b796100d2565b91829182610b41565b0390f35b6100d8565b34610bba57610ba4610b9e3660046103e5565b916120fd565b610bac6100d2565b80610bb68161036d565b0390f35b6100d8565b5f80fd5b606090565b610bd190610734565b90565b6001610bec610bf292610be5610bc3565b505f610601565b01610bc8565b90565b606090565b5490565b90610c11610c0a6100d2565b928361070b565b565b67ffffffffffffffff8111610c2b5760208091020190565b6106f7565b90610c42610c3d83610c13565b610bfe565b918252565b5f5260205f2090565b90610c5a82610bfa565b610c6381610c30565b92610c716020850191610c47565b5f915b838310610c815750505050565b600160208192610c9085610bc8565b815201920192019190610c74565b610ca790610c50565b90565b6005610cc2610cc892610cbb610bf5565b505f610601565b01610c9e565b90565b60e01b90565b5f80fd5b5f80fd5b90505190610ce6826100e7565b565b5f80fd5b67ffffffffffffffff8111610d0a57610d06602091610140565b0190565b6106f7565b90929192610d24610d1f82610cec565b610bfe565b93818552602085019082840111610d4057610d3e92610135565b565b610ce8565b9080601f83011215610d6357816020610d6093519101610d0f565b90565b6102dc565b610d7190610af5565b90565b610d7d81610d68565b03610d8457565b5f80fd5b90505190610d9582610d74565b565b151590565b610da581610d97565b03610dac57565b5f80fd5b90505190610dbd82610d9c565b565b91909160c081840312610e5a57610dd660c0610bfe565b92610de3815f8401610cd9565b5f85015260208201519167ffffffffffffffff8311610e5557610e0b82610e4e948301610d45565b6020860152610e1d8260408301610d88565b6040860152610e2f8260608301610d88565b6060860152610e418260808301610cd9565b608086015260a001610db0565b60a0830152565b610cd5565b610cd1565b90602082820312610e8f575f82015167ffffffffffffffff8111610e8a57610e879201610dbf565b90565b6100e0565b6100dc565b9190610ea7905f602085019401906107d8565b565b610eb16100d2565b3d5f823e3d90fd5b610ec39051610d68565b90565b5f7f4e6f74206167656e74206f776e65720000000000000000000000000000000000910152565b610efa600f60209261012c565b610f0381610ec6565b0190565b610f1c9060208101905f818303910152610eed565b90565b15610f2657565b610f2e6100d2565b62461bcd60e51b815280610f4460048201610f07565b0390fd5b90610fa092915f81610f797f0000000000000000000000000000000000000000000000000000000000000000610b28565b610f95632de5aaf7610f896100d2565b98899485938493610ccb565b835260048301610e94565b03915afa93841561100757610fc66040610fe396610fde935f91610fe5575b5001610eb9565b610fd8610fd233610d68565b91610d68565b14610f1f565b611583565b565b61100191503d805f833e610ff9818361070b565b810190610e5f565b5f610fbf565b610ea9565b634e487b7160e01b5f525f60045260245ffd5b90565b5f80fd5b5f80fd5b5f80fd5b903590600160200381360303821215611070570180359067ffffffffffffffff821161106b5760200191600182023603831361106657565b61102a565b611026565b611022565b600190818003010490565b1c90565b90611097905f1990602003600802611080565b8154169055565b1b90565b919060086110bd9102916110b75f198461109e565b9261109e565b9181191691161790565b90565b91906110e06110db6110e8936105e5565b6110c7565b9083546110a2565b9055565b5f90565b611102916110fc6110ec565b916110ca565b565b5f5b82811061111257505050565b806111215f60019385016110f0565b01611106565b90611137905f1990600802611080565b191690565b8161114691611127565b906002021790565b905f9161116561115d82610655565b92835461113c565b905555565b601f602091010490565b919290602082105f146111cd57601f841160011461119d5761119792935061113c565b90555b5b565b50906111c36111c8936001806111bb6111b586610655565b9361116a565b039101611104565b61114e565b61119a565b50600191926111e46111de8361116a565b9161116a565b90806111ef86610655565b0190601f841680611225575b50808311611212575b50505060020217905561119b565b61121d920390611104565b5f8080611204565b61123190868403611084565b5f6111fb565b929091680100000000000000008211611297576020115f1461128857602081105f1461126c576112669161113c565b90555b5b565b60019160ff191661127c84610655565b55600202019055611269565b6001915060020201905561126a565b6106f7565b9081546112a88161062b565b908183116112d1575b8183106112bf575b50505050565b6112c893611174565b5f8080806112b9565b6112dd83838387611237565b6112b1565b5f6112ec9161129c565b565b905f03611300576112fe906112e2565b565b61100c565b5f5b82811061131357505050565b806113225f60019385016112ee565b01611307565b9190808210611337575b505050565b6113619261135061134a61135893611075565b93611075565b918291610c47565b01910390611305565b5f8080611332565b90680100000000000000008111611392578161138761139093610bfa565b90828155611328565b565b6106f7565b5090565b5090565b9190601f81116113af575b505050565b8181116113bc575b6113aa565b6113d16113cb6113ef94610655565b9161116a565b9160206113dd8261116a565b91106113f7575b809101910390611104565b5f80806113b7565b505f6113e4565b91611409908261139b565b9067ffffffffffffffff82116114c85761142d82611427855461062b565b8561139f565b5f90601f83116001146114605791809161144f935f92611454575b505061113c565b90555b565b90915001355f80611448565b601f1983169161146f85610655565b925f5b8181106114b057509160029391856001969410611496575b50505002019055611452565b6114a6910135601f841690611127565b90555f808061148a565b91936020600181928787013581550195019201611472565b6106f7565b906114d892916113fe565b565b90916114e69083611397565b916114f18383611369565b6115036114fd8261101f565b92610c47565b905f925b848410611515575050505050565b600160208261152f61152884958761102e565b90886114cd565b01930193019291611507565b9061154692916114da565b565b5f1b90565b906115595f1991611548565b9181191691161790565b9061157861157361157f926105e5565b6110c7565b825461154d565b9055565b9161159b9160056115955f8690610601565b0161153b565b6115b24260066115ac5f8590610601565b01611563565b42906115f36115e17f01671f396a8fbe50f9b0f459e32fc0abeba32a54e644feb8cfba8ce4d3d061b9926105e5565b926115ea6100d2565b91829182610e94565b0390a2565b906116039291610f48565b565b9061165d92915f816116367f0000000000000000000000000000000000000000000000000000000000000000610b28565b611652632de5aaf76116466100d2565b98899485938493610ccb565b835260048301610e94565b03915afa9384156116c45761168360406116a09661169b935f916116a2575b5001610eb9565b61169561168f33610d68565b91610d68565b14610f1f565b611711565b565b6116be91503d805f833e6116b6818361070b565b810190610e5f565b5f61167c565b610ea9565b90825f939282370152565b91906116ee816116e7816116f39561012c565b80956116c9565b610140565b0190565b909161170e9260208301925f8185039101526116d4565b90565b61172a82849060016117245f8690610601565b016114cd565b61174142600661173b5f8590610601565b01611563565b909161176d7f574711df185befcbbbdebb797aa57d7f3d8b43497f6ad174a29d2c331dfb02b2926105e5565b926117826117796100d2565b928392836116f7565b0390a2565b906117929291611605565b565b5f6117ab6117b1926117a4610bc3565b5082610601565b01610bc8565b90565b9b9a999897969594939291905f8d6118166117ee7f0000000000000000000000000000000000000000000000000000000000000000610b28565b91611807632de5aaf76117ff6100d2565b608052610ccb565b60805152600460805101610e94565b9060805191608051900390608051905afa9c8d1561189b576118659d5f90611867575b61184860406118609201610eb9565b61185a61185433610d68565b91610d68565b14610f1f565b611bb7565b565b5061186061184860406118923d805f6080513e6118868160805161070b565b60805101608051610e5f565b92505050611839565b610ea9565b6118aa60e0610bfe565b90565b909291926118c26118bd82610cec565b610bfe565b938185526020850190828401116118de576118dc926116c9565b565b610ce8565b6118ee9136916118ad565b90565b52565b9080601f830112156119125781602061190f933591016118ad565b90565b6102dc565b92919061192b61192682610c13565b610bfe565b93818552602080860192028101918383116119825781905b838210611951575050505050565b813567ffffffffffffffff811161197d5760209161197287849387016118f4565b815201910190611943565b6102dc565b6102e4565b611992913691611917565b90565b52565b906119a2906100e4565b9052565b5190565b906119b481610128565b9067ffffffffffffffff8211611a74576119d8826119d2855461062b565b8561139f565b602090601f8311600114611a0c579180916119fb935f92611a00575b505061113c565b90555b565b90915001515f806119f4565b601f19831691611a1b85610655565b925f5b818110611a5c57509160029391856001969410611a42575b505050020190556119fe565b611a52910151601f841690611127565b90555f8080611a36565b91936020600181928787015181550195019201611a1e565b6106f7565b90611a83916119aa565b565b5190565b611aae611aa8611a98846101c8565b93611aa38585611369565b6101d5565b91610c47565b5f915b838310611abe5750505050565b6001602082611ad6611ad084956119a6565b86611a79565b01920192019190611ab1565b90611aec91611a89565b565b611af890516100e4565b90565b90611ba360c06006611ba994611b1e5f8201611b185f88016119a6565b90611a79565b611b3760018201611b31602088016119a6565b90611a79565b611b5060028201611b4a604088016119a6565b90611a79565b611b6960038201611b63606088016119a6565b90611a79565b611b8260048201611b7c608088016119a6565b90611a79565b611b9b60058201611b9560a08801611a85565b90611ae2565b019201611aee565b90611563565b565b90611bb591611afb565b565b9b9893909a95929a99969199979497999a90979291949396959897429a611bdc6118a0565b9c611be6916118e3565b5f8d0190611bf3916118f1565b611bfc916118e3565b60208b0190611c0a916118f1565b611c13916118e3565b6040890190611c21916118f1565b611c2a916118e3565b6060870190611c38916118f1565b611c41916118e3565b6080850190611c4f916118f1565b611c5891611987565b60a0830190611c6691611995565b60c0820190611c7491611998565b5f82611c7f91610601565b90611c8991611bab565b42907f01671f396a8fbe50f9b0f459e32fc0abeba32a54e644feb8cfba8ce4d3d061b990611cb6906105e5565b91611cbf6100d2565b611cca819282610e94565b0390a2565b90611ce49c9b9a9998979695949392916117b4565b565b90611d429695949392915f81611d1b7f0000000000000000000000000000000000000000000000000000000000000000610b28565b611d37632de5aaf7611d2b6100d2565b9c8d9485938493610ccb565b835260048301610e94565b03915afa978815611da957611d686040611d859a611d80935f91611d87575b5001610eb9565b611d7a611d7433610d68565b91610d68565b14610f1f565b611dae565b565b611da391503d805f833e611d9b818361070b565b810190610e5f565b5f611d61565b610ea9565b95939092611dd1611de493611df797956002611dcb5f8c90610601565b016114cd565b6003611dde5f8990610601565b016114cd565b6004611df15f8690610601565b016114cd565b611e0e426006611e085f8590610601565b01611563565b611e387fd477f7e3831f9775cc88977a1d40d3a1ca3b6aeb32558fe078de53f6e9c33200916105e5565b90611e416100d2565b80611e4b8161036d565b0390a2565b90611e5f969594939291611ce6565b565b611e6b60e0610bfe565b90565b606090565b606090565b5f90565b611e84611e61565b90602080808080808088611e96611e6e565b815201611ea1611e6e565b815201611eac611e6e565b815201611eb7611e6e565b815201611ec2611e6e565b815201611ecd611e73565b815201611ed8611e78565b81525050565b611ee6611e7c565b90565b90611f98611f8f6006611efa611e61565b94611f11611f095f8301610734565b5f88016118f1565b611f29611f2060018301610734565b602088016118f1565b611f41611f3860028301610734565b604088016118f1565b611f59611f5060038301610734565b606088016118f1565b611f71611f6860048301610734565b608088016118f1565b611f89611f8060058301610c50565b60a08801611995565b01610772565b60c08401611998565b565b611fa390611ee9565b90565b611fbc611fc191611fb5611ede565b505f610601565b611f9a565b90565b9061201c92915f81611ff57f0000000000000000000000000000000000000000000000000000000000000000610b28565b612011632de5aaf76120056100d2565b98899485938493610ccb565b835260048301610e94565b03915afa93841561208357612042604061205f9661205a935f91612061575b5001610eb9565b61205461204e33610d68565b91610d68565b14610f1f565b612088565b565b61207d91503d805f833e612075818361070b565b810190610e5f565b5f61203b565b610ea9565b6120a08284905f61209a818690610601565b016114cd565b6120b74260066120b15f8590610601565b01611563565b90916120e37f4125a3f7b6a26be6d9d563489005ca79d7d2262a7142a0e02a7321ae0a3dc9e4926105e5565b926120f86120ef6100d2565b928392836116f7565b0390a2565b906121089291611fc4565b56fea26469706673582212207d920dd92c32e63255b5c215617cf823b74327b43745daa7fccc9c4b7ebc52a964736f6c63430008210033","linkReferences":{}},"methodIdentifiers":{"core()":"f2f4eb26","getAvatar(uint256)":"1328ec9b","getBio(uint256)":"b9200ff5","getProfile(uint256)":"f08f4f64","getTags(uint256)":"29d29cb3","profiles(uint256)":"c36fe3d6","setAvatar(uint256,string)":"87beeb2b","setBio(uint256,string)":"f948dbf6","setLinks(uint256,string,string,string)":"deb711de","setProfile(uint256,string,string,string,string,string,string[])":"c2932529","setTags(uint256,string[])":"7a6e9514"},"id":22}