{
  "_format": "hh-sol-artifact-1",
  "contractName": "AgentRegistry",
  "sourceName": "contracts/AgentRegistry.sol",
  "abi": [
    {
      "anonymous": false,
      "inputs": [
        {
          "indexed": true,
          "internalType": "uint256",
          "name": "id",
          "type": "uint256"
        },
        {
          "indexed": false,
          "internalType": "string",
          "name": "name",
          "type": "string"
        },
        {
          "indexed": false,
          "internalType": "string",
          "name": "creator",
          "type": "string"
        },
        {
          "indexed": false,
          "internalType": "uint256",
          "name": "bornAt",
          "type": "uint256"
        },
        {
          "indexed": false,
          "internalType": "address",
          "name": "mintedBy",
          "type": "address"
        }
      ],
      "name": "AgentBorn",
      "type": "event"
    },
    {
      "inputs": [
        {
          "internalType": "uint256",
          "name": "",
          "type": "uint256"
        }
      ],
      "name": "agents",
      "outputs": [
        {
          "internalType": "uint256",
          "name": "id",
          "type": "uint256"
        },
        {
          "internalType": "string",
          "name": "name",
          "type": "string"
        },
        {
          "internalType": "string",
          "name": "creator",
          "type": "string"
        },
        {
          "internalType": "uint256",
          "name": "bornAt",
          "type": "uint256"
        },
        {
          "internalType": "address",
          "name": "mintedBy",
          "type": "address"
        }
      ],
      "stateMutability": "view",
      "type": "function"
    },
    {
      "inputs": [
        {
          "internalType": "uint256",
          "name": "id",
          "type": "uint256"
        }
      ],
      "name": "getAgent",
      "outputs": [
        {
          "components": [
            {
              "internalType": "uint256",
              "name": "id",
              "type": "uint256"
            },
            {
              "internalType": "string",
              "name": "name",
              "type": "string"
            },
            {
              "internalType": "string",
              "name": "creator",
              "type": "string"
            },
            {
              "internalType": "uint256",
              "name": "bornAt",
              "type": "uint256"
            },
            {
              "internalType": "address",
              "name": "mintedBy",
              "type": "address"
            }
          ],
          "internalType": "struct AgentRegistry.Agent",
          "name": "",
          "type": "tuple"
        }
      ],
      "stateMutability": "view",
      "type": "function"
    },
    {
      "inputs": [
        {
          "internalType": "string",
          "name": "name",
          "type": "string"
        },
        {
          "internalType": "string",
          "name": "creator",
          "type": "string"
        }
      ],
      "name": "mint",
      "outputs": [
        {
          "internalType": "uint256",
          "name": "",
          "type": "uint256"
        }
      ],
      "stateMutability": "nonpayable",
      "type": "function"
    },
    {
      "inputs": [
        {
          "internalType": "bytes32",
          "name": "",
          "type": "bytes32"
        }
      ],
      "name": "nameTaken",
      "outputs": [
        {
          "internalType": "bool",
          "name": "",
          "type": "bool"
        }
      ],
      "stateMutability": "view",
      "type": "function"
    },
    {
      "inputs": [],
      "name": "nextAgentId",
      "outputs": [
        {
          "internalType": "uint256",
          "name": "",
          "type": "uint256"
        }
      ],
      "stateMutability": "view",
      "type": "function"
    },
    {
      "inputs": [],
      "name": "totalAgents",
      "outputs": [
        {
          "internalType": "uint256",
          "name": "",
          "type": "uint256"
        }
      ],
      "stateMutability": "view",
      "type": "function"
    }
  ],
  "bytecode": "0x608060405234801561001057600080fd5b50611175806100206000396000f3fe608060405234801561001057600080fd5b50600436106100625760003560e01c80632de5aaf71461006757806330efc49814610097578063513856c8146100b55780636e935422146100e95780638aa0fdad14610119578063c505371214610149575b600080fd5b610081600480360381019061007c91906107f8565b610167565b60405161008e9190610982565b60405180910390f35b61009f610366565b6040516100ac91906109b3565b60405180910390f35b6100cf60048036038101906100ca91906107f8565b61036c565b6040516100e0959493929190610a27565b60405180910390f35b61010360048036038101906100fe9190610abe565b6104d2565b6040516101109190610b06565b60405180910390f35b610133600480360381019061012e9190610b86565b6104f2565b60405161014091906109b3565b60405180910390f35b61015161076a565b60405161015e91906109b3565b60405180910390f35b61016f610773565b60005482106101b3576040517f08c379a00000000000000000000000000000000000000000000000000000000081526004016101aa90610c53565b60405180910390fd5b600160008381526020019081526020016000206040518060a0016040529081600082015481526020016001820180546101eb90610ca2565b80601f016020809104026020016040519081016040528092919081815260200182805461021790610ca2565b80156102645780601f1061023957610100808354040283529160200191610264565b820191906000526020600020905b81548152906001019060200180831161024757829003601f168201915b5050505050815260200160028201805461027d90610ca2565b80601f01602080910402602001604051908101604052809291908181526020018280546102a990610ca2565b80156102f65780601f106102cb576101008083540402835291602001916102f6565b820191906000526020600020905b8154815290600101906020018083116102d957829003601f168201915b50505050508152602001600382015481526020016004820160009054906101000a900473ffffffffffffffffffffffffffffffffffffffff1673ffffffffffffffffffffffffffffffffffffffff1673ffffffffffffffffffffffffffffffffffffffff16815250509050919050565b60005481565b600160205280600052604060002060009150905080600001549080600101805461039590610ca2565b80601f01602080910402602001604051908101604052809291908181526020018280546103c190610ca2565b801561040e5780601f106103e35761010080835404028352916020019161040e565b820191906000526020600020905b8154815290600101906020018083116103f157829003601f168201915b50505050509080600201805461042390610ca2565b80601f016020809104026020016040519081016040528092919081815260200182805461044f90610ca2565b801561049c5780601f106104715761010080835404028352916020019161049c565b820191906000526020600020905b81548152906001019060200180831161047f57829003601f168201915b5050505050908060030154908060040160009054906101000a900473ffffffffffffffffffffffffffffffffffffffff16905085565b60026020528060005260406000206000915054906101000a900460ff1681565b6000808585604051610505929190610d12565b604051809103902090506002600082815260200190815260200160002060009054906101000a900460ff1615610570576040517f08c379a000000000000000000000000000000000000000000000000000000000815260040161056790610d77565b60405180910390fd5b6000805490506040518060a0016040528082815260200188888080601f016020809104026020016040519081016040528093929190818152602001838380828437600081840152601f19601f82011690508083019250505050505050815260200186868080601f016020809104026020016040519081016040528093929190818152602001838380828437600081840152601f19601f8201169050808301925050505050505081526020014281526020013373ffffffffffffffffffffffffffffffffffffffff168152506001600083815260200190815260200160002060008201518160000155602082015181600101908161066d9190610f72565b5060408201518160020190816106839190610f72565b506060820151816003015560808201518160040160006101000a81548173ffffffffffffffffffffffffffffffffffffffff021916908373ffffffffffffffffffffffffffffffffffffffff16021790555090505060016002600084815260200190815260200160002060006101000a81548160ff02191690831515021790555060008081548092919061071690611073565b9190505550807f13ae329a99b6333eed51b463bf26b23c224ed13de6959bd21a8021d44937ba57888888884233604051610755969594939291906110e8565b60405180910390a28092505050949350505050565b60008054905090565b6040518060a0016040528060008152602001606081526020016060815260200160008152602001600073ffffffffffffffffffffffffffffffffffffffff1681525090565b600080fd5b600080fd5b6000819050919050565b6107d5816107c2565b81146107e057600080fd5b50565b6000813590506107f2816107cc565b92915050565b60006020828403121561080e5761080d6107b8565b5b600061081c848285016107e3565b91505092915050565b61082e816107c2565b82525050565b600081519050919050565b600082825260208201905092915050565b60005b8381101561086e578082015181840152602081019050610853565b60008484015250505050565b6000601f19601f8301169050919050565b600061089682610834565b6108a0818561083f565b93506108b0818560208601610850565b6108b98161087a565b840191505092915050565b600073ffffffffffffffffffffffffffffffffffffffff82169050919050565b60006108ef826108c4565b9050919050565b6108ff816108e4565b82525050565b600060a08301600083015161091d6000860182610825565b5060208301518482036020860152610935828261088b565b9150506040830151848203604086015261094f828261088b565b91505060608301516109646060860182610825565b50608083015161097760808601826108f6565b508091505092915050565b6000602082019050818103600083015261099c8184610905565b905092915050565b6109ad816107c2565b82525050565b60006020820190506109c860008301846109a4565b92915050565b600082825260208201905092915050565b60006109ea82610834565b6109f481856109ce565b9350610a04818560208601610850565b610a0d8161087a565b840191505092915050565b610a21816108e4565b82525050565b600060a082019050610a3c60008301886109a4565b8181036020830152610a4e81876109df565b90508181036040830152610a6281866109df565b9050610a7160608301856109a4565b610a7e6080830184610a18565b9695505050505050565b6000819050919050565b610a9b81610a88565b8114610aa657600080fd5b50565b600081359050610ab881610a92565b92915050565b600060208284031215610ad457610ad36107b8565b5b6000610ae284828501610aa9565b91505092915050565b60008115159050919050565b610b0081610aeb565b82525050565b6000602082019050610b1b6000830184610af7565b92915050565b600080fd5b600080fd5b600080fd5b60008083601f840112610b4657610b45610b21565b5b8235905067ffffffffffffffff811115610b6357610b62610b26565b5b602083019150836001820283011115610b7f57610b7e610b2b565b5b9250929050565b60008060008060408587031215610ba057610b9f6107b8565b5b600085013567ffffffffffffffff811115610bbe57610bbd6107bd565b5b610bca87828801610b30565b9450945050602085013567ffffffffffffffff811115610bed57610bec6107bd565b5b610bf987828801610b30565b925092505092959194509250565b7f4167656e7420646f6573206e6f74206578697374000000000000000000000000600082015250565b6000610c3d6014836109ce565b9150610c4882610c07565b602082019050919050565b60006020820190508181036000830152610c6c81610c30565b9050919050565b7f4e487b7100000000000000000000000000000000000000000000000000000000600052602260045260246000fd5b60006002820490506001821680610cba57607f821691505b602082108103610ccd57610ccc610c73565b5b50919050565b600081905092915050565b82818337600083830152505050565b6000610cf98385610cd3565b9350610d06838584610cde565b82840190509392505050565b6000610d1f828486610ced565b91508190509392505050565b7f4e616d6520616c72656164792074616b656e0000000000000000000000000000600082015250565b6000610d616012836109ce565b9150610d6c82610d2b565b602082019050919050565b60006020820190508181036000830152610d9081610d54565b9050919050565b7f4e487b7100000000000000000000000000000000000000000000000000000000600052604160045260246000fd5b60008190508160005260206000209050919050565b60006020601f8301049050919050565b600082821b905092915050565b600060088302610e287fffffffffffffffffffffffffffffffffffffffffffffffffffffffffffffffff82610deb565b610e328683610deb565b95508019841693508086168417925050509392505050565b6000819050919050565b6000610e6f610e6a610e65846107c2565b610e4a565b6107c2565b9050919050565b6000819050919050565b610e8983610e54565b610e9d610e9582610e76565b848454610df8565b825550505050565b600090565b610eb2610ea5565b610ebd818484610e80565b505050565b5b81811015610ee157610ed6600082610eaa565b600181019050610ec3565b5050565b601f821115610f2657610ef781610dc6565b610f0084610ddb565b81016020851015610f0f578190505b610f23610f1b85610ddb565b830182610ec2565b50505b505050565b600082821c905092915050565b6000610f4960001984600802610f2b565b1980831691505092915050565b6000610f628383610f38565b9150826002028217905092915050565b610f7b82610834565b67ffffffffffffffff811115610f9457610f93610d97565b5b610f9e8254610ca2565b610fa9828285610ee5565b600060209050601f831160018114610fdc5760008415610fca578287015190505b610fd48582610f56565b86555061103c565b601f198416610fea86610dc6565b60005b8281101561101257848901518255600182019150602085019450602081019050610fed565b8683101561102f578489015161102b601f891682610f38565b8355505b6001600288020188555050505b505050505050565b7f4e487b7100000000000000000000000000000000000000000000000000000000600052601160045260246000fd5b600061107e826107c2565b91507fffffffffffffffffffffffffffffffffffffffffffffffffffffffffffffffff82036110b0576110af611044565b5b600182019050919050565b60006110c783856109ce565b93506110d4838584610cde565b6110dd8361087a565b840190509392505050565b6000608082019050818103600083015261110381888a6110bb565b905081810360208301526111188186886110bb565b905061112760408301856109a4565b6111346060830184610a18565b97965050505050505056fea264697066735822122086222ad3ef41cc3b7ae5707f01e703aad342ca76f5c32c13d184ef1f4a6f084464736f6c63430008140033",
  "linkReferences": {},
  "deployedLinkReferences": {}
}