{
  "_format": "hh-sol-artifact-1",
  "contractName": "AgentRegistry",
  "sourceName": "contracts/AgentRegistry.sol",
  "abi": [
    {
      "anonymous": false,
      "inputs": [
        {
          "indexed": true,
          "internalType": "uint256",
          "name": "id",
          "type": "uint256"
        },
        {
          "indexed": false,
          "internalType": "string",
          "name": "name",
          "type": "string"
        },
        {
          "indexed": false,
          "internalType": "string",
          "name": "creator",
          "type": "string"
        },
        {
          "indexed": false,
          "internalType": "uint256",
          "name": "bornAt",
          "type": "uint256"
        },
        {
          "indexed": false,
          "internalType": "address",
          "name": "mintedBy",
          "type": "address"
        }
      ],
      "name": "AgentBorn",
      "type": "event"
    },
    {
      "inputs": [
        {
          "internalType": "uint256",
          "name": "",
          "type": "uint256"
        }
      ],
      "name": "agents",
      "outputs": [
        {
          "internalType": "uint256",
          "name": "id",
          "type": "uint256"
        },
        {
          "internalType": "string",
          "name": "name",
          "type": "string"
        },
        {
          "internalType": "string",
          "name": "creator",
          "type": "string"
        },
        {
          "internalType": "uint256",
          "name": "bornAt",
          "type": "uint256"
        },
        {
          "internalType": "address",
          "name": "mintedBy",
          "type": "address"
        }
      ],
      "stateMutability": "view",
      "type": "function"
    },
    {
      "inputs": [
        {
          "internalType": "uint256",
          "name": "id",
          "type": "uint256"
        }
      ],
      "name": "getAgent",
      "outputs": [
        {
          "components": [
            {
              "internalType": "uint256",
              "name": "id",
              "type": "uint256"
            },
            {
              "internalType": "string",
              "name": "name",
              "type": "string"
            },
            {
              "internalType": "string",
              "name": "creator",
              "type": "string"
            },
            {
              "internalType": "uint256",
              "name": "bornAt",
              "type": "uint256"
            },
            {
              "internalType": "address",
              "name": "mintedBy",
              "type": "address"
            }
          ],
          "internalType": "struct AgentRegistry.Agent",
          "name": "",
          "type": "tuple"
        }
      ],
      "stateMutability": "view",
      "type": "function"
    },
    {
      "inputs": [
        {
          "internalType": "string",
          "name": "name",
          "type": "string"
        },
        {
          "internalType": "string",
          "name": "creator",
          "type": "string"
        }
      ],
      "name": "mint",
      "outputs": [
        {
          "internalType": "uint256",
          "name": "",
          "type": "uint256"
        }
      ],
      "stateMutability": "nonpayable",
      "type": "function"
    },
    {
      "inputs": [
        {
          "internalType": "bytes32",
          "name": "",
          "type": "bytes32"
        }
      ],
      "name": "nameTaken",
      "outputs": [
        {
          "internalType": "bool",
          "name": "",
          "type": "bool"
        }
      ],
      "stateMutability": "view",
      "type": "function"
    },
    {
      "inputs": [],
      "name": "nextAgentId",
      "outputs": [
        {
          "internalType": "uint256",
          "name": "",
          "type": "uint256"
        }
      ],
      "stateMutability": "view",
      "type": "function"
    },
    {
      "inputs": [],
      "name": "totalAgents",
      "outputs": [
        {
          "internalType": "uint256",
          "name": "",
          "type": "uint256"
        }
      ],
      "stateMutability": "view",
      "type": "function"
    }
  ],
  "bytecode": "0x60808060405234610016576108e1908161001c8239f35b600080fdfe608080604052600436101561001357600080fd5b60003560e01c9081632de5aaf7146105845750806330efc49814610061578063513856c8146104f85780636e935422146104c75780638aa0fdad146100845763c50537121461006157600080fd5b3461007f57600036600319011261007f576020600054604051908152f35b600080fd5b3461007f57604036600319011261007f5760043567ffffffffffffffff811161007f576100b5903690600401610815565b9060243567ffffffffffffffff811161007f576100d6903690600401610815565b6100e1368585610843565b602081519101209283600052600260205260ff6040600020541661048d576000549360405161010f81610731565b85815261011d368885610843565b6020820190815261012f368688610843565b6040830152426060830152336080830152866000526001602052604060002090825182555180519067ffffffffffffffff82116103a757819061017560018501546106f7565b601f811161043a575b50602090601f83116001146103c8576000926103bd575b50508160011b916000199060031b1c19161760018201555b604082015180519067ffffffffffffffff82116103a7576101d160028401546106f7565b601f8111610360575b50602090601f83116001146102ef576004939291600091836102e4575b50508160011b916000199060031b1c19161760028201555b606083015160038201550190608060018060a01b03910151166bffffffffffffffffffffffff60a01b82541617905560005260026020526040600020600160ff198254161790556000549460001986146102ce576102b785947f13ae329a99b6333eed51b463bf26b23c224ed13de6959bd21a8021d44937ba57946001602099016000556102aa60405195869560808752608087019161088a565b918483038a86015261088a565b4260408301523360608301520390a2604051908152f35b634e487b7160e01b600052601160045260246000fd5b015190508b806101f7565b90601f198316916002850160005260206000209260005b818110610348575091600193918560049796941061032f575b505050811b01600282015561020f565b015160001960f88460031b161c191690558b808061031f565b92936020600181928786015181550195019301610306565b600284016000526020600020601f840160051c8101602085106103a0575b601f830160051c820181106103945750506101da565b6000815560010161037e565b508061037e565b634e487b7160e01b600052604160045260246000fd5b015190508a80610195565b9250600184016000526020600020906000935b601f198416851061041f576001945083601f19811610610406575b505050811b0160018201556101ad565b015160001960f88460031b161c191690558a80806103f6565b818101518355602094850194600190930192909101906103db565b909150600184016000526020600020601f840160051c810160208510610486575b90849392915b601f830160051c8201811061047757505061017e565b60008155859450600101610461565b508061045b565b60405162461bcd60e51b81526020600482015260126024820152712730b6b29030b63932b0b23c903a30b5b2b760711b6044820152606490fd5b3461007f57602036600319011261007f576004356000526002602052602060ff604060002054166040519015158152f35b3461007f57602036600319011261007f576004356000526001602052604060002080546105276001830161076f565b916105346002820161076f565b610575600383015492600460018060a01b039101541691610567604051968796875260a0602088015260a08701906106b7565b9085820360408701526106b7565b91606084015260808301520390f35b3461007f576020908160031936011261007f5760006080600435926105a881610731565b82815260608582015260606040820152826060820152015260005481101561067b57600052600181526040600020604051906105e382610731565b8054825260046105f56001830161076f565b84840190815261066961060a6002850161076f565b604086019081526106566003860154956060880196875260018060a01b039586910154169360808801948552604051988998818a5251908901525160a0604089015260c08801906106b7565b9051868203601f190160608801526106b7565b92516080850152511660a08301520390f35b60405162461bcd60e51b81526004810183905260146024820152731059d95b9d08191bd95cc81b9bdd08195e1a5cdd60621b6044820152606490fd5b919082519283825260005b8481106106e3575050826000602080949584010152601f8019910116010190565b6020818301810151848301820152016106c2565b90600182811c92168015610727575b602083101461071157565b634e487b7160e01b600052602260045260246000fd5b91607f1691610706565b60a0810190811067ffffffffffffffff8211176103a757604052565b90601f8019910116810190811067ffffffffffffffff8211176103a757604052565b9060405191826000825492610783846106f7565b9081845260019485811690816000146107f257506001146107af575b50506107ad9250038361074d565b565b9093915060005260209081600020936000915b8183106107da5750506107ad9350820101388061079f565b855488840185015294850194879450918301916107c2565b9150506107ad94506020925060ff191682840152151560051b820101388061079f565b9181601f8401121561007f5782359167ffffffffffffffff831161007f576020838186019501011161007f57565b92919267ffffffffffffffff82116103a7576040519161086d601f8201601f19166020018461074d565b82948184528183011161007f578281602093846000960137010152565b908060209392818452848401376000828201840152601f01601f191601019056fea26469706673582212208f0811444a0dbfb2e4214dd58c05f391b432ce50b6b4c309a595bd15c1a55ee764736f6c63430008140033",
  "linkReferences": {},
  "deployedLinkReferences": {}
}